{"contracts/Exchange.sol":{"Exchange":{"abi":[{"inputs":[{"internalType":"address","name":"token","type":"address"}],"stateMutability":"nonpayable","type":"constructor"},{"inputs":[{"internalType":"address","name":"spender","type":"address"},{"internalType":"uint256","name":"allowance","type":"uint256"},{"internalType":"uint256","name":"needed","type":"uint256"}],"name":"ERC20InsufficientAllowance","type":"error"},{"inputs":[{"internalType":"address","name":"sender","type":"address"},{"internalType":"uint256","name":"balance","type":"uint256"},{"internalType":"uint256","name":"needed","type":"uint256"}],"name":"ERC20InsufficientBalance","type":"error"},{"inputs":[{"internalType":"address","name":"approver","type":"address"}],"name":"ERC20InvalidApprover","type":"error"},{"inputs":[{"internalType":"address","name":"receiver","type":"address"}],"name":"ERC20InvalidReceiver","type":"error"},{"inputs":[{"internalType":"address","name":"sender","type":"address"}],"name":"ERC20InvalidSender","type":"error"},{"inputs":[{"internalType":"address","name":"spender","type":"address"}],"name":"ERC20InvalidSpender","type":"error"},{"anonymous":false,"inputs":[{"indexed":true,"internalType":"address","name":"owner","type":"address"},{"indexed":true,"internalType":"address","name":"spender","type":"address"},{"indexed":false,"internalType":"uint256","name":"value","type":"uint256"}],"name":"Approval","type":"event"},{"anonymous":false,"inputs":[{"indexed":true,"internalType":"address","name":"from","type":"address"},{"indexed":true,"internalType":"address","name":"to","type":"address"},{"indexed":false,"internalType":"uint256","name":"value","type":"uint256"}],"name":"Transfer","type":"event"},{"inputs":[{"internalType":"uint256","name":"amountOfToken","type":"uint256"}],"name":"addLiquidity","outputs":[{"internalType":"uint256","name":"","type":"uint256"}],"stateMutability":"payable","type":"function"},{"inputs":[{"internalType":"address","name":"owner","type":"address"},{"internalType":"address","name":"spender","type":"address"}],"name":"allowance","outputs":[{"internalType":"uint256","name":"","type":"uint256"}],"stateMutability":"view","type":"function"},{"inputs":[{"internalType":"address","name":"spender","type":"address"},{"internalType":"uint256","name":"value","type":"uint256"}],"name":"approve","outputs":[{"internalType":"bool","name":"","type":"bool"}],"stateMutability":"nonpayable","type":"function"},{"inputs":[{"internalType":"address","name":"account","type":"address"}],"name":"balanceOf","outputs":[{"internalType":"uint256","name":"","type":"uint256"}],"stateMutability":"view","type":"function"},{"inputs":[],"name":"decimals","outputs":[{"internalType":"uint8","name":"","type":"uint8"}],"stateMutability":"view","type":"function"},{"inputs":[{"internalType":"uint256","name":"inputAmount","type":"uint256"},{"internalType":"uint256","name":"inputReserve","type":"uint256"},{"internalType":"uint256","name":"outputReserve","type":"uint256"}],"name":"getOutputAmountFromSwap","outputs":[{"internalType":"uint256","name":"","type":"uint256"}],"stateMutability":"pure","type":"function"},{"inputs":[],"name":"getReserve","outputs":[{"internalType":"uint256","name":"","type":"uint256"}],"stateMutability":"view","type":"function"},{"inputs":[],"name":"name","outputs":[{"internalType":"string","name":"","type":"string"}],"stateMutability":"view","type":"function"},{"inputs":[{"internalType":"uint256","name":"minTokensToReceive","type":"uint256"}],"name":"pasToTokenSwap","outputs":[],"stateMutability":"payable","type":"function"},{"inputs":[{"internalType":"uint256","name":"amountOfLPTokens","type":"uint256"}],"name":"removeLiquidity","outputs":[{"internalType":"uint256","name":"","type":"uint256"},{"internalType":"uint256","name":"","type":"uint256"}],"stateMutability":"nonpayable","type":"function"},{"inputs":[],"name":"symbol","outputs":[{"internalType":"string","name":"","type":"string"}],"stateMutability":"view","type":"function"},{"inputs":[],"name":"tokenAddress","outputs":[{"internalType":"address","name":"","type":"address"}],"stateMutability":"view","type":"function"},{"inputs":[{"internalType":"uint256","name":"tokensToSwap","type":"uint256"},{"internalType":"uint256","name":"minPasToReceive","type":"uint256"}],"name":"tokenToPasSwap","outputs":[],"stateMutability":"nonpayable","type":"function"},{"inputs":[],"name":"totalSupply","outputs":[{"internalType":"uint256","name":"","type":"uint256"}],"stateMutability":"view","type":"function"},{"inputs":[{"internalType":"address","name":"to","type":"address"},{"internalType":"uint256","name":"value","type":"uint256"}],"name":"transfer","outputs":[{"internalType":"bool","name":"","type":"bool"}],"stateMutability":"nonpayable","type":"function"},{"inputs":[{"internalType":"address","name":"from","type":"address"},{"internalType":"address","name":"to","type":"address"},{"internalType":"uint256","name":"value","type":"uint256"}],"name":"transferFrom","outputs":[{"internalType":"bool","name":"","type":"bool"}],"stateMutability":"nonpayable","type":"function"}],"evm":{"assembly":"// RO data = 0/0 bytes\n// RW data = 472/66064 bytes\n// Stack size = 32768 bytes\n\n// Instructions = 11076\n// Code size = 38835 bytes\n\n      : @0 (gas: 1)\n     0: jump @14 if a0 == a1\n      : @1 (gas: 9)\n     3: a3 = a1 << 0x20\n     6: a3 = a3 >> 0x20\n     9: a4 = a0 << 0x20\n    12: a4 = a4 >> 0x20\n    15: a4 = a4 + a2\n    18: a3 = a3 - a4\n    21: a4 = a2 << 0x1\n    24: a4 = -a4\n    26: jump @7 if a4 >=u a3\n      : @2 (gas: 1)\n    29: jump @11 if a0 >=u a1\n      : @3 (gas: 1)\n    32: jump @14 if a2 == 0\n      : @4 (gas: 3)\n    35: a2 = a2 + a0\n    38: a3 = a0\n    40: fallthrough\n      : @5 (gas: 6)\n    41: a4 = u8 [a1]\n    43: a1 = a1 + 0x1\n    46: a5 = a3 + 0x1\n    49: u8 [a3] = a4\n    51: a3 = a5\n    53: jump @5 if a5 != a2\n      : @6 (gas: 1)\n    56: jump @14\n      : @7 (gas: 1)\n    58: jump @14 if a2 == 0\n      : @8 (gas: 3)\n    61: a2 = a2 + a0\n    64: a3 = a0\n    66: fallthrough\n      : @9 (gas: 6)\n    67: a4 = u8 [a1]\n    69: a1 = a1 + 0x1\n    72: a5 = a3 + 0x1\n    75: u8 [a3] = a4\n    77: a3 = a5\n    79: jump @9 if a5 != a2\n      : @10 (gas: 1)\n    82: jump @14\n      : @11 (gas: 1)\n    84: jump @14 if a2 == 0\n      : @12 (gas: 2)\n    87: i32 a3 = a2 + 0xffffffffffffffff\n    90: fallthrough\n      : @13 (gas: 7)\n    91: a4 = a1 + a3\n    94: a4 = u8 [a4]\n    96: a2 = a2 + 0xffffffffffffffff\n    99: a5 = a0 + a3\n   102: u8 [a5] = a4\n   104: i32 a3 = a3 + 0xffffffffffffffff\n   107: jump @13 if a2 != 0\n      : @14 (gas: 1)\n   110: ret\n      : @15 (gas: 2)\n   112: a1 = i32 [0x201e0]\n   117: jump @224 if a1 == 0\n      : @16 (gas: 4)\n   121: a0 = 0x30210\n   126: i32 a0 = a0 + 0\n   128: ecalli 14 // 'set_immutable_data'\n   130: jump @224\n      : @17 (gas: 8)\n   133: sp = sp + 0xfffffffffffffff0\n   136: u64 [sp + 0x8] = ra\n   139: u64 [sp] = s0\n   141: a2 = a1\n   143: s0 = a0\n   145: a1 = 0x20\n   148: a0 = a2\n   150: ra = 2, jump @26\n      : @18 [@dyn 1] (gas: 100)\n   155: a1 = u8 [a0 + 0x1]\n   158: a2 = u8 [a0]\n   160: a3 = u8 [a0 + 0x2]\n   163: a4 = u8 [a0 + 0x3]\n   166: a1 = a1 << 0x8\n   169: a1 = a1 | a2\n   172: a3 = a3 << 0x10\n   175: a4 = a4 << 0x18\n   178: a3 = a3 | a4\n   181: a1 = a1 | a3\n   184: a2 = u8 [a0 + 0x5]\n   187: a3 = u8 [a0 + 0x4]\n   190: a4 = u8 [a0 + 0x6]\n   193: a5 = u8 [a0 + 0x7]\n   196: a2 = a2 << 0x8\n   199: a2 = a2 | a3\n   202: a4 = a4 << 0x10\n   205: a5 = a5 << 0x18\n   208: a4 = a4 | a5\n   211: a2 = a2 | a4\n   214: a2 = a2 << 0x20\n   217: t0 = a2 | a1\n   220: a2 = u8 [a0 + 0x9]\n   223: a3 = u8 [a0 + 0x8]\n   226: a4 = u8 [a0 + 0xa]\n   229: a5 = u8 [a0 + 0xb]\n   232: a2 = a2 << 0x8\n   235: a2 = a2 | a3\n   238: a4 = a4 << 0x10\n   241: a5 = a5 << 0x18\n   244: a4 = a4 | a5\n   247: a2 = a2 | a4\n   250: a3 = u8 [a0 + 0xd]\n   253: a4 = u8 [a0 + 0xc]\n   256: a5 = u8 [a0 + 0xe]\n   259: a1 = u8 [a0 + 0xf]\n   262: a3 = a3 << 0x8\n   265: a3 = a3 | a4\n   268: a5 = a5 << 0x10\n   271: a1 = a1 << 0x18\n   274: a1 = a1 | a5\n   277: a1 = a1 | a3\n   280: a1 = a1 << 0x20\n   283: t1 = a1 | a2\n   286: a1 = u8 [a0 + 0x11]\n   289: a3 = u8 [a0 + 0x10]\n   292: a4 = u8 [a0 + 0x12]\n   295: a5 = u8 [a0 + 0x13]\n   298: a1 = a1 << 0x8\n   301: a1 = a1 | a3\n   304: a4 = a4 << 0x10\n   307: a5 = a5 << 0x18\n   310: a4 = a4 | a5\n   313: a1 = a1 | a4\n   316: a3 = u8 [a0 + 0x15]\n   319: a4 = u8 [a0 + 0x14]\n   322: a5 = u8 [a0 + 0x16]\n   325: a2 = u8 [a0 + 0x17]\n   328: a3 = a3 << 0x8\n   331: a3 = a3 | a4\n   334: a5 = a5 << 0x10\n   337: a2 = a2 << 0x18\n   340: a2 = a2 | a5\n   343: a2 = a2 | a3\n   346: a2 = a2 << 0x20\n   349: a3 = a2 | a1\n   352: a1 = u8 [a0 + 0x19]\n   355: a2 = u8 [a0 + 0x18]\n   358: a4 = u8 [a0 + 0x1a]\n   361: a5 = u8 [a0 + 0x1b]\n   364: a1 = a1 << 0x8\n   367: a1 = a1 | a2\n   370: a4 = a4 << 0x10\n   373: a5 = a5 << 0x18\n   376: a4 = a4 | a5\n   379: a1 = a1 | a4\n   382: a2 = u8 [a0 + 0x1d]\n   385: a4 = u8 [a0 + 0x1c]\n   388: a5 = u8 [a0 + 0x1e]\n   391: a0 = u8 [a0 + 0x1f]\n   394: a2 = a2 << 0x8\n   397: a2 = a2 | a4\n   400: a5 = a5 << 0x10\n   403: a0 = a0 << 0x18\n   406: a0 = a0 | a5\n   409: a0 = a0 | a2\n   412: a0 = a0 << 0x20\n   415: a0 = a0 | a1\n   418: a0 = reverse a0\n   420: a1 = reverse a3\n   422: a2 = reverse t1\n   424: a3 = reverse t0\n   426: u64 [s0 + 0x18] = a3\n   429: u64 [s0 + 0x10] = a2\n   432: u64 [s0 + 0x8] = a1\n   435: u64 [s0] = a0\n   437: ra = u64 [sp + 0x8]\n   440: s0 = u64 [sp]\n   442: sp = sp + 0x10\n   445: ret\n      : @19 (gas: 12)\n   447: sp = sp + 0xffffffffffffffd8\n   450: u64 [sp + 0x20] = ra\n   453: u64 [sp + 0x18] = s0\n   456: u64 [sp + 0x10] = s1\n   459: a2 = u64 [a1]\n   461: u64 [sp + 0x8] = a2\n   464: a2 = u64 [a1 + 0x8]\n   467: u64 [sp] = a2\n   469: s0 = u64 [a1 + 0x10]\n   472: s1 = u64 [a1 + 0x18]\n   475: a1 = 0x20\n   478: ra = 4, jump @26\n      : @20 [@dyn 2] (gas: 71)\n   483: a1 = reverse s1\n   485: a2 = reverse s0\n   487: a3 = u64 [sp]\n   489: a3 = reverse a3\n   491: a4 = u64 [sp + 0x8]\n   494: a4 = reverse a4\n   496: u8 [a0 + 0x18] = a4\n   499: u8 [a0 + 0x10] = a3\n   502: u8 [a0 + 0x8] = a2\n   505: u8 [a0] = a1\n   507: a5 = a4 >> 0x38\n   510: u8 [a0 + 0x1f] = a5\n   513: a5 = a4 >> 0x30\n   516: u8 [a0 + 0x1e] = a5\n   519: a5 = a4 >> 0x28\n   522: u8 [a0 + 0x1d] = a5\n   525: a5 = a4 >> 0x20\n   528: u8 [a0 + 0x1c] = a5\n   531: a5 = a4 >> 0x18\n   534: u8 [a0 + 0x1b] = a5\n   537: a5 = a4 >> 0x10\n   540: u8 [a0 + 0x1a] = a5\n   543: a4 = a4 >> 0x8\n   546: u8 [a0 + 0x19] = a4\n   549: a4 = a3 >> 0x38\n   552: u8 [a0 + 0x17] = a4\n   555: a4 = a3 >> 0x30\n   558: u8 [a0 + 0x16] = a4\n   561: a4 = a3 >> 0x28\n   564: u8 [a0 + 0x15] = a4\n   567: a4 = a3 >> 0x20\n   570: u8 [a0 + 0x14] = a4\n   573: a4 = a3 >> 0x18\n   576: u8 [a0 + 0x13] = a4\n   579: a4 = a3 >> 0x10\n   582: u8 [a0 + 0x12] = a4\n   585: a3 = a3 >> 0x8\n   588: u8 [a0 + 0x11] = a3\n   591: a3 = a2 >> 0x38\n   594: u8 [a0 + 0xf] = a3\n   597: a3 = a2 >> 0x30\n   600: u8 [a0 + 0xe] = a3\n   603: a3 = a2 >> 0x28\n   606: u8 [a0 + 0xd] = a3\n   609: a3 = a2 >> 0x20\n   612: u8 [a0 + 0xc] = a3\n   615: a3 = a2 >> 0x18\n   618: u8 [a0 + 0xb] = a3\n   621: a3 = a2 >> 0x10\n   624: u8 [a0 + 0xa] = a3\n   627: a2 = a2 >> 0x8\n   630: u8 [a0 + 0x9] = a2\n   633: a2 = a1 >> 0x38\n   636: u8 [a0 + 0x7] = a2\n   639: a2 = a1 >> 0x30\n   642: u8 [a0 + 0x6] = a2\n   645: a2 = a1 >> 0x28\n   648: u8 [a0 + 0x5] = a2\n   651: a2 = a1 >> 0x20\n   654: u8 [a0 + 0x4] = a2\n   657: a2 = a1 >> 0x18\n   660: u8 [a0 + 0x3] = a2\n   663: a2 = a1 >> 0x10\n   666: u8 [a0 + 0x2] = a2\n   669: a1 = a1 >> 0x8\n   672: u8 [a0 + 0x1] = a1\n   675: ra = u64 [sp + 0x20]\n   678: s0 = u64 [sp + 0x18]\n   681: s1 = u64 [sp + 0x10]\n   684: sp = sp + 0x28\n   687: ret\n      : @21 (gas: 48)\n   689: sp = sp + 0xffffffffffffffa0\n   692: u64 [sp + 0x58] = ra\n   695: u64 [sp + 0x50] = s0\n   698: u64 [sp + 0x48] = s1\n   701: s0 = sp + 0x60\n   704: sp = sp & 0xffffffffffffffe0\n   707: s1 = a0\n   709: a0 = u64 [a1 + 0x18]\n   712: a2 = u64 [a1 + 0x10]\n   715: a3 = u64 [a1 + 0x8]\n   718: a1 = u64 [a1]\n   720: a0 = reverse a0\n   722: a2 = reverse a2\n   724: a3 = reverse a3\n   726: a1 = reverse a1\n   728: u64 [sp + 0x18] = a1\n   731: u64 [sp + 0x10] = a3\n   734: u64 [sp + 0x8] = a2\n   737: u64 [sp] = a0\n   739: u64 [sp + 56] = 0\n   742: u64 [sp + 48] = 0\n   745: u64 [sp + 40] = 0\n   748: u64 [sp + 32] = 0\n   751: u32 [sp + 64] = 0x20\n   755: i32 a1 = sp + 0\n   757: i32 a3 = sp + 0x20\n   760: i32 a4 = sp + 0x40\n   763: a2 = 0xffffffffffffffff\n   766: a0 = 0\n   768: ecalli 8 // 'get_storage'\n   770: a0 = u64 [sp + 0x38]\n   773: a1 = u64 [sp + 0x30]\n   776: a2 = u64 [sp + 0x28]\n   779: a3 = u64 [sp + 0x20]\n   782: a0 = reverse a0\n   784: a1 = reverse a1\n   786: a2 = reverse a2\n   788: a3 = reverse a3\n   790: u64 [s1 + 0x18] = a3\n   793: u64 [s1 + 0x10] = a2\n   796: u64 [s1 + 0x8] = a1\n   799: u64 [s1] = a0\n   801: sp = s0 + 0xffffffffffffffa0\n   804: ra = u64 [sp + 0x58]\n   807: s0 = u64 [sp + 0x50]\n   810: s1 = u64 [sp + 0x48]\n   813: sp = sp + 0x60\n   816: ret\n      : @22 (gas: 40)\n   818: sp = sp + 0xffffffffffffffa0\n   821: u64 [sp + 0x58] = ra\n   824: u64 [sp + 0x50] = s0\n   827: s0 = sp + 0x60\n   830: sp = sp & 0xffffffffffffffe0\n   833: t0 = u64 [a0]\n   835: a3 = u64 [a0 + 0x8]\n   838: a4 = u64 [a0 + 0x10]\n   841: a0 = u64 [a0 + 0x18]\n   844: t1 = u64 [a1]\n   846: a2 = u64 [a1 + 0x8]\n   849: a5 = u64 [a1 + 0x10]\n   852: a1 = u64 [a1 + 0x18]\n   855: t2 = reverse a0\n   857: a4 = reverse a4\n   859: a3 = reverse a3\n   861: a0 = reverse t0\n   863: t0 = reverse a1\n   865: a5 = reverse a5\n   867: a2 = reverse a2\n   869: a1 = reverse t1\n   871: u64 [sp + 0x18] = a0\n   874: u64 [sp + 0x10] = a3\n   877: u64 [sp + 0x8] = a4\n   880: u64 [sp] = t2\n   882: u64 [sp + 0x38] = a1\n   885: u64 [sp + 0x30] = a2\n   888: u64 [sp + 0x28] = a5\n   891: u64 [sp + 0x20] = t0\n   894: i32 a1 = sp + 0\n   896: i32 a3 = sp + 0x20\n   899: a2 = 0xffffffffffffffff\n   902: a4 = 0x20\n   905: a0 = 0\n   907: ecalli 15 // 'set_storage'\n   909: sp = s0 + 0xffffffffffffffa0\n   912: ra = u64 [sp + 0x58]\n   915: s0 = u64 [sp + 0x50]\n   918: sp = sp + 0x60\n   921: ret\n      : @23 (gas: 33)\n   923: sp = sp + 0xffffffffffffff20\n   927: u64 [sp + 0xd8] = ra\n   931: u64 [sp + 0xd0] = s0\n   935: u64 [sp + 0xc8] = s1\n   939: s0 = sp + 0xe0\n   943: sp = sp & 0xffffffffffffffe0\n   946: a5 = u64 [a4]\n   948: u64 [sp + 0x40] = a5\n   951: a5 = u64 [a4 + 0x8]\n   954: u64 [sp + 0x48] = a5\n   957: a5 = u64 [a4 + 0x10]\n   960: u64 [sp + 0x50] = a5\n   963: a4 = u64 [a4 + 0x18]\n   966: u64 [sp + 0x58] = a4\n   969: t0 = 0x6\n   972: a4 = u64 [a3]\n   974: u64 [sp + 0x18] = a4\n   977: a4 = u64 [a3 + 0x8]\n   980: u64 [sp + 0x20] = a4\n   983: a4 = u64 [a3 + 0x10]\n   986: u64 [sp + 0x28] = a4\n   989: a3 = u64 [a3 + 0x18]\n   992: u64 [sp + 0x30] = a3\n   995: s1 = u64 [a2]\n   997: a3 = u64 [a2 + 0x8]\n  1000: u64 [sp] = a3\n  1002: a3 = u64 [a2 + 0x10]\n  1005: u64 [sp + 0x8] = a3\n  1008: a2 = u64 [a2 + 0x18]\n  1011: u64 [sp + 0x10] = a2\n  1014: u64 [sp + 56] = 0x20\n  1018: ra = 0x8\n  1021: jump @26\n      : @24 [@dyn 3] (gas: 2)\n  1024: u64 [sp + 0x38] = a1\n  1027: ra = 8, jump @26\n      : @25 [@dyn 4] (gas: 46)\n  1032: a1 = reverse s1\n  1034: u64 [sp + 0x78] = a1\n  1037: a1 = u64 [sp]\n  1039: a1 = reverse a1\n  1041: u64 [sp + 0x70] = a1\n  1044: a1 = u64 [sp + 0x8]\n  1047: a1 = reverse a1\n  1049: u64 [sp + 0x68] = a1\n  1052: a1 = u64 [sp + 0x10]\n  1055: a1 = reverse a1\n  1057: u64 [sp + 0x60] = a1\n  1060: a1 = u64 [sp + 0x18]\n  1063: a1 = reverse a1\n  1065: u64 [sp + 0x98] = a1\n  1069: a1 = u64 [sp + 0x20]\n  1072: a1 = reverse a1\n  1074: u64 [sp + 0x90] = a1\n  1078: a1 = u64 [sp + 0x28]\n  1081: a1 = reverse a1\n  1083: u64 [sp + 0x88] = a1\n  1087: a1 = u64 [sp + 0x30]\n  1090: a1 = reverse a1\n  1092: u64 [sp + 0x80] = a1\n  1096: a1 = u64 [sp + 0x40]\n  1099: a1 = reverse a1\n  1101: u64 [sp + 0xb8] = a1\n  1105: a1 = u64 [sp + 0x48]\n  1108: a1 = reverse a1\n  1110: u64 [sp + 0xb0] = a1\n  1114: a1 = u64 [sp + 0x50]\n  1117: a1 = reverse a1\n  1119: u64 [sp + 0xa8] = a1\n  1123: a1 = u64 [sp + 0x58]\n  1126: a1 = reverse a1\n  1128: u64 [sp + 0xa0] = a1\n  1132: i32 a2 = a0 + 0\n  1134: a3 = i32 [sp + 0x38]\n  1137: i32 a0 = sp + 0x60\n  1140: a1 = 0x3\n  1143: ecalli 7 // 'deposit_event'\n  1145: sp = s0 + 0xffffffffffffff20\n  1149: ra = u64 [sp + 0xd8]\n  1153: s0 = u64 [sp + 0xd0]\n  1157: s1 = u64 [sp + 0xc8]\n  1161: sp = sp + 0xe0\n  1165: ret\n      : @26 (gas: 2)\n  1167: i32 a2 = a0 >> 0x10\n  1170: jump @31 if a2 != 0\n      : @27 (gas: 4)\n  1173: a1 = a1 + a0\n  1176: i32 a1 = a1 + 0x1f\n  1179: a1 = a1 & 0xffffffffffffffe0\n  1182: jump @31 if a1 >u 65536\n      : @28 (gas: 3)\n  1188: a2 = 0x201dc\n  1193: a3 = i32 [0x201dc]\n  1198: jump @30 if a3 >=u a1\n      : @29 (gas: 2)\n  1201: u32 [0x201dc] = a1\n  1206: fallthrough\n      : @30 (gas: 4)\n  1207: a1 = 0x201f0\n  1212: i32 a0 = a0 + 0\n  1214: a0 = a0 + a1\n  1217: ret\n      : @31 (gas: 1)\n  1219: trap\n      : @32 (gas: 6)\n  1220: sp = sp + 0xfffffffffffffff0\n  1223: u64 [sp + 0x8] = ra\n  1226: u64 [sp] = s0\n  1228: s0 = a0 & 0x1\n  1231: ecalli 5 // 'call_data_size'\n  1233: fallthrough\n      : @33 (gas: 2)\n  1234: u32 [0x201d8] = a0\n  1239: jump @35 if s0 == 0\n      : @34 (gas: 1)\n  1242: ra = 10, jump @36\n      : @35 [@dyn 5] (gas: 18)\n  1246: ra = 0xc\n  1249: sp = sp + 0xfffffffffffffe10\n  1253: u64 [sp + 0x1e8] = ra\n  1257: u64 [sp + 0x1e0] = s0\n  1261: u64 [sp + 0x1d8] = s1\n  1265: s0 = sp + 0x1f0\n  1269: sp = sp + 0xffffffffffffdd10\n  1273: sp = sp & 0xffffffffffffffe0\n  1276: s1 = sp\n  1278: a2 = s1 + 0x1878\n  1282: u64 [a2 + 992] = 0\n  1286: u64 [a2 + 984] = 0\n  1290: u64 [a2 + 968] = 0x80\n  1296: a0 = 0x40\n  1299: a1 = s1 + 0x1c40\n  1303: u64 [a2 + 976] = 0\n  1307: ra = 0xdc\n  1311: jump @19\n      : @36 [@dyn 6] (gas: 15)\n  1314: sp = sp + 0xfffffffffffffe10\n  1318: u64 [sp + 0x1e8] = ra\n  1322: u64 [sp + 0x1e0] = s0\n  1326: u64 [sp + 0x1d8] = s1\n  1330: s0 = sp + 0x1f0\n  1334: sp = sp + 0xfffffffffffff8d0\n  1338: sp = sp & 0xffffffffffffffe0\n  1341: s1 = sp\n  1343: u64 [s1 + 1656] = 0\n  1347: u64 [s1 + 1648] = 0\n  1351: u64 [s1 + 1632] = 0x80\n  1357: a0 = 0x40\n  1360: a1 = s1 + 0x660\n  1364: u64 [s1 + 1640] = 0\n  1368: ra = 14, jump @19\n      : @37 [@dyn 7] (gas: 7)\n  1373: u64 [s1 + 1688] = 0\n  1377: u64 [s1 + 1680] = 0\n  1381: u64 [s1 + 1672] = 0\n  1385: u64 [s1 + 1664] = 0\n  1389: i32 a0 = s1 + 0x680\n  1393: ecalli 16 // 'value_transferred'\n  1395: fallthrough\n      : @38 (gas: 9)\n  1396: a4 = s1 + 0x600\n  1400: a0 = u64 [a4 + 0x90]\n  1404: a1 = u64 [a4 + 0x98]\n  1408: a2 = u64 [a4 + 0x88]\n  1412: a3 = u64 [a4 + 0x80]\n  1416: a1 = a1 | a2\n  1419: a0 = a0 | a3\n  1422: a0 = a0 | a1\n  1425: jump @40 if a0 == 0\n      : @39 (gas: 1)\n  1428: jump @194\n      : @40 (gas: 9)\n  1431: a2 = u32 [0x201d8]\n  1436: u64 [s1 + 1592] = 0\n  1440: u64 [s1 + 1584] = 0\n  1444: u64 [s1 + 1576] = 0\n  1448: a0 = s1 + 0x640\n  1452: a1 = s1 + 0x620\n  1456: u64 [s1 + 0x138] = a2\n  1460: u64 [s1 + 0x620] = a2\n  1464: ra = 16, jump @879\n      : @41 [@dyn 8] (gas: 6)\n  1469: a4 = s1 + 0x600\n  1473: a3 = u64 [a4 + 0x58]\n  1476: a1 = u64 [a4 + 0x50]\n  1479: a2 = u64 [a4 + 0x48]\n  1482: a0 = u64 [a4 + 0x40]\n  1485: t0 = 18, jump @1239\n      : @42 [@dyn 9] (gas: 1)\n  1491: jump @44 if a1 == 0\n      : @43 (gas: 1)\n  1494: jump @193\n      : @44 (gas: 3)\n  1497: u64 [s1 + 0x130] = a0\n  1501: a1 = u64 [s1 + 0x138]\n  1505: ra = 20, jump @26\n      : @45 [@dyn 10] (gas: 5)\n  1510: i32 a0 = a0 + 0\n  1512: a1 = i32 [s1 + 0x138]\n  1516: a2 = 0\n  1518: ecalli 3 // 'call_data_copy'\n  1520: fallthrough\n      : @46 (gas: 2)\n  1521: a1 = u64 [s1 + 0x138]\n  1525: jump @48 if a1 >u 31\n      : @47 (gas: 1)\n  1529: jump @195\n      : @48 (gas: 3)\n  1532: a0 = s1 + 0x600\n  1536: a1 = u64 [s1 + 0x130]\n  1540: ra = 22, jump @17\n      : @49 [@dyn 11] (gas: 12)\n  1545: a1 = u64 [s1 + 0x610]\n  1549: a2 = u64 [s1 + 0x618]\n  1553: a0 = 0x100000000\n  1563: a0 = a0 ^ a1\n  1566: a0 = a0 | a2\n  1569: u64 [s1 + 0x80] = a1\n  1573: a1 = a1 >> 0x20\n  1576: a1 = a1 <u 0x1\n  1579: u64 [s1 + 0x68] = a2\n  1582: a1 = 0 if a2 != 0\n  1584: a1 = 0 if a0 == 0\n  1586: jump @51 if a1 != 0\n      : @50 (gas: 1)\n  1589: jump @196\n      : @51 (gas: 11)\n  1592: a0 = u64 [s1 + 0x608]\n  1596: u64 [s1 + 0x70] = a0\n  1599: a0 = u64 [s1 + 0x600]\n  1603: u64 [s1 + 0x78] = a0\n  1606: u64 [s1 + 1496] = 0\n  1610: u64 [s1 + 1488] = 0\n  1614: u64 [s1 + 1472] = 0x40\n  1619: a0 = s1 + 0x5e0\n  1623: a1 = s1 + 0x5c0\n  1627: u64 [s1 + 1480] = 0\n  1631: ra = 24, jump @879\n      : @52 [@dyn 12] (gas: 13)\n  1636: a1 = s1 + 0x500\n  1640: a2 = u64 [a1 + 0xf8]\n  1644: a3 = u64 [a1 + 0xf0]\n  1648: a4 = u64 [a1 + 0xe8]\n  1652: a0 = u64 [a1 + 0xe0]\n  1656: a5 = a4 | a2\n  1659: a1 = a0 | a3\n  1662: a1 = a1 | a5\n  1665: a1 = a1 >> 0x20\n  1668: a5 = a5 | a3\n  1671: a5 = a5 << 0x20\n  1674: a1 = a1 | a5\n  1677: jump @54 if a1 == 0\n      : @53 (gas: 1)\n  1680: jump @193\n      : @54 (gas: 11)\n  1683: u64 [s1 + 1464] = 0\n  1687: u64 [s1 + 1456] = 0\n  1691: u64 [s1 + 1448] = 0\n  1695: a5 = 0x12\n  1698: a1 = s1 + 0x5a0\n  1702: u64 [s1 + 0x5a0] = a5\n  1706: u64 [s1 + 0xc8] = a2\n  1710: u64 [s1 + 0xc0] = a3\n  1714: u64 [s1 + 0xb8] = a4\n  1718: u64 [s1 + 0xd0] = a0\n  1722: ra = 26, jump @19\n      : @55 [@dyn 13] (gas: 10)\n  1727: a3 = u64 [s1 + 0xd0]\n  1731: a0 = u64 [s1 + 0xc8]\n  1735: a1 = u64 [s1 + 0xc0]\n  1739: a0 = a0 | a1\n  1742: a1 = 0xffffffe0\n  1752: a1 = a3 <u a1\n  1755: a2 = u64 [s1 + 0xb8]\n  1759: a1 = 0 if a2 != 0\n  1761: a1 = 0 if a0 != 0\n  1763: jump @57 if a1 != 0\n      : @56 (gas: 1)\n  1766: jump @193\n      : @57 (gas: 11)\n  1769: i32 a0 = a3 + 0x20\n  1772: a2 = u64 [0x20000]\n  1777: a1 = u64 [0x20008]\n  1782: u64 [s1 + 1408] = 0\n  1786: u64 [s1 + 0x598] = a2\n  1790: u64 [s1 + 0x590] = a1\n  1794: a2 = 0x656e000000000000\n  1804: a1 = s1 + 0x580\n  1808: u64 [s1 + 0x588] = a2\n  1812: u64 [s1 + 0xf0] = a0\n  1816: ra = 28, jump @19\n      : @58 [@dyn 14] (gas: 7)\n  1821: u64 [s1 + 1368] = 0\n  1825: u64 [s1 + 1360] = 0\n  1829: u64 [s1 + 1344] = 0x40\n  1834: a0 = s1 + 0x560\n  1838: a1 = s1 + 0x540\n  1842: u64 [s1 + 1352] = 0\n  1846: ra = 30, jump @879\n      : @59 [@dyn 15] (gas: 13)\n  1851: a1 = s1 + 0x500\n  1855: a5 = u64 [a1 + 0x78]\n  1858: a2 = u64 [a1 + 0x70]\n  1861: a3 = u64 [a1 + 0x68]\n  1864: a0 = u64 [a1 + 0x60]\n  1867: a4 = a3 | a5\n  1870: a1 = a0 | a2\n  1873: a1 = a1 | a4\n  1876: a1 = a1 >> 0x20\n  1879: a4 = a4 | a2\n  1882: a4 = a4 << 0x20\n  1885: a1 = a1 | a4\n  1888: jump @61 if a1 == 0\n      : @60 (gas: 1)\n  1891: jump @193\n      : @61 (gas: 11)\n  1894: u64 [s1 + 1336] = 0\n  1898: u64 [s1 + 1328] = 0\n  1902: u64 [s1 + 1320] = 0\n  1906: a4 = 0xa\n  1909: a1 = s1 + 0x520\n  1913: u64 [s1 + 0x520] = a4\n  1917: u64 [s1 + 0x98] = a2\n  1921: u64 [s1 + 0x90] = a3\n  1925: u64 [s1 + 0xa0] = a0\n  1929: u64 [s1 + 0x88] = a5\n  1933: ra = 32, jump @19\n      : @62 [@dyn 16] (gas: 10)\n  1938: a3 = u64 [s1 + 0xa0]\n  1942: a0 = u64 [s1 + 0x98]\n  1946: a1 = u64 [s1 + 0x88]\n  1950: a0 = a0 | a1\n  1953: a1 = 0xffffffe0\n  1963: a1 = a3 <u a1\n  1966: a2 = u64 [s1 + 0x90]\n  1970: a1 = 0 if a2 != 0\n  1972: a1 = 0 if a0 != 0\n  1974: jump @64 if a1 != 0\n      : @63 (gas: 1)\n  1977: jump @193\n      : @64 (gas: 10)\n  1980: i32 a0 = a3 + 0x20\n  1983: a1 = u64 [0x20010]\n  1988: u64 [s1 + 1288] = 0\n  1992: u64 [s1 + 1280] = 0\n  1996: u64 [s1 + 0x518] = a1\n  2000: a2 = 0x454e000000000000\n  2010: a1 = s1 + 0x500\n  2014: u64 [s1 + 0x510] = a2\n  2018: u64 [s1 + 0x18] = a0\n  2021: ra = 34, jump @19\n      : @65 [@dyn 17] (gas: 3)\n  2026: a0 = s1 + 0x4e0\n  2030: a1 = u64 [s1 + 0xd0]\n  2034: ra = 36, jump @17\n      : @66 [@dyn 18] (gas: 17)\n  2039: a0 = s1 + 0x400\n  2043: a3 = u64 [a0 + 0xf8]\n  2047: a1 = u64 [a0 + 0xf0]\n  2051: a2 = u64 [a0 + 0xe8]\n  2055: a0 = a3 >u 0\n  2057: a4 = a1 >u 0\n  2059: a4 = a0 if a3 != 0\n  2062: u64 [s1 + 0xe8] = a2\n  2066: a0 = a2 >u 0\n  2068: u64 [s1 + 0x58] = a1\n  2071: u64 [s1 + 0xe0] = a3\n  2075: a1 = a1 | a3\n  2078: u64 [s1 + 0x50] = a0\n  2081: u64 [s1 + 0xa8] = a4\n  2085: u64 [s1 + 0xd8] = a1\n  2089: a0 = a4 if a1 != 0\n  2092: jump @68 if a0 == 0\n      : @67 (gas: 1)\n  2095: jump @197\n      : @68 (gas: 9)\n  2098: a0 = u64 [s1 + 0x4e0]\n  2102: u64 [s1 + 0x60] = a0\n  2105: u64 [s1 + 1720] = 0\n  2109: u64 [s1 + 1712] = 0\n  2113: u64 [s1 + 1704] = 0\n  2117: u64 [s1 + 1696] = 0x3\n  2122: a0 = s1 + 0x4c0\n  2126: a1 = s1 + 0x6a0\n  2130: ra = 38, jump @21\n      : @69 [@dyn 19] (gas: 6)\n  2135: a4 = s1 + 0x400\n  2139: a0 = u64 [a4 + 0xd0]\n  2143: a1 = u64 [a4 + 0xc8]\n  2147: a2 = u64 [a4 + 0xc0]\n  2151: a3 = u64 [a4 + 0xd8]\n  2155: t0 = 40, jump @1252\n      : @70 [@dyn 20] (gas: 12)\n  2161: t0 = a2 <u 0x1\n  2164: ra = a1 & 0x7f\n  2167: t2 = a5 & a0\n  2170: a4 = a5 & t1\n  2173: ra = a1 if a2 != 0\n  2176: a1 = ra <u 0x20\n  2179: a5 = a5 & a3\n  2182: a2 = a1\n  2184: a2 = 0 if a4 != 0\n  2186: a0 = t2 | a5\n  2189: a2 = 0 if a0 != 0\n  2191: jump @72 if t0 == a2\n      : @71 (gas: 1)\n  2194: jump @203\n      : @72 (gas: 1)\n  2197: t0 = 42, jump @1258\n      : @73 [@dyn 21] (gas: 4)\n  2203: a0 = u64 [s1 + 0x60]\n  2206: a0 = a0 <u 0x20\n  2209: u64 [s1 + 0xb0] = a0\n  2213: jump @85 if a3 == 0\n      : @74 (gas: 11)\n  2217: u64 [s1 + 0x110] = a4\n  2221: u64 [s1 + 0x118] = ra\n  2225: u64 [s1 + 0x120] = a5\n  2229: u64 [s1 + 0x130] = t2\n  2233: u64 [s1 + 1208] = 0\n  2237: u64 [s1 + 1200] = 0\n  2241: u64 [s1 + 1192] = 0\n  2245: a1 = s1 + 0x4a0\n  2249: u64 [s1 + 1184] = 0x3\n  2254: a0 = 0\n  2256: ra = 44, jump @19\n      : @75 [@dyn 22] (gas: 2)\n  2261: a1 = i32 [0x201dc]\n  2266: jump @77 if a1 >u 31\n      : @76 (gas: 2)\n  2270: u32 [0x201dc] = 0x20\n  2276: fallthrough\n      : @77 (gas: 11)\n  2277: a0 = sp + 0xffffffffffffffe0\n  2280: a2 = a0 & 0xffffffffffffffe0\n  2283: u64 [s1 + 0x128] = a2\n  2287: sp = a2\n  2289: a0 = 0x201f0\n  2294: i32 a0 = a0 + 0\n  2296: i32 a2 = a2 + 0\n  2298: a1 = 0x20\n  2301: ra = 0x2e\n  2304: ecalli 9 // 'hash_keccak_256'\n  2306: fallthrough\n      : @78 [@dyn 23] (gas: 9)\n  2307: a0 = u64 [s1 + 0x60]\n  2310: a1 = a0 + 0x1f\n  2313: a0 = a1 <u a0\n  2316: a5 = u64 [s1 + 0xe8]\n  2320: a2 = a5 + a0\n  2323: a3 = a2 <u a5\n  2326: a3 = a0 if a0 == 0\n  2329: a4 = u64 [s1 + 0x58]\n  2332: t0 = 48, jump @1247\n      : @79 [@dyn 24] (gas: 35)\n  2338: a1 = u64 [s1 + 0xb0]\n  2342: a1 = 0 if a5 != 0\n  2344: a3 = u64 [s1 + 0xd8]\n  2348: a1 = 0 if a3 != 0\n  2350: a4 = 0 if a1 != 0\n  2352: a0 = 0 if a1 != 0\n  2354: t0 = t2 + a0\n  2357: a0 = t0 <u t2\n  2360: a5 = a2 + a0\n  2363: a4 = a4 + a5\n  2366: u64 [s1 + 0x138] = a4\n  2370: a5 = a4 ^ a2\n  2373: a3 = a4 <u a2\n  2376: a3 = a0 if a5 == 0\n  2379: u64 [s1 + 0x100] = a3\n  2383: a0 = u64 [s1 + 0x118]\n  2387: ra = a0 + 0x1f\n  2390: a4 = ra <u a0\n  2393: a3 = u64 [s1 + 0x110]\n  2397: a0 = a3 + a4\n  2400: a5 = a0 <u a3\n  2403: a5 = a4 if a4 == 0\n  2406: t1 = u64 [s1 + 0x130]\n  2410: t1 = t1 + a5\n  2413: a4 = t1 << 0x3b\n  2416: a3 = a0 >> 0x5\n  2419: a3 = a3 | a4\n  2422: a0 = a0 << 0x3b\n  2425: a4 = ra >> 0x5\n  2428: a0 = a0 | a4\n  2431: a0 = a0 + t2\n  2434: u64 [s1 + 0x118] = a0\n  2438: a0 = a0 <u t2\n  2441: t2 = t0\n  2443: t0 = 50, jump @1262\n      : @80 [@dyn 25] (gas: 16)\n  2449: a0 = u64 [s1 + 0x58]\n  2452: a0 = a4 <u a0\n  2455: a3 = u64 [s1 + 0xe0]\n  2459: a0 = a0 + a3\n  2462: a3 = a4 >> 0x5\n  2465: a4 = a0 << 0x3b\n  2468: a3 = a3 | a4\n  2471: a4 = u64 [s1 + 0x128]\n  2475: t0 = u64 [a4]\n  2477: a4 = u64 [a4 + 0x8]\n  2480: a0 = a0 >> 0x5\n  2483: a3 = 0 if a1 != 0\n  2485: a0 = 0 if a1 != 0\n  2487: a1 = reverse a4\n  2489: a4 = reverse t0\n  2491: t0 = 52, jump @1274\n      : @81 [@dyn 26] (gas: 25)\n  2497: t0 = a0 + a3\n  2500: a0 = u64 [s1 + 0x130]\n  2504: a0 = t1 <u a0\n  2507: a3 = u64 [s1 + 0x120]\n  2511: a0 = a0 + a3\n  2514: a3 = t1 >> 0x5\n  2517: a5 = a0 << 0x3b\n  2520: a3 = a3 | a5\n  2523: a0 = a0 >> 0x5\n  2526: a0 = a0 + a4\n  2529: a5 = s1 + 0x100\n  2533: a4 = u64 [a5 + 0x38]\n  2536: a3 = a3 + a1\n  2539: a1 = a3 <u a1\n  2542: a0 = a0 + a1\n  2545: a2 = a2 + a3\n  2548: u64 [a5 + 0x8] = a2\n  2551: a1 = a2 <u a3\n  2554: a0 = a0 + a1\n  2557: u64 [a5] = a0\n  2559: a0 = sp + 0xffffffffffffffe0\n  2562: t1 = a0 & 0xffffffffffffffe0\n  2565: sp = t1\n  2567: u64 [s1 + 0xf8] = t1\n  2571: fallthrough\n      : @82 (gas: 20)\n  2572: a0 = u64 [s1 + 0x118]\n  2576: a0 = t2 <u a0\n  2579: a2 = u64 [s1 + 0x110]\n  2583: a1 = a4 ^ a2\n  2586: a2 = a4 <u a2\n  2589: a2 = a0 if a1 == 0\n  2592: a5 = u64 [s1 + 0x108]\n  2596: a0 = ra <u a5\n  2599: a3 = u64 [s1 + 0x100]\n  2603: a1 = t0 ^ a3\n  2606: a3 = t0 <u a3\n  2609: a3 = a0 if a1 == 0\n  2612: a0 = ra ^ a5\n  2615: a0 = a0 | a1\n  2618: a3 = a2 if a0 == 0\n  2621: u64 [t1] = t2\n  2623: u64 [t1 + 0x8] = a4\n  2626: u64 [t1 + 0x10] = ra\n  2629: u64 [t1 + 0x18] = t0\n  2632: jump @85 if a3 == 0\n      : @83 (gas: 11)\n  2635: u64 [s1 + 1752] = 0\n  2639: u64 [s1 + 1744] = 0\n  2643: u64 [s1 + 1736] = 0\n  2647: u64 [s1 + 1728] = 0\n  2651: a1 = s1 + 0x6c0\n  2655: a0 = t1\n  2657: u64 [s1 + 0x130] = t2\n  2661: u64 [s1 + 0x138] = a4\n  2665: u64 [s1 + 0x128] = t0\n  2669: u64 [s1 + 0x120] = ra\n  2673: ra = 54, jump @22\n      : @84 [@dyn 27] (gas: 15)\n  2678: t1 = u64 [s1 + 0xf8]\n  2682: t0 = u64 [s1 + 0x128]\n  2686: a4 = u64 [s1 + 0x138]\n  2690: t2 = u64 [s1 + 0x130]\n  2694: t2 = t2 + 0x1\n  2697: a0 = t2 <u 0x1\n  2700: a4 = a4 + a0\n  2703: a0 = t2 | a4\n  2706: a0 = a0 <u 0x1\n  2709: a1 = u64 [s1 + 0x120]\n  2713: a0 = a0 + a1\n  2716: a1 = a0 <u a1\n  2719: t0 = t0 + a1\n  2722: ra = a0\n  2724: jump @82\n      : @85 (gas: 26)\n  2727: a0 = u64 [s1 + 0xb0]\n  2731: a0 = a0 ^ 0x1\n  2734: a4 = u64 [s1 + 0xe8]\n  2738: a1 = u64 [s1 + 0x50]\n  2741: a0 = a1 if a4 != 0\n  2744: a1 = u64 [s1 + 0xa8]\n  2748: a2 = u64 [s1 + 0xd8]\n  2752: a0 = a1 if a2 != 0\n  2755: t1 = u64 [s1 + 0xe0]\n  2759: t0 = a4 | t1\n  2762: a1 = u64 [s1 + 0x58]\n  2765: a2 = a1 >> 0x3f\n  2768: u64 [s1 + 0x50] = a2\n  2771: t1 = t1 << 0x1\n  2774: a5 = a4 >> 0x3f\n  2777: t2 = a1 << 0x1\n  2780: a3 = u64 [s1 + 0x60]\n  2783: ra = a3 >> 0x3f\n  2786: a4 = a4 << 0x1\n  2789: a2 = a3 << 0x1\n  2792: u64 [s1 + 0x40] = a2\n  2795: u64 [s1 + 0x38] = t1\n  2798: u64 [s1 + 0x30] = ra\n  2801: u64 [s1 + 0x28] = a5\n  2804: u64 [s1 + 0x48] = t2\n  2807: jump @95 if a0 == 0\n      : @86 (gas: 11)\n  2811: u64 [s1 + 0xa8] = t0\n  2815: u64 [s1 + 0x20] = a4\n  2818: a3 = a3 & 0xffffffffffffffe0\n  2821: u64 [s1 + 0xb0] = a3\n  2825: u64 [s1 + 1144] = 0\n  2829: u64 [s1 + 1136] = 0\n  2833: u64 [s1 + 1128] = 0\n  2837: a1 = s1 + 0x460\n  2841: u64 [s1 + 1120] = 0x3\n  2846: a0 = 0\n  2848: ra = 56, jump @19\n      : @87 [@dyn 28] (gas: 7)\n  2853: a0 = sp + 0xffffffffffffffe0\n  2856: a0 = a0 & 0xffffffffffffffe0\n  2859: u64 [s1 + 0x118] = a0\n  2863: sp = a0\n  2865: a1 = 0x20\n  2868: a0 = 0\n  2870: ra = 58, jump @26\n      : @88 [@dyn 29] (gas: 35)\n  2875: a1 = sp + 0xffffffffffffffe0\n  2878: a1 = a1 & 0xffffffffffffffe0\n  2881: u64 [s1 + 0x110] = a1\n  2885: sp = a1\n  2887: i32 a0 = a0 + 0\n  2889: i32 a2 = a1 + 0\n  2891: a1 = 0x20\n  2894: ecalli 9 // 'hash_keccak_256'\n  2896: u64 [s1 + 312] = 0x20\n  2901: t0 = 0\n  2903: u64 [s1 + 304] = 0\n  2907: u64 [s1 + 296] = 0\n  2911: a4 = 0\n  2913: a5 = 0\n  2915: ra = 0\n  2917: u64 [s1 + 288] = 0\n  2921: a3 = u64 [s1 + 0x110]\n  2925: a0 = u64 [a3 + 0x18]\n  2928: a1 = u64 [a3 + 0x10]\n  2931: a2 = u64 [a3 + 0x8]\n  2934: t1 = u64 [a3]\n  2936: a0 = reverse a0\n  2938: a1 = reverse a1\n  2940: a3 = reverse a2\n  2942: t1 = reverse t1\n  2944: t2 = t1\n  2946: a2 = u64 [s1 + 0x118]\n  2950: u64 [a2 + 0x18] = t1\n  2953: u64 [s1 + 0xf0] = a3\n  2957: u64 [a2 + 0x10] = a3\n  2960: u64 [s1 + 0x110] = a1\n  2964: u64 [a2 + 0x8] = a1\n  2967: a3 = a0\n  2969: u64 [a2] = a0\n  2971: fallthrough\n      : @89 (gas: 25)\n  2972: u64 [s1 + 0x108] = t2\n  2976: t1 = a3\n  2978: a0 = u64 [s1 + 0xb0]\n  2982: u64 [s1 + 0x100] = a4\n  2986: a0 = a4 <u a0\n  2989: a4 = a0 ^ 0x1\n  2992: u64 [s1 + 0xf8] = a5\n  2996: a4 = 0x1 if a5 != 0\n  2999: a5 = s1 + 0x100\n  3003: a0 = u64 [a5 + 0x20]\n  3006: a0 = ra | a0\n  3009: a4 = 0x1 if a0 != 0\n  3012: a1 = u64 [s1 + 0xd0]\n  3016: a0 = u64 [a5 + 0x38]\n  3019: a1 = a1 + a0\n  3022: a3 = u64 [s1 + 0xb8]\n  3026: a3 = a3 + t0\n  3029: a2 = u64 [s1 + 0xc0]\n  3033: a0 = u64 [a5 + 0x30]\n  3036: a2 = a2 + a0\n  3039: a0 = u64 [s1 + 0xc8]\n  3043: t2 = u64 [s1 + 0x128]\n  3047: t2 = t2 + a0\n  3050: a0 = u64 [s1 + 0xa8]\n  3054: jump @97 if a4 != 0\n      : @90 (gas: 9)\n  3058: a0 = u64 [s1 + 0x138]\n  3062: a4 = a1 <u a0\n  3065: a3 = a3 + a4\n  3068: a0 = t0\n  3070: t0 = a3 ^ t0\n  3073: u64 [s1 + 0xe0] = a0\n  3077: a5 = a3 <u a0\n  3080: a5 = a4 if t0 == 0\n  3083: t0 = 60, jump @1249\n      : @91 [@dyn 30] (gas: 2)\n  3089: u64 [s1 + 0xe8] = t1\n  3093: jump @193 if a0 != 0\n      : @92 (gas: 3)\n  3097: a0 = s1 + 0x1c0\n  3101: u64 [s1 + 0xd8] = ra\n  3105: ra = 62, jump @17\n      : @93 [@dyn 31] (gas: 12)\n  3110: a0 = u64 [s1 + 0x1d8]\n  3114: a1 = u64 [s1 + 0x1d0]\n  3118: a2 = u64 [s1 + 0x1c8]\n  3122: a3 = u64 [s1 + 0x1c0]\n  3126: a4 = s1 + 0x600\n  3130: u64 [a4 + 0xf8] = a0\n  3134: u64 [a4 + 0xf0] = a1\n  3138: u64 [a4 + 0xe8] = a2\n  3142: u64 [a4 + 0xe0] = a3\n  3146: a1 = s1 + 0x6e0\n  3150: a0 = u64 [s1 + 0x118]\n  3154: ra = 64, jump @22\n      : @94 [@dyn 32] (gas: 56)\n  3159: t2 = u64 [s1 + 0xe8]\n  3163: t2 = t2 + 0x1\n  3166: a0 = t2 <u 0x1\n  3169: t0 = u64 [s1 + 0x110]\n  3173: t0 = t0 + a0\n  3176: a0 = t2 | t0\n  3179: a0 = a0 <u 0x1\n  3182: a1 = u64 [s1 + 0xf0]\n  3186: t1 = a1 + a0\n  3189: a1 = t1 <u a1\n  3192: a0 = u64 [s1 + 0x108]\n  3196: a0 = a0 + a1\n  3199: a1 = u64 [s1 + 0x138]\n  3203: a2 = a1 + 0x20\n  3206: u64 [s1 + 0x108] = a2\n  3210: a3 = a2 <u a1\n  3213: a1 = u64 [s1 + 0xe0]\n  3217: a2 = a1 + a3\n  3220: u64 [s1 + 0xe8] = a2\n  3224: a4 = a2 <u a1\n  3227: a4 = a3 if a3 == 0\n  3230: a1 = u64 [s1 + 0x130]\n  3234: ra = a1 + a4\n  3237: a4 = ra <u a1\n  3240: a1 = u64 [s1 + 0x128]\n  3244: a1 = a1 + a4\n  3247: u64 [s1 + 0x128] = a1\n  3251: a1 = u64 [s1 + 0x100]\n  3255: a4 = a1 + 0x20\n  3258: a5 = a4 <u a1\n  3261: a2 = u64 [s1 + 0xf8]\n  3265: a1 = a2 + a5\n  3268: a2 = a1 <u a2\n  3271: a2 = a5 if a5 == 0\n  3274: a3 = u64 [s1 + 0xd8]\n  3278: a2 = a2 + a3\n  3281: a5 = a2 <u a3\n  3284: a3 = u64 [s1 + 0x120]\n  3288: a3 = a3 + a5\n  3291: u64 [s1 + 0x120] = a3\n  3295: u64 [s1 + 0x110] = t0\n  3299: a5 = u64 [s1 + 0x118]\n  3303: u64 [a5 + 0x8] = t0\n  3306: a3 = t2\n  3308: u64 [a5] = t2\n  3310: u64 [a5 + 0x10] = t1\n  3313: t2 = a0\n  3315: u64 [a5 + 0x18] = a0\n  3318: u64 [s1 + 0xf0] = t1\n  3322: a0 = u64 [s1 + 0x108]\n  3326: u64 [s1 + 0x138] = a0\n  3330: t0 = u64 [s1 + 0xe8]\n  3334: u64 [s1 + 0x130] = ra\n  3338: a5 = a1\n  3340: ra = a2\n  3342: jump @89\n      : @95 (gas: 4)\n  3345: a2 = u64 [s1 + 0x50]\n  3348: a0 = a3 | a1\n  3351: a0 = a0 | t0\n  3354: jump @111 if a0 != 0\n      : @96 (gas: 9)\n  3358: u64 [s1 + 288] = 0\n  3362: u64 [s1 + 280] = 0\n  3366: u64 [s1 + 296] = 0\n  3370: u64 [s1 + 304] = 0\n  3374: t1 = u64 [s1 + 0x38]\n  3377: t0 = u64 [s1 + 0x30]\n  3380: a1 = u64 [s1 + 0x28]\n  3383: a5 = u64 [s1 + 0x48]\n  3386: jump @113\n      : @97 (gas: 10)\n  3389: ra = t0\n  3391: t1 = u64 [s1 + 0x60]\n  3394: a4 = u64 [s1 + 0xb0]\n  3398: a4 = a4 ^ t1\n  3401: a5 = u64 [s1 + 0x58]\n  3404: a4 = a4 | a5\n  3407: a4 = a4 | a0\n  3410: t0 = u64 [s1 + 0x20]\n  3413: a5 = u64 [s1 + 0x48]\n  3416: jump @110 if a4 == 0\n      : @98 (gas: 7)\n  3420: a0 = u64 [s1 + 0x138]\n  3424: a4 = a1 <u a0\n  3427: a3 = a3 + a4\n  3430: t0 = a3 ^ ra\n  3433: a5 = a3 <u ra\n  3436: a5 = a4 if t0 == 0\n  3439: t0 = 66, jump @1249\n      : @99 [@dyn 33] (gas: 1)\n  3445: jump @193 if a0 != 0\n      : @100 (gas: 2)\n  3449: a0 = s1 + 0x440\n  3453: ra = 68, jump @17\n      : @101 [@dyn 34] (gas: 11)\n  3458: a1 = s1 + 0x400\n  3462: a0 = u64 [a1 + 0x58]\n  3465: u64 [s1 + 0x130] = a0\n  3469: a0 = u64 [a1 + 0x50]\n  3472: u64 [s1 + 0x128] = a0\n  3476: a0 = u64 [a1 + 0x48]\n  3479: u64 [s1 + 0x120] = a0\n  3483: a0 = u64 [a1 + 0x40]\n  3486: u64 [s1 + 0x110] = a0\n  3490: a0 = u64 [s1 + 0x60]\n  3493: t0 = 70, jump @1271\n      : @102 [@dyn 35] (gas: 1)\n  3499: ra = 72, jump @1286\n      : @103 [@dyn 36] (gas: 6)\n  3505: u64 [s1 + 0x108] = a0\n  3509: u64 [s1 + 0xf0] = a1\n  3513: a0 = 0xffffffffffffffff\n  3516: a1 = 0xffffffffffffffff\n  3519: a2 = u64 [s1 + 0x138]\n  3523: ra = 74, jump @1281\n      : @104 [@dyn 37] (gas: 1)\n  3529: t0 = 76, jump @1267\n      : @105 [@dyn 38] (gas: 1)\n  3535: ra = 78, jump @1281\n      : @106 [@dyn 39] (gas: 1)\n  3541: t0 = 80, jump @1241\n      : @107 [@dyn 40] (gas: 2)\n  3547: a2 = u64 [s1 + 0x120]\n  3551: t0 = 82, jump @1278\n      : @108 [@dyn 41] (gas: 8)\n  3557: a4 = s1 + 0x700\n  3561: u64 [a4 + 0x18] = a3\n  3564: u64 [a4 + 0x10] = a2\n  3567: u64 [a4 + 0x8] = a1\n  3570: u64 [a4] = a0\n  3572: a1 = s1 + 0x700\n  3576: a0 = u64 [s1 + 0x118]\n  3580: ra = 84, jump @22\n      : @109 [@dyn 42] (gas: 3)\n  3585: a5 = u64 [s1 + 0x48]\n  3588: t0 = u64 [s1 + 0x20]\n  3591: fallthrough\n      : @110 (gas: 22)\n  3592: a0 = u64 [s1 + 0x50]\n  3595: a1 = u64 [s1 + 0x38]\n  3598: a0 = a0 | a1\n  3601: a1 = u64 [s1 + 0x28]\n  3604: a1 = a1 | a5\n  3607: a2 = u64 [s1 + 0x30]\n  3610: a2 = t0 | a2\n  3613: a3 = u64 [s1 + 0x40]\n  3616: a3 = a3 + 0x1\n  3619: u64 [s1 + 1848] = 0\n  3623: u64 [s1 + 1840] = 0\n  3627: u64 [s1 + 1832] = 0\n  3631: a5 = s1 + 0x700\n  3635: u64 [a5 + 32] = 0x3\n  3639: u64 [a5 + 0x40] = a3\n  3642: u64 [a5 + 0x48] = a2\n  3645: u64 [a5 + 0x50] = a1\n  3648: u64 [a5 + 0x58] = a0\n  3651: a0 = s1 + 0x720\n  3655: a1 = s1 + 0x740\n  3659: ra = 0x64\n  3662: jump @22\n      : @111 (gas: 4)\n  3665: a0 = s1 + 0x480\n  3669: a1 = u64 [s1 + 0xf0]\n  3673: u64 [s1 + 0x20] = a4\n  3676: ra = 86, jump @17\n      : @112 [@dyn 43] (gas: 16)\n  3681: a5 = u64 [s1 + 0x48]\n  3684: a4 = u64 [s1 + 0x20]\n  3687: a1 = u64 [s1 + 0x28]\n  3690: t0 = u64 [s1 + 0x30]\n  3693: t1 = u64 [s1 + 0x38]\n  3696: a2 = u64 [s1 + 0x50]\n  3699: a3 = u64 [s1 + 0x60]\n  3702: a0 = u64 [s1 + 0x498]\n  3706: u64 [s1 + 0x130] = a0\n  3710: a0 = u64 [s1 + 0x490]\n  3714: u64 [s1 + 0x128] = a0\n  3718: a0 = u64 [s1 + 0x488]\n  3722: u64 [s1 + 0x118] = a0\n  3726: a0 = u64 [s1 + 0x480]\n  3730: u64 [s1 + 0x120] = a0\n  3734: fallthrough\n      : @113 (gas: 7)\n  3735: a0 = a5 | a1\n  3738: u64 [s1 + 0x110] = a0\n  3742: a0 = t1 | a2\n  3745: u64 [s1 + 0x108] = a0\n  3749: a0 = a4 | t0\n  3752: u64 [s1 + 0x100] = a0\n  3756: t0 = 88, jump @1276\n      : @114 [@dyn 44] (gas: 1)\n  3762: ra = 90, jump @1286\n      : @115 [@dyn 45] (gas: 7)\n  3768: u64 [s1 + 0xe0] = a0\n  3772: u64 [s1 + 0xf8] = a1\n  3776: a0 = u64 [s1 + 0x60]\n  3779: i32 a2 = a0 << 0x3\n  3782: a0 = 0xffffffffffffffff\n  3785: a1 = 0xffffffffffffffff\n  3788: ra = 92, jump @1281\n      : @116 [@dyn 46] (gas: 10)\n  3794: u64 [s1 + 0xf0] = a0\n  3798: u64 [s1 + 0xe8] = a1\n  3802: a1 = u64 [s1 + 0xe0]\n  3806: a0 = a0 | a1\n  3809: u64 [s1 + 0xe0] = a0\n  3813: a0 = u64 [s1 + 0x138]\n  3817: i32 a2 = a0 + 0xffffffffffffff80\n  3820: a0 = 0xffffffffffffffff\n  3823: a1 = 0xffffffffffffffff\n  3826: ra = 94, jump @1281\n      : @117 [@dyn 47] (gas: 7)\n  3832: a4 = u64 [s1 + 0x138]\n  3836: a2 = a4 <u 0x80\n  3840: a3 = u64 [s1 + 0xe0]\n  3844: a0 = a3 if a2 != 0\n  3847: a5 = u64 [s1 + 0xe8]\n  3851: a3 = u64 [s1 + 0xf8]\n  3855: t0 = 96, jump @1277\n      : @118 [@dyn 48] (gas: 2)\n  3861: a4 = u64 [s1 + 0xf0]\n  3865: t0 = 98, jump @1251\n      : @119 [@dyn 49] (gas: 21)\n  3871: a4 = u64 [s1 + 0x40]\n  3874: a0 = a0 | a4\n  3877: a5 = s1 + 0x100\n  3881: a4 = u64 [a5]\n  3883: a1 = a1 | a4\n  3886: a4 = u64 [a5 + 0x8]\n  3889: a3 = a3 | a4\n  3892: a4 = u64 [a5 + 0x10]\n  3895: a2 = a2 | a4\n  3898: a5 = s1 + 0x700\n  3902: u64 [a5 + 96] = 0x3\n  3906: u64 [a5 + 0x90] = a2\n  3910: u64 [a5 + 0x98] = a3\n  3914: u64 [a5 + 0x88] = a1\n  3918: u64 [a5 + 0x80] = a0\n  3922: u64 [s1 + 1912] = 0\n  3926: u64 [s1 + 1904] = 0\n  3930: u64 [s1 + 1896] = 0\n  3934: a0 = s1 + 0x760\n  3938: a1 = s1 + 0x780\n  3942: ra = 100, jump @22\n      : @120 [@dyn 50] (gas: 3)\n  3947: a0 = s1 + 0x420\n  3951: a1 = u64 [s1 + 0xa0]\n  3955: ra = 102, jump @17\n      : @121 [@dyn 51] (gas: 17)\n  3960: a0 = s1 + 0x400\n  3964: a3 = u64 [a0 + 0x38]\n  3967: a2 = u64 [a0 + 0x30]\n  3970: a1 = u64 [a0 + 0x28]\n  3973: a0 = a3 >u 0\n  3975: a4 = a2 >u 0\n  3977: a4 = a0 if a3 != 0\n  3980: u64 [s1 + 0xb8] = a1\n  3984: a0 = a1 >u 0\n  3986: u64 [s1 + 0xb0] = a2\n  3990: u64 [s1 + 0xa8] = a3\n  3994: a2 = a2 | a3\n  3997: u64 [s1 + 0xd8] = a0\n  4001: u64 [s1 + 0xe0] = a4\n  4005: u64 [s1 + 0xf0] = a2\n  4009: a0 = a4 if a2 != 0\n  4012: jump @209 if a0 != 0\n      : @122 (gas: 9)\n  4016: a0 = u64 [s1 + 0x420]\n  4020: u64 [s1 + 0xc0] = a0\n  4024: u64 [s1 + 1976] = 0\n  4028: u64 [s1 + 1968] = 0\n  4032: u64 [s1 + 1960] = 0\n  4036: u64 [s1 + 1952] = 0x4\n  4041: a0 = s1 + 0x400\n  4045: a1 = s1 + 0x7a0\n  4049: ra = 104, jump @21\n      : @123 [@dyn 52] (gas: 6)\n  4054: a4 = s1 + 0x400\n  4058: a0 = u64 [a4 + 0x10]\n  4061: a1 = u64 [a4 + 0x8]\n  4064: a2 = u64 [a4]\n  4066: a3 = u64 [a4 + 0x18]\n  4069: t0 = 106, jump @1252\n      : @124 [@dyn 53] (gas: 12)\n  4075: t0 = a2 <u 0x1\n  4078: ra = a1 & 0x7f\n  4081: t2 = a5 & a0\n  4084: a4 = a5 & t1\n  4087: ra = a1 if a2 != 0\n  4090: a1 = ra <u 0x20\n  4093: a5 = a5 & a3\n  4096: a2 = a1\n  4098: a2 = 0 if a4 != 0\n  4100: a0 = t2 | a5\n  4103: a2 = 0 if a0 != 0\n  4105: jump @215 if t0 != a2\n      : @125 (gas: 1)\n  4109: t0 = 108, jump @1258\n      : @126 [@dyn 54] (gas: 4)\n  4115: a0 = u64 [s1 + 0xc0]\n  4119: a0 = a0 <u 0x20\n  4122: u64 [s1 + 0xe8] = a0\n  4126: jump @138 if a3 == 0\n      : @127 (gas: 11)\n  4130: u64 [s1 + 0x110] = a4\n  4134: u64 [s1 + 0x118] = ra\n  4138: u64 [s1 + 0x120] = a5\n  4142: u64 [s1 + 0x130] = t2\n  4146: u64 [s1 + 1016] = 0\n  4150: u64 [s1 + 1008] = 0\n  4154: u64 [s1 + 1000] = 0\n  4158: a1 = s1 + 0x3e0\n  4162: u64 [s1 + 992] = 0x4\n  4167: a0 = 0\n  4169: ra = 110, jump @19\n      : @128 [@dyn 55] (gas: 2)\n  4174: a1 = i32 [0x201dc]\n  4179: jump @130 if a1 >u 31\n      : @129 (gas: 2)\n  4183: u32 [0x201dc] = 0x20\n  4189: fallthrough\n      : @130 (gas: 11)\n  4190: a0 = sp + 0xffffffffffffffe0\n  4193: a2 = a0 & 0xffffffffffffffe0\n  4196: u64 [s1 + 0x128] = a2\n  4200: sp = a2\n  4202: a0 = 0x201f0\n  4207: i32 a0 = a0 + 0\n  4209: i32 a2 = a2 + 0\n  4211: a1 = 0x20\n  4214: ra = 0x70\n  4217: ecalli 9 // 'hash_keccak_256'\n  4219: fallthrough\n      : @131 [@dyn 56] (gas: 9)\n  4220: a0 = u64 [s1 + 0xc0]\n  4224: a1 = a0 + 0x1f\n  4227: a0 = a1 <u a0\n  4230: a5 = u64 [s1 + 0xb8]\n  4234: a2 = a5 + a0\n  4237: a3 = a2 <u a5\n  4240: a3 = a0 if a0 == 0\n  4243: a4 = u64 [s1 + 0xb0]\n  4247: t0 = 114, jump @1247\n      : @132 [@dyn 57] (gas: 35)\n  4253: a1 = u64 [s1 + 0xe8]\n  4257: a1 = 0 if a5 != 0\n  4259: a3 = u64 [s1 + 0xf0]\n  4263: a1 = 0 if a3 != 0\n  4265: a4 = 0 if a1 != 0\n  4267: a0 = 0 if a1 != 0\n  4269: t0 = t2 + a0\n  4272: a0 = t0 <u t2\n  4275: a5 = a2 + a0\n  4278: a4 = a4 + a5\n  4281: u64 [s1 + 0x138] = a4\n  4285: a5 = a4 ^ a2\n  4288: a3 = a4 <u a2\n  4291: a3 = a0 if a5 == 0\n  4294: u64 [s1 + 0x100] = a3\n  4298: a0 = u64 [s1 + 0x118]\n  4302: ra = a0 + 0x1f\n  4305: a4 = ra <u a0\n  4308: a3 = u64 [s1 + 0x110]\n  4312: a0 = a3 + a4\n  4315: a5 = a0 <u a3\n  4318: a5 = a4 if a4 == 0\n  4321: t1 = u64 [s1 + 0x130]\n  4325: t1 = t1 + a5\n  4328: a4 = t1 << 0x3b\n  4331: a3 = a0 >> 0x5\n  4334: a3 = a3 | a4\n  4337: a0 = a0 << 0x3b\n  4340: a4 = ra >> 0x5\n  4343: a0 = a0 | a4\n  4346: a0 = a0 + t2\n  4349: u64 [s1 + 0x118] = a0\n  4353: a0 = a0 <u t2\n  4356: t2 = t0\n  4358: t0 = 116, jump @1262\n      : @133 [@dyn 58] (gas: 16)\n  4364: a0 = u64 [s1 + 0xb0]\n  4368: a0 = a4 <u a0\n  4371: a3 = u64 [s1 + 0xa8]\n  4375: a0 = a0 + a3\n  4378: a3 = a4 >> 0x5\n  4381: a4 = a0 << 0x3b\n  4384: a3 = a3 | a4\n  4387: a4 = u64 [s1 + 0x128]\n  4391: t0 = u64 [a4]\n  4393: a4 = u64 [a4 + 0x8]\n  4396: a0 = a0 >> 0x5\n  4399: a3 = 0 if a1 != 0\n  4401: a0 = 0 if a1 != 0\n  4403: a1 = reverse a4\n  4405: a4 = reverse t0\n  4407: t0 = 118, jump @1274\n      : @134 [@dyn 59] (gas: 25)\n  4413: t0 = a0 + a3\n  4416: a0 = u64 [s1 + 0x130]\n  4420: a0 = t1 <u a0\n  4423: a3 = u64 [s1 + 0x120]\n  4427: a0 = a0 + a3\n  4430: a3 = t1 >> 0x5\n  4433: a5 = a0 << 0x3b\n  4436: a3 = a3 | a5\n  4439: a0 = a0 >> 0x5\n  4442: a0 = a0 + a4\n  4445: a5 = s1 + 0x100\n  4449: a4 = u64 [a5 + 0x38]\n  4452: a3 = a3 + a1\n  4455: a1 = a3 <u a1\n  4458: a0 = a0 + a1\n  4461: a2 = a2 + a3\n  4464: u64 [a5 + 0x8] = a2\n  4467: a1 = a2 <u a3\n  4470: a0 = a0 + a1\n  4473: u64 [a5] = a0\n  4475: a0 = sp + 0xffffffffffffffe0\n  4478: t1 = a0 & 0xffffffffffffffe0\n  4481: sp = t1\n  4483: u64 [s1 + 0xf8] = t1\n  4487: fallthrough\n      : @135 (gas: 20)\n  4488: a0 = u64 [s1 + 0x118]\n  4492: a0 = t2 <u a0\n  4495: a2 = u64 [s1 + 0x110]\n  4499: a1 = a4 ^ a2\n  4502: a2 = a4 <u a2\n  4505: a2 = a0 if a1 == 0\n  4508: a5 = u64 [s1 + 0x108]\n  4512: a0 = ra <u a5\n  4515: a3 = u64 [s1 + 0x100]\n  4519: a1 = t0 ^ a3\n  4522: a3 = t0 <u a3\n  4525: a3 = a0 if a1 == 0\n  4528: a0 = ra ^ a5\n  4531: a0 = a0 | a1\n  4534: a3 = a2 if a0 == 0\n  4537: u64 [t1] = t2\n  4539: u64 [t1 + 0x8] = a4\n  4542: u64 [t1 + 0x10] = ra\n  4545: u64 [t1 + 0x18] = t0\n  4548: jump @138 if a3 == 0\n      : @136 (gas: 11)\n  4551: u64 [s1 + 2008] = 0\n  4555: u64 [s1 + 2000] = 0\n  4559: u64 [s1 + 1992] = 0\n  4563: u64 [s1 + 1984] = 0\n  4567: a1 = s1 + 0x7c0\n  4571: a0 = t1\n  4573: u64 [s1 + 0x130] = t2\n  4577: u64 [s1 + 0x138] = a4\n  4581: u64 [s1 + 0x128] = t0\n  4585: u64 [s1 + 0x120] = ra\n  4589: ra = 120, jump @22\n      : @137 [@dyn 60] (gas: 15)\n  4594: t1 = u64 [s1 + 0xf8]\n  4598: t0 = u64 [s1 + 0x128]\n  4602: a4 = u64 [s1 + 0x138]\n  4606: t2 = u64 [s1 + 0x130]\n  4610: t2 = t2 + 0x1\n  4613: a0 = t2 <u 0x1\n  4616: a4 = a4 + a0\n  4619: a0 = t2 | a4\n  4622: a0 = a0 <u 0x1\n  4625: a1 = u64 [s1 + 0x120]\n  4629: a0 = a0 + a1\n  4632: a1 = a0 <u a1\n  4635: t0 = t0 + a1\n  4638: ra = a0\n  4640: jump @135\n      : @138 (gas: 9)\n  4643: a0 = u64 [s1 + 0xe8]\n  4647: a0 = a0 ^ 0x1\n  4650: a2 = u64 [s1 + 0xb8]\n  4654: a1 = u64 [s1 + 0xd8]\n  4658: a0 = a1 if a2 != 0\n  4661: a1 = u64 [s1 + 0xe0]\n  4665: a3 = u64 [s1 + 0xf0]\n  4669: a0 = a1 if a3 != 0\n  4672: jump @148 if a0 == 0\n      : @139 (gas: 10)\n  4676: a0 = u64 [s1 + 0xc0]\n  4680: a0 = a0 & 0xffffffffffffffe0\n  4683: u64 [s1 + 0xc8] = a0\n  4687: u64 [s1 + 952] = 0\n  4691: u64 [s1 + 944] = 0\n  4695: u64 [s1 + 936] = 0\n  4699: a1 = s1 + 0x3a0\n  4703: u64 [s1 + 928] = 0x4\n  4708: a0 = 0\n  4710: ra = 122, jump @19\n      : @140 [@dyn 61] (gas: 7)\n  4715: a0 = sp + 0xffffffffffffffe0\n  4718: a0 = a0 & 0xffffffffffffffe0\n  4721: u64 [s1 + 0x120] = a0\n  4725: sp = a0\n  4727: a1 = 0x20\n  4730: a0 = 0\n  4732: ra = 124, jump @26\n      : @141 [@dyn 62] (gas: 39)\n  4737: a1 = sp + 0xffffffffffffffe0\n  4740: a1 = a1 & 0xffffffffffffffe0\n  4743: u64 [s1 + 0x118] = a1\n  4747: sp = a1\n  4749: i32 a0 = a0 + 0\n  4751: i32 a2 = a1 + 0\n  4753: a1 = 0x20\n  4756: ecalli 9 // 'hash_keccak_256'\n  4758: u64 [s1 + 312] = 0x20\n  4763: a5 = 0\n  4765: u64 [s1 + 296] = 0\n  4769: u64 [s1 + 304] = 0\n  4773: a4 = 0\n  4775: a3 = 0\n  4777: a2 = 0\n  4779: t1 = 0\n  4781: a0 = u64 [s1 + 0x118]\n  4785: t0 = u64 [a0 + 0x18]\n  4788: a1 = u64 [a0 + 0x10]\n  4791: ra = u64 [a0 + 0x8]\n  4794: a0 = u64 [a0]\n  4796: u64 [s1 + 0x110] = a0\n  4800: a0 = reverse t0\n  4802: u64 [s1 + 0x118] = a0\n  4806: t2 = reverse a1\n  4808: t0 = reverse ra\n  4810: a0 = u64 [s1 + 0x110]\n  4814: a1 = reverse a0\n  4816: ra = a1\n  4818: a0 = u64 [s1 + 0x120]\n  4822: u64 [a0 + 0x18] = a1\n  4825: a1 = t0\n  4827: u64 [s1 + 0xd8] = a1\n  4831: u64 [a0 + 0x10] = a1\n  4834: u64 [s1 + 0x108] = t2\n  4838: u64 [a0 + 0x8] = t2\n  4841: a1 = u64 [s1 + 0x118]\n  4845: u64 [a0] = a1\n  4847: fallthrough\n      : @142 (gas: 24)\n  4848: u64 [s1 + 0x100] = ra\n  4852: a0 = u64 [s1 + 0xc8]\n  4856: u64 [s1 + 0xf0] = a4\n  4860: a0 = a4 <u a0\n  4863: a4 = a0 ^ 0x1\n  4866: u64 [s1 + 0xe8] = a3\n  4870: a4 = 0x1 if a3 != 0\n  4873: u64 [s1 + 0x110] = t1\n  4877: u64 [s1 + 0xf8] = a2\n  4881: a0 = a2 | t1\n  4884: a4 = 0x1 if a0 != 0\n  4887: a0 = u64 [s1 + 0xa0]\n  4891: a1 = u64 [s1 + 0x138]\n  4895: a1 = a1 + a0\n  4898: a3 = u64 [s1 + 0x90]\n  4902: u64 [s1 + 0xe0] = a5\n  4906: t0 = a3 + a5\n  4909: t2 = u64 [s1 + 0x98]\n  4913: a2 = u64 [s1 + 0x128]\n  4917: a2 = a2 + t2\n  4920: t1 = u64 [s1 + 0x88]\n  4924: a5 = u64 [s1 + 0x130]\n  4928: t1 = t1 + a5\n  4931: jump @150 if a4 != 0\n      : @143 (gas: 6)\n  4935: ra = a1 <u a0\n  4938: a4 = t0 + ra\n  4941: t0 = a4 ^ a3\n  4944: a5 = a4 <u a3\n  4947: a5 = ra if t0 == 0\n  4950: t0 = 126, jump @1254\n      : @144 [@dyn 63] (gas: 1)\n  4956: jump @193 if a0 != 0\n      : @145 (gas: 2)\n  4960: a0 = s1 + 0x260\n  4964: ra = 128, jump @17\n      : @146 [@dyn 64] (gas: 13)\n  4970: a4 = s1 + 0x200\n  4974: a0 = u64 [a4 + 0x78]\n  4977: a1 = u64 [a4 + 0x70]\n  4980: a2 = u64 [a4 + 0x68]\n  4983: a3 = u64 [a4 + 0x60]\n  4986: a4 = s1 + 0x700\n  4990: u64 [a4 + 0xf8] = a0\n  4994: u64 [a4 + 0xf0] = a1\n  4998: u64 [a4 + 0xe8] = a2\n  5002: u64 [a4 + 0xe0] = a3\n  5006: a1 = s1 + 0x7e0\n  5010: a0 = u64 [s1 + 0x120]\n  5014: ra = 130, jump @22\n      : @147 [@dyn 65] (gas: 54)\n  5020: ra = u64 [s1 + 0x118]\n  5024: ra = ra + 0x1\n  5027: a0 = ra <u 0x1\n  5030: a3 = u64 [s1 + 0x108]\n  5034: a3 = a3 + a0\n  5037: a0 = ra | a3\n  5040: a0 = a0 <u 0x1\n  5043: a1 = u64 [s1 + 0xd8]\n  5047: a0 = a0 + a1\n  5050: a1 = a0 <u a1\n  5053: t0 = u64 [s1 + 0x100]\n  5057: t0 = t0 + a1\n  5060: a1 = u64 [s1 + 0x138]\n  5064: a2 = a1 + 0x20\n  5067: u64 [s1 + 0x100] = a2\n  5071: a1 = a2 <u a1\n  5074: a2 = u64 [s1 + 0xe0]\n  5078: a4 = a2 + a1\n  5081: u64 [s1 + 0xd0] = a4\n  5085: a4 = a4 <u a2\n  5088: a4 = a1 if a1 == 0\n  5091: a1 = u64 [s1 + 0x128]\n  5095: t2 = a1 + a4\n  5098: a4 = t2 <u a1\n  5101: a1 = u64 [s1 + 0x130]\n  5105: a1 = a1 + a4\n  5108: u64 [s1 + 0x130] = a1\n  5112: a1 = u64 [s1 + 0xf0]\n  5116: a4 = a1 + 0x20\n  5119: a5 = a4 <u a1\n  5122: a2 = u64 [s1 + 0xe8]\n  5126: a1 = a2 + a5\n  5129: a2 = a1 <u a2\n  5132: a2 = a5 if a5 == 0\n  5135: a5 = u64 [s1 + 0xf8]\n  5139: a2 = a2 + a5\n  5142: a5 = a2 <u a5\n  5145: t1 = u64 [s1 + 0x110]\n  5149: t1 = t1 + a5\n  5152: u64 [s1 + 0x108] = a3\n  5156: a5 = u64 [s1 + 0x120]\n  5160: u64 [a5 + 0x8] = a3\n  5163: u64 [s1 + 0x118] = ra\n  5167: u64 [a5] = ra\n  5169: u64 [a5 + 0x10] = a0\n  5172: ra = t0\n  5174: u64 [a5 + 0x18] = t0\n  5177: u64 [s1 + 0xd8] = a0\n  5181: a0 = u64 [s1 + 0x100]\n  5185: u64 [s1 + 0x138] = a0\n  5189: a5 = u64 [s1 + 0xd0]\n  5193: u64 [s1 + 0x128] = t2\n  5197: a3 = a1\n  5199: jump @142\n      : @148 (gas: 7)\n  5202: a3 = u64 [s1 + 0xc0]\n  5206: a4 = u64 [s1 + 0xb0]\n  5210: a0 = a3 | a4\n  5213: a5 = u64 [s1 + 0xa8]\n  5217: a1 = a2 | a5\n  5220: a0 = a0 | a1\n  5223: jump @164 if a0 != 0\n      : @149 (gas: 5)\n  5227: u64 [s1 + 288] = 0\n  5231: u64 [s1 + 280] = 0\n  5235: u64 [s1 + 296] = 0\n  5239: u64 [s1 + 304] = 0\n  5243: jump @166\n      : @150 (gas: 12)\n  5246: a4 = u64 [s1 + 0xc8]\n  5250: a5 = u64 [s1 + 0xc0]\n  5254: a4 = a4 ^ a5\n  5257: ra = u64 [s1 + 0xb0]\n  5261: a4 = a4 | ra\n  5264: u64 [s1 + 0x138] = a4\n  5268: a5 = u64 [s1 + 0xb8]\n  5272: a4 = u64 [s1 + 0xa8]\n  5276: a5 = a5 | a4\n  5279: a4 = u64 [s1 + 0x138]\n  5283: a4 = a4 | a5\n  5286: jump @163 if a4 == 0\n      : @151 (gas: 6)\n  5290: ra = a1 <u a0\n  5293: a4 = t0 + ra\n  5296: t0 = a4 ^ a3\n  5299: a5 = a4 <u a3\n  5302: a5 = ra if t0 == 0\n  5305: t0 = 132, jump @1254\n      : @152 [@dyn 66] (gas: 1)\n  5311: jump @193 if a0 != 0\n      : @153 (gas: 2)\n  5315: a0 = s1 + 0x380\n  5319: ra = 134, jump @17\n      : @154 [@dyn 67] (gas: 11)\n  5325: a1 = s1 + 0x300\n  5329: a0 = u64 [a1 + 0x98]\n  5333: u64 [s1 + 0x130] = a0\n  5337: a0 = u64 [a1 + 0x90]\n  5341: u64 [s1 + 0x128] = a0\n  5345: a0 = u64 [a1 + 0x88]\n  5349: u64 [s1 + 0x118] = a0\n  5353: a0 = u64 [a1 + 0x80]\n  5357: u64 [s1 + 0x110] = a0\n  5361: a0 = u64 [s1 + 0xc0]\n  5365: t0 = 136, jump @1271\n      : @155 [@dyn 68] (gas: 1)\n  5372: ra = 138, jump @1286\n      : @156 [@dyn 69] (gas: 6)\n  5379: u64 [s1 + 0x108] = a0\n  5383: u64 [s1 + 0xf0] = a1\n  5387: a0 = 0xffffffffffffffff\n  5390: a1 = 0xffffffffffffffff\n  5393: a2 = u64 [s1 + 0x138]\n  5397: ra = 140, jump @1281\n      : @157 [@dyn 70] (gas: 1)\n  5404: t0 = 142, jump @1267\n      : @158 [@dyn 71] (gas: 1)\n  5411: ra = 144, jump @1281\n      : @159 [@dyn 72] (gas: 1)\n  5418: t0 = 146, jump @1241\n      : @160 [@dyn 73] (gas: 2)\n  5424: a2 = u64 [s1 + 0x118]\n  5428: t0 = 148, jump @1278\n      : @161 [@dyn 74] (gas: 12)\n  5435: a4 = s1 + 0x1000\n  5439: u64 [a4 + 0xfffffffffffff818] = a3\n  5443: a3 = s1 + 0x1000\n  5447: u64 [a3 + 0xfffffffffffff810] = a2\n  5451: a2 = s1 + 0x1000\n  5455: u64 [a2 + 0xfffffffffffff808] = a1\n  5459: a1 = s1 + 0x1000\n  5463: u64 [a1 + 0xfffffffffffff800] = a0\n  5467: a1 = s1 + 0x7ff\n  5471: a1 = a1 + 0x1\n  5474: a0 = u64 [s1 + 0x120]\n  5478: ra = 150, jump @22\n      : @162 [@dyn 75] (gas: 2)\n  5484: ra = u64 [s1 + 0xb0]\n  5488: fallthrough\n      : @163 (gas: 36)\n  5489: a0 = ra >> 0x3f\n  5492: a1 = u64 [s1 + 0xa8]\n  5496: a1 = a1 << 0x1\n  5499: a0 = a0 | a1\n  5502: a3 = u64 [s1 + 0xb8]\n  5506: a1 = a3 >> 0x3f\n  5509: a2 = ra << 0x1\n  5512: a1 = a1 | a2\n  5515: a4 = u64 [s1 + 0xc0]\n  5519: a2 = a4 >> 0x3f\n  5522: a3 = a3 << 0x1\n  5525: a2 = a2 | a3\n  5528: a3 = a4 << 0x1\n  5531: a3 = a3 + 0x1\n  5534: a4 = s1 + 0x1000\n  5538: u64 [a4 + 4294965304] = 0\n  5542: a4 = s1 + 0x1000\n  5546: u64 [a4 + 4294965296] = 0\n  5550: a4 = s1 + 0x1000\n  5554: u64 [a4 + 4294965288] = 0\n  5558: a5 = s1 + 0x1000\n  5562: u64 [a5 + 4294965280] = 0x4\n  5567: a4 = s1 + 0x1000\n  5571: u64 [a4 + 0xfffffffffffff840] = a3\n  5575: a3 = s1 + 0x1000\n  5579: u64 [a3 + 0xfffffffffffff848] = a2\n  5583: a2 = s1 + 0x1000\n  5587: u64 [a2 + 0xfffffffffffff850] = a1\n  5591: a1 = s1 + 0x1000\n  5595: u64 [a1 + 0xfffffffffffff858] = a0\n  5599: a0 = s1 + 0x7ff\n  5603: a0 = a0 + 0x21\n  5606: a1 = s1 + 0x7ff\n  5610: a1 = a1 + 0x41\n  5613: ra = 0xa6\n  5617: jump @22\n      : @164 (gas: 3)\n  5620: a0 = s1 + 0x3c0\n  5624: a1 = u64 [s1 + 0x18]\n  5627: ra = 152, jump @17\n      : @165 [@dyn 76] (gas: 14)\n  5633: a5 = u64 [s1 + 0xa8]\n  5637: a4 = u64 [s1 + 0xb0]\n  5641: a2 = u64 [s1 + 0xb8]\n  5645: a3 = u64 [s1 + 0xc0]\n  5649: a1 = s1 + 0x300\n  5653: a0 = u64 [a1 + 0xd8]\n  5657: u64 [s1 + 0x130] = a0\n  5661: a0 = u64 [a1 + 0xd0]\n  5665: u64 [s1 + 0x128] = a0\n  5669: a0 = u64 [a1 + 0xc8]\n  5673: u64 [s1 + 0x118] = a0\n  5677: a0 = u64 [a1 + 0xc0]\n  5681: u64 [s1 + 0x120] = a0\n  5685: fallthrough\n      : @166 (gas: 15)\n  5686: a0 = a2 >> 0x3f\n  5689: a1 = a4 << 0x1\n  5692: a0 = a0 | a1\n  5695: u64 [s1 + 0x110] = a0\n  5699: a0 = a4 >> 0x3f\n  5702: a1 = a5 << 0x1\n  5705: a0 = a0 | a1\n  5708: u64 [s1 + 0x108] = a0\n  5712: a0 = a3 >> 0x3f\n  5715: a1 = a2 << 0x1\n  5718: a0 = a0 | a1\n  5721: u64 [s1 + 0x100] = a0\n  5725: a0 = a3 << 0x1\n  5728: u64 [s1 + 0xf8] = a0\n  5732: t0 = 154, jump @1276\n      : @167 [@dyn 77] (gas: 1)\n  5739: ra = 156, jump @1286\n      : @168 [@dyn 78] (gas: 7)\n  5746: u64 [s1 + 0xd8] = a0\n  5750: u64 [s1 + 0xf0] = a1\n  5754: a0 = u64 [s1 + 0xc0]\n  5758: i32 a2 = a0 << 0x3\n  5761: a0 = 0xffffffffffffffff\n  5764: a1 = 0xffffffffffffffff\n  5767: ra = 158, jump @1281\n      : @169 [@dyn 79] (gas: 10)\n  5774: u64 [s1 + 0xe8] = a0\n  5778: u64 [s1 + 0xe0] = a1\n  5782: a1 = u64 [s1 + 0xd8]\n  5786: a0 = a0 | a1\n  5789: u64 [s1 + 0xd8] = a0\n  5793: a0 = u64 [s1 + 0x138]\n  5797: i32 a2 = a0 + 0xffffffffffffff80\n  5800: a0 = 0xffffffffffffffff\n  5803: a1 = 0xffffffffffffffff\n  5806: ra = 160, jump @1281\n      : @170 [@dyn 80] (gas: 7)\n  5813: a4 = u64 [s1 + 0x138]\n  5817: a2 = a4 <u 0x80\n  5821: a3 = u64 [s1 + 0xd8]\n  5825: a0 = a3 if a2 != 0\n  5828: a5 = u64 [s1 + 0xe0]\n  5832: a3 = u64 [s1 + 0xf0]\n  5836: t0 = 162, jump @1277\n      : @171 [@dyn 81] (gas: 2)\n  5843: a4 = u64 [s1 + 0xe8]\n  5847: t0 = 164, jump @1251\n      : @172 [@dyn 82] (gas: 30)\n  5853: a4 = u64 [s1 + 0xf8]\n  5857: a0 = a0 | a4\n  5860: a5 = s1 + 0x100\n  5864: a4 = u64 [a5]\n  5866: a1 = a1 | a4\n  5869: a4 = u64 [a5 + 0x8]\n  5872: a3 = a3 | a4\n  5875: a4 = u64 [a5 + 0x10]\n  5878: a2 = a2 | a4\n  5881: a5 = s1 + 0x1000\n  5885: u64 [a5 + 4294965344] = 0x4\n  5890: a4 = s1 + 0x1000\n  5894: u64 [a4 + 0xfffffffffffff890] = a2\n  5898: a2 = s1 + 0x1000\n  5902: u64 [a2 + 0xfffffffffffff898] = a3\n  5906: a2 = s1 + 0x1000\n  5910: u64 [a2 + 0xfffffffffffff888] = a1\n  5914: a1 = s1 + 0x1000\n  5918: u64 [a1 + 0xfffffffffffff880] = a0\n  5922: a0 = s1 + 0x1000\n  5926: u64 [a0 + 4294965368] = 0\n  5930: a0 = s1 + 0x1000\n  5934: u64 [a0 + 4294965360] = 0\n  5938: a0 = s1 + 0x1000\n  5942: u64 [a0 + 4294965352] = 0\n  5946: a0 = s1 + 0x7ff\n  5950: a0 = a0 + 0x61\n  5953: a1 = s1 + 0x7ff\n  5957: a1 = a1 + 0x81\n  5961: ra = 166, jump @22\n      : @173 [@dyn 83] (gas: 8)\n  5967: a1 = u64 [s1 + 0x80]\n  5971: a0 = a1 << 0x20\n  5974: a0 = a0 >> 0x20\n  5977: a2 = u64 [s1 + 0x78]\n  5980: a0 = a0 | a2\n  5983: a3 = u64 [s1 + 0x70]\n  5986: a0 = a0 | a3\n  5989: jump @188 if a0 != 0\n      : @174 (gas: 3)\n  5993: a0 = s1 + 0x320\n  5997: a1 = 0x40\n  6000: ra = 168, jump @17\n      : @175 [@dyn 84] (gas: 13)\n  6006: a1 = s1 + 0x300\n  6010: a4 = u64 [a1 + 0x38]\n  6013: a5 = u64 [a1 + 0x30]\n  6016: a3 = u64 [a1 + 0x28]\n  6019: a0 = u64 [a1 + 0x20]\n  6022: a2 = a3 | a4\n  6025: a1 = a0 | a5\n  6028: a1 = a1 | a2\n  6031: a1 = a1 >> 0x20\n  6034: a2 = a2 | a5\n  6037: a2 = a2 << 0x20\n  6040: a1 = a1 | a2\n  6043: jump @193 if a1 != 0\n      : @176 (gas: 11)\n  6047: u64 [s1 + 784] = 0\n  6051: u64 [s1 + 776] = 0\n  6055: u64 [s1 + 768] = 0\n  6059: a2 = 0x8c379a000000000\n  6069: a1 = s1 + 0x300\n  6073: u64 [s1 + 0x318] = a2\n  6077: u64 [s1 + 0x138] = a0\n  6081: u64 [s1 + 0x130] = a3\n  6085: u64 [s1 + 0x128] = a4\n  6089: u64 [s1 + 0x120] = a5\n  6093: ra = 170, jump @19\n      : @177 [@dyn 85] (gas: 12)\n  6099: a5 = s1 + 0x100\n  6103: a1 = u64 [a5 + 0x38]\n  6106: a0 = u64 [a5 + 0x28]\n  6109: a3 = u64 [a5 + 0x20]\n  6112: a3 = a3 | a0\n  6115: a4 = 0x100000000\n  6125: a0 = 0xfffffffc\n  6135: a0 = a1 <u a0\n  6138: a2 = u64 [a5 + 0x30]\n  6141: a0 = 0 if a2 != 0\n  6143: a0 = 0 if a3 != 0\n  6145: jump @193 if a0 == 0\n      : @178 (gas: 9)\n  6149: i32 a0 = a1 + 0x4\n  6152: u64 [s1 + 760] = 0\n  6156: u64 [s1 + 752] = 0\n  6160: u64 [s1 + 736] = 0x20\n  6165: a1 = s1 + 0x2e0\n  6169: u64 [s1 + 744] = 0\n  6173: u64 [s1 + 0x128] = a3\n  6177: u64 [s1 + 0x120] = a4\n  6181: ra = 172, jump @19\n      : @179 [@dyn 86] (gas: 10)\n  6187: a3 = s1 + 0x100\n  6191: a1 = u64 [a3 + 0x38]\n  6194: a0 = u64 [a3 + 0x20]\n  6197: a0 = a0 + 0xffffffffffffffdc\n  6200: a0 = a1 <u a0\n  6203: a2 = u64 [a3 + 0x30]\n  6206: a0 = 0 if a2 != 0\n  6208: a2 = u64 [a3 + 0x28]\n  6211: a0 = 0 if a2 != 0\n  6213: jump @193 if a0 == 0\n      : @180 (gas: 7)\n  6217: i32 a0 = a1 + 0x24\n  6220: u64 [s1 + 728] = 0\n  6224: u64 [s1 + 720] = 0\n  6228: u64 [s1 + 704] = 0x26\n  6233: a1 = s1 + 0x2c0\n  6237: u64 [s1 + 712] = 0\n  6241: ra = 174, jump @19\n      : @181 [@dyn 87] (gas: 5)\n  6247: a0 = s1 + 0x100\n  6251: a4 = u64 [a0 + 0x28]\n  6254: a3 = u64 [a0 + 0x30]\n  6257: a1 = u64 [a0 + 0x38]\n  6260: t0 = 176, jump @1250\n      : @182 [@dyn 88] (gas: 1)\n  6266: jump @193 if a0 == 0\n      : @183 (gas: 13)\n  6270: i32 a0 = a1 + 0x44\n  6273: a1 = u64 [0x20018]\n  6278: a4 = s1 + 0x200\n  6282: u64 [a4 + 0xb8] = a1\n  6286: a1 = u64 [0x20020]\n  6291: u64 [s1 + 0x120] = a2\n  6295: a2 = u64 [0x20028]\n  6300: a3 = u64 [0x20030]\n  6305: u64 [a4 + 0xb0] = a1\n  6309: u64 [a4 + 0xa8] = a2\n  6313: a1 = s1 + 0x2a0\n  6317: u64 [a4 + 0xa0] = a3\n  6321: ra = 178, jump @19\n      : @184 [@dyn 89] (gas: 10)\n  6327: a3 = s1 + 0x100\n  6331: a2 = u64 [a3 + 0x38]\n  6334: a0 = u64 [a3 + 0x20]\n  6337: a0 = a0 + 0xffffffffffffff9c\n  6340: a0 = a2 <u a0\n  6343: a1 = u64 [a3 + 0x30]\n  6346: a0 = 0 if a1 != 0\n  6348: a1 = u64 [a3 + 0x28]\n  6351: a0 = 0 if a1 != 0\n  6353: jump @193 if a0 == 0\n      : @185 (gas: 8)\n  6357: i32 a0 = a2 + 0x64\n  6360: a1 = u64 [0x20038]\n  6365: u64 [s1 + 656] = 0\n  6369: u64 [s1 + 648] = 0\n  6373: u64 [s1 + 0x298] = a1\n  6377: a1 = s1 + 0x280\n  6381: u64 [s1 + 640] = 0\n  6385: ra = 180, jump @19\n      : @186 [@dyn 90] (gas: 3)\n  6391: a1 = 0x84\n  6395: a0 = u64 [s1 + 0x138]\n  6399: ra = 182, jump @26\n      : @187 [@dyn 91] (gas: 5)\n  6405: i32 a1 = a0 + 0\n  6407: a0 = 0x1\n  6410: a2 = 0x84\n  6414: ecalli 13 // 'seal_return'\n  6416: fallthrough\n      : @188 (gas: 12)\n  6417: a0 = s1 + 0x7ff\n  6421: a0 = a0 + 0xb9\n  6425: u64 [a0 + 0] = 0\n  6427: u64 [a0 + 4294967288] = 0\n  6430: a0 = s1 + 0x1000\n  6434: u64 [a0 + 4294965416] = 0\n  6438: a1 = s1 + 0x1000\n  6442: u64 [a1 + 4294965408] = 0x5\n  6447: a0 = s1 + 0x360\n  6451: a1 = s1 + 0x7ff\n  6455: a1 = a1 + 0xa1\n  6459: ra = 184, jump @21\n      : @189 [@dyn 92] (gas: 24)\n  6465: a0 = u32 [s1 + 0x374]\n  6469: a1 = u64 [s1 + 0x378]\n  6473: a0 = a0 << 0x20\n  6476: a2 = u64 [s1 + 0x80]\n  6480: a0 = a0 | a2\n  6483: a2 = u64 [s1 + 0x68]\n  6486: a1 = a1 | a2\n  6489: a2 = s1 + 0x7ff\n  6493: a2 = a2 + 0xb9\n  6497: u64 [a2 + 32] = 0\n  6500: u64 [a2 + 24] = 0\n  6503: u64 [a2 + 16] = 0\n  6506: u64 [a2 + 8] = 0x5\n  6510: a3 = u64 [s1 + 0x70]\n  6513: u64 [a2 + 0x30] = a3\n  6516: a3 = u64 [s1 + 0x78]\n  6519: u64 [a2 + 0x28] = a3\n  6522: u64 [a2 + 0x40] = a1\n  6525: u64 [a2 + 0x38] = a0\n  6528: a0 = s1 + 0x7ff\n  6532: a0 = a0 + 0xc1\n  6536: a1 = s1 + 0x7ff\n  6540: a1 = a1 + 0xe1\n  6544: ra = 186, jump @22\n      : @190 [@dyn 93] (gas: 3)\n  6550: a0 = s1 + 0x340\n  6554: a1 = 0x40\n  6557: ra = 188, jump @17\n      : @191 [@dyn 94] (gas: 6)\n  6563: a4 = s1 + 0x300\n  6567: a3 = u64 [a4 + 0x58]\n  6570: a1 = u64 [a4 + 0x50]\n  6573: a2 = u64 [a4 + 0x48]\n  6576: a0 = u64 [a4 + 0x40]\n  6579: t0 = 190, jump @1239\n      : @192 [@dyn 95] (gas: 1)\n  6585: jump @222 if a1 == 0\n      : @193 (gas: 1)\n  6589: trap\n      : @194 (gas: 6)\n  6590: a1 = 0x201f0\n  6595: i32 a1 = a1 + 0\n  6597: a0 = 0x1\n  6600: a2 = 0\n  6602: ecalli 13 // 'seal_return'\n  6604: jump @197\n      : @195 (gas: 6)\n  6606: a1 = 0x201f0\n  6611: i32 a1 = a1 + 0\n  6613: a0 = 0x1\n  6616: a2 = 0\n  6618: ecalli 13 // 'seal_return'\n  6620: jump @197\n      : @196 (gas: 6)\n  6622: a1 = 0x201f0\n  6627: i32 a1 = a1 + 0\n  6629: a0 = 0x1\n  6632: a2 = 0\n  6634: ecalli 13 // 'seal_return'\n  6636: fallthrough\n      : @197 (gas: 6)\n  6637: u64 [s1 + 368] = 0\n  6641: u64 [s1 + 360] = 0\n  6645: u64 [s1 + 352] = 0\n  6649: t0 = 0xc0\n  6653: a0 = 0x4e487b7100000000\n  6663: fallthrough\n      : @198 [@dyn 96] (gas: 4)\n  6664: a1 = s1 + 0x160\n  6668: u64 [s1 + 0x178] = a0\n  6672: a0 = 0\n  6674: ra = 194, jump @19\n      : @199 [@dyn 97] (gas: 7)\n  6680: u64 [s1 + 344] = 0\n  6684: u64 [s1 + 336] = 0\n  6688: u64 [s1 + 320] = 0x41\n  6693: a0 = 0x4\n  6696: a1 = s1 + 0x140\n  6700: u64 [s1 + 328] = 0\n  6704: ra = 196, jump @19\n      : @200 [@dyn 98] (gas: 2)\n  6710: a1 = i32 [0x201dc]\n  6715: jump @202 if a1 >u 63\n      : @201 (gas: 3)\n  6719: u32 [0x201dc] = 0x40\n  6725: a1 = 0x201f0\n  6730: jump @221\n      : @202 (gas: 2)\n  6733: a1 = 0x201f0\n  6738: jump @221\n      : @203 (gas: 6)\n  6741: u64 [s1 + 432] = 0\n  6745: u64 [s1 + 424] = 0\n  6749: u64 [s1 + 416] = 0\n  6753: t0 = 0xc6\n  6757: a0 = 0x4e487b7100000000\n  6767: fallthrough\n      : @204 [@dyn 99] (gas: 4)\n  6768: a1 = s1 + 0x1a0\n  6772: u64 [s1 + 0x1b8] = a0\n  6776: a0 = 0\n  6778: ra = 200, jump @19\n      : @205 [@dyn 100] (gas: 7)\n  6784: u64 [s1 + 408] = 0\n  6788: u64 [s1 + 400] = 0\n  6792: u64 [s1 + 384] = 0x22\n  6797: a0 = 0x4\n  6800: a1 = s1 + 0x180\n  6804: u64 [s1 + 392] = 0\n  6808: ra = 202, jump @19\n      : @206 [@dyn 101] (gas: 2)\n  6814: a1 = i32 [0x201dc]\n  6819: jump @208 if a1 >u 63\n      : @207 (gas: 3)\n  6823: u32 [0x201dc] = 0x40\n  6829: a1 = 0x201f0\n  6834: jump @221\n      : @208 (gas: 2)\n  6837: a1 = 0x201f0\n  6842: jump @221\n      : @209 (gas: 6)\n  6845: u64 [s1 + 528] = 0\n  6849: u64 [s1 + 520] = 0\n  6853: u64 [s1 + 512] = 0\n  6857: t0 = 0xcc\n  6861: a0 = 0x4e487b7100000000\n  6871: fallthrough\n      : @210 [@dyn 102] (gas: 4)\n  6872: a1 = s1 + 0x200\n  6876: u64 [s1 + 0x218] = a0\n  6880: a0 = 0\n  6882: ra = 206, jump @19\n      : @211 [@dyn 103] (gas: 7)\n  6888: u64 [s1 + 504] = 0\n  6892: u64 [s1 + 496] = 0\n  6896: u64 [s1 + 480] = 0x41\n  6901: a0 = 0x4\n  6904: a1 = s1 + 0x1e0\n  6908: u64 [s1 + 488] = 0\n  6912: ra = 208, jump @19\n      : @212 [@dyn 104] (gas: 2)\n  6918: a1 = i32 [0x201dc]\n  6923: jump @214 if a1 >u 63\n      : @213 (gas: 3)\n  6927: u32 [0x201dc] = 0x40\n  6933: a1 = 0x201f0\n  6938: jump @221\n      : @214 (gas: 2)\n  6940: a1 = 0x201f0\n  6945: jump @221\n      : @215 (gas: 6)\n  6947: u64 [s1 + 592] = 0\n  6951: u64 [s1 + 584] = 0\n  6955: u64 [s1 + 576] = 0\n  6959: t0 = 0xd2\n  6963: a0 = 0x4e487b7100000000\n  6973: fallthrough\n      : @216 [@dyn 105] (gas: 4)\n  6974: a1 = s1 + 0x240\n  6978: u64 [s1 + 0x258] = a0\n  6982: a0 = 0\n  6984: ra = 212, jump @19\n      : @217 [@dyn 106] (gas: 7)\n  6990: u64 [s1 + 568] = 0\n  6994: u64 [s1 + 560] = 0\n  6998: u64 [s1 + 544] = 0x22\n  7003: a0 = 0x4\n  7006: a1 = s1 + 0x220\n  7010: u64 [s1 + 552] = 0\n  7014: ra = 214, jump @19\n      : @218 [@dyn 107] (gas: 2)\n  7020: a1 = i32 [0x201dc]\n  7025: jump @220 if a1 >u 63\n      : @219 (gas: 3)\n  7029: u32 [0x201dc] = 0x40\n  7035: a1 = 0x201f0\n  7040: jump @221\n      : @220 (gas: 2)\n  7042: a1 = 0x201f0\n  7047: fallthrough\n      : @221 (gas: 7)\n  7048: i32 a1 = a1 + 0\n  7050: a0 = 0x1\n  7053: a2 = 0x24\n  7056: ecalli 13 // 'seal_return'\n  7058: u64 [s1 + 0x138] = a0\n  7062: ra = 0xd8\n  7066: jump @26\n      : @222 (gas: 2)\n  7069: u64 [s1 + 0x138] = a0\n  7073: ra = 216, jump @26\n      : @223 [@dyn 108] (gas: 5)\n  7079: i32 a0 = a0 + 0\n  7081: a1 = 0\n  7083: a2 = 0\n  7085: ecalli 3 // 'call_data_copy'\n  7087: jump @15\n      : @224 (gas: 3)\n  7090: a0 = u64 [s1 + 0x138]\n  7094: a1 = 0\n  7096: ra = 218, jump @26\n      : @225 [@dyn 109] (gas: 5)\n  7102: i32 a1 = a0 + 0\n  7104: a0 = 0\n  7106: a2 = 0\n  7108: ecalli 13 // 'seal_return'\n  7110: jump @197\n      : @226 [@dyn 110] (gas: 4)\n  7113: a0 = 0x201d8\n  7118: u64 [s1 + 0xf8] = a0\n  7122: a0 = i32 [0x201d8]\n  7127: jump @228 if a0 >=u 4\n      : @227 (gas: 1)\n  7131: jump @784\n      : @228 (gas: 6)\n  7134: a0 = s1 + 0x2000\n  7138: i32 a0 = a0 + 0xfffffffffffffc60\n  7142: a1 = 0\n  7144: ra = 0xde\n  7148: ecalli 4 // 'call_data_load'\n  7150: fallthrough\n      : @229 [@dyn 111] (gas: 3)\n  7151: a2 = s1 + 0x1878\n  7155: a0 = i32 [a2 + 0x404]\n  7159: jump @231 if a0 != 2514000705\n      : @230 (gas: 1)\n  7166: jump @412\n      : @231 (gas: 2)\n  7169: a3 = s1 + 0x2078\n  7173: jump @266 if a0 == 2626658083\n      : @232 (gas: 1)\n  7181: jump @234 if a0 != 2641816152\n      : @233 (gas: 1)\n  7188: jump @484\n      : @234 (gas: 1)\n  7191: jump @354 if a0 == 2835717307\n      : @235 (gas: 1)\n  7199: jump @293 if a0 == 2897417630\n      : @236 (gas: 1)\n  7207: jump @238 if a0 != 3336397266\n      : @237 (gas: 1)\n  7214: jump @531\n      : @238 (gas: 1)\n  7217: jump @368 if a0 == 3517613708\n      : @239 (gas: 1)\n  7225: jump @241 if a0 != 3714247998\n      : @240 (gas: 1)\n  7232: jump @561\n      : @241 (gas: 1)\n  7235: jump @243 if a0 != 117300739\n      : @242 (gas: 1)\n  7242: jump @442\n      : @243 (gas: 1)\n  7245: jump @245 if a0 != 157198259\n      : @244 (gas: 1)\n  7252: jump @495\n      : @245 (gas: 1)\n  7255: jump @247 if a0 != 404098525\n      : @246 (gas: 1)\n  7262: jump @474\n      : @247 (gas: 1)\n  7265: jump @305 if a0 == 599290589\n      : @248 (gas: 1)\n  7273: jump @250 if a0 != 826074471\n      : @249 (gas: 1)\n  7280: jump @431\n      : @250 (gas: 1)\n  7283: jump @252 if a0 != 1371953418\n      : @251 (gas: 1)\n  7290: jump @402\n      : @252 (gas: 1)\n  7293: jump @254 if a0 == 1505713465\n      : @253 (gas: 1)\n  7300: jump @455\n      : @254 (gas: 10)\n  7303: u64 [a2 + 1408] = 0\n  7307: u64 [a2 + 1400] = 0\n  7311: u64 [a2 + 1392] = 0\n  7315: u64 [a2 + 1384] = 0\n  7319: a0 = s1 + 0x2000\n  7323: i32 a0 = a0 + 0xfffffffffffffde0\n  7327: ra = 0xe0\n  7331: ecalli 16 // 'value_transferred'\n  7333: t0 = 0xe2\n  7337: jump @1257\n      : @255 [@dyn 112] (gas: 1)\n  7340: t0 = 226, jump @1257\n      : @256 [@dyn 113] (gas: 8)\n  7346: a0 = u64 [a4 + 0x78]\n  7349: a1 = u64 [a4 + 0x80]\n  7353: a2 = u64 [a4 + 0x70]\n  7356: a3 = u64 [a4 + 0x68]\n  7359: a1 = a1 | a2\n  7362: a0 = a0 | a3\n  7365: a0 = a0 | a1\n  7368: jump @258 if a0 == 0\n      : @257 (gas: 1)\n  7371: jump @787\n      : @258 (gas: 3)\n  7374: a0 = u64 [s1 + 0xf8]\n  7378: a0 = i32 [a0]\n  7380: jump @260 if a0 >u 3\n      : @259 (gas: 1)\n  7384: jump @788\n      : @260 (gas: 3)\n  7387: a0 = s1 + 0x7ff\n  7391: a0 = a0 + 0x121\n  7395: ra = 228, jump @1078\n      : @261 [@dyn 114] (gas: 14)\n  7401: a1 = s1 + 0x7ff\n  7405: a1 = a1 + 0x71\n  7408: a0 = u64 [a1 + 0xc8]\n  7412: u64 [s1 + 0xf8] = a0\n  7416: a0 = u64 [a1 + 0xc0]\n  7420: u64 [s1 + 0xf0] = a0\n  7424: a0 = u64 [a1 + 0xb8]\n  7428: u64 [s1 + 0xe8] = a0\n  7432: a0 = u64 [a1 + 0xb0]\n  7436: u64 [s1 + 0xe0] = a0\n  7440: a0 = s1 + 0x7ff\n  7444: a0 = a0 + 0x101\n  7448: a1 = 0x40\n  7451: ra = 230, jump @17\n      : @262 [@dyn 115] (gas: 7)\n  7457: a3 = s1 + 0x7ff\n  7461: a3 = a3 + 0x71\n  7464: a0 = u64 [a3 + 0xa8]\n  7468: a1 = u64 [a3 + 0xa0]\n  7472: a2 = u64 [a3 + 0x98]\n  7476: a4 = u64 [a3 + 0x90]\n  7480: t0 = 232, jump @1246\n      : @263 [@dyn 116] (gas: 1)\n  7486: jump @265 if a0 == 0\n      : @264 (gas: 1)\n  7489: jump @754\n      : @265 (gas: 14)\n  7492: a0 = u64 [s1 + 0xe0]\n  7496: u64 [a3 + 0x70] = a0\n  7499: a0 = u64 [s1 + 0xe8]\n  7503: u64 [a3 + 0x78] = a0\n  7506: a0 = u64 [s1 + 0xf0]\n  7510: u64 [a3 + 0x80] = a0\n  7514: a1 = s1 + 0x7ff\n  7518: a1 = a1 + 0xe1\n  7522: a0 = u64 [s1 + 0xf8]\n  7526: u64 [a3 + 0x88] = a0\n  7530: a0 = a4\n  7532: u64 [s1 + 0xf8] = a4\n  7536: ra = 0x202\n  7540: jump @19\n      : @266 (gas: 8)\n  7543: u64 [a2 + 1568] = 0\n  7547: u64 [a2 + 1560] = 0\n  7551: u64 [a2 + 1552] = 0\n  7555: u64 [a2 + 1544] = 0\n  7559: a0 = s1 + 0x2000\n  7563: i32 a0 = a0 + 0xfffffffffffffe80\n  7567: ecalli 16 // 'value_transferred'\n  7569: fallthrough\n      : @267 (gas: 10)\n  7570: a3 = s1 + 0x1878\n  7574: a4 = a3 + 0x600\n  7578: a0 = u64 [a4 + 0x18]\n  7581: a1 = u64 [a4 + 0x20]\n  7584: a2 = u64 [a4 + 0x10]\n  7587: a3 = u64 [a4 + 0x8]\n  7590: a1 = a1 | a2\n  7593: a0 = a0 | a3\n  7596: a0 = a0 | a1\n  7599: jump @269 if a0 == 0\n      : @268 (gas: 1)\n  7602: jump @789\n      : @269 (gas: 3)\n  7605: a0 = u64 [s1 + 0xf8]\n  7609: a0 = i32 [a0]\n  7611: jump @271 if a0 >u 35\n      : @270 (gas: 1)\n  7615: jump @790\n      : @271 (gas: 5)\n  7618: a0 = s1 + 0x2000\n  7622: i32 a0 = a0 + 0xfffffffffffffea0\n  7626: a1 = 0x4\n  7629: ecalli 4 // 'call_data_load'\n  7631: fallthrough\n      : @272 (gas: 10)\n  7632: a0 = s1 + 0x1878\n  7636: t0 = u64 [a0 + 0x640]\n  7640: a1 = a0 + 0x600\n  7644: a5 = u64 [a1 + 0x38]\n  7647: a3 = u64 [a1 + 0x30]\n  7650: a4 = u64 [a1 + 0x28]\n  7653: a0 = a3 | t0\n  7656: a1 = a4 | a5\n  7659: a0 = a0 | a1\n  7662: jump @274 if a0 == 0\n      : @273 (gas: 1)\n  7665: jump @591\n      : @274 (gas: 4)\n  7668: a0 = s1 + 0x7ff\n  7672: a0 = a0 + 0x481\n  7676: a1 = 0x40\n  7679: ra = 234, jump @17\n      : @275 [@dyn 117] (gas: 15)\n  7685: a2 = s1 + 0x7ff\n  7689: a2 = a2 + 0x71\n  7692: t0 = u64 [a2 + 0x428]\n  7696: a1 = a2 + 0x400\n  7700: a5 = u64 [a1 + 0x20]\n  7703: a4 = u64 [a1 + 0x18]\n  7706: a0 = u64 [a1 + 0x10]\n  7709: a3 = a4 | t0\n  7712: a1 = a0 | a5\n  7715: a1 = a1 | a3\n  7718: a1 = a1 >> 0x20\n  7721: a3 = a3 | a5\n  7724: a3 = a3 << 0x20\n  7727: a1 = a1 | a3\n  7730: jump @277 if a1 == 0\n      : @276 (gas: 1)\n  7733: jump @754\n      : @277 (gas: 12)\n  7736: u64 [a2 + 1024] = 0\n  7740: u64 [a2 + 1016] = 0\n  7744: u64 [a2 + 1008] = 0\n  7748: a3 = 0x8c379a000000000\n  7758: a1 = s1 + 0x7ff\n  7762: a1 = a1 + 0x461\n  7766: u64 [a2 + 0x408] = a3\n  7770: u64 [s1 + 0xf8] = a0\n  7774: u64 [s1 + 0xf0] = a4\n  7778: u64 [s1 + 0xe0] = t0\n  7782: u64 [s1 + 0xe8] = a5\n  7786: ra = 236, jump @19\n      : @278 [@dyn 118] (gas: 5)\n  7792: a1 = u64 [s1 + 0xf8]\n  7796: a0 = u64 [s1 + 0xe8]\n  7800: a3 = u64 [s1 + 0xe0]\n  7804: a3 = a3 | a0\n  7807: t0 = 238, jump @1245\n      : @279 [@dyn 119] (gas: 1)\n  7813: jump @281 if a0 != 0\n      : @280 (gas: 1)\n  7816: jump @754\n      : @281 (gas: 12)\n  7819: i32 a0 = a1 + 0x4\n  7822: a2 = s1 + 0x7ff\n  7826: a2 = a2 + 0x71\n  7829: u64 [a2 + 1000] = 0\n  7833: u64 [a2 + 992] = 0\n  7837: u64 [a2 + 976] = 0x20\n  7842: a1 = s1 + 0x7ff\n  7846: a1 = a1 + 0x441\n  7850: u64 [a2 + 984] = 0\n  7854: u64 [s1 + 0xe8] = a3\n  7858: u64 [s1 + 0xe0] = a4\n  7862: ra = 240, jump @19\n      : @282 [@dyn 120] (gas: 1)\n  7868: t0 = 242, jump @1243\n      : @283 [@dyn 121] (gas: 1)\n  7874: jump @285 if a0 != 0\n      : @284 (gas: 1)\n  7877: jump @754\n      : @285 (gas: 10)\n  7880: i32 a0 = a1 + 0x24\n  7883: a2 = s1 + 0x7ff\n  7887: a2 = a2 + 0x71\n  7890: u64 [a2 + 968] = 0\n  7894: u64 [a2 + 960] = 0\n  7898: u64 [a2 + 944] = 0x31\n  7903: a1 = s1 + 0x7ff\n  7907: a1 = a1 + 0x421\n  7911: u64 [a2 + 952] = 0\n  7915: ra = 244, jump @19\n      : @286 [@dyn 122] (gas: 9)\n  7921: a3 = u64 [s1 + 0xe8]\n  7925: a4 = u64 [s1 + 0xf0]\n  7929: a1 = u64 [s1 + 0xf8]\n  7933: a2 = 0x100000000\n  7943: a0 = 0xffffffbc\n  7953: a0 = a1 <u a0\n  7956: a0 = 0 if a4 != 0\n  7958: a0 = 0 if a3 != 0\n  7960: jump @288 if a0 != 0\n      : @287 (gas: 1)\n  7963: jump @754\n      : @288 (gas: 16)\n  7966: i32 a0 = a1 + 0x44\n  7969: a1 = u64 [0x200c0]\n  7974: u64 [s1 + 0xe0] = a2\n  7978: a5 = s1 + 0x7ff\n  7982: a5 = a5 + 0x71\n  7985: a4 = a5 + 0x300\n  7989: u64 [a4 + 0xa8] = a1\n  7993: a1 = u64 [0x200c8]\n  7998: a2 = u64 [0x200d0]\n  8003: a3 = u64 [0x200d8]\n  8008: u64 [a4 + 0xa0] = a1\n  8012: u64 [a4 + 0x98] = a2\n  8016: a1 = s1 + 0x7ff\n  8020: a1 = a1 + 0x401\n  8024: u64 [a4 + 0x90] = a3\n  8028: ra = 246, jump @19\n      : @289 [@dyn 123] (gas: 1)\n  8034: t0 = 248, jump @1244\n      : @290 [@dyn 124] (gas: 1)\n  8040: jump @292 if a0 != 0\n      : @291 (gas: 1)\n  8043: jump @754\n      : @292 (gas: 15)\n  8046: i32 a0 = a3 + 0x64\n  8049: a1 = u64 [0x200e0]\n  8054: a2 = u64 [0x200e8]\n  8059: a4 = s1 + 0x7ff\n  8063: a4 = a4 + 0x71\n  8066: a3 = a4 + 0x300\n  8070: u64 [a3 + 0x88] = a1\n  8074: u64 [a3 + 0x80] = a2\n  8078: a1 = 0x3000000000000000\n  8088: u64 [a3 + 0x78] = a1\n  8091: a1 = s1 + 0x7ff\n  8095: a1 = a1 + 0x3e1\n  8099: u64 [a4 + 880] = 0\n  8103: ra = 0x1de\n  8107: jump @19\n      : @293 (gas: 8)\n  8110: u64 [a3 + 256] = 0\n  8114: u64 [a3 + 248] = 0\n  8118: u64 [a3 + 240] = 0\n  8122: u64 [a3 + 232] = 0\n  8126: a0 = s1 + 0x2000\n  8130: i32 a0 = a0 + 0x160\n  8134: ecalli 16 // 'value_transferred'\n  8136: fallthrough\n      : @294 (gas: 9)\n  8137: a3 = s1 + 0x2078\n  8141: a0 = u64 [a3 + 0xf8]\n  8145: a1 = u64 [a3 + 0x100]\n  8149: a2 = u64 [a3 + 0xf0]\n  8153: a3 = u64 [a3 + 0xe8]\n  8157: a1 = a1 | a2\n  8160: a0 = a0 | a3\n  8163: a0 = a0 | a1\n  8166: jump @296 if a0 == 0\n      : @295 (gas: 1)\n  8169: jump @791\n      : @296 (gas: 3)\n  8172: a0 = u64 [s1 + 0xf8]\n  8176: a0 = i32 [a0]\n  8178: jump @298 if a0 >u 99\n      : @297 (gas: 1)\n  8182: jump @792\n      : @298 (gas: 66)\n  8185: a0 = s1 + 0x2000\n  8189: i32 a0 = a0 + 0x180\n  8193: a1 = 0x44\n  8196: ecalli 4 // 'call_data_load'\n  8198: a1 = s1 + 0x2078\n  8202: a2 = a1 + 0x100\n  8206: a0 = u64 [a2 + 0x8]\n  8209: u64 [s1 + 0xf8] = a0\n  8213: a0 = u64 [a2 + 0x10]\n  8216: u64 [s1 + 0xf0] = a0\n  8220: a0 = u64 [a2 + 0x18]\n  8223: u64 [s1 + 0xe8] = a0\n  8227: a0 = u64 [a2 + 0x20]\n  8230: u64 [s1 + 0xe0] = a0\n  8234: a0 = s1 + 0x2000\n  8238: i32 a0 = a0 + 0x1a0\n  8242: a1 = 0x24\n  8245: ecalli 4 // 'call_data_load'\n  8247: a0 = s1 + 0x2078\n  8251: a2 = a0 + 0x100\n  8255: a1 = u64 [a2 + 0x28]\n  8258: u64 [s1 + 0xd8] = a1\n  8262: a1 = u64 [a2 + 0x30]\n  8265: u64 [s1 + 0xd0] = a1\n  8269: a1 = u64 [a2 + 0x38]\n  8272: u64 [s1 + 0xc8] = a1\n  8276: a1 = u64 [a2 + 0x40]\n  8279: u64 [s1 + 0xc0] = a1\n  8283: a0 = s1 + 0x2000\n  8287: i32 a0 = a0 + 0x1c0\n  8291: a1 = 0x4\n  8294: ecalli 4 // 'call_data_load'\n  8296: a2 = s1 + 0x2078\n  8300: a3 = a2 + 0x100\n  8304: a4 = u64 [a3 + 0x48]\n  8307: a0 = u64 [a3 + 0x50]\n  8310: a1 = u64 [a3 + 0x58]\n  8313: a2 = u64 [a3 + 0x60]\n  8316: a3 = s1 + 0x1078\n  8320: a5 = u64 [s1 + 0xe0]\n  8324: u64 [a3 + 0x3a0] = a5\n  8328: a5 = u64 [s1 + 0xe8]\n  8332: u64 [a3 + 0x398] = a5\n  8336: a5 = u64 [s1 + 0xf0]\n  8340: u64 [a3 + 0x390] = a5\n  8344: a5 = u64 [s1 + 0xf8]\n  8348: u64 [a3 + 0x388] = a5\n  8352: a5 = u64 [s1 + 0xc0]\n  8356: u64 [a3 + 0x3c0] = a5\n  8360: a5 = u64 [s1 + 0xc8]\n  8364: u64 [a3 + 0x3b8] = a5\n  8368: a5 = u64 [s1 + 0xd0]\n  8372: u64 [a3 + 0x3b0] = a5\n  8376: a5 = u64 [s1 + 0xd8]\n  8380: u64 [a3 + 0x3a8] = a5\n  8384: a5 = a3 + 0x300\n  8388: u64 [a5 + 0xe0] = a2\n  8392: u64 [a5 + 0xd8] = a1\n  8396: u64 [a5 + 0xd0] = a0\n  8400: a5 = a3\n  8402: a0 = s1 + 0x1460\n  8406: a1 = s1 + 0x1440\n  8410: a2 = s1 + 0x1420\n  8414: a3 = s1 + 0x1400\n  8418: u64 [a5 + 0x3c8] = a4\n  8422: ra = 250, jump @1126\n      : @299 [@dyn 125] (gas: 3)\n  8428: t0 = 0xfc\n  8432: a1 = s1 + 0x1078\n  8436: fallthrough\n      : @300 [@dyn 126] (gas: 12)\n  8437: a0 = u64 [a1 + 0x400]\n  8441: u64 [s1 + 0xf8] = a0\n  8445: a2 = a1 + 0x300\n  8449: a0 = u64 [a2 + 0xf8]\n  8453: u64 [s1 + 0xf0] = a0\n  8457: a0 = u64 [a2 + 0xf0]\n  8461: u64 [s1 + 0xe8] = a0\n  8465: a0 = u64 [a2 + 0xe8]\n  8469: u64 [s1 + 0xe0] = a0\n  8473: a0 = s1 + 0x13e0\n  8477: a1 = 0x40\n  8480: ra = 254, jump @17\n      : @301 [@dyn 127] (gas: 7)\n  8486: a3 = s1 + 0x1078\n  8490: a5 = a3 + 0x300\n  8494: a0 = u64 [a5 + 0x80]\n  8498: a1 = u64 [a5 + 0x78]\n  8501: a2 = u64 [a5 + 0x70]\n  8504: a4 = u64 [a5 + 0x68]\n  8507: t0 = 256, jump @1246\n      : @302 [@dyn 128] (gas: 1)\n  8513: jump @304 if a0 == 0\n      : @303 (gas: 1)\n  8516: jump @754\n      : @304 (gas: 14)\n  8519: a0 = u64 [s1 + 0xe0]\n  8523: a2 = a3 + 0x300\n  8527: u64 [a2 + 0x48] = a0\n  8530: a0 = u64 [s1 + 0xe8]\n  8534: u64 [a2 + 0x50] = a0\n  8537: a0 = u64 [s1 + 0xf0]\n  8541: u64 [a2 + 0x58] = a0\n  8544: a1 = s1 + 0x13c0\n  8548: a0 = u64 [s1 + 0xf8]\n  8552: u64 [a2 + 0x60] = a0\n  8555: a0 = a4\n  8557: u64 [s1 + 0xf8] = a4\n  8561: ra = 0x202\n  8565: jump @19\n      : @305 (gas: 9)\n  8568: u64 [a2 + 1248] = 0\n  8572: u64 [a2 + 1240] = 0\n  8576: u64 [a2 + 1232] = 0\n  8580: u64 [a2 + 1224] = 0\n  8584: a0 = s1 + 0x2000\n  8588: i32 a0 = a0 + 0xfffffffffffffd40\n  8592: ra = 0x102\n  8596: ecalli 16 // 'value_transferred'\n  8598: fallthrough\n      : @306 [@dyn 129] (gas: 10)\n  8599: a3 = s1 + 0x1878\n  8603: a4 = a3 + 0x400\n  8607: a0 = u64 [a4 + 0xd8]\n  8611: a1 = u64 [a4 + 0xe0]\n  8615: a2 = u64 [a4 + 0xd0]\n  8619: a3 = u64 [a4 + 0xc8]\n  8623: a1 = a1 | a2\n  8626: a0 = a0 | a3\n  8629: a0 = a0 | a1\n  8632: jump @308 if a0 == 0\n      : @307 (gas: 1)\n  8635: jump @793\n      : @308 (gas: 4)\n  8638: a0 = u64 [s1 + 0xf8]\n  8642: a0 = i32 [a0]\n  8644: a1 = 0x63\n  8647: jump @310 if a1 <u a0\n      : @309 (gas: 1)\n  8650: jump @794\n      : @310 (gas: 5)\n  8653: a0 = s1 + 0x7ff\n  8657: a0 = a0 + 0x1\n  8660: ra = 0x104\n  8664: t0 = 0x344\n  8668: jump @1273\n      : @311 [@dyn 130] (gas: 16)\n  8671: a0 = s1 + 0x1000\n  8675: a0 = u64 [a0 + 0xfffffffffffff818]\n  8679: u64 [s1 + 0xa8] = a0\n  8683: a0 = s1 + 0x1000\n  8687: a0 = u64 [a0 + 0xfffffffffffff810]\n  8691: u64 [s1 + 0xb8] = a0\n  8695: a0 = s1 + 0x1000\n  8699: a0 = u64 [a0 + 0xfffffffffffff808]\n  8703: u64 [s1 + 0xf8] = a0\n  8707: a0 = s1 + 0x1000\n  8711: a0 = u64 [a0 + 0xfffffffffffff800]\n  8715: u64 [s1 + 0xf0] = a0\n  8719: a0 = s1 + 0x7e0\n  8723: ra = 0x106\n  8727: t0 = 0x34e\n  8731: jump @1273\n      : @312 [@dyn 131] (gas: 35)\n  8734: a0 = u64 [s1 + 0x7f8]\n  8738: u64 [s1 + 0xa0] = a0\n  8742: a0 = u64 [s1 + 0x7f0]\n  8746: u64 [s1 + 0x98] = a0\n  8750: a0 = u64 [s1 + 0x7e8]\n  8754: u64 [s1 + 0x90] = a0\n  8758: a0 = u64 [s1 + 0x7e0]\n  8762: u64 [s1 + 0x88] = a0\n  8766: a0 = s1 + 0x2000\n  8770: i32 a0 = a0 + 0xfffffffffffffd60\n  8774: a1 = 0x44\n  8777: ecalli 4 // 'call_data_load'\n  8779: a0 = s1 + 0x1878\n  8783: a1 = u64 [a0 + 0x500]\n  8787: u64 [s1 + 0xe8] = a1\n  8791: a2 = a0 + 0x400\n  8795: a1 = u64 [a2 + 0xf8]\n  8799: u64 [s1 + 0xd8] = a1\n  8803: a1 = u64 [a2 + 0xf0]\n  8807: u64 [s1 + 0xc8] = a1\n  8811: a0 = u64 [a2 + 0xe8]\n  8815: u64 [s1 + 0xd0] = a0\n  8819: a0 = u64 [s1 + 0xb8]\n  8823: a0 = a0 << 0x20\n  8826: a0 = a0 >> 0x20\n  8829: u64 [s1 + 2008] = 0\n  8833: u64 [s1 + 0x78] = a0\n  8836: u64 [s1 + 0x7d0] = a0\n  8840: a0 = u64 [s1 + 0xf8]\n  8844: u64 [s1 + 0x7c8] = a0\n  8848: a1 = s1 + 0x7c0\n  8852: a0 = u64 [s1 + 0xf0]\n  8856: u64 [s1 + 0x7c0] = a0\n  8860: a0 = 0\n  8862: ra = 264, jump @19\n      : @313 [@dyn 132] (gas: 7)\n  8868: u64 [s1 + 1976] = 0\n  8872: u64 [s1 + 1968] = 0\n  8876: u64 [s1 + 1952] = 0x1\n  8881: a0 = 0x20\n  8884: a1 = s1 + 0x7a0\n  8888: u64 [s1 + 1960] = 0\n  8892: ra = 266, jump @19\n      : @314 [@dyn 133] (gas: 3)\n  8898: a1 = 0x201dc\n  8903: a0 = i32 [0x201dc]\n  8908: jump @316 if a0 >u 63\n      : @315 (gas: 2)\n  8912: u32 [0x201dc] = 0x40\n  8918: fallthrough\n      : @316 (gas: 15)\n  8919: a0 = sp + 0xffffffffffffffe0\n  8922: a2 = a0 & 0xffffffffffffffe0\n  8925: u64 [s1 + 0xb0] = a2\n  8929: sp = a2\n  8931: a0 = 0x201f0\n  8936: i32 a0 = a0 + 0\n  8938: i32 a2 = a2 + 0\n  8940: u64 [s1 + 0xc0] = a1\n  8944: a1 = 0x40\n  8947: u64 [s1 + 0xe0] = a0\n  8951: ra = 0x10c\n  8955: ecalli 9 // 'hash_keccak_256'\n  8957: a3 = u64 [s1 + 0xb0]\n  8961: t0 = 0x10e\n  8965: jump @1280\n      : @317 [@dyn 134] (gas: 2)\n  8968: a3 = u64 [s1 + 0xb0]\n  8972: t0 = 270, jump @1280\n      : @318 [@dyn 135] (gas: 20)\n  8978: u64 [s1 + 0x68] = a0\n  8981: a0 = reverse a1\n  8983: u64 [s1 + 0x60] = a0\n  8986: a0 = reverse a2\n  8988: u64 [s1 + 0x58] = a0\n  8991: a0 = reverse a3\n  8993: u64 [s1 + 0x50] = a0\n  8996: a0 = sp + 0xffffffffffffffe0\n  8999: a0 = a0 & 0xffffffffffffffe0\n  9002: u64 [s1 + 0x70] = a0\n  9005: sp = a0\n  9007: a0 = 0x301f0\n  9012: u64 [s1 + 0xb0] = a0\n  9016: i32 a0 = a0 + 0\n  9018: u64 [s1 + 0x80] = a0\n  9022: ra = 0x110\n  9026: ecalli 6 // 'caller'\n  9028: a2 = u64 [s1 + 0xb0]\n  9032: t0 = 0x112\n  9036: jump @1236\n      : @319 [@dyn 136] (gas: 2)\n  9039: a2 = u64 [s1 + 0xb0]\n  9043: t0 = 274, jump @1236\n      : @320 [@dyn 137] (gas: 7)\n  9049: u64 [s1 + 1944] = 0\n  9053: u64 [s1 + 0x790] = a1\n  9057: u64 [s1 + 0x788] = a0\n  9061: a1 = s1 + 0x780\n  9065: u64 [s1 + 0x780] = a3\n  9069: a0 = 0\n  9071: ra = 276, jump @19\n      : @321 [@dyn 138] (gas: 12)\n  9077: a0 = u64 [s1 + 0x50]\n  9080: a3 = s1 + 0x700\n  9084: u64 [a3 + 0x78] = a0\n  9087: a0 = u64 [s1 + 0x58]\n  9090: u64 [a3 + 0x70] = a0\n  9093: a0 = u64 [s1 + 0x60]\n  9096: u64 [a3 + 0x68] = a0\n  9099: a0 = 0x20\n  9102: a1 = s1 + 0x760\n  9106: a2 = u64 [s1 + 0x68]\n  9109: u64 [a3 + 0x60] = a2\n  9112: ra = 278, jump @19\n      : @322 [@dyn 139] (gas: 3)\n  9118: a1 = u64 [s1 + 0xc0]\n  9122: a0 = i32 [a1]\n  9124: jump @324 if a0 >u 63\n      : @323 (gas: 2)\n  9128: u32 [a1 + 0] = 0x40\n  9131: fallthrough\n      : @324 (gas: 12)\n  9132: a0 = sp + 0xffffffffffffffe0\n  9135: a0 = a0 & 0xffffffffffffffe0\n  9138: u64 [s1 + 0x68] = a0\n  9141: sp = a0\n  9143: i32 a2 = a0 + 0\n  9145: a1 = 0x40\n  9148: a0 = u64 [s1 + 0xe0]\n  9152: ra = 0x118\n  9156: ecalli 9 // 'hash_keccak_256'\n  9158: a3 = u64 [s1 + 0x68]\n  9161: t0 = 0x11a\n  9165: jump @1240\n      : @325 [@dyn 140] (gas: 2)\n  9168: a3 = u64 [s1 + 0x68]\n  9171: t0 = 282, jump @1240\n      : @326 [@dyn 141] (gas: 7)\n  9177: a1 = u64 [s1 + 0x70]\n  9180: u64 [a1 + 0x18] = a3\n  9183: u64 [a1 + 0x10] = a2\n  9186: u64 [a1 + 0x8] = a4\n  9189: u64 [a1] = a0\n  9191: a0 = s1 + 0x740\n  9195: ra = 284, jump @21\n      : @327 [@dyn 142] (gas: 8)\n  9201: t2 = u64 [s1 + 0x758]\n  9205: a3 = u64 [s1 + 0x750]\n  9209: a4 = u64 [s1 + 0x748]\n  9213: t0 = u64 [s1 + 0x740]\n  9217: a0 = a4 & t2\n  9220: a1 = t0 & a3\n  9223: a0 = a0 & a1\n  9226: jump @348 if a0 == 4294967295\n      : @328 (gas: 20)\n  9231: a0 = u64 [s1 + 0xd0]\n  9235: t1 = t0 <u a0\n  9238: a1 = u64 [s1 + 0xc8]\n  9242: a0 = a4 ^ a1\n  9245: a5 = a4 <u a1\n  9248: a5 = t1 if a0 == 0\n  9251: a2 = u64 [s1 + 0xd8]\n  9255: ra = a3 <u a2\n  9258: a1 = u64 [s1 + 0xe8]\n  9262: a0 = t2 ^ a1\n  9265: a1 = t2 <u a1\n  9268: a1 = ra if a0 == 0\n  9271: a2 = a2 ^ a3\n  9274: a0 = a0 | a2\n  9277: a1 = a5 if a0 == 0\n  9280: u64 [s1 + 0x70] = t0\n  9283: u64 [s1 + 0x68] = a4\n  9286: u64 [s1 + 0x60] = t2\n  9289: u64 [s1 + 0x58] = a3\n  9292: jump @330 if a1 == 0\n      : @329 (gas: 1)\n  9295: jump @839\n      : @330 (gas: 9)\n  9298: u64 [s1 + 0x40] = ra\n  9301: u64 [s1 + 0x48] = a5\n  9304: u64 [s1 + 0x50] = t1\n  9307: a0 = u64 [s1 + 0xf0]\n  9311: a1 = u64 [s1 + 0x78]\n  9314: a0 = a0 | a1\n  9317: a1 = u64 [s1 + 0xf8]\n  9321: a0 = a0 | a1\n  9324: jump @332 if a0 != 0\n      : @331 (gas: 1)\n  9327: jump @848\n      : @332 (gas: 3)\n  9330: a0 = u64 [s1 + 0x80]\n  9334: ecalli 6 // 'caller'\n  9336: fallthrough\n      : @333 (gas: 7)\n  9337: a2 = u64 [s1 + 0xb0]\n  9341: a0 = u32 [a2 + 0x10]\n  9344: a1 = u64 [a2]\n  9346: a2 = u64 [a2 + 0x8]\n  9349: a0 = a0 | a1\n  9352: a0 = a0 | a2\n  9355: jump @335 if a0 != 0\n      : @334 (gas: 1)\n  9358: jump @850\n      : @335 (gas: 10)\n  9361: u64 [s1 + 1848] = 0\n  9365: a0 = u64 [s1 + 0xf0]\n  9369: u64 [s1 + 0x720] = a0\n  9373: a0 = u64 [s1 + 0xf8]\n  9377: u64 [s1 + 0x728] = a0\n  9381: a1 = s1 + 0x720\n  9385: a0 = u64 [s1 + 0x78]\n  9388: u64 [s1 + 0x730] = a0\n  9392: a0 = 0\n  9394: ra = 286, jump @19\n      : @336 [@dyn 143] (gas: 7)\n  9400: u64 [s1 + 1816] = 0\n  9404: u64 [s1 + 1808] = 0\n  9408: u64 [s1 + 1792] = 0x1\n  9413: a0 = 0x20\n  9416: a1 = s1 + 0x700\n  9420: u64 [s1 + 1800] = 0\n  9424: ra = 288, jump @19\n      : @337 [@dyn 144] (gas: 3)\n  9430: a1 = u64 [s1 + 0xc0]\n  9434: a0 = i32 [a1]\n  9436: jump @339 if a0 >u 63\n      : @338 (gas: 2)\n  9440: u32 [a1 + 0] = 0x40\n  9443: fallthrough\n      : @339 (gas: 12)\n  9444: a0 = sp + 0xffffffffffffffe0\n  9447: a0 = a0 & 0xffffffffffffffe0\n  9450: u64 [s1 + 0x78] = a0\n  9453: sp = a0\n  9455: i32 a2 = a0 + 0\n  9457: a1 = 0x40\n  9460: a0 = u64 [s1 + 0xe0]\n  9464: ra = 0x122\n  9468: ecalli 9 // 'hash_keccak_256'\n  9470: a3 = u64 [s1 + 0x78]\n  9473: t0 = 0x124\n  9477: jump @1280\n      : @340 [@dyn 145] (gas: 2)\n  9480: a3 = u64 [s1 + 0x78]\n  9483: t0 = 292, jump @1280\n      : @341 [@dyn 146] (gas: 17)\n  9489: u64 [s1 + 0x38] = a0\n  9492: a0 = reverse a1\n  9494: u64 [s1 + 0x30] = a0\n  9497: a0 = reverse a2\n  9499: u64 [s1 + 0x28] = a0\n  9502: a0 = reverse a3\n  9504: u64 [s1 + 0x20] = a0\n  9507: a0 = sp + 0xffffffffffffffe0\n  9510: a0 = a0 & 0xffffffffffffffe0\n  9513: u64 [s1 + 0x78] = a0\n  9516: sp = a0\n  9518: a0 = u64 [s1 + 0x80]\n  9522: ra = 0x126\n  9526: ecalli 6 // 'caller'\n  9528: a2 = u64 [s1 + 0xb0]\n  9532: t0 = 0x128\n  9536: jump @1236\n      : @342 [@dyn 147] (gas: 2)\n  9539: a2 = u64 [s1 + 0xb0]\n  9543: t0 = 296, jump @1236\n      : @343 [@dyn 148] (gas: 7)\n  9549: u64 [s1 + 1784] = 0\n  9553: u64 [s1 + 0x6f0] = a1\n  9557: u64 [s1 + 0x6e8] = a0\n  9561: a1 = s1 + 0x6e0\n  9565: u64 [s1 + 0x6e0] = a3\n  9569: a0 = 0\n  9571: ra = 298, jump @19\n      : @344 [@dyn 149] (gas: 12)\n  9577: a0 = u64 [s1 + 0x20]\n  9580: a3 = s1 + 0x600\n  9584: u64 [a3 + 0xd8] = a0\n  9588: a0 = u64 [s1 + 0x28]\n  9591: u64 [a3 + 0xd0] = a0\n  9595: a0 = u64 [s1 + 0x30]\n  9598: u64 [a3 + 0xc8] = a0\n  9602: a0 = 0x20\n  9605: a1 = s1 + 0x6c0\n  9609: a2 = u64 [s1 + 0x38]\n  9612: u64 [a3 + 0xc0] = a2\n  9616: ra = 300, jump @19\n      : @345 [@dyn 150] (gas: 3)\n  9622: a1 = u64 [s1 + 0xc0]\n  9626: a0 = i32 [a1]\n  9628: jump @347 if a0 >u 63\n      : @346 (gas: 2)\n  9632: u32 [a1 + 0] = 0x40\n  9635: fallthrough\n      : @347 (gas: 50)\n  9636: a0 = sp + 0xffffffffffffffe0\n  9639: a0 = a0 & 0xffffffffffffffe0\n  9642: u64 [s1 + 0xc0] = a0\n  9646: sp = a0\n  9648: i32 a2 = a0 + 0\n  9650: a1 = 0x40\n  9653: a0 = u64 [s1 + 0xe0]\n  9657: ecalli 9 // 'hash_keccak_256'\n  9659: a0 = u64 [s1 + 0xd8]\n  9663: a1 = u64 [s1 + 0x58]\n  9666: a0 = a1 - a0\n  9669: a2 = u64 [s1 + 0x48]\n  9672: a1 = a0 - a2\n  9675: a0 = a0 <u a2\n  9678: a2 = u64 [s1 + 0xe8]\n  9682: a3 = u64 [s1 + 0x60]\n  9685: a2 = a3 - a2\n  9688: a3 = u64 [s1 + 0x40]\n  9691: a2 = a2 - a3\n  9694: a2 = a2 - a0\n  9697: a0 = u64 [s1 + 0xc8]\n  9701: a3 = u64 [s1 + 0x68]\n  9704: a0 = a3 - a0\n  9707: a3 = u64 [s1 + 0x50]\n  9710: a0 = a0 - a3\n  9713: a3 = s1 + 0x1878\n  9717: a5 = a3 + 0x500\n  9721: u64 [a5 + 0x20] = a2\n  9724: u64 [a5 + 0x18] = a1\n  9727: u64 [a5 + 0x10] = a0\n  9730: a4 = u64 [s1 + 0xc0]\n  9734: a0 = u64 [a4]\n  9736: a1 = u64 [s1 + 0xd0]\n  9740: a2 = u64 [s1 + 0x70]\n  9743: a1 = a2 - a1\n  9746: u64 [a5 + 0x8] = a1\n  9749: a1 = u64 [a4 + 0x8]\n  9752: a2 = reverse a0\n  9754: a0 = u64 [s1 + 0x78]\n  9757: u64 [a0 + 0x18] = a2\n  9760: a3 = u64 [a4 + 0x10]\n  9763: a2 = u64 [a4 + 0x18]\n  9766: a1 = reverse a1\n  9768: u64 [a0 + 0x10] = a1\n  9771: a1 = reverse a3\n  9773: u64 [a0 + 0x8] = a1\n  9776: a1 = reverse a2\n  9778: u64 [a0] = a1\n  9780: a1 = s1 + 0x1d80\n  9784: ra = 302, jump @22\n      : @348 [@dyn 151] (gas: 28)\n  9790: a0 = u64 [s1 + 0xd0]\n  9794: u64 [s1 + 0x560] = a0\n  9798: a0 = u64 [s1 + 0x88]\n  9802: u64 [s1 + 0x580] = a0\n  9806: a0 = u64 [s1 + 0xf0]\n  9810: u64 [s1 + 0x5a0] = a0\n  9814: a0 = u64 [s1 + 0xc8]\n  9818: u64 [s1 + 0x568] = a0\n  9822: a0 = u64 [s1 + 0x90]\n  9826: u64 [s1 + 0x588] = a0\n  9830: a0 = u64 [s1 + 0xf8]\n  9834: u64 [s1 + 0x5a8] = a0\n  9838: a0 = u64 [s1 + 0xd8]\n  9842: u64 [s1 + 0x570] = a0\n  9846: a0 = u64 [s1 + 0x98]\n  9850: u64 [s1 + 0x590] = a0\n  9854: a0 = u64 [s1 + 0xb8]\n  9858: u64 [s1 + 0x5b0] = a0\n  9862: a0 = u64 [s1 + 0xe8]\n  9866: u64 [s1 + 0x578] = a0\n  9870: a0 = u64 [s1 + 0xa0]\n  9874: u64 [s1 + 0x598] = a0\n  9878: a0 = s1 + 0x5a0\n  9882: a1 = s1 + 0x580\n  9886: a2 = s1 + 0x560\n  9890: a3 = u64 [s1 + 0xa8]\n  9894: u64 [s1 + 0x5b8] = a3\n  9898: ra = 304, jump @1160\n      : @349 [@dyn 152] (gas: 3)\n  9904: a0 = s1 + 0x540\n  9908: a1 = 0x40\n  9911: ra = 306, jump @17\n      : @350 [@dyn 153] (gas: 6)\n  9917: a4 = s1 + 0x500\n  9921: a3 = u64 [a4 + 0x58]\n  9924: a1 = u64 [a4 + 0x50]\n  9927: a2 = u64 [a4 + 0x48]\n  9930: a0 = u64 [a4 + 0x40]\n  9933: t0 = 308, jump @1239\n      : @351 [@dyn 154] (gas: 1)\n  9939: jump @353 if a1 == 0\n      : @352 (gas: 1)\n  9942: jump @754\n      : @353 (gas: 8)\n  9945: u64 [s1 + 1336] = 0\n  9949: u64 [s1 + 1328] = 0\n  9953: u64 [s1 + 1320] = 0\n  9957: a1 = s1 + 0x520\n  9961: u64 [s1 + 1312] = 0x1\n  9966: u64 [s1 + 0xf8] = a0\n  9970: ra = 0x202\n  9974: jump @19\n      : @354 (gas: 8)\n  9977: u64 [a3 + 192] = 0\n  9981: u64 [a3 + 184] = 0\n  9985: u64 [a3 + 176] = 0\n  9989: u64 [a3 + 168] = 0\n  9993: a0 = s1 + 0x2000\n  9997: i32 a0 = a0 + 0x120\n 10001: ecalli 16 // 'value_transferred'\n 10003: fallthrough\n      : @355 (gas: 9)\n 10004: a3 = s1 + 0x2078\n 10008: a0 = u64 [a3 + 0xb8]\n 10012: a1 = u64 [a3 + 0xc0]\n 10016: a2 = u64 [a3 + 0xb0]\n 10020: a3 = u64 [a3 + 0xa8]\n 10024: a1 = a1 | a2\n 10027: a0 = a0 | a3\n 10030: a0 = a0 | a1\n 10033: jump @357 if a0 == 0\n      : @356 (gas: 1)\n 10036: jump @795\n      : @357 (gas: 4)\n 10039: a0 = u64 [s1 + 0xf8]\n 10043: a0 = i32 [a0]\n 10045: a1 = 0x43\n 10048: jump @359 if a1 <u a0\n      : @358 (gas: 1)\n 10051: jump @796\n      : @359 (gas: 4)\n 10054: a0 = s1 + 0x13a0\n 10058: ra = 0x136\n 10062: t0 = 0x344\n 10066: jump @1273\n      : @360 [@dyn 155] (gas: 29)\n 10069: a1 = s1 + 0x1078\n 10073: a2 = a1 + 0x300\n 10077: a0 = u64 [a2 + 0x28]\n 10080: u64 [s1 + 0xf8] = a0\n 10084: a0 = u64 [a2 + 0x30]\n 10087: u64 [s1 + 0xf0] = a0\n 10091: a0 = u64 [a2 + 0x38]\n 10094: u64 [s1 + 0xe8] = a0\n 10098: a0 = u64 [a2 + 0x40]\n 10101: u64 [s1 + 0xe0] = a0\n 10105: a0 = s1 + 0x2000\n 10109: i32 a0 = a0 + 0x140\n 10113: a1 = 0x24\n 10116: ecalli 4 // 'call_data_load'\n 10118: a0 = s1 + 0x2078\n 10122: a1 = u64 [a0 + 0xc8]\n 10126: u64 [s1 + 0xd8] = a1\n 10130: a1 = u64 [a0 + 0xd0]\n 10134: u64 [s1 + 0xd0] = a1\n 10138: a1 = u64 [a0 + 0xd8]\n 10142: u64 [s1 + 0xc8] = a1\n 10146: a0 = u64 [a0 + 0xe0]\n 10150: u64 [s1 + 0xc0] = a0\n 10154: a0 = 0x301f0\n 10159: u64 [s1 + 0xb8] = a0\n 10163: i32 a0 = a0 + 0\n 10165: ra = 0x138\n 10169: ecalli 6 // 'caller'\n 10171: fallthrough\n      : @361 [@dyn 156] (gas: 5)\n 10172: a2 = u64 [s1 + 0xb8]\n 10176: a0 = u64 [a2 + 0x8]\n 10179: a1 = i32 [a2 + 0x10]\n 10182: a2 = u64 [a2]\n 10184: t0 = 314, jump @1255\n      : @362 [@dyn 157] (gas: 32)\n 10190: a0 = a0 >> 0x20\n 10193: a2 = reverse a2\n 10195: a3 = a2 << 0x20\n 10198: a0 = a0 | a3\n 10201: a2 = a2 >> 0x20\n 10204: a3 = s1 + 0x1078\n 10208: a4 = u64 [s1 + 0xc0]\n 10212: a5 = a3 + 0x200\n 10216: u64 [a5 + 0xe0] = a4\n 10220: a4 = u64 [s1 + 0xc8]\n 10224: u64 [a5 + 0xd8] = a4\n 10228: a4 = u64 [s1 + 0xd0]\n 10232: u64 [a5 + 0xd0] = a4\n 10236: a4 = u64 [s1 + 0xd8]\n 10240: u64 [a5 + 0xc8] = a4\n 10244: a4 = u64 [s1 + 0xe0]\n 10248: u64 [a3 + 0x300] = a4\n 10252: a4 = u64 [s1 + 0xe8]\n 10256: u64 [a5 + 0xf8] = a4\n 10260: a4 = u64 [s1 + 0xf0]\n 10264: u64 [a5 + 0xf0] = a4\n 10268: a4 = u64 [s1 + 0xf8]\n 10272: u64 [a5 + 0xe8] = a4\n 10276: a4 = a3 + 0x300\n 10280: u64 [a4 + 0x18] = a2\n 10283: u64 [a4 + 0x10] = a0\n 10286: u64 [a4 + 0x8] = a1\n 10289: a0 = s1 + 0x1380\n 10293: a1 = s1 + 0x1360\n 10297: a2 = s1 + 0x1340\n 10301: u64 [a3 + 800] = 0\n 10305: ra = 316, jump @1160\n      : @363 [@dyn 158] (gas: 3)\n 10311: a0 = s1 + 0x1320\n 10315: a1 = 0x40\n 10318: ra = 318, jump @17\n      : @364 [@dyn 159] (gas: 7)\n 10324: a3 = s1 + 0x1078\n 10328: a5 = a3 + 0x200\n 10332: a4 = u64 [a5 + 0xc0]\n 10336: a1 = u64 [a5 + 0xb8]\n 10340: a2 = u64 [a5 + 0xb0]\n 10344: a0 = u64 [a5 + 0xa8]\n 10348: t0 = 320, jump @1268\n      : @365 [@dyn 160] (gas: 1)\n 10354: jump @367 if a1 == 0\n      : @366 (gas: 1)\n 10357: jump @754\n      : @367 (gas: 8)\n 10360: u64 [a3 + 672] = 0\n 10364: u64 [a3 + 664] = 0\n 10368: u64 [a3 + 648] = 0x1\n 10373: a1 = s1 + 0x1300\n 10377: u64 [a3 + 656] = 0\n 10381: u64 [s1 + 0xf8] = a0\n 10385: ra = 0x202\n 10389: jump @19\n      : @368 (gas: 10)\n 10392: u64 [a3 + 672] = 0\n 10396: u64 [a3 + 664] = 0\n 10400: u64 [a3 + 656] = 0\n 10404: u64 [a3 + 648] = 0\n 10408: a0 = s1 + 0x2000\n 10412: i32 a0 = a0 + 0x300\n 10416: ra = 0x142\n 10420: ecalli 16 // 'value_transferred'\n 10422: t0 = 0x144\n 10426: jump @1279\n      : @369 [@dyn 161] (gas: 1)\n 10429: t0 = 324, jump @1279\n      : @370 [@dyn 162] (gas: 8)\n 10435: a0 = u64 [a4 + 0x98]\n 10439: a1 = u64 [a4 + 0xa0]\n 10443: a2 = u64 [a4 + 0x90]\n 10447: a3 = u64 [a4 + 0x88]\n 10451: a1 = a1 | a2\n 10454: a0 = a0 | a3\n 10457: a0 = a0 | a1\n 10460: jump @372 if a0 == 0\n      : @371 (gas: 1)\n 10463: jump @797\n      : @372 (gas: 3)\n 10466: a0 = u64 [s1 + 0xf8]\n 10470: a0 = i32 [a0]\n 10472: jump @374 if a0 >u 67\n      : @373 (gas: 1)\n 10476: jump @798\n      : @374 (gas: 16)\n 10479: a0 = s1 + 0x2000\n 10483: i32 a0 = a0 + 0x320\n 10487: a1 = 0x4\n 10490: ecalli 4 // 'call_data_load'\n 10492: a1 = s1 + 0x2078\n 10496: a2 = a1 + 0x200\n 10500: a0 = u64 [a2 + 0xc0]\n 10504: u64 [s1 + 0xe0] = a0\n 10508: a0 = u64 [a2 + 0xb8]\n 10512: u64 [s1 + 0xe8] = a0\n 10516: a0 = u64 [a2 + 0xb0]\n 10520: u64 [s1 + 0xf0] = a0\n 10524: a0 = u64 [a2 + 0xa8]\n 10528: u64 [s1 + 0xf8] = a0\n 10532: a0 = s1 + 0x1b00\n 10536: ra = 326, jump @1078\n      : @375 [@dyn 163] (gas: 16)\n 10542: a1 = s1 + 0x1878\n 10546: a2 = a1 + 0x200\n 10550: a0 = u64 [a2 + 0x88]\n 10554: u64 [s1 + 0xd8] = a0\n 10558: a0 = u64 [a2 + 0x90]\n 10562: u64 [s1 + 0xd0] = a0\n 10566: a0 = u64 [a2 + 0x98]\n 10570: u64 [s1 + 0xc8] = a0\n 10574: a0 = u64 [a2 + 0xa0]\n 10578: u64 [s1 + 0xc0] = a0\n 10582: a0 = s1 + 0x2000\n 10586: i32 a0 = a0 + 0x340\n 10590: ra = 0x148\n 10594: ecalli 1 // 'balance'\n 10596: t0 = 0x14a\n 10600: jump @1279\n      : @376 [@dyn 164] (gas: 1)\n 10603: t0 = 330, jump @1279\n      : @377 [@dyn 165] (gas: 32)\n 10609: a0 = u64 [a4 + 0xc8]\n 10613: a1 = u64 [a4 + 0xd0]\n 10617: a2 = u64 [a4 + 0xd8]\n 10621: a3 = u64 [a4 + 0xe0]\n 10625: a4 = s1 + 0x1878\n 10629: a5 = a4 + 0x200\n 10633: u64 [a5 + 0x20] = a3\n 10636: u64 [a5 + 0x18] = a2\n 10639: u64 [a5 + 0x10] = a1\n 10642: u64 [a5 + 0x8] = a0\n 10645: a0 = u64 [s1 + 0xc0]\n 10649: u64 [a5 + 0x40] = a0\n 10652: a0 = u64 [s1 + 0xc8]\n 10656: u64 [a5 + 0x38] = a0\n 10659: a0 = u64 [s1 + 0xd0]\n 10663: u64 [a5 + 0x30] = a0\n 10666: a0 = u64 [s1 + 0xd8]\n 10670: u64 [a5 + 0x28] = a0\n 10673: a0 = u64 [s1 + 0xe0]\n 10677: u64 [a5 + 0x60] = a0\n 10680: a0 = u64 [s1 + 0xe8]\n 10684: u64 [a5 + 0x58] = a0\n 10687: a0 = u64 [s1 + 0xf0]\n 10691: u64 [a5 + 0x50] = a0\n 10694: a5 = a4\n 10696: a0 = s1 + 0x1ae0\n 10700: a1 = s1 + 0x1ac0\n 10704: a2 = s1 + 0x1aa0\n 10708: a3 = s1 + 0x1a80\n 10712: a4 = u64 [s1 + 0xf8]\n 10716: u64 [a5 + 0x248] = a4\n 10720: ra = 332, jump @1126\n      : @378 [@dyn 166] (gas: 17)\n 10726: a1 = s1 + 0x1878\n 10730: a2 = a1 + 0x200\n 10734: a0 = u64 [a2 + 0x80]\n 10738: u64 [s1 + 0xc0] = a0\n 10742: a0 = u64 [a2 + 0x78]\n 10745: u64 [s1 + 0xc8] = a0\n 10749: a0 = u64 [a2 + 0x70]\n 10752: u64 [s1 + 0xd0] = a0\n 10756: a0 = u64 [a2 + 0x68]\n 10759: u64 [s1 + 0xd8] = a0\n 10763: a0 = s1 + 0x2000\n 10767: i32 a0 = a0 + 0x360\n 10771: a1 = 0x24\n 10774: ra = 0x14e\n 10778: ecalli 4 // 'call_data_load'\n 10780: t0 = 0x150\n 10784: jump @1279\n      : @379 [@dyn 167] (gas: 1)\n 10787: t0 = 336, jump @1279\n      : @380 [@dyn 168] (gas: 20)\n 10793: a0 = u64 [a4 + 0xf0]\n 10797: a1 = u64 [a4 + 0xe8]\n 10801: a2 = u64 [a4 + 0xf8]\n 10805: a3 = u64 [a3 + 0x300]\n 10809: a5 = u64 [s1 + 0xd0]\n 10813: a4 = a5 ^ a0\n 10816: a0 = a5 <u a0\n 10819: a5 = u64 [s1 + 0xd8]\n 10823: a1 = a5 <u a1\n 10826: a1 = a0 if a4 != 0\n 10829: a4 = u64 [s1 + 0xc0]\n 10833: a0 = a4 ^ a3\n 10836: a3 = a4 <u a3\n 10839: a5 = u64 [s1 + 0xc8]\n 10843: a4 = a5 <u a2\n 10846: a4 = a3 if a0 != 0\n 10849: a2 = a2 ^ a5\n 10852: a0 = a0 | a2\n 10855: a1 = a4 if a0 != 0\n 10858: jump @382 if a1 != 0\n      : @381 (gas: 1)\n 10861: jump @664\n      : @382 (gas: 3)\n 10864: a0 = s1 + 0x1880\n 10868: a1 = 0x40\n 10871: ra = 338, jump @17\n      : @383 [@dyn 169] (gas: 13)\n 10877: a2 = s1 + 0x1878\n 10881: t0 = u64 [a2 + 0x20]\n 10884: a5 = u64 [a2 + 0x18]\n 10887: a4 = u64 [a2 + 0x10]\n 10890: a3 = u64 [a2 + 0x8]\n 10893: a0 = a4 | t0\n 10896: a1 = a3 | a5\n 10899: a1 = a1 | a0\n 10902: a1 = a1 >> 0x20\n 10905: a0 = a0 | a5\n 10908: a0 = a0 << 0x20\n 10911: a0 = a0 | a1\n 10914: jump @385 if a0 == 0\n      : @384 (gas: 1)\n 10917: jump @754\n      : @385 (gas: 13)\n 10920: a0 = s1 + 0x1078\n 10924: u64 [a0 + 2040] = 0\n 10928: u64 [a0 + 2032] = 0\n 10932: u64 [a0 + 2024] = 0\n 10936: a0 = 0x8c379a000000000\n 10946: a1 = s1 + 0x1860\n 10950: u64 [a2] = a0\n 10952: a0 = a3\n 10954: u64 [s1 + 0xf8] = a3\n 10958: u64 [s1 + 0xf0] = a4\n 10962: u64 [s1 + 0xe8] = t0\n 10966: u64 [s1 + 0xe0] = a5\n 10970: ra = 340, jump @19\n      : @386 [@dyn 170] (gas: 5)\n 10976: a1 = u64 [s1 + 0xf8]\n 10980: a0 = u64 [s1 + 0xe8]\n 10984: a3 = u64 [s1 + 0xe0]\n 10988: a3 = a3 | a0\n 10991: t0 = 342, jump @1245\n      : @387 [@dyn 171] (gas: 1)\n 10997: jump @389 if a0 != 0\n      : @388 (gas: 1)\n 11000: jump @754\n      : @389 (gas: 10)\n 11003: i32 a0 = a1 + 0x4\n 11006: a2 = s1 + 0x1078\n 11010: u64 [a2 + 2016] = 0\n 11014: u64 [a2 + 2008] = 0\n 11018: u64 [a2 + 1992] = 0x20\n 11023: a1 = s1 + 0x1840\n 11027: u64 [a2 + 2000] = 0\n 11031: u64 [s1 + 0xe8] = a3\n 11035: u64 [s1 + 0xe0] = a4\n 11039: ra = 344, jump @19\n      : @390 [@dyn 172] (gas: 1)\n 11045: t0 = 346, jump @1243\n      : @391 [@dyn 173] (gas: 1)\n 11051: jump @393 if a0 != 0\n      : @392 (gas: 1)\n 11054: jump @754\n      : @393 (gas: 8)\n 11057: i32 a0 = a1 + 0x24\n 11060: a2 = s1 + 0x1078\n 11064: u64 [a2 + 1984] = 0\n 11068: u64 [a2 + 1976] = 0\n 11072: u64 [a2 + 1960] = 0x2e\n 11077: a1 = s1 + 0x1820\n 11081: u64 [a2 + 1968] = 0\n 11085: ra = 348, jump @19\n      : @394 [@dyn 174] (gas: 4)\n 11091: a4 = u64 [s1 + 0xe8]\n 11095: a3 = u64 [s1 + 0xf0]\n 11099: a1 = u64 [s1 + 0xf8]\n 11103: t0 = 350, jump @1250\n      : @395 [@dyn 175] (gas: 1)\n 11109: jump @397 if a0 != 0\n      : @396 (gas: 1)\n 11112: jump @754\n      : @397 (gas: 14)\n 11115: i32 a0 = a1 + 0x44\n 11118: a1 = u64 [0x20040]\n 11123: u64 [s1 + 0xe0] = a2\n 11127: a4 = s1 + 0x1078\n 11131: a5 = a4 + 0x700\n 11135: u64 [a5 + 0xa0] = a1\n 11139: a1 = u64 [0x20048]\n 11144: a2 = u64 [0x20050]\n 11149: a3 = u64 [0x20058]\n 11154: u64 [a5 + 0x98] = a1\n 11158: u64 [a5 + 0x90] = a2\n 11162: a1 = s1 + 0x1800\n 11166: u64 [a5 + 0x88] = a3\n 11170: ra = 352, jump @19\n      : @398 [@dyn 176] (gas: 1)\n 11176: t0 = 354, jump @1244\n      : @399 [@dyn 177] (gas: 1)\n 11182: jump @401 if a0 != 0\n      : @400 (gas: 1)\n 11185: jump @754\n      : @401 (gas: 11)\n 11188: i32 a0 = a3 + 0x64\n 11191: a1 = u64 [0x20060]\n 11196: a2 = u64 [0x20068]\n 11201: a4 = s1 + 0x1078\n 11205: u64 [a4 + 0x780] = a1\n 11209: u64 [a4 + 1904] = 0\n 11213: u64 [a4 + 0x778] = a2\n 11217: a1 = s1 + 0x17e0\n 11221: u64 [a4 + 1896] = 0\n 11225: ra = 0x1de\n 11229: jump @19\n      : @402 (gas: 3)\n 11232: a0 = u64 [s1 + 0xf8]\n 11236: a0 = i32 [a0]\n 11238: jump @404 if a0 >u 35\n      : @403 (gas: 1)\n 11242: jump @799\n      : @404 (gas: 7)\n 11245: a0 = s1 + 0x2000\n 11249: i32 a0 = a0 + 0xfffffffffffffdc0\n 11253: a1 = 0x4\n 11256: ra = 0x164\n 11260: ecalli 4 // 'call_data_load'\n 11262: t0 = 0x166\n 11266: jump @1257\n      : @405 [@dyn 178] (gas: 1)\n 11269: t0 = 358, jump @1257\n      : @406 [@dyn 179] (gas: 15)\n 11275: a2 = u64 [a4 + 0x48]\n 11278: a0 = u64 [a4 + 0x50]\n 11281: a1 = u64 [a4 + 0x58]\n 11284: a3 = u64 [a4 + 0x60]\n 11287: a4 = s1 + 0x7ff\n 11291: a4 = a4 + 0x71\n 11294: u64 [a4 + 0x48] = a3\n 11297: u64 [a4 + 0x40] = a1\n 11300: u64 [a4 + 0x38] = a0\n 11303: a0 = s1 + 0x7ff\n 11307: a0 = a0 + 0xc1\n 11311: a1 = s1 + 0x7ff\n 11315: a1 = a1 + 0xa1\n 11319: u64 [a4 + 0x30] = a2\n 11322: ra = 360, jump @989\n      : @407 [@dyn 180] (gas: 14)\n 11328: a1 = s1 + 0x7ff\n 11332: a1 = a1 + 0x71\n 11335: a0 = u64 [a1 + 0x68]\n 11338: u64 [s1 + 0xf8] = a0\n 11342: a0 = u64 [a1 + 0x60]\n 11345: u64 [s1 + 0xf0] = a0\n 11349: a0 = u64 [a1 + 0x58]\n 11352: u64 [s1 + 0xe8] = a0\n 11356: a0 = u64 [a1 + 0x50]\n 11359: u64 [s1 + 0xe0] = a0\n 11363: a0 = s1 + 0x7ff\n 11367: a0 = a0 + 0x81\n 11371: a1 = 0x40\n 11374: ra = 362, jump @17\n      : @408 [@dyn 181] (gas: 7)\n 11380: a3 = s1 + 0x7ff\n 11384: a3 = a3 + 0x71\n 11387: a0 = u64 [a3 + 0x28]\n 11390: a1 = u64 [a3 + 0x20]\n 11393: a2 = u64 [a3 + 0x18]\n 11396: a4 = u64 [a3 + 0x10]\n 11399: t0 = 364, jump @1246\n      : @409 [@dyn 182] (gas: 1)\n 11405: jump @411 if a0 == 0\n      : @410 (gas: 1)\n 11408: jump @754\n      : @411 (gas: 16)\n 11411: a0 = u64 [s1 + 0xe0]\n 11415: a1 = s1 + 0x1000\n 11419: u64 [a1 + 0xfffffffffffff860] = a0\n 11423: a0 = u64 [s1 + 0xe8]\n 11427: a1 = s1 + 0x1000\n 11431: u64 [a1 + 0xfffffffffffff868] = a0\n 11435: a0 = u64 [s1 + 0xf0]\n 11439: u64 [a3] = a0\n 11441: a1 = s1 + 0x7ff\n 11445: a1 = a1 + 0x61\n 11448: a0 = u64 [s1 + 0xf8]\n 11452: u64 [a3 + 0x8] = a0\n 11455: a0 = a4\n 11457: u64 [s1 + 0xf8] = a4\n 11461: ra = 0x202\n 11465: jump @19\n      : @412 (gas: 10)\n 11468: u64 [a2 + 1504] = 0\n 11472: u64 [a2 + 1496] = 0\n 11476: u64 [a2 + 1488] = 0\n 11480: u64 [a2 + 1480] = 0\n 11484: a0 = s1 + 0x2000\n 11488: i32 a0 = a0 + 0xfffffffffffffe40\n 11492: ra = 0x16e\n 11496: ecalli 16 // 'value_transferred'\n 11498: t0 = 0x170\n 11502: jump @1257\n      : @413 [@dyn 183] (gas: 1)\n 11505: t0 = 368, jump @1257\n      : @414 [@dyn 184] (gas: 8)\n 11511: a0 = u64 [a4 + 0xd8]\n 11515: a1 = u64 [a4 + 0xe0]\n 11519: a2 = u64 [a4 + 0xd0]\n 11523: a3 = u64 [a4 + 0xc8]\n 11527: a1 = a1 | a2\n 11530: a0 = a0 | a3\n 11533: a0 = a0 | a1\n 11536: jump @416 if a0 == 0\n      : @415 (gas: 1)\n 11539: jump @800\n      : @416 (gas: 3)\n 11542: a0 = u64 [s1 + 0xf8]\n 11546: a0 = i32 [a0]\n 11548: jump @418 if a0 >u 3\n      : @417 (gas: 1)\n 11552: jump @801\n      : @418 (gas: 4)\n 11555: a0 = s1 + 0x7ff\n 11559: a0 = a0 + 0x3c1\n 11563: a1 = 0x40\n 11566: ra = 370, jump @17\n      : @419 [@dyn 185] (gas: 20)\n 11572: a1 = s1 + 0x7ff\n 11576: a1 = a1 + 0x71\n 11579: a2 = a1 + 0x300\n 11583: a0 = u64 [a2 + 0x68]\n 11586: u64 [s1 + 0x58] = a0\n 11589: a0 = u64 [a2 + 0x60]\n 11592: u64 [s1 + 0x60] = a0\n 11595: a0 = u64 [a2 + 0x58]\n 11598: u64 [s1 + 0x68] = a0\n 11601: a0 = u64 [a2 + 0x50]\n 11604: u64 [s1 + 0x70] = a0\n 11607: a1 = s1 + 0x1878\n 11611: u64 [a1 + 1536] = 0\n 11615: u64 [a1 + 1528] = 0\n 11619: u64 [a1 + 1520] = 0\n 11623: u64 [a1 + 1512] = 0x4\n 11628: a0 = s1 + 0x7ff\n 11632: a0 = a0 + 0x3a1\n 11636: a1 = s1 + 0x1e60\n 11640: ra = 372, jump @21\n      : @420 [@dyn 186] (gas: 36)\n 11646: a0 = s1 + 0x7ff\n 11650: a0 = a0 + 0x71\n 11653: t2 = u64 [a0 + 0x340]\n 11657: ra = u64 [a0 + 0x338]\n 11661: t1 = u64 [a0 + 0x348]\n 11665: a4 = u64 [a0 + 0x330]\n 11669: a0 = t2 << 0x3f\n 11672: a1 = ra >> 0x1\n 11675: a0 = a0 | a1\n 11678: a1 = t1 << 0x3f\n 11681: a2 = t2 >> 0x1\n 11684: a1 = a1 | a2\n 11687: a2 = ra << 0x3f\n 11690: a3 = a4 >> 0x1\n 11693: a5 = a3 | a2\n 11696: a2 = t1 >> 0x1\n 11699: u64 [s1 + 0xe8] = a4\n 11703: a4 = a4 & 0x1\n 11706: a3 = -a4\n 11708: a1 = a1 & a3\n 11711: t0 = a3 & a0\n 11714: a2 = a2 & a3\n 11717: a0 = a5 & 0x7f\n 11720: u64 [s1 + 0xf0] = a0\n 11724: a5 = a0 if a4 == 0\n 11727: u64 [s1 + 0xb8] = a5\n 11731: a0 = a5 <u 0x20\n 11734: u64 [s1 + 0xa8] = t0\n 11738: a0 = 0 if t0 != 0\n 11740: u64 [s1 + 0xb0] = a1\n 11744: u64 [s1 + 0xa0] = a2\n 11748: a1 = a1 | a2\n 11751: a0 = 0 if a1 != 0\n 11753: u64 [s1 + 0xf8] = a4\n 11757: a1 = a4 <u 0x1\n 11760: jump @422 if a1 == a0\n      : @421 (gas: 1)\n 11763: jump @802\n      : @422 (gas: 12)\n 11766: a2 = u64 [s1 + 0x60]\n 11769: a3 = u64 [s1 + 0x70]\n 11772: a0 = a3 | a2\n 11775: a1 = u64 [s1 + 0x68]\n 11778: a4 = u64 [s1 + 0x58]\n 11781: a1 = a1 | a4\n 11784: a0 = a0 | a1\n 11787: a0 = a0 >> 0x20\n 11790: a1 = a1 | a2\n 11793: a1 = a1 << 0x20\n 11796: a1 = a1 | a0\n 11799: jump @424 if a1 == 0\n      : @423 (gas: 1)\n 11802: jump @754\n      : @424 (gas: 18)\n 11805: a0 = a3\n 11807: u64 [s1 + 0xd0] = ra\n 11811: u64 [s1 + 0xd8] = t2\n 11815: u64 [s1 + 0xe0] = t1\n 11819: a1 = u64 [s1 + 0xb8]\n 11823: a3 = s1 + 0x7ff\n 11827: a3 = a3 + 0x71\n 11830: a4 = a3 + 0x300\n 11834: u64 [a4 + 0x10] = a1\n 11837: a1 = u64 [s1 + 0xa8]\n 11841: u64 [a4 + 0x18] = a1\n 11844: a1 = u64 [s1 + 0xb0]\n 11848: u64 [a4 + 0x20] = a1\n 11851: a1 = s1 + 0x7ff\n 11855: a1 = a1 + 0x381\n 11859: a2 = u64 [s1 + 0xa0]\n 11863: u64 [a4 + 0x28] = a2\n 11866: ra = 374, jump @19\n      : @425 [@dyn 187] (gas: 2)\n 11872: a0 = u64 [s1 + 0xf8]\n 11876: jump @427 if a0 == 0\n      : @426 (gas: 1)\n 11879: jump @739\n      : @427 (gas: 10)\n 11882: a0 = u64 [s1 + 0x60]\n 11885: a1 = u64 [s1 + 0x58]\n 11888: a0 = a0 | a1\n 11891: a1 = 0xffffffe0\n 11901: a3 = u64 [s1 + 0x70]\n 11904: a1 = a3 <u a1\n 11907: a2 = u64 [s1 + 0x68]\n 11910: a1 = 0 if a2 != 0\n 11912: a1 = 0 if a0 != 0\n 11914: jump @429 if a1 != 0\n      : @428 (gas: 1)\n 11917: jump @754\n      : @429 (gas: 16)\n 11920: a0 = u64 [s1 + 0xe8]\n 11924: a1 = a0 & 0xffffffffffffff00\n 11928: i32 a0 = a3 + 0x20\n 11931: a2 = s1 + 0x7ff\n 11935: a2 = a2 + 0x71\n 11938: a3 = u64 [s1 + 0xd0]\n 11942: a4 = a2 + 0x200\n 11946: u64 [a4 + 0x98] = a3\n 11950: u64 [a4 + 0x90] = a1\n 11954: a1 = u64 [s1 + 0xd8]\n 11958: u64 [a4 + 0xa0] = a1\n 11962: a1 = s1 + 0x7ff\n 11966: a1 = a1 + 0x301\n 11970: a3 = u64 [s1 + 0xe0]\n 11974: u64 [a4 + 0xa8] = a3\n 11978: ra = 376, jump @19\n      : @430 [@dyn 188] (gas: 9)\n 11984: a5 = u64 [s1 + 0x70]\n 11987: t2 = 0\n 11989: t1 = 0\n 11991: t0 = 0\n 11993: a0 = u64 [s1 + 0xf0]\n 11997: a0 = a0 >u 0\n 11999: a0 = a0 << 0x5\n 12002: u64 [s1 + 0xf8] = a0\n 12006: jump @747\n      : @431 (gas: 10)\n 12009: u64 [a2 + 1344] = 0\n 12013: u64 [a2 + 1336] = 0\n 12017: u64 [a2 + 1328] = 0\n 12021: u64 [a2 + 1320] = 0\n 12025: a0 = s1 + 0x2000\n 12029: i32 a0 = a0 + 0xfffffffffffffda0\n 12033: ra = 0x17a\n 12037: ecalli 16 // 'value_transferred'\n 12039: t0 = 0x17c\n 12043: jump @1257\n      : @432 [@dyn 189] (gas: 1)\n 12046: t0 = 380, jump @1257\n      : @433 [@dyn 190] (gas: 8)\n 12052: a0 = u64 [a4 + 0x38]\n 12055: a1 = u64 [a4 + 0x40]\n 12058: a2 = u64 [a4 + 0x30]\n 12061: a3 = u64 [a4 + 0x28]\n 12064: a1 = a1 | a2\n 12067: a0 = a0 | a3\n 12070: a0 = a0 | a1\n 12073: jump @435 if a0 == 0\n      : @434 (gas: 1)\n 12076: jump @808\n      : @435 (gas: 3)\n 12079: a0 = u64 [s1 + 0xf8]\n 12083: a0 = i32 [a0]\n 12085: jump @437 if a0 >u 3\n      : @436 (gas: 1)\n 12089: jump @809\n      : @437 (gas: 4)\n 12092: a0 = s1 + 0x7ff\n 12096: a0 = a0 + 0x41\n 12099: a1 = 0x40\n 12102: ra = 382, jump @17\n      : @438 [@dyn 191] (gas: 9)\n 12108: a0 = s1 + 0x1000\n 12112: a3 = u64 [a0 + 0xfffffffffffff858]\n 12116: a0 = s1 + 0x1000\n 12120: a1 = u64 [a0 + 0xfffffffffffff850]\n 12124: a0 = s1 + 0x1000\n 12128: a2 = u64 [a0 + 0xfffffffffffff848]\n 12132: a0 = s1 + 0x1000\n 12136: a0 = u64 [a0 + 0xfffffffffffff840]\n 12140: t0 = 384, jump @1239\n      : @439 [@dyn 192] (gas: 1)\n 12146: jump @441 if a1 == 0\n      : @440 (gas: 1)\n 12149: jump @754\n      : @441 (gas: 13)\n 12152: a1 = s1 + 0x1000\n 12156: u64 [a1 + 4294965304] = 0\n 12160: a1 = s1 + 0x1000\n 12164: u64 [a1 + 4294965296] = 0\n 12168: a1 = s1 + 0x1000\n 12172: u64 [a1 + 4294965288] = 0\n 12176: a1 = s1 + 0x7ff\n 12180: a1 = a1 + 0x21\n 12183: a3 = s1 + 0x1000\n 12187: u64 [a3 + 4294965280] = 0x12\n 12192: u64 [s1 + 0xf8] = a0\n 12196: ra = 0x202\n 12200: jump @19\n      : @442 (gas: 8)\n 12203: u64 [a2 + 1056] = 0\n 12207: u64 [a2 + 1048] = 0\n 12211: u64 [a2 + 1040] = 0\n 12215: u64 [a2 + 1032] = 0\n 12219: a0 = s1 + 0x2000\n 12223: i32 a0 = a0 + 0xfffffffffffffc80\n 12227: ecalli 16 // 'value_transferred'\n 12229: fallthrough\n      : @443 (gas: 11)\n 12230: a3 = s1 + 0x1878\n 12234: a5 = a3 + 0x400\n 12238: a0 = u64 [a5 + 0x18]\n 12241: a1 = u64 [a5 + 0x20]\n 12244: a2 = u64 [a5 + 0x10]\n 12247: a4 = a3\n 12249: a3 = u64 [a5 + 0x8]\n 12252: a1 = a1 | a2\n 12255: a0 = a0 | a3\n 12258: a0 = a0 | a1\n 12261: jump @445 if a0 == 0\n      : @444 (gas: 1)\n 12264: jump @810\n      : @445 (gas: 3)\n 12267: a0 = u64 [s1 + 0xf8]\n 12271: a1 = i32 [a0]\n 12273: jump @447 if a1 >u 3\n      : @446 (gas: 1)\n 12277: jump @811\n      : @447 (gas: 7)\n 12280: u64 [a4 + 1088] = 0\n 12284: u64 [a4 + 1080] = 0\n 12288: u64 [a4 + 1072] = 0\n 12292: u64 [a4 + 1064] = 0x3\n 12297: a0 = s1 + 0x2a0\n 12301: a1 = s1 + 0x1ca0\n 12305: ra = 386, jump @21\n      : @448 [@dyn 193] (gas: 34)\n 12311: a1 = s1 + 0x200\n 12315: a2 = u64 [a1 + 0xb0]\n 12319: a3 = u64 [a1 + 0xa8]\n 12323: a5 = u64 [a1 + 0xb8]\n 12327: a0 = u64 [a1 + 0xa0]\n 12331: a4 = a2 << 0x3f\n 12334: a1 = a3 >> 0x1\n 12337: t0 = a1 | a4\n 12340: a1 = a5 << 0x3f\n 12343: u64 [s1 + 0xf0] = a2\n 12347: a2 = a2 >> 0x1\n 12350: a1 = a1 | a2\n 12353: u64 [s1 + 0xe0] = a3\n 12357: a2 = a3 << 0x3f\n 12360: a3 = a0 >> 0x1\n 12363: a4 = a3 | a2\n 12366: u64 [s1 + 0xe8] = a5\n 12370: t1 = a5 >> 0x1\n 12373: u64 [s1 + 0xd0] = a0\n 12377: a5 = a0 & 0x1\n 12380: a3 = -a5\n 12382: t2 = a3 & a1\n 12385: a2 = a3 & t0\n 12388: a3 = a3 & t1\n 12391: a0 = a4 & 0x7f\n 12394: u64 [s1 + 0xd8] = a0\n 12398: a4 = a0 if a5 == 0\n 12401: a0 = a4 <u 0x20\n 12404: a0 = 0 if a2 != 0\n 12406: a1 = t2 | a3\n 12409: a0 = 0 if a1 != 0\n 12411: u64 [s1 + 0xf8] = a5\n 12415: a1 = a5 <u 0x1\n 12418: jump @450 if a1 == a0\n      : @449 (gas: 1)\n 12421: jump @812\n      : @450 (gas: 12)\n 12424: u64 [s1 + 0xb8] = a4\n 12428: a5 = s1 + 0x200\n 12432: u64 [a5 + 0x80] = a4\n 12436: u64 [s1 + 0xa8] = a2\n 12440: u64 [a5 + 0x88] = a2\n 12444: u64 [s1 + 0xb0] = t2\n 12448: u64 [s1 + 0x290] = t2\n 12452: a0 = 0x80\n 12456: a1 = s1 + 0x280\n 12460: u64 [s1 + 0xa0] = a3\n 12464: u64 [a5 + 0x98] = a3\n 12468: ra = 388, jump @19\n      : @451 [@dyn 194] (gas: 2)\n 12474: a0 = u64 [s1 + 0xf8]\n 12478: jump @453 if a0 == 0\n      : @452 (gas: 1)\n 12481: jump @700\n      : @453 (gas: 13)\n 12484: a0 = u64 [s1 + 0xd0]\n 12488: a0 = a0 & 0xffffffffffffff00\n 12492: a1 = u64 [s1 + 0xe0]\n 12496: a2 = s1 + 0x200\n 12500: u64 [a2 + 0x8] = a1\n 12503: u64 [a2] = a0\n 12505: a0 = u64 [s1 + 0xf0]\n 12509: u64 [a2 + 0x10] = a0\n 12512: a0 = u64 [s1 + 0xe8]\n 12516: u64 [a2 + 0x18] = a0\n 12519: a0 = 0xa0\n 12523: a1 = s1 + 0x200\n 12527: ra = 390, jump @19\n      : @454 [@dyn 195] (gas: 7)\n 12533: a1 = 0\n 12535: a0 = 0\n 12537: t0 = 0\n 12539: a3 = 0xc0\n 12543: a2 = u64 [s1 + 0xd8]\n 12547: a3 = 0xa0 if a2 == 0\n 12551: jump @733\n      : @455 (gas: 1)\n 12554: jump @457 if a0 == 1889567281\n      : @456 (gas: 1)\n 12561: jump @784\n      : @457 (gas: 10)\n 12564: u64 [a2 + 1440] = 0\n 12568: u64 [a2 + 1432] = 0\n 12572: u64 [a2 + 1424] = 0\n 12576: u64 [a2 + 1416] = 0\n 12580: a0 = s1 + 0x2000\n 12584: i32 a0 = a0 + 0xfffffffffffffe00\n 12588: ra = 0x188\n 12592: ecalli 16 // 'value_transferred'\n 12594: t0 = 0x18a\n 12598: jump @1257\n      : @458 [@dyn 196] (gas: 1)\n 12601: t0 = 394, jump @1257\n      : @459 [@dyn 197] (gas: 8)\n 12607: a0 = u64 [a4 + 0x98]\n 12611: a1 = u64 [a4 + 0xa0]\n 12615: a2 = u64 [a4 + 0x90]\n 12619: a3 = u64 [a4 + 0x88]\n 12623: a1 = a1 | a2\n 12626: a0 = a0 | a3\n 12629: a0 = a0 | a1\n 12632: jump @461 if a0 == 0\n      : @460 (gas: 1)\n 12635: jump @818\n      : @461 (gas: 4)\n 12638: a0 = u64 [s1 + 0xf8]\n 12642: a0 = i32 [a0]\n 12644: a1 = 0x23\n 12647: jump @463 if a1 <u a0\n      : @462 (gas: 1)\n 12650: jump @819\n      : @463 (gas: 5)\n 12653: a0 = s1 + 0x7ff\n 12657: a0 = a0 + 0x1e1\n 12661: ra = 0x18c\n 12665: t0 = 0x344\n 12669: jump @1273\n      : @464 [@dyn 198] (gas: 14)\n 12672: a3 = s1 + 0x7ff\n 12676: a3 = a3 + 0x71\n 12679: a4 = a3 + 0x100\n 12683: a0 = u64 [a4 + 0x70]\n 12686: a1 = u64 [a4 + 0x78]\n 12689: a2 = u32 [a3 + 0x180]\n 12693: u64 [a3 + 360] = 0\n 12697: u64 [a4 + 0x60] = a2\n 12700: u64 [a4 + 0x58] = a1\n 12703: a1 = s1 + 0x7ff\n 12707: a1 = a1 + 0x1c1\n 12711: u64 [a4 + 0x50] = a0\n 12714: a0 = 0\n 12716: ra = 398, jump @19\n      : @465 [@dyn 199] (gas: 11)\n 12722: a0 = s1 + 0x7ff\n 12726: a0 = a0 + 0x71\n 12729: u64 [a0 + 328] = 0\n 12733: u64 [a0 + 320] = 0\n 12737: u64 [a0 + 312] = 0\n 12741: a2 = a0\n 12743: a0 = 0x20\n 12746: a1 = s1 + 0x7ff\n 12750: a1 = a1 + 0x1a1\n 12754: u64 [a2 + 304] = 0\n 12758: ra = 400, jump @19\n      : @466 [@dyn 200] (gas: 2)\n 12764: a1 = i32 [0x201dc]\n 12769: jump @468 if a1 >u 63\n      : @467 (gas: 2)\n 12773: u32 [0x201dc] = 0x40\n 12779: fallthrough\n      : @468 (gas: 28)\n 12780: a0 = sp + 0xffffffffffffffe0\n 12783: a2 = a0 & 0xffffffffffffffe0\n 12786: u64 [s1 + 0xf8] = a2\n 12790: sp = a2\n 12792: a0 = 0x201f0\n 12797: i32 a0 = a0 + 0\n 12799: i32 a2 = a2 + 0\n 12801: a1 = 0x40\n 12804: ecalli 9 // 'hash_keccak_256'\n 12806: a3 = u64 [s1 + 0xf8]\n 12810: a0 = u64 [a3 + 0x18]\n 12813: a1 = u64 [a3 + 0x10]\n 12816: a2 = u64 [a3 + 0x8]\n 12819: a3 = u64 [a3]\n 12821: a0 = reverse a0\n 12823: a1 = reverse a1\n 12825: a2 = reverse a2\n 12827: a3 = reverse a3\n 12829: a4 = s1 + 0x1878\n 12833: a5 = a4 + 0x500\n 12837: u64 [a5 + 0xc0] = a3\n 12841: u64 [a5 + 0xb8] = a2\n 12845: u64 [a5 + 0xb0] = a1\n 12849: u64 [a5 + 0xa8] = a0\n 12853: a0 = s1 + 0x7ff\n 12857: a0 = a0 + 0x181\n 12861: a1 = s1 + 0x1e20\n 12865: ra = 402, jump @21\n      : @469 [@dyn 201] (gas: 15)\n 12871: a1 = s1 + 0x7ff\n 12875: a1 = a1 + 0x71\n 12878: a2 = a1 + 0x100\n 12882: a0 = u64 [a2 + 0x28]\n 12885: u64 [s1 + 0xf8] = a0\n 12889: a0 = u64 [a2 + 0x20]\n 12892: u64 [s1 + 0xf0] = a0\n 12896: a0 = u64 [a2 + 0x18]\n 12899: u64 [s1 + 0xe8] = a0\n 12903: a0 = u64 [a2 + 0x10]\n 12906: u64 [s1 + 0xe0] = a0\n 12910: a0 = s1 + 0x7ff\n 12914: a0 = a0 + 0x161\n 12918: a1 = 0x40\n 12921: ra = 404, jump @17\n      : @470 [@dyn 202] (gas: 7)\n 12927: a3 = s1 + 0x7ff\n 12931: a3 = a3 + 0x71\n 12934: a0 = u64 [a3 + 0x108]\n 12938: a1 = u64 [a3 + 0x100]\n 12942: a2 = u64 [a3 + 0xf8]\n 12946: a4 = u64 [a3 + 0xf0]\n 12950: t0 = 406, jump @1246\n      : @471 [@dyn 203] (gas: 1)\n 12956: jump @473 if a0 == 0\n      : @472 (gas: 1)\n 12959: jump @754\n      : @473 (gas: 14)\n 12962: a0 = u64 [s1 + 0xe0]\n 12966: u64 [a3 + 0xd0] = a0\n 12970: a0 = u64 [s1 + 0xe8]\n 12974: u64 [a3 + 0xd8] = a0\n 12978: a0 = u64 [s1 + 0xf0]\n 12982: u64 [a3 + 0xe0] = a0\n 12986: a1 = s1 + 0x7ff\n 12990: a1 = a1 + 0x141\n 12994: a0 = u64 [s1 + 0xf8]\n 12998: u64 [a3 + 0xe8] = a0\n 13002: a0 = a4\n 13004: u64 [s1 + 0xf8] = a4\n 13008: ra = 0x202\n 13012: jump @19\n      : @474 (gas: 8)\n 13015: u64 [a2 + 1184] = 0\n 13019: u64 [a2 + 1176] = 0\n 13023: u64 [a2 + 1168] = 0\n 13027: u64 [a2 + 1160] = 0\n 13031: a0 = s1 + 0x2000\n 13035: i32 a0 = a0 + 0xfffffffffffffd00\n 13039: ecalli 16 // 'value_transferred'\n 13041: fallthrough\n      : @475 (gas: 11)\n 13042: a3 = s1 + 0x1878\n 13046: a5 = a3 + 0x400\n 13050: a0 = u64 [a5 + 0x98]\n 13054: a1 = u64 [a5 + 0xa0]\n 13058: a2 = u64 [a5 + 0x90]\n 13062: a4 = a3\n 13064: a3 = u64 [a5 + 0x88]\n 13068: a1 = a1 | a2\n 13071: a0 = a0 | a3\n 13074: a0 = a0 | a1\n 13077: jump @477 if a0 == 0\n      : @476 (gas: 1)\n 13080: jump @820\n      : @477 (gas: 3)\n 13083: a0 = u64 [s1 + 0xf8]\n 13087: a0 = i32 [a0]\n 13089: jump @479 if a0 >u 3\n      : @478 (gas: 1)\n 13093: jump @821\n      : @479 (gas: 7)\n 13096: u64 [a4 + 1216] = 0\n 13100: u64 [a4 + 1208] = 0\n 13104: u64 [a4 + 1200] = 0\n 13108: u64 [a4 + 1192] = 0x2\n 13113: a0 = s1 + 0x500\n 13117: a1 = s1 + 0x1d20\n 13121: ra = 408, jump @21\n      : @480 [@dyn 204] (gas: 12)\n 13127: a1 = s1 + 0x500\n 13131: a0 = u64 [a1 + 0x18]\n 13134: u64 [s1 + 0xf8] = a0\n 13138: a0 = u64 [a1 + 0x10]\n 13141: u64 [s1 + 0xf0] = a0\n 13145: a0 = u64 [a1 + 0x8]\n 13148: u64 [s1 + 0xe8] = a0\n 13152: a0 = u64 [a1]\n 13154: u64 [s1 + 0xe0] = a0\n 13158: a0 = s1 + 0x4e0\n 13162: a1 = 0x40\n 13165: ra = 410, jump @17\n      : @481 [@dyn 205] (gas: 13)\n 13171: a4 = s1 + 0x400\n 13175: a0 = u64 [a4 + 0xf8]\n 13179: a1 = u64 [a4 + 0xf0]\n 13183: a2 = u64 [a4 + 0xe8]\n 13187: a3 = u64 [a4 + 0xe0]\n 13191: a0 = a0 | a2\n 13194: a2 = a3 | a1\n 13197: a2 = a2 | a0\n 13200: a2 = a2 >> 0x20\n 13203: a0 = a0 | a1\n 13206: a0 = a0 << 0x20\n 13209: a0 = a0 | a2\n 13212: jump @483 if a0 == 0\n      : @482 (gas: 1)\n 13215: jump @754\n      : @483 (gas: 14)\n 13218: a0 = u64 [s1 + 0xe0]\n 13222: a2 = s1 + 0x400\n 13226: u64 [a2 + 0xc0] = a0\n 13230: a0 = u64 [s1 + 0xe8]\n 13234: u64 [a2 + 0xc8] = a0\n 13238: a0 = u64 [s1 + 0xf0]\n 13242: u64 [a2 + 0xd0] = a0\n 13246: a1 = s1 + 0x4c0\n 13250: a0 = u64 [s1 + 0xf8]\n 13254: u64 [a2 + 0xd8] = a0\n 13258: a0 = a3\n 13260: u64 [s1 + 0xf8] = a3\n 13264: ra = 0x202\n 13268: jump @19\n      : @484 (gas: 8)\n 13271: u64 [a3 + 128] = 0\n 13275: u64 [a3 + 120] = 0\n 13278: u64 [a3 + 112] = 0\n 13281: u64 [a3 + 104] = 0\n 13284: a0 = s1 + 0x2000\n 13288: i32 a0 = a0 + 0xe0\n 13292: ecalli 16 // 'value_transferred'\n 13294: fallthrough\n      : @485 (gas: 10)\n 13295: a3 = s1 + 0x2078\n 13299: a0 = u64 [a3 + 0x78]\n 13302: a1 = u64 [a3 + 0x80]\n 13306: a2 = u64 [a3 + 0x70]\n 13309: a4 = a3\n 13311: a3 = u64 [a3 + 0x68]\n 13314: a1 = a1 | a2\n 13317: a0 = a0 | a3\n 13320: a0 = a0 | a1\n 13323: jump @487 if a0 == 0\n      : @486 (gas: 1)\n 13326: jump @822\n      : @487 (gas: 3)\n 13329: a0 = u64 [s1 + 0xf8]\n 13333: a0 = i32 [a0]\n 13335: jump @489 if a0 >u 3\n      : @488 (gas: 1)\n 13339: jump @823\n      : @489 (gas: 7)\n 13342: u64 [a4 + 160] = 0\n 13346: u64 [a4 + 152] = 0\n 13350: u64 [a4 + 144] = 0\n 13354: u64 [a4 + 136] = 0x5\n 13359: a0 = s1 + 0x12e0\n 13363: a1 = s1 + 0x2100\n 13367: ra = 412, jump @21\n      : @490 [@dyn 206] (gas: 11)\n 13373: a1 = s1 + 0x1078\n 13377: a2 = a1 + 0x200\n 13381: a0 = u64 [a2 + 0x78]\n 13384: u64 [s1 + 0xe8] = a0\n 13388: a0 = u64 [a2 + 0x70]\n 13391: u64 [s1 + 0xf8] = a0\n 13395: a0 = u64 [a2 + 0x68]\n 13398: u64 [s1 + 0xf0] = a0\n 13402: a0 = s1 + 0x12c0\n 13406: a1 = 0x40\n 13409: ra = 414, jump @17\n      : @491 [@dyn 207] (gas: 7)\n 13415: a3 = s1 + 0x1078\n 13419: a5 = a3 + 0x200\n 13423: a4 = u64 [a5 + 0x60]\n 13426: a1 = u64 [a5 + 0x58]\n 13429: a2 = u64 [a5 + 0x50]\n 13432: a0 = u64 [a5 + 0x48]\n 13435: t0 = 416, jump @1268\n      : @492 [@dyn 208] (gas: 1)\n 13441: jump @494 if a1 == 0\n      : @493 (gas: 1)\n 13444: jump @754\n      : @494 (gas: 14)\n 13447: a1 = u64 [s1 + 0xe8]\n 13451: a1 = a1 << 0x20\n 13454: a2 = a1 >> 0x20\n 13457: u64 [a3 + 576] = 0\n 13461: a1 = u64 [s1 + 0xf0]\n 13465: a4 = a3 + 0x200\n 13469: u64 [a4 + 0x28] = a1\n 13472: a1 = u64 [s1 + 0xf8]\n 13476: u64 [a4 + 0x30] = a1\n 13479: a1 = s1 + 0x12a0\n 13483: u64 [a4 + 0x38] = a2\n 13486: u64 [s1 + 0xf8] = a0\n 13490: ra = 0x202\n 13494: jump @19\n      : @495 (gas: 9)\n 13497: u64 [a2 + 1120] = 0\n 13501: u64 [a2 + 1112] = 0\n 13505: u64 [a2 + 1104] = 0\n 13509: u64 [a2 + 1096] = 0\n 13513: a0 = s1 + 0x2000\n 13517: i32 a0 = a0 + 0xfffffffffffffcc0\n 13521: ra = 0x1a2\n 13525: ecalli 16 // 'value_transferred'\n 13527: fallthrough\n      : @496 [@dyn 209] (gas: 10)\n 13528: a3 = s1 + 0x1878\n 13532: a4 = a3 + 0x400\n 13536: a0 = u64 [a4 + 0x58]\n 13539: a1 = u64 [a4 + 0x60]\n 13542: a2 = u64 [a4 + 0x50]\n 13545: a3 = u64 [a4 + 0x48]\n 13548: a1 = a1 | a2\n 13551: a0 = a0 | a3\n 13554: a0 = a0 | a1\n 13557: jump @498 if a0 == 0\n      : @497 (gas: 1)\n 13560: jump @824\n      : @498 (gas: 4)\n 13563: a0 = u64 [s1 + 0xf8]\n 13567: a0 = i32 [a0]\n 13569: a1 = 0x43\n 13572: jump @500 if a1 <u a0\n      : @499 (gas: 1)\n 13575: jump @825\n      : @500 (gas: 4)\n 13578: a0 = s1 + 0x4a0\n 13582: ra = 0x1a4\n 13586: t0 = 0x344\n 13590: jump @1273\n      : @501 [@dyn 210] (gas: 36)\n 13593: a1 = s1 + 0x400\n 13597: a0 = u64 [a1 + 0xb0]\n 13601: u64 [s1 + 0xd8] = a0\n 13605: a0 = u64 [a1 + 0xa8]\n 13609: u64 [s1 + 0xf0] = a0\n 13613: a0 = u64 [a1 + 0xa0]\n 13617: u64 [s1 + 0xf8] = a0\n 13621: a0 = sp + 0xffffffffffffffe0\n 13624: a0 = a0 & 0xffffffffffffffe0\n 13627: u64 [s1 + 0xe0] = a0\n 13631: sp = a0\n 13633: a0 = s1 + 0x2000\n 13637: i32 a0 = a0 + 0xfffffffffffffce0\n 13641: a1 = 0x24\n 13644: ecalli 4 // 'call_data_load'\n 13646: a0 = s1 + 0x1878\n 13650: a4 = a0 + 0x400\n 13654: a1 = u64 [a4 + 0x80]\n 13658: a2 = u64 [a4 + 0x78]\n 13661: a3 = u64 [a4 + 0x70]\n 13664: a0 = u64 [a4 + 0x68]\n 13667: u64 [s1 + 0x90] = a1\n 13671: a4 = u64 [s1 + 0xe0]\n 13675: u64 [a4 + 0x18] = a1\n 13678: u64 [s1 + 0x88] = a2\n 13682: u64 [a4 + 0x10] = a2\n 13685: u64 [s1 + 0x80] = a3\n 13689: u64 [a4 + 0x8] = a3\n 13692: u64 [s1 + 0x78] = a0\n 13695: u64 [a4] = a0\n 13697: a0 = 0x301f0\n 13702: u64 [s1 + 0xe8] = a0\n 13706: i32 a0 = a0 + 0\n 13708: u64 [s1 + 0xd0] = a0\n 13712: ecalli 6 // 'caller'\n 13714: fallthrough\n      : @502 (gas: 7)\n 13715: a2 = u64 [s1 + 0xe8]\n 13719: a0 = u32 [a2 + 0x10]\n 13722: a1 = u64 [a2]\n 13724: a2 = u64 [a2 + 0x8]\n 13727: a0 = a0 | a1\n 13730: a0 = a0 | a2\n 13733: jump @504 if a0 != 0\n      : @503 (gas: 1)\n 13736: jump @826\n      : @504 (gas: 9)\n 13739: a0 = u64 [s1 + 0xd8]\n 13743: a0 = a0 << 0x20\n 13746: a1 = a0 >> 0x20\n 13749: a0 = u64 [s1 + 0xf0]\n 13753: a2 = u64 [s1 + 0xf8]\n 13757: a0 = a0 | a2\n 13760: u64 [s1 + 0xd8] = a1\n 13764: a0 = a0 | a1\n 13767: jump @506 if a0 != 0\n      : @505 (gas: 1)\n 13770: jump @831\n      : @506 (gas: 6)\n 13773: a0 = u64 [s1 + 0xd0]\n 13777: ra = 0x1a6\n 13781: ecalli 6 // 'caller'\n 13783: a2 = u64 [s1 + 0xe8]\n 13787: t0 = 0x1a8\n 13791: jump @1236\n      : @507 [@dyn 211] (gas: 2)\n 13794: a2 = u64 [s1 + 0xe8]\n 13798: t0 = 424, jump @1236\n      : @508 [@dyn 212] (gas: 7)\n 13804: u64 [s1 + 1176] = 0\n 13808: u64 [s1 + 0x490] = a1\n 13812: u64 [s1 + 0x488] = a0\n 13816: a1 = s1 + 0x480\n 13820: u64 [s1 + 0x480] = a3\n 13824: a0 = 0\n 13826: ra = 426, jump @19\n      : @509 [@dyn 213] (gas: 7)\n 13832: u64 [s1 + 1144] = 0\n 13836: u64 [s1 + 1136] = 0\n 13840: u64 [s1 + 1120] = 0x1\n 13845: a0 = 0x20\n 13848: a1 = s1 + 0x460\n 13852: u64 [s1 + 1128] = 0\n 13856: ra = 428, jump @19\n      : @510 [@dyn 214] (gas: 3)\n 13862: a1 = 0x201dc\n 13867: a0 = i32 [0x201dc]\n 13872: jump @512 if a0 >u 63\n      : @511 (gas: 2)\n 13876: u32 [0x201dc] = 0x40\n 13882: fallthrough\n      : @512 (gas: 15)\n 13883: a0 = sp + 0xffffffffffffffe0\n 13886: a2 = a0 & 0xffffffffffffffe0\n 13889: u64 [s1 + 0xb8] = a2\n 13893: sp = a2\n 13895: a0 = 0x201f0\n 13900: i32 a0 = a0 + 0\n 13902: i32 a2 = a2 + 0\n 13904: u64 [s1 + 0xc8] = a1\n 13908: a1 = 0x40\n 13911: u64 [s1 + 0xc0] = a0\n 13915: ra = 0x1ae\n 13919: ecalli 9 // 'hash_keccak_256'\n 13921: a3 = u64 [s1 + 0xb8]\n 13925: t0 = 0x1b0\n 13929: jump @1280\n      : @513 [@dyn 215] (gas: 2)\n 13932: a3 = u64 [s1 + 0xb8]\n 13936: t0 = 432, jump @1280\n      : @514 [@dyn 216] (gas: 21)\n 13942: u64 [s1 + 0xb0] = a0\n 13946: a0 = reverse a1\n 13948: u64 [s1 + 0xa8] = a0\n 13952: a0 = reverse a2\n 13954: u64 [s1 + 0xa0] = a0\n 13958: a0 = reverse a3\n 13960: u64 [s1 + 0x98] = a0\n 13964: a0 = sp + 0xffffffffffffffe0\n 13967: a0 = a0 & 0xffffffffffffffe0\n 13970: u64 [s1 + 0xb8] = a0\n 13974: sp = a0\n 13976: u64 [s1 + 1112] = 0\n 13980: a0 = u64 [s1 + 0xd8]\n 13984: u64 [s1 + 0x450] = a0\n 13988: a0 = u64 [s1 + 0xf0]\n 13992: u64 [s1 + 0x448] = a0\n 13996: a1 = s1 + 0x440\n 14000: a0 = u64 [s1 + 0xf8]\n 14004: u64 [s1 + 0x440] = a0\n 14008: a0 = 0\n 14010: ra = 434, jump @19\n      : @515 [@dyn 217] (gas: 12)\n 14016: a0 = u64 [s1 + 0x98]\n 14020: a3 = s1 + 0x400\n 14024: u64 [a3 + 0x38] = a0\n 14027: a0 = u64 [s1 + 0xa0]\n 14031: u64 [a3 + 0x30] = a0\n 14034: a0 = u64 [s1 + 0xa8]\n 14038: u64 [a3 + 0x28] = a0\n 14041: a0 = 0x20\n 14044: a1 = s1 + 0x420\n 14048: a2 = u64 [s1 + 0xb0]\n 14052: u64 [a3 + 0x20] = a2\n 14055: ra = 436, jump @19\n      : @516 [@dyn 218] (gas: 3)\n 14061: a1 = u64 [s1 + 0xc8]\n 14065: a0 = i32 [a1]\n 14067: jump @518 if a0 >u 63\n      : @517 (gas: 2)\n 14071: u32 [a1 + 0] = 0x40\n 14074: fallthrough\n      : @518 (gas: 24)\n 14075: a0 = sp + 0xffffffffffffffe0\n 14078: a0 = a0 & 0xffffffffffffffe0\n 14081: u64 [s1 + 0xc8] = a0\n 14085: sp = a0\n 14087: i32 a2 = a0 + 0\n 14089: a1 = 0x40\n 14092: a0 = u64 [s1 + 0xc0]\n 14096: ecalli 9 // 'hash_keccak_256'\n 14098: a3 = u64 [s1 + 0xc8]\n 14102: a0 = u64 [a3 + 0x18]\n 14105: a1 = u64 [a3 + 0x10]\n 14108: a2 = u64 [a3 + 0x8]\n 14111: a3 = u64 [a3]\n 14113: a4 = reverse a0\n 14115: a1 = reverse a1\n 14117: a2 = reverse a2\n 14119: a3 = reverse a3\n 14121: a0 = u64 [s1 + 0xb8]\n 14125: u64 [a0 + 0x18] = a3\n 14128: u64 [a0 + 0x10] = a2\n 14131: u64 [a0 + 0x8] = a1\n 14134: u64 [a0] = a4\n 14136: a1 = u64 [s1 + 0xe0]\n 14140: ra = 438, jump @22\n      : @519 [@dyn 219] (gas: 3)\n 14146: a0 = s1 + 0x400\n 14150: a1 = 0x40\n 14153: ra = 440, jump @17\n      : @520 [@dyn 220] (gas: 13)\n 14159: a4 = s1 + 0x400\n 14163: a0 = u64 [a4 + 0x18]\n 14166: a1 = u64 [a4 + 0x10]\n 14169: a2 = u64 [a4 + 0x8]\n 14172: a3 = u64 [a4]\n 14174: a0 = a0 | a2\n 14177: a2 = a3 | a1\n 14180: a2 = a2 | a0\n 14183: a2 = a2 >> 0x20\n 14186: a0 = a0 | a1\n 14189: a0 = a0 << 0x20\n 14192: a0 = a0 | a2\n 14195: jump @522 if a0 == 0\n      : @521 (gas: 1)\n 14198: jump @754\n      : @522 (gas: 12)\n 14201: a0 = u64 [s1 + 0x78]\n 14204: u64 [s1 + 0x3e0] = a0\n 14208: a0 = u64 [s1 + 0x80]\n 14212: u64 [s1 + 0x3e8] = a0\n 14216: a0 = u64 [s1 + 0x88]\n 14220: u64 [s1 + 0x3f0] = a0\n 14224: a1 = s1 + 0x3e0\n 14228: a0 = u64 [s1 + 0x90]\n 14232: u64 [s1 + 0x3f8] = a0\n 14236: a0 = a3\n 14238: u64 [s1 + 0xe0] = a3\n 14242: ra = 442, jump @19\n      : @523 [@dyn 221] (gas: 6)\n 14248: a0 = u64 [s1 + 0xd0]\n 14252: ra = 0x1bc\n 14256: ecalli 6 // 'caller'\n 14258: a2 = u64 [s1 + 0xe8]\n 14262: t0 = 0x1be\n 14266: jump @1238\n      : @524 [@dyn 222] (gas: 2)\n 14269: a2 = u64 [s1 + 0xe8]\n 14273: t0 = 446, jump @1238\n      : @525 [@dyn 223] (gas: 31)\n 14279: t0 = a1 | a0\n 14282: a3 = a3 >> 0x20\n 14285: a2 = reverse a2\n 14287: a1 = a2 << 0x20\n 14290: a1 = a1 | a3\n 14293: a2 = a2 >> 0x20\n 14296: u64 [s1 + 920] = 0\n 14300: a0 = u64 [s1 + 0xd8]\n 14304: u64 [s1 + 0x390] = a0\n 14308: a0 = u64 [s1 + 0xf0]\n 14312: u64 [s1 + 0x388] = a0\n 14316: a0 = u64 [s1 + 0xf8]\n 14320: u64 [s1 + 0x380] = a0\n 14324: u64 [s1 + 952] = 0\n 14328: a3 = u64 [0x20110]\n 14333: a4 = u64 [0x20118]\n 14338: a5 = u64 [0x20120]\n 14343: a0 = u64 [0x20128]\n 14348: u64 [s1 + 0x3d8] = a3\n 14352: u64 [s1 + 0x3d0] = a4\n 14356: u64 [s1 + 0x3c8] = a5\n 14360: u64 [s1 + 0x3c0] = a0\n 14364: u64 [s1 + 0x3b0] = a2\n 14368: u64 [s1 + 0x3a8] = a1\n 14372: a1 = 0x20\n 14375: a2 = s1 + 0x3c0\n 14379: a3 = s1 + 0x3a0\n 14383: a4 = s1 + 0x380\n 14387: u64 [s1 + 0x3a0] = t0\n 14391: a0 = u64 [s1 + 0xe0]\n 14395: ra = 448, jump @23\n      : @526 [@dyn 224] (gas: 3)\n 14401: a0 = s1 + 0x360\n 14405: a1 = 0x40\n 14408: ra = 450, jump @17\n      : @527 [@dyn 225] (gas: 6)\n 14414: a4 = s1 + 0x300\n 14418: a3 = u64 [a4 + 0x78]\n 14421: a1 = u64 [a4 + 0x70]\n 14424: a2 = u64 [a4 + 0x68]\n 14427: a0 = u64 [a4 + 0x60]\n 14430: t0 = 452, jump @1239\n      : @528 [@dyn 226] (gas: 1)\n 14436: jump @530 if a1 == 0\n      : @529 (gas: 1)\n 14439: jump @754\n      : @530 (gas: 8)\n 14442: u64 [s1 + 856] = 0\n 14446: u64 [s1 + 848] = 0\n 14450: u64 [s1 + 840] = 0\n 14454: a1 = s1 + 0x340\n 14458: u64 [s1 + 832] = 0x1\n 14463: u64 [s1 + 0xf8] = a0\n 14467: ra = 0x202\n 14471: jump @19\n      : @531 (gas: 3)\n 14474: a0 = u64 [s1 + 0xf8]\n 14478: a0 = i32 [a0]\n 14480: jump @533 if a0 >u 35\n      : @532 (gas: 1)\n 14484: jump @836\n      : @533 (gas: 2)\n 14487: a0 = s1 + 0x17c0\n 14491: ra = 454, jump @1078\n      : @534 [@dyn 227] (gas: 55)\n 14497: a1 = s1 + 0x1078\n 14501: a2 = a1 + 0x700\n 14505: a0 = u64 [a2 + 0x48]\n 14508: u64 [s1 + 0xf8] = a0\n 14512: a0 = u64 [a2 + 0x50]\n 14515: u64 [s1 + 0xf0] = a0\n 14519: a0 = u64 [a2 + 0x58]\n 14522: u64 [s1 + 0xe8] = a0\n 14526: a0 = u64 [a2 + 0x60]\n 14529: u64 [s1 + 0xe0] = a0\n 14533: a0 = s1 + 0x2078\n 14537: u64 [a0 + 384] = 0\n 14541: u64 [a0 + 376] = 0\n 14545: u64 [a0 + 368] = 0\n 14549: u64 [a0 + 360] = 0\n 14553: a0 = s1 + 0x2000\n 14557: i32 a0 = a0 + 0x1e0\n 14561: ecalli 16 // 'value_transferred'\n 14563: a1 = s1 + 0x2078\n 14567: a2 = a1 + 0x100\n 14571: a0 = u64 [a2 + 0x68]\n 14574: u64 [s1 + 0xd8] = a0\n 14578: a0 = u64 [a2 + 0x70]\n 14581: u64 [s1 + 0xd0] = a0\n 14585: a0 = u64 [a2 + 0x78]\n 14588: u64 [s1 + 0xc8] = a0\n 14592: a0 = u64 [a2 + 0x80]\n 14596: u64 [s1 + 0xc0] = a0\n 14600: a0 = s1 + 0x2000\n 14604: i32 a0 = a0 + 0x200\n 14608: ecalli 1 // 'balance'\n 14610: a2 = s1 + 0x2078\n 14614: a4 = a2 + 0x100\n 14618: a3 = u64 [a4 + 0x88]\n 14622: a0 = u64 [a4 + 0x90]\n 14626: a1 = u64 [a4 + 0x98]\n 14630: a2 = u64 [a4 + 0xa0]\n 14634: a4 = s1 + 0x1078\n 14638: a5 = u64 [s1 + 0xc0]\n 14642: u64 [a4 + 0x700] = a5\n 14646: a5 = u64 [s1 + 0xc8]\n 14650: u64 [a4 + 0x6f8] = a5\n 14654: a5 = u64 [s1 + 0xd0]\n 14658: u64 [a4 + 0x6f0] = a5\n 14662: a5 = u64 [s1 + 0xd8]\n 14666: u64 [a4 + 0x6e8] = a5\n 14670: a5 = a4 + 0x700\n 14674: u64 [a5 + 0x20] = a2\n 14677: u64 [a5 + 0x18] = a1\n 14680: u64 [a5 + 0x10] = a0\n 14683: a0 = s1 + 0x17a0\n 14687: a1 = s1 + 0x1780\n 14691: a2 = s1 + 0x1760\n 14695: u64 [a5 + 0x8] = a3\n 14698: ra = 456, jump @946\n      : @535 [@dyn 228] (gas: 52)\n 14704: a0 = s1 + 0x1078\n 14708: a2 = a0 + 0x700\n 14712: a1 = u64 [a2 + 0x28]\n 14715: u64 [s1 + 0xd8] = a1\n 14719: a1 = u64 [a2 + 0x30]\n 14722: u64 [s1 + 0xd0] = a1\n 14726: a1 = u64 [a2 + 0x38]\n 14729: u64 [s1 + 0xc8] = a1\n 14733: a1 = u64 [a2 + 0x40]\n 14736: u64 [s1 + 0xc0] = a1\n 14740: a0 = s1 + 0x2078\n 14744: u64 [a0 + 448] = 0\n 14748: u64 [a0 + 440] = 0\n 14752: u64 [a0 + 432] = 0\n 14756: u64 [a0 + 424] = 0\n 14760: a0 = s1 + 0x2000\n 14764: i32 a0 = a0 + 0x220\n 14768: ecalli 16 // 'value_transferred'\n 14770: a2 = s1 + 0x2078\n 14774: a3 = a2 + 0x100\n 14778: a4 = u64 [a3 + 0xa8]\n 14782: a0 = u64 [a3 + 0xb0]\n 14786: a1 = u64 [a3 + 0xb8]\n 14790: a2 = u64 [a3 + 0xc0]\n 14794: a3 = s1 + 0x1078\n 14798: a5 = u64 [s1 + 0xe0]\n 14802: u64 [a3 + 0x680] = a5\n 14806: a5 = u64 [s1 + 0xe8]\n 14810: u64 [a3 + 0x678] = a5\n 14814: a5 = u64 [s1 + 0xf0]\n 14818: u64 [a3 + 0x670] = a5\n 14822: a5 = u64 [s1 + 0xf8]\n 14826: u64 [a3 + 0x668] = a5\n 14830: a5 = u64 [s1 + 0xc0]\n 14834: u64 [a3 + 0x6a0] = a5\n 14838: a5 = u64 [s1 + 0xc8]\n 14842: u64 [a3 + 0x698] = a5\n 14846: a5 = u64 [s1 + 0xd0]\n 14850: u64 [a3 + 0x690] = a5\n 14854: a5 = u64 [s1 + 0xd8]\n 14858: u64 [a3 + 0x688] = a5\n 14862: a5 = a3 + 0x600\n 14866: u64 [a5 + 0xc0] = a2\n 14870: u64 [a5 + 0xb8] = a1\n 14874: u64 [a5 + 0xb0] = a0\n 14878: a5 = a3\n 14880: a0 = s1 + 0x1740\n 14884: a1 = s1 + 0x1720\n 14888: a2 = s1 + 0x1700\n 14892: a3 = s1 + 0x16e0\n 14896: u64 [a5 + 0x6a8] = a4\n 14900: ra = 458, jump @1126\n      : @536 [@dyn 229] (gas: 15)\n 14906: a1 = s1 + 0x1078\n 14910: a2 = a1 + 0x600\n 14914: a0 = u64 [a2 + 0xe0]\n 14918: u64 [s1 + 0xe0] = a0\n 14922: a0 = u64 [a2 + 0xd8]\n 14926: u64 [s1 + 0xe8] = a0\n 14930: a0 = u64 [a2 + 0xd0]\n 14934: u64 [s1 + 0xf0] = a0\n 14938: a0 = u64 [a2 + 0xc8]\n 14942: u64 [s1 + 0xf8] = a0\n 14946: a0 = s1 + 0x2000\n 14950: i32 a0 = a0 + 0x240\n 14954: a1 = 0x4\n 14957: ecalli 4 // 'call_data_load'\n 14959: fallthrough\n      : @537 (gas: 22)\n 14960: a3 = s1 + 0x2078\n 14964: a4 = a3 + 0x100\n 14968: a0 = u64 [a4 + 0xd0]\n 14972: a1 = u64 [a4 + 0xc8]\n 14976: a2 = u64 [a4 + 0xd8]\n 14980: a3 = u64 [a4 + 0xe0]\n 14984: a5 = u64 [s1 + 0xf0]\n 14988: a4 = a5 ^ a0\n 14991: a0 = a5 <u a0\n 14994: a5 = u64 [s1 + 0xf8]\n 14998: a1 = a5 <u a1\n 15001: a1 = a0 if a4 != 0\n 15004: a4 = u64 [s1 + 0xe0]\n 15008: a0 = a4 ^ a3\n 15011: a3 = a4 <u a3\n 15014: a5 = u64 [s1 + 0xe8]\n 15018: a4 = a5 <u a2\n 15021: a4 = a3 if a0 != 0\n 15024: a2 = a2 ^ a5\n 15027: a0 = a0 | a2\n 15030: a1 = a4 if a0 != 0\n 15033: jump @539 if a1 != 0\n      : @538 (gas: 1)\n 15036: jump @707\n      : @539 (gas: 3)\n 15039: a0 = s1 + 0x1520\n 15043: a1 = 0x40\n 15046: ra = 460, jump @17\n      : @540 [@dyn 230] (gas: 14)\n 15052: a2 = s1 + 0x1078\n 15056: t0 = u64 [a2 + 0x4c0]\n 15060: a1 = a2 + 0x400\n 15064: a5 = u64 [a1 + 0xb8]\n 15068: a4 = u64 [a1 + 0xb0]\n 15072: a0 = u64 [a1 + 0xa8]\n 15076: a3 = a4 | t0\n 15079: a1 = a0 | a5\n 15082: a1 = a1 | a3\n 15085: a1 = a1 >> 0x20\n 15088: a3 = a3 | a5\n 15091: a3 = a3 << 0x20\n 15094: a1 = a1 | a3\n 15097: jump @542 if a1 == 0\n      : @541 (gas: 1)\n 15100: jump @754\n      : @542 (gas: 11)\n 15103: u64 [a2 + 1176] = 0\n 15107: u64 [a2 + 1168] = 0\n 15111: u64 [a2 + 1160] = 0\n 15115: a3 = 0x8c379a000000000\n 15125: a1 = s1 + 0x1500\n 15129: u64 [a2 + 0x4a0] = a3\n 15133: u64 [s1 + 0xf8] = a0\n 15137: u64 [s1 + 0xf0] = a4\n 15141: u64 [s1 + 0xe0] = t0\n 15145: u64 [s1 + 0xe8] = a5\n 15149: ra = 462, jump @19\n      : @543 [@dyn 231] (gas: 5)\n 15155: a1 = u64 [s1 + 0xf8]\n 15159: a0 = u64 [s1 + 0xe8]\n 15163: a3 = u64 [s1 + 0xe0]\n 15167: a3 = a3 | a0\n 15170: t0 = 464, jump @1245\n      : @544 [@dyn 232] (gas: 1)\n 15176: jump @546 if a0 != 0\n      : @545 (gas: 1)\n 15179: jump @754\n      : @546 (gas: 10)\n 15182: i32 a0 = a1 + 0x4\n 15185: a2 = s1 + 0x1078\n 15189: u64 [a2 + 1152] = 0\n 15193: u64 [a2 + 1144] = 0\n 15197: u64 [a2 + 1128] = 0x20\n 15202: a1 = s1 + 0x14e0\n 15206: u64 [a2 + 1136] = 0\n 15210: u64 [s1 + 0xe8] = a3\n 15214: u64 [s1 + 0xe0] = a4\n 15218: ra = 466, jump @19\n      : @547 [@dyn 233] (gas: 1)\n 15224: t0 = 468, jump @1243\n      : @548 [@dyn 234] (gas: 1)\n 15230: jump @550 if a0 != 0\n      : @549 (gas: 1)\n 15233: jump @754\n      : @550 (gas: 8)\n 15236: i32 a0 = a1 + 0x24\n 15239: a2 = s1 + 0x1078\n 15243: u64 [a2 + 1120] = 0\n 15247: u64 [a2 + 1112] = 0\n 15251: u64 [a2 + 1096] = 0x35\n 15256: a1 = s1 + 0x14c0\n 15260: u64 [a2 + 1104] = 0\n 15264: ra = 470, jump @19\n      : @551 [@dyn 235] (gas: 4)\n 15270: a4 = u64 [s1 + 0xe8]\n 15274: a3 = u64 [s1 + 0xf0]\n 15278: a1 = u64 [s1 + 0xf8]\n 15282: t0 = 472, jump @1250\n      : @552 [@dyn 236] (gas: 1)\n 15288: jump @554 if a0 != 0\n      : @553 (gas: 1)\n 15291: jump @754\n      : @554 (gas: 14)\n 15294: i32 a0 = a1 + 0x44\n 15297: a1 = u64 [0x20070]\n 15302: u64 [s1 + 0xe0] = a2\n 15306: a4 = s1 + 0x1078\n 15310: a5 = a4 + 0x400\n 15314: u64 [a5 + 0x40] = a1\n 15317: a1 = u64 [0x20078]\n 15322: a2 = u64 [0x20080]\n 15327: a3 = u64 [0x20088]\n 15332: u64 [a5 + 0x38] = a1\n 15335: u64 [a5 + 0x30] = a2\n 15338: a1 = s1 + 0x14a0\n 15342: u64 [a5 + 0x28] = a3\n 15345: ra = 474, jump @19\n      : @555 [@dyn 237] (gas: 1)\n 15351: t0 = 476, jump @1244\n      : @556 [@dyn 238] (gas: 1)\n 15357: jump @558 if a0 != 0\n      : @557 (gas: 1)\n 15360: jump @754\n      : @558 (gas: 12)\n 15363: i32 a0 = a3 + 0x64\n 15366: a1 = u64 [0x20090]\n 15371: a2 = u64 [0x20098]\n 15376: a4 = s1 + 0x1078\n 15380: a3 = a4 + 0x400\n 15384: u64 [a3 + 0x20] = a1\n 15387: u64 [a3 + 0x18] = a2\n 15390: a1 = 0x6563746564000000\n 15400: u64 [a3 + 0x10] = a1\n 15403: a1 = s1 + 0x1480\n 15407: u64 [a4 + 1032] = 0\n 15411: ra = 478, jump @19\n      : @559 [@dyn 239] (gas: 3)\n 15417: a1 = 0x84\n 15421: a0 = u64 [s1 + 0xf8]\n 15425: ra = 480, jump @26\n      : @560 [@dyn 240] (gas: 5)\n 15431: i32 a1 = a0 + 0\n 15433: a0 = 0x1\n 15436: a2 = 0x84\n 15440: ecalli 13 // 'seal_return'\n 15442: fallthrough\n      : @561 (gas: 8)\n 15443: u64 [a3 + 1088] = 0\n 15447: u64 [a3 + 1080] = 0\n 15451: u64 [a3 + 1072] = 0\n 15455: u64 [a3 + 1064] = 0\n 15459: a0 = s1 + 0x2000\n 15463: i32 a0 = a0 + 0x4a0\n 15467: ecalli 16 // 'value_transferred'\n 15469: fallthrough\n      : @562 (gas: 10)\n 15470: a3 = s1 + 0x2078\n 15474: a4 = a3 + 0x400\n 15478: a0 = u64 [a4 + 0x38]\n 15481: a1 = u64 [a4 + 0x40]\n 15484: a2 = u64 [a4 + 0x30]\n 15487: a3 = u64 [a4 + 0x28]\n 15490: a1 = a1 | a2\n 15493: a0 = a0 | a3\n 15496: a0 = a0 | a1\n 15499: jump @564 if a0 == 0\n      : @563 (gas: 1)\n 15502: jump @837\n      : @564 (gas: 4)\n 15505: a0 = u64 [s1 + 0xf8]\n 15509: a0 = i32 [a0]\n 15511: a1 = 0x43\n 15514: jump @566 if a1 <u a0\n      : @565 (gas: 1)\n 15517: jump @838\n      : @566 (gas: 6)\n 15520: a0 = 0xffffffff\n 15530: u64 [s1 + 0xf8] = a0\n 15534: a0 = s1 + 0x1c20\n 15538: ra = 0x1e2\n 15542: t0 = 0x344\n 15546: jump @1273\n      : @567 [@dyn 241] (gas: 11)\n 15549: a1 = s1 + 0x1878\n 15553: a0 = u64 [a1 + 0x3a8]\n 15557: u64 [s1 + 0xf0] = a0\n 15561: a0 = u64 [a1 + 0x3b0]\n 15565: u64 [s1 + 0xd0] = a0\n 15569: a0 = u32 [a1 + 0x3b8]\n 15573: u64 [s1 + 0xc8] = a0\n 15577: a0 = s1 + 0x1c00\n 15581: ra = 0x1e4\n 15585: t0 = 0x34e\n 15589: jump @1273\n      : @568 [@dyn 242] (gas: 3)\n 15592: t0 = 0x1e6\n 15596: a1 = s1 + 0x1878\n 15600: fallthrough\n      : @569 [@dyn 243] (gas: 18)\n 15601: a2 = a1 + 0x300\n 15605: a0 = u64 [a2 + 0x98]\n 15609: u64 [s1 + 0xe8] = a0\n 15613: a0 = u64 [a2 + 0x90]\n 15617: u64 [s1 + 0xe0] = a0\n 15621: a0 = u64 [a2 + 0x88]\n 15625: u64 [s1 + 0xd8] = a0\n 15629: u64 [a1 + 896] = 0\n 15633: a0 = u64 [s1 + 0xc8]\n 15637: u64 [a2 + 0x78] = a0\n 15640: a0 = u64 [s1 + 0xd0]\n 15644: u64 [a2 + 0x70] = a0\n 15647: a2 = a1\n 15649: a1 = s1 + 0x1be0\n 15653: a0 = u64 [s1 + 0xf0]\n 15657: u64 [a2 + 0x368] = a0\n 15661: a0 = 0\n 15663: ra = 488, jump @19\n      : @570 [@dyn 244] (gas: 3)\n 15669: t0 = 0x1ea\n 15673: a1 = s1 + 0x1878\n 15677: fallthrough\n      : @571 [@dyn 245] (gas: 8)\n 15678: u64 [a1 + 864] = 0\n 15682: u64 [a1 + 856] = 0\n 15686: u64 [a1 + 840] = 0x1\n 15691: a2 = a1\n 15693: a0 = 0x20\n 15696: a1 = s1 + 0x1bc0\n 15700: u64 [a2 + 848] = 0\n 15704: ra = 492, jump @19\n      : @572 [@dyn 246] (gas: 3)\n 15710: a1 = 0x201dc\n 15715: a0 = i32 [0x201dc]\n 15720: jump @574 if a0 >u 63\n      : @573 (gas: 2)\n 15724: u32 [0x201dc] = 0x40\n 15730: fallthrough\n      : @574 (gas: 15)\n 15731: a0 = sp + 0xffffffffffffffe0\n 15734: a2 = a0 & 0xffffffffffffffe0\n 15737: u64 [s1 + 0xc8] = a2\n 15741: sp = a2\n 15743: a0 = 0x201f0\n 15748: i32 a0 = a0 + 0\n 15750: i32 a2 = a2 + 0\n 15752: u64 [s1 + 0xf0] = a1\n 15756: a1 = 0x40\n 15759: u64 [s1 + 0xd0] = a0\n 15763: ra = 0x1ee\n 15767: ecalli 9 // 'hash_keccak_256'\n 15769: a3 = u64 [s1 + 0xc8]\n 15773: t0 = 0x1f0\n 15777: jump @1280\n      : @575 [@dyn 247] (gas: 2)\n 15780: a3 = u64 [s1 + 0xc8]\n 15784: t0 = 496, jump @1280\n      : @576 [@dyn 248] (gas: 27)\n 15790: u64 [s1 + 0xc0] = a0\n 15794: a0 = reverse a1\n 15796: u64 [s1 + 0xb8] = a0\n 15800: a0 = reverse a2\n 15802: u64 [s1 + 0xb0] = a0\n 15806: a0 = reverse a3\n 15808: u64 [s1 + 0xa8] = a0\n 15812: a0 = sp + 0xffffffffffffffe0\n 15815: a0 = a0 & 0xffffffffffffffe0\n 15818: u64 [s1 + 0xc8] = a0\n 15822: sp = a0\n 15824: a0 = u64 [s1 + 0xd8]\n 15828: a0 = a0 & 0xffffffffffffffff\n 15831: a2 = u64 [s1 + 0xe0]\n 15835: a1 = a2 & 0xffffffffffffffff\n 15838: a2 = u64 [s1 + 0xf8]\n 15842: a3 = u64 [s1 + 0xe8]\n 15846: a2 = a2 & a3\n 15849: a3 = s1 + 0x1878\n 15853: u64 [a3 + 832] = 0\n 15857: a4 = a3 + 0x300\n 15861: u64 [a4 + 0x38] = a2\n 15864: u64 [a4 + 0x30] = a1\n 15867: a1 = s1 + 0x1ba0\n 15871: u64 [a4 + 0x28] = a0\n 15874: a0 = 0\n 15876: ra = 498, jump @19\n      : @577 [@dyn 249] (gas: 14)\n 15882: a0 = u64 [s1 + 0xa8]\n 15886: a1 = s1 + 0x1878\n 15890: a2 = a1 + 0x300\n 15894: u64 [a2 + 0x20] = a0\n 15897: a0 = u64 [s1 + 0xb0]\n 15901: u64 [a2 + 0x18] = a0\n 15904: a0 = u64 [s1 + 0xb8]\n 15908: u64 [a2 + 0x10] = a0\n 15911: a3 = a1\n 15913: a0 = 0x20\n 15916: a1 = s1 + 0x1b80\n 15920: a2 = u64 [s1 + 0xc0]\n 15924: u64 [a3 + 0x308] = a2\n 15928: ra = 500, jump @19\n      : @578 [@dyn 250] (gas: 3)\n 15934: a1 = u64 [s1 + 0xf0]\n 15938: a0 = i32 [a1]\n 15940: jump @580 if a0 >u 63\n      : @579 (gas: 2)\n 15944: u32 [a1 + 0] = 0x40\n 15947: fallthrough\n      : @580 (gas: 12)\n 15948: a0 = sp + 0xffffffffffffffe0\n 15951: a0 = a0 & 0xffffffffffffffe0\n 15954: u64 [s1 + 0xf8] = a0\n 15958: sp = a0\n 15960: i32 a2 = a0 + 0\n 15962: a1 = 0x40\n 15965: a0 = u64 [s1 + 0xd0]\n 15969: ra = 0x1f6\n 15973: ecalli 9 // 'hash_keccak_256'\n 15975: a3 = u64 [s1 + 0xf8]\n 15979: t0 = 0x1f8\n 15983: jump @1240\n      : @581 [@dyn 251] (gas: 2)\n 15986: a3 = u64 [s1 + 0xf8]\n 15990: t0 = 504, jump @1240\n      : @582 [@dyn 252] (gas: 7)\n 15996: a1 = u64 [s1 + 0xc8]\n 16000: u64 [a1 + 0x18] = a3\n 16003: u64 [a1 + 0x10] = a2\n 16006: u64 [a1 + 0x8] = a4\n 16009: u64 [a1] = a0\n 16011: a0 = s1 + 0x1b60\n 16015: ra = 506, jump @21\n      : @583 [@dyn 253] (gas: 3)\n 16021: t0 = 0x1fc\n 16025: a1 = s1 + 0x1878\n 16029: fallthrough\n      : @584 [@dyn 254] (gas: 12)\n 16030: a0 = u64 [a1 + 0x300]\n 16034: u64 [s1 + 0xf8] = a0\n 16038: a2 = a1 + 0x200\n 16042: a0 = u64 [a2 + 0xf8]\n 16046: u64 [s1 + 0xf0] = a0\n 16050: a0 = u64 [a2 + 0xf0]\n 16054: u64 [s1 + 0xe8] = a0\n 16058: a0 = u64 [a2 + 0xe8]\n 16062: u64 [s1 + 0xe0] = a0\n 16066: a0 = s1 + 0x1b40\n 16070: a1 = 0x40\n 16073: ra = 510, jump @17\n      : @585 [@dyn 255] (gas: 7)\n 16079: a3 = s1 + 0x1878\n 16083: a5 = a3 + 0x200\n 16087: a0 = u64 [a5 + 0xe0]\n 16091: a1 = u64 [a5 + 0xd8]\n 16095: a2 = u64 [a5 + 0xd0]\n 16099: a4 = u64 [a5 + 0xc8]\n 16103: t0 = 512, jump @1246\n      : @586 [@dyn 256] (gas: 1)\n 16109: jump @588 if a0 == 0\n      : @587 (gas: 1)\n 16112: jump @754\n      : @588 (gas: 13)\n 16115: a0 = u64 [s1 + 0xe0]\n 16119: a2 = a3 + 0x200\n 16123: u64 [a2 + 0xa8] = a0\n 16127: a0 = u64 [s1 + 0xe8]\n 16131: u64 [a2 + 0xb0] = a0\n 16135: a0 = u64 [s1 + 0xf0]\n 16139: u64 [a2 + 0xb8] = a0\n 16143: a1 = s1 + 0x1b20\n 16147: a0 = u64 [s1 + 0xf8]\n 16151: u64 [a2 + 0xc0] = a0\n 16155: a0 = a4\n 16157: u64 [s1 + 0xf8] = a4\n 16161: ra = 514, jump @19\n      : @589 [@dyn 257] (gas: 3)\n 16167: a1 = 0x20\n 16170: a0 = u64 [s1 + 0xf8]\n 16174: ra = 516, jump @26\n      : @590 [@dyn 258] (gas: 5)\n 16180: i32 a1 = a0 + 0\n 16182: a2 = 0x20\n 16185: a0 = 0\n 16187: ecalli 13 // 'seal_return'\n 16189: fallthrough\n      : @591 (gas: 24)\n 16190: a0 = s1 + 0x2000\n 16194: i32 a0 = a0 + 0xfffffffffffffec0\n 16198: u64 [s1 + 0xf8] = t0\n 16202: u64 [s1 + 0xf0] = a4\n 16206: u64 [s1 + 0xe8] = a5\n 16210: u64 [s1 + 0xe0] = a3\n 16214: ecalli 1 // 'balance'\n 16216: a1 = s1 + 0x1878\n 16220: a2 = a1 + 0x600\n 16224: a0 = u64 [a2 + 0x48]\n 16227: u64 [s1 + 0xb8] = a0\n 16231: a0 = u64 [a2 + 0x50]\n 16234: u64 [s1 + 0xb0] = a0\n 16238: a0 = u64 [a2 + 0x58]\n 16241: u64 [s1 + 0xa8] = a0\n 16245: a0 = u64 [a2 + 0x60]\n 16248: u64 [s1 + 0xa0] = a0\n 16252: u64 [a1 + 1664] = 0\n 16256: u64 [a1 + 1656] = 0\n 16260: u64 [a1 + 1648] = 0\n 16264: u64 [a2 + 104] = 0x2\n 16268: a0 = s1 + 0x1280\n 16272: a1 = s1 + 0x1ee0\n 16276: ra = 518, jump @21\n      : @592 [@dyn 259] (gas: 32)\n 16282: a1 = s1 + 0x1078\n 16286: a2 = a1 + 0x200\n 16290: a0 = u64 [a2 + 0x8]\n 16293: u64 [s1 + 0xd8] = a0\n 16297: a0 = u64 [a2 + 0x10]\n 16300: u64 [s1 + 0xd0] = a0\n 16304: a0 = u64 [a2 + 0x18]\n 16307: u64 [s1 + 0xc8] = a0\n 16311: a0 = u64 [a2 + 0x20]\n 16314: u64 [s1 + 0xc0] = a0\n 16318: a0 = u64 [s1 + 0xf8]\n 16322: a2 = a1 + 0x100\n 16326: u64 [a2 + 0xc0] = a0\n 16330: a0 = u64 [s1 + 0xe8]\n 16334: u64 [a2 + 0xb8] = a0\n 16338: a0 = u64 [s1 + 0xe0]\n 16342: u64 [a2 + 0xb0] = a0\n 16346: a0 = u64 [s1 + 0xf0]\n 16350: u64 [a2 + 0xa8] = a0\n 16354: a0 = u64 [s1 + 0xa0]\n 16358: u64 [a2 + 0xe0] = a0\n 16362: a0 = u64 [s1 + 0xa8]\n 16366: u64 [a2 + 0xd8] = a0\n 16370: a0 = u64 [s1 + 0xb0]\n 16374: u64 [a2 + 0xd0] = a0\n 16378: a4 = a1\n 16380: a0 = s1 + 0x1260\n 16384: a1 = s1 + 0x1240\n 16388: a2 = s1 + 0x1220\n 16392: a3 = u64 [s1 + 0xb8]\n 16396: u64 [a4 + 0x1c8] = a3\n 16400: ra = 520, jump @954\n      : @593 [@dyn 260] (gas: 22)\n 16406: a5 = s1 + 0x1078\n 16410: a3 = u64 [a5 + 0x1e8]\n 16414: a0 = u64 [a5 + 0x1f0]\n 16418: a1 = u64 [a5 + 0x1f8]\n 16422: a2 = u64 [a5 + 0x200]\n 16426: a4 = u64 [s1 + 0xc0]\n 16430: u64 [a5 + 0x160] = a4\n 16434: a4 = u64 [s1 + 0xc8]\n 16438: u64 [a5 + 0x158] = a4\n 16442: a4 = u64 [s1 + 0xd0]\n 16446: u64 [a5 + 0x150] = a4\n 16450: a4 = u64 [s1 + 0xd8]\n 16454: u64 [a5 + 0x148] = a4\n 16458: a4 = a5 + 0x100\n 16462: u64 [a4 + 0x80] = a2\n 16466: u64 [a4 + 0x78] = a1\n 16469: u64 [a4 + 0x70] = a0\n 16472: a0 = s1 + 0x1200\n 16476: a1 = s1 + 0x11e0\n 16480: a2 = s1 + 0x11c0\n 16484: u64 [a4 + 0x68] = a3\n 16487: ra = 522, jump @963\n      : @594 [@dyn 261] (gas: 12)\n 16493: a1 = s1 + 0x1078\n 16497: a2 = a1 + 0x100\n 16501: a0 = u64 [a2 + 0xa0]\n 16505: u64 [s1 + 0x80] = a0\n 16509: a0 = u64 [a2 + 0x98]\n 16513: u64 [s1 + 0x78] = a0\n 16516: a0 = u64 [a2 + 0x90]\n 16520: u64 [s1 + 0x70] = a0\n 16523: a0 = u64 [a2 + 0x88]\n 16527: u64 [s1 + 0x68] = a0\n 16530: a0 = s1 + 0x11a0\n 16534: ra = 524, jump @1078\n      : @595 [@dyn 262] (gas: 21)\n 16540: a5 = s1 + 0x1078\n 16544: a3 = u64 [a5 + 0x128]\n 16548: a0 = u64 [a5 + 0x130]\n 16552: a1 = u64 [a5 + 0x138]\n 16556: a2 = u64 [a5 + 0x140]\n 16560: a4 = u64 [s1 + 0xf8]\n 16564: u64 [a5 + 0xe0] = a4\n 16568: a4 = u64 [s1 + 0xe8]\n 16572: u64 [a5 + 0xd8] = a4\n 16576: a4 = u64 [s1 + 0xe0]\n 16580: u64 [a5 + 0xd0] = a4\n 16584: a4 = u64 [s1 + 0xf0]\n 16588: u64 [a5 + 0xc8] = a4\n 16592: u64 [a5 + 0x100] = a2\n 16596: u64 [a5 + 0xf8] = a1\n 16600: u64 [a5 + 0xf0] = a0\n 16604: a0 = s1 + 0x1180\n 16608: a1 = s1 + 0x1160\n 16612: a2 = s1 + 0x1140\n 16616: u64 [a5 + 0xe8] = a3\n 16620: ra = 526, jump @954\n      : @596 [@dyn 263] (gas: 22)\n 16626: a4 = s1 + 0x1078\n 16630: a5 = a4 + 0x100\n 16634: a3 = u64 [a5 + 0x8]\n 16637: a0 = u64 [a5 + 0x10]\n 16640: a1 = u64 [a5 + 0x18]\n 16643: a2 = u64 [a5 + 0x20]\n 16646: a5 = u64 [s1 + 0xc0]\n 16650: u64 [a4 + 0x80] = a5\n 16654: a5 = u64 [s1 + 0xc8]\n 16658: u64 [a4 + 0x78] = a5\n 16661: a5 = u64 [s1 + 0xd0]\n 16665: u64 [a4 + 0x70] = a5\n 16668: a5 = u64 [s1 + 0xd8]\n 16672: u64 [a4 + 0x68] = a5\n 16675: u64 [a4 + 0xa0] = a2\n 16679: u64 [a4 + 0x98] = a1\n 16683: u64 [a4 + 0x90] = a0\n 16687: a0 = s1 + 0x1120\n 16691: a1 = s1 + 0x1100\n 16695: a2 = s1 + 0x10e0\n 16699: u64 [a4 + 0x88] = a3\n 16703: ra = 528, jump @963\n      : @597 [@dyn 264] (gas: 15)\n 16709: a1 = s1 + 0x1078\n 16713: a0 = u64 [a1 + 0xc0]\n 16717: u64 [s1 + 0x58] = a0\n 16720: a0 = u64 [a1 + 0xb8]\n 16724: u64 [s1 + 0x50] = a0\n 16727: a0 = u64 [a1 + 0xb0]\n 16731: u64 [s1 + 0x48] = a0\n 16734: a0 = u64 [a1 + 0xa8]\n 16738: u64 [s1 + 0x40] = a0\n 16741: a0 = 0x301f0\n 16746: u64 [s1 + 0xd8] = a0\n 16750: i32 a0 = a0 + 0\n 16752: u64 [s1 + 0xd0] = a0\n 16756: ecalli 6 // 'caller'\n 16758: fallthrough\n      : @598 (gas: 7)\n 16759: a2 = u64 [s1 + 0xd8]\n 16763: a0 = u32 [a2 + 0x10]\n 16766: a1 = u64 [a2]\n 16768: a2 = u64 [a2 + 0x8]\n 16771: a0 = a0 | a1\n 16774: a0 = a0 | a2\n 16777: jump @600 if a0 != 0\n      : @599 (gas: 1)\n 16780: jump @855\n      : @600 (gas: 5)\n 16783: a0 = u64 [s1 + 0xd0]\n 16787: ra = 0x212\n 16791: ecalli 6 // 'caller'\n 16793: t0 = 0x214\n 16797: jump @1242\n      : @601 [@dyn 265] (gas: 1)\n 16800: t0 = 532, jump @1242\n      : @602 [@dyn 266] (gas: 7)\n 16806: u64 [a2 + 96] = 0\n 16809: u64 [a2 + 0x58] = a1\n 16812: u64 [a2 + 0x50] = a0\n 16815: a1 = s1 + 0x10c0\n 16819: u64 [a2 + 0x48] = a3\n 16822: a0 = 0\n 16824: ra = 534, jump @19\n      : @603 [@dyn 267] (gas: 9)\n 16830: a0 = s1 + 0x1078\n 16834: u64 [a0 + 64] = 0\n 16837: u64 [a0 + 56] = 0\n 16840: u64 [a0 + 48] = 0\n 16843: a2 = a0\n 16845: a0 = 0x20\n 16848: a1 = s1 + 0x10a0\n 16852: u64 [a2 + 40] = 0\n 16855: ra = 536, jump @19\n      : @604 [@dyn 268] (gas: 3)\n 16861: a2 = 0x201dc\n 16866: a0 = i32 [0x201dc]\n 16871: jump @606 if a0 >u 63\n      : @605 (gas: 2)\n 16875: u32 [0x201dc] = 0x40\n 16881: fallthrough\n      : @606 (gas: 16)\n 16882: u64 [s1 + 0xc0] = a2\n 16886: a0 = sp + 0xffffffffffffffe0\n 16889: a2 = a0 & 0xffffffffffffffe0\n 16892: u64 [s1 + 0xb8] = a2\n 16896: sp = a2\n 16898: a0 = 0x201f0\n 16903: u64 [s1 + 0x60] = a0\n 16906: i32 a0 = a0 + 0\n 16908: i32 a2 = a2 + 0\n 16910: a1 = 0x40\n 16913: u64 [s1 + 0xc8] = a0\n 16917: ra = 0x21a\n 16921: ecalli 9 // 'hash_keccak_256'\n 16923: a3 = u64 [s1 + 0xb8]\n 16927: t0 = 0x21c\n 16931: jump @1253\n      : @607 [@dyn 269] (gas: 2)\n 16934: a3 = u64 [s1 + 0xb8]\n 16938: t0 = 540, jump @1253\n      : @608 [@dyn 270] (gas: 7)\n 16944: u64 [a5 + 0xa0] = a3\n 16948: u64 [a5 + 0x98] = a2\n 16952: u64 [a5 + 0x90] = a1\n 16956: u64 [a5 + 0x88] = a0\n 16960: a0 = s1 + 0x1080\n 16964: a1 = s1 + 0x1f00\n 16968: ra = 542, jump @21\n      : @609 [@dyn 271] (gas: 2)\n 16974: a1 = s1 + 0x1078\n 16978: fallthrough\n      : @610 (gas: 27)\n 16979: a2 = u64 [a1 + 0x20]\n 16982: a0 = u64 [a1 + 0x18]\n 16985: a5 = u64 [a1 + 0x10]\n 16988: a4 = u64 [a1 + 0x8]\n 16991: a1 = u64 [s1 + 0xf8]\n 16995: t1 = a2 ^ a1\n 16998: u64 [s1 + 0xa8] = a2\n 17002: a1 = a2 <u a1\n 17005: a2 = u64 [s1 + 0xe8]\n 17009: a3 = a0 <u a2\n 17012: u64 [s1 + 0x90] = a3\n 17016: a1 = a3 if t1 == 0\n 17019: a3 = u64 [s1 + 0xe0]\n 17023: t0 = a5 ^ a3\n 17026: u64 [s1 + 0xb0] = a5\n 17030: a5 = a5 <u a3\n 17033: a3 = u64 [s1 + 0xf0]\n 17037: u64 [s1 + 0xb8] = a4\n 17041: a3 = a4 <u a3\n 17044: u64 [s1 + 0x98] = a3\n 17048: a5 = a3 if t0 == 0\n 17051: u64 [s1 + 0xa0] = a0\n 17055: a2 = a2 ^ a0\n 17058: a0 = a2 | t1\n 17061: u64 [s1 + 0x88] = a5\n 17065: a1 = a5 if a0 == 0\n 17068: jump @612 if a1 == 0\n      : @611 (gas: 1)\n 17071: jump @861\n      : @612 (gas: 5)\n 17074: a0 = u64 [s1 + 0xd0]\n 17078: ra = 0x220\n 17082: ecalli 6 // 'caller'\n 17084: t0 = 0x222\n 17088: jump @1242\n      : @613 [@dyn 272] (gas: 1)\n 17091: t0 = 546, jump @1242\n      : @614 [@dyn 273] (gas: 8)\n 17097: u64 [a2 + 0] = 0\n 17099: a4 = a2 + 0xffffffffffffff00\n 17103: u64 [a4 + 0xf8] = a1\n 17107: u64 [a4 + 0xf0] = a0\n 17111: a1 = s1 + 0x1060\n 17115: u64 [a4 + 0xe8] = a3\n 17119: a0 = 0\n 17121: ra = 548, jump @19\n      : @615 [@dyn 274] (gas: 9)\n 17127: a2 = s1 + 0x7ff\n 17131: a2 = a2 + 0x71\n 17134: u64 [a2 + 2024] = 0\n 17138: u64 [a2 + 2016] = 0\n 17142: u64 [a2 + 2008] = 0\n 17146: a0 = 0x20\n 17149: a1 = s1 + 0x1040\n 17153: u64 [a2 + 2000] = 0\n 17157: ra = 550, jump @19\n      : @616 [@dyn 275] (gas: 27)\n 17163: a0 = u64 [s1 + 0xe8]\n 17167: a1 = u64 [s1 + 0xa0]\n 17171: a0 = a1 - a0\n 17174: a1 = u64 [s1 + 0x88]\n 17178: a2 = a0 - a1\n 17181: u64 [s1 + 0xa0] = a2\n 17185: a0 = a0 <u a1\n 17188: a1 = u64 [s1 + 0xf8]\n 17192: a2 = u64 [s1 + 0xa8]\n 17196: a1 = a2 - a1\n 17199: a2 = u64 [s1 + 0x90]\n 17203: a1 = a1 - a2\n 17206: a1 = a1 - a0\n 17209: u64 [s1 + 0xa8] = a1\n 17213: a2 = u64 [s1 + 0xc0]\n 17217: a0 = i32 [a2]\n 17219: a1 = u64 [s1 + 0xe0]\n 17223: a3 = u64 [s1 + 0xb0]\n 17227: a1 = a3 - a1\n 17230: a3 = u64 [s1 + 0x98]\n 17234: a1 = a1 - a3\n 17237: u64 [s1 + 0xb0] = a1\n 17241: a3 = u64 [s1 + 0xf0]\n 17245: a4 = u64 [s1 + 0xb8]\n 17249: a4 = a4 - a3\n 17252: u64 [s1 + 0xb8] = a4\n 17256: jump @618 if a0 >u 63\n      : @617 (gas: 2)\n 17260: u32 [a2 + 0] = 0x40\n 17263: fallthrough\n      : @618 (gas: 12)\n 17264: a0 = sp + 0xffffffffffffffe0\n 17267: a0 = a0 & 0xffffffffffffffe0\n 17270: u64 [s1 + 0xc0] = a0\n 17274: sp = a0\n 17276: i32 a2 = a0 + 0\n 17278: a1 = 0x40\n 17281: a0 = u64 [s1 + 0xc8]\n 17285: ra = 0x228\n 17289: ecalli 9 // 'hash_keccak_256'\n 17291: a3 = u64 [s1 + 0xc0]\n 17295: t0 = 0x22a\n 17299: jump @1253\n      : @619 [@dyn 276] (gas: 2)\n 17302: a3 = u64 [s1 + 0xc0]\n 17306: t0 = 554, jump @1253\n      : @620 [@dyn 277] (gas: 15)\n 17312: u64 [a5 + 0xc0] = a3\n 17316: u64 [a5 + 0xb8] = a2\n 17320: u64 [a5 + 0xb0] = a1\n 17324: u64 [a5 + 0xa8] = a0\n 17328: a0 = u64 [s1 + 0xa8]\n 17332: u64 [a5 + 0xe0] = a0\n 17336: a0 = u64 [s1 + 0xa0]\n 17340: u64 [a5 + 0xd8] = a0\n 17344: a0 = u64 [s1 + 0xb0]\n 17348: u64 [a5 + 0xd0] = a0\n 17352: a0 = u64 [s1 + 0xb8]\n 17356: u64 [a5 + 0xc8] = a0\n 17360: a0 = s1 + 0x1f20\n 17364: a1 = s1 + 0x1f40\n 17368: ra = 556, jump @22\n      : @621 [@dyn 278] (gas: 8)\n 17374: a0 = s1 + 0x1878\n 17378: u64 [a0 + 1792] = 0\n 17382: u64 [a0 + 1784] = 0\n 17386: u64 [a0 + 1776] = 0\n 17390: u64 [a0 + 1768] = 0x2\n 17395: a0 = s1 + 0x1020\n 17399: a1 = s1 + 0x1f60\n 17403: ra = 558, jump @21\n      : @622 [@dyn 279] (gas: 37)\n 17409: a0 = s1 + 0x7ff\n 17413: a0 = a0 + 0x71\n 17416: a1 = u64 [a0 + 0x7b8]\n 17420: t0 = u64 [a0 + 0x7c8]\n 17424: t1 = u64 [a0 + 0x7b0]\n 17428: a3 = u64 [a0 + 0x7c0]\n 17432: a4 = u64 [s1 + 0xe0]\n 17436: a0 = a1 ^ a4\n 17439: a5 = a1 <u a4\n 17442: ra = u64 [s1 + 0xf0]\n 17446: t2 = t1 <u ra\n 17449: a5 = t2 if a0 == 0\n 17452: a0 = u64 [s1 + 0xe8]\n 17456: a2 = a3 - a0\n 17459: a3 = a3 <u a0\n 17462: a0 = u64 [s1 + 0xf8]\n 17466: a0 = t0 - a0\n 17469: a0 = a0 - a3\n 17472: a3 = a2 <u a5\n 17475: a0 = a0 - a3\n 17478: a3 = a2 - a5\n 17481: a1 = a1 - a4\n 17484: a1 = a1 - t2\n 17487: a4 = s1 + 0x1878\n 17491: a5 = a4 + 0x700\n 17495: u64 [a5 + 8] = 0x2\n 17499: a2 = t1 - ra\n 17502: u64 [a5 + 0x28] = a2\n 17505: u64 [a5 + 0x30] = a1\n 17508: u64 [a5 + 0x38] = a3\n 17511: u64 [a5 + 0x40] = a0\n 17514: u64 [a4 + 1824] = 0\n 17518: u64 [a4 + 1816] = 0\n 17522: u64 [a4 + 1808] = 0\n 17526: a0 = s1 + 0x1f80\n 17530: a1 = s1 + 0x1fa0\n 17534: ra = 560, jump @22\n      : @623 [@dyn 280] (gas: 3)\n 17540: a0 = s1 + 0x1000\n 17544: a1 = 0x40\n 17547: ra = 562, jump @17\n      : @624 [@dyn 281] (gas: 8)\n 17553: a3 = s1 + 0x7ff\n 17557: a3 = a3 + 0x71\n 17560: a5 = a3 + 0x700\n 17564: a4 = u64 [a5 + 0xa8]\n 17568: a1 = u64 [a5 + 0xa0]\n 17572: a2 = u64 [a5 + 0x98]\n 17576: a0 = u64 [a5 + 0x90]\n 17580: t0 = 564, jump @1268\n      : @625 [@dyn 282] (gas: 1)\n 17586: jump @627 if a1 == 0\n      : @626 (gas: 1)\n 17589: jump @754\n      : @627 (gas: 13)\n 17592: a1 = u64 [s1 + 0xf0]\n 17596: a4 = a3 + 0x700\n 17600: u64 [a4 + 0x70] = a1\n 17603: a1 = u64 [s1 + 0xe0]\n 17607: u64 [a4 + 0x78] = a1\n 17610: a1 = u64 [s1 + 0xe8]\n 17614: u64 [a4 + 0x80] = a1\n 17618: a1 = s1 + 0x7ff\n 17622: a1 = a1 + 0x7e1\n 17626: a2 = u64 [s1 + 0xf8]\n 17630: u64 [a4 + 0x88] = a2\n 17634: u64 [s1 + 0xf8] = a0\n 17638: ra = 566, jump @19\n      : @628 [@dyn 283] (gas: 6)\n 17644: a0 = u64 [s1 + 0xd0]\n 17648: ra = 0x238\n 17652: ecalli 6 // 'caller'\n 17654: a2 = u64 [s1 + 0xd8]\n 17658: t0 = 0x23a\n 17662: jump @1238\n      : @629 [@dyn 284] (gas: 2)\n 17665: a2 = u64 [s1 + 0xd8]\n 17669: t0 = 570, jump @1238\n      : @630 [@dyn 285] (gas: 34)\n 17675: t0 = a1 | a0\n 17678: a3 = a3 >> 0x20\n 17681: a2 = reverse a2\n 17683: a1 = a2 << 0x20\n 17686: a1 = a1 | a3\n 17689: a2 = a2 >> 0x20\n 17692: a3 = u64 [0x200a0]\n 17697: a4 = u64 [0x200a8]\n 17702: a5 = u64 [0x200b0]\n 17707: a0 = s1 + 0x7ff\n 17711: a0 = a0 + 0x71\n 17714: u64 [a0 + 0x768] = a3\n 17718: u64 [a0 + 0x760] = a4\n 17722: u64 [a0 + 1832] = 0\n 17726: a4 = a0 + 0x700\n 17730: u64 [a4 + 0x58] = a5\n 17733: a3 = u64 [0x200b8]\n 17738: u64 [a0 + 1824] = 0\n 17742: u64 [a0 + 1816] = 0\n 17746: u64 [a0 + 1808] = 0\n 17750: u64 [a4 + 0x50] = a3\n 17753: u64 [a4 + 0x40] = a2\n 17756: u64 [a4 + 0x38] = a1\n 17759: u64 [a0 + 0x730] = t0\n 17763: a1 = 0x20\n 17766: a2 = s1 + 0x7ff\n 17770: a2 = a2 + 0x7c1\n 17774: a3 = s1 + 0x7ff\n 17778: a3 = a3 + 0x7a1\n 17782: a4 = s1 + 0x7ff\n 17786: a4 = a4 + 0x781\n 17790: u64 [a0 + 1864] = 0\n 17794: a0 = u64 [s1 + 0xf8]\n 17798: ra = 572, jump @23\n      : @631 [@dyn 286] (gas: 37)\n 17804: a0 = u64 [s1 + 0xd0]\n 17808: ecalli 6 // 'caller'\n 17810: a0 = u64 [s1 + 0x80]\n 17814: a1 = s1 + 0x1878\n 17818: a2 = a1 + 0x700\n 17822: u64 [a2 + 0x60] = a0\n 17825: a0 = u64 [s1 + 0x78]\n 17828: u64 [a2 + 0x58] = a0\n 17831: a0 = u64 [s1 + 0x70]\n 17834: u64 [a2 + 0x50] = a0\n 17837: a0 = u64 [s1 + 0x68]\n 17840: u64 [a2 + 0x48] = a0\n 17843: u32 [a1 + 1896] = 0\n 17847: u64 [a1 + 1952] = 0\n 17851: u64 [a1 + 1944] = 0\n 17855: u64 [a1 + 1936] = 0\n 17859: u64 [a1 + 1928] = 0\n 17863: a0 = u64 [s1 + 0xd8]\n 17867: a0 = a0 << 0x20\n 17870: a0 = a0 >> 0x20\n 17873: a1 = s1 + 0x1fc0\n 17877: a1 = a1 << 0x20\n 17880: a3 = a1 >> 0x20\n 17883: a1 = s1 + 0x2000\n 17887: a1 = a1 << 0x20\n 17890: a3 = a3 | a1\n 17893: a4 = u64 [s1 + 0x60]\n 17896: a4 = a4 << 0x20\n 17899: a4 = a4 >> 0x20\n 17902: a1 = s1 + 0x1fe0\n 17906: a1 = a1 << 0x20\n 17909: a5 = a1 | a4\n 17912: a1 = 0xffffffffffffffff\n 17915: a2 = 0xffffffffffffffff\n 17918: u64 [s1 + 0xf0] = a0\n 17922: ecalli 2 // 'call'\n 17924: fallthrough\n      : @632 (gas: 1)\n 17925: jump @634 if a0 == 0\n      : @633 (gas: 1)\n 17928: jump @755\n      : @634 (gas: 9)\n 17931: a1 = s1 + 0x1878\n 17935: u64 [a1 + 2016] = 0\n 17939: u64 [a1 + 2008] = 0\n 17943: u64 [a1 + 2000] = 0\n 17947: u64 [a1 + 1992] = 0x5\n 17952: a0 = s1 + 0x7ff\n 17956: a0 = a0 + 0x741\n 17960: a1 = s1 + 0x2040\n 17964: ra = 574, jump @21\n      : @635 [@dyn 287] (gas: 13)\n 17970: a1 = s1 + 0x7ff\n 17974: a1 = a1 + 0x71\n 17977: a2 = a1 + 0x600\n 17981: a0 = u64 [a2 + 0xe0]\n 17985: u64 [s1 + 0xb8] = a0\n 17989: a0 = u64 [a2 + 0xd8]\n 17993: u64 [s1 + 0xb0] = a0\n 17997: a0 = u64 [a2 + 0xd0]\n 18001: u64 [s1 + 0xc0] = a0\n 18005: a0 = s1 + 0x7ff\n 18009: a0 = a0 + 0x721\n 18013: a1 = 0x40\n 18016: ra = 576, jump @17\n      : @636 [@dyn 288] (gas: 15)\n 18022: t0 = s1 + 0x7ff\n 18026: t0 = t0 + 0x71\n 18029: a1 = t0 + 0x600\n 18033: a5 = u64 [a1 + 0xc8]\n 18037: a4 = u64 [a1 + 0xc0]\n 18041: a3 = u64 [a1 + 0xb8]\n 18045: a0 = u64 [a1 + 0xb0]\n 18049: a2 = a3 | a5\n 18052: a1 = a0 | a4\n 18055: a1 = a1 | a2\n 18058: a1 = a1 >> 0x20\n 18061: a2 = a2 | a4\n 18064: a2 = a2 << 0x20\n 18067: a1 = a1 | a2\n 18070: jump @638 if a1 == 0\n      : @637 (gas: 1)\n 18073: jump @754\n      : @638 (gas: 12)\n 18076: u64 [t0 + 1696] = 0\n 18080: u64 [t0 + 1688] = 0\n 18084: u64 [t0 + 1680] = 0\n 18088: u64 [s1 + 0xe8] = a3\n 18092: a3 = 0xa9059cbb00000000\n 18102: a1 = s1 + 0x7ff\n 18106: a1 = a1 + 0x701\n 18110: u64 [t0 + 0x6a8] = a3\n 18114: u64 [s1 + 0xf8] = a0\n 18118: u64 [s1 + 0xe0] = a4\n 18122: u64 [s1 + 0xc8] = a5\n 18126: ra = 578, jump @19\n      : @639 [@dyn 289] (gas: 6)\n 18132: a0 = u64 [s1 + 0xd0]\n 18136: ra = 0x244\n 18140: ecalli 6 // 'caller'\n 18142: a2 = u64 [s1 + 0xd8]\n 18146: t0 = 0x246\n 18150: jump @1238\n      : @640 [@dyn 290] (gas: 2)\n 18153: a2 = u64 [s1 + 0xd8]\n 18157: t0 = 582, jump @1238\n      : @641 [@dyn 291] (gas: 46)\n 18163: t0 = a1 | a0\n 18166: a3 = a3 >> 0x20\n 18169: a2 = reverse a2\n 18171: a1 = a2 << 0x20\n 18174: t1 = a1 | a3\n 18177: a2 = a2 >> 0x20\n 18180: a0 = u64 [s1 + 0xf8]\n 18184: a3 = a0 + 0x4\n 18187: a4 = a3 <u a0\n 18190: a0 = u64 [s1 + 0xe8]\n 18194: a1 = a0 + a4\n 18197: a0 = a1 <u a0\n 18200: a0 = a4 if a4 == 0\n 18203: a4 = u64 [s1 + 0xe0]\n 18207: a0 = a0 + a4\n 18210: a4 = a0 <u a4\n 18213: a5 = u64 [s1 + 0xc8]\n 18217: a4 = a4 + a5\n 18220: a5 = s1 + 0x7ff\n 18224: a5 = a5 + 0x71\n 18227: u64 [a5 + 0x668] = a4\n 18231: a4 = a5 + 0x600\n 18235: u64 [a4 + 0x60] = a0\n 18238: u64 [a4 + 0x58] = a1\n 18241: a0 = u64 [s1 + 0x58]\n 18244: u64 [a4 + 0x28] = a0\n 18247: a0 = u64 [s1 + 0x50]\n 18250: u64 [a4 + 0x20] = a0\n 18253: a0 = u64 [s1 + 0x48]\n 18256: u64 [a4 + 0x18] = a0\n 18259: a0 = u64 [s1 + 0x40]\n 18262: u64 [a4 + 0x10] = a0\n 18265: u64 [a4 + 0x50] = a3\n 18268: u64 [a4 + 0x40] = a2\n 18271: u64 [a5 + 0x638] = t1\n 18275: u64 [a5 + 0x630] = t0\n 18279: a0 = s1 + 0x7ff\n 18283: a0 = a0 + 0x6e1\n 18287: a1 = s1 + 0x7ff\n 18291: a1 = a1 + 0x6c1\n 18295: a2 = s1 + 0x7ff\n 18299: a2 = a2 + 0x6a1\n 18303: a3 = s1 + 0x7ff\n 18307: a3 = a3 + 0x681\n 18311: u64 [a5 + 1608] = 0\n 18315: ra = 584, jump @1112\n      : @642 [@dyn 292] (gas: 31)\n 18321: a1 = s1 + 0x7ff\n 18325: a1 = a1 + 0x71\n 18328: a0 = u64 [a1 + 0x678]\n 18332: t0 = u64 [a1 + 0x688]\n 18336: t1 = u64 [a1 + 0x670]\n 18340: a3 = u64 [a1 + 0x680]\n 18344: a1 = u64 [s1 + 0xe8]\n 18348: a4 = a0 ^ a1\n 18351: a5 = a0 <u a1\n 18354: ra = u64 [s1 + 0xf8]\n 18358: t2 = t1 <u ra\n 18361: a5 = t2 if a4 == 0\n 18364: a2 = u64 [s1 + 0xe0]\n 18368: a4 = a3 - a2\n 18371: a3 = a3 <u a2\n 18374: a2 = u64 [s1 + 0xc8]\n 18378: a2 = t0 - a2\n 18381: a2 = a2 - a3\n 18384: a3 = a4 <u a5\n 18387: a2 = a2 - a3\n 18390: u64 [s1 + 0xa8] = a2\n 18394: a4 = a4 - a5\n 18397: u64 [s1 + 0xa0] = a4\n 18401: a0 = a0 - a1\n 18404: a0 = a0 - t2\n 18407: u64 [s1 + 0x98] = a0\n 18411: a0 = t1 - ra\n 18414: u64 [s1 + 0xd0] = a0\n 18418: ra = 0x24a\n 18422: ecalli 10 // 'ref_time_left'\n 18424: fallthrough\n      : @643 [@dyn 293] (gas: 9)\n 18425: a0 = u64 [s1 + 0xb0]\n 18429: a0 = reverse a0\n 18431: a1 = a0 << 0x20\n 18434: a2 = u64 [s1 + 0xb8]\n 18438: a2 = reverse a2\n 18440: a2 = a2 >> 0x20\n 18443: a1 = a1 | a2\n 18446: a2 = u64 [s1 + 0xc0]\n 18450: t0 = 588, jump @1248\n      : @644 [@dyn 294] (gas: 2)\n 18456: a3 = u64 [s1 + 0xd8]\n 18460: t0 = 590, jump @1264\n      : @645 [@dyn 295] (gas: 17)\n 18466: u64 [a2 + 0] = 0\n 18468: u64 [a2 + 4294967288] = 0\n 18471: u64 [a2 + 4294967280] = 0\n 18474: a0 = u64 [s1 + 0xd0]\n 18478: a3 = a0\n 18480: a4 = u64 [s1 + 0xa0]\n 18484: a0 = a0 | a4\n 18487: a1 = u64 [s1 + 0xa8]\n 18491: a5 = u64 [s1 + 0x98]\n 18495: a1 = a1 | a5\n 18498: a0 = a0 | a1\n 18501: a0 = a0 >> 0x20\n 18504: a1 = a1 | a4\n 18507: a1 = a1 << 0x20\n 18510: a0 = a0 | a1\n 18513: u64 [a2 + 4294967272] = 0\n 18516: jump @647 if a0 == 0\n      : @646 (gas: 1)\n 18519: jump @754\n      : @647 (gas: 3)\n 18522: a0 = u64 [s1 + 0xf8]\n 18526: a1 = a3\n 18528: ra = 592, jump @26\n      : @648 [@dyn 296] (gas: 4)\n 18534: u64 [s1 + 0xd8] = a0\n 18538: a1 = 0x20\n 18541: a0 = u64 [s1 + 0xf8]\n 18545: ra = 594, jump @26\n      : @649 [@dyn 297] (gas: 31)\n 18551: a2 = s1 + 0x2078\n 18555: u32 [a2 + 8] = 0x20\n 18559: u64 [a2 + 64] = 0xffffffffffffffff\n 18563: u64 [a2 + 56] = 0xffffffffffffffff\n 18567: u64 [a2 + 48] = 0xffffffffffffffff\n 18571: u64 [a2 + 40] = 0xffffffffffffffff\n 18575: a1 = 0x800000000\n 18585: a2 = u64 [s1 + 0xf0]\n 18589: t0 = a2 | a1\n 18592: a1 = s1 + 0x2060\n 18596: a1 = a1 << 0x20\n 18599: a1 = a1 >> 0x20\n 18602: a2 = s1 + 0x20a0\n 18606: a2 = a2 << 0x20\n 18609: a3 = a2 | a1\n 18612: a1 = u64 [s1 + 0xd8]\n 18616: a1 = a1 << 0x20\n 18619: a1 = a1 >> 0x20\n 18622: a4 = u64 [s1 + 0xd0]\n 18626: a4 = a4 << 0x20\n 18629: a4 = a4 | a1\n 18632: a0 = a0 << 0x20\n 18635: a0 = a0 >> 0x20\n 18638: a1 = s1 + 0x2080\n 18642: a1 = a1 << 0x20\n 18645: a5 = a1 | a0\n 18648: a1 = 0xffffffffffffffff\n 18651: a2 = 0xffffffffffffffff\n 18654: a0 = t0\n 18656: ecalli 2 // 'call'\n 18658: fallthrough\n      : @650 (gas: 1)\n 18659: jump @652 if a0 == 0\n      : @651 (gas: 1)\n 18662: jump @771\n      : @652 (gas: 2)\n 18665: ecalli 12 // 'return_data_size'\n 18667: fallthrough\n      : @653 (gas: 2)\n 18668: a1 = 0x20\n 18671: jump @655 if a0 >=u a1\n      : @654 (gas: 3)\n 18674: ecalli 12 // 'return_data_size'\n 18676: a1 = a0\n 18678: fallthrough\n      : @655 (gas: 21)\n 18679: a2 = s1 + 0x7ff\n 18683: a2 = a2 + 0x71\n 18686: a3 = u64 [s1 + 0xf8]\n 18690: a4 = u64 [s1 + 0xe0]\n 18694: a5 = u64 [s1 + 0xc8]\n 18698: u64 [s1 + 0xd8] = a1\n 18702: u64 [s1 + 240] = 0\n 18706: u64 [a2 + 0x5b0] = a1\n 18710: u64 [a2 + 0x5d0] = a3\n 18714: u64 [a2 + 1464] = 0\n 18718: a3 = u64 [s1 + 0xe8]\n 18722: u64 [a2 + 0x5d8] = a3\n 18726: u64 [a2 + 1472] = 0\n 18730: u64 [a2 + 0x5e0] = a4\n 18734: u64 [a2 + 1480] = 0\n 18738: a0 = s1 + 0x7ff\n 18742: a0 = a0 + 0x641\n 18746: a1 = s1 + 0x7ff\n 18750: a1 = a1 + 0x621\n 18754: u64 [a2 + 0x5e8] = a5\n 18758: ra = 596, jump @919\n      : @656 [@dyn 298] (gas: 51)\n 18764: t1 = u64 [s1 + 0xf8]\n 18768: a1 = u64 [s1 + 0xd8]\n 18772: a0 = a1 + t1\n 18775: a1 = a0 <u a1\n 18778: t0 = u64 [s1 + 0xe8]\n 18782: a5 = u64 [s1 + 0xf0]\n 18786: a2 = a5 + t0\n 18789: a2 = a2 + a1\n 18792: a3 = a2 ^ a5\n 18795: a4 = a2 <u a5\n 18798: a4 = a1 if a3 == 0\n 18801: ra = u64 [s1 + 0xe0]\n 18805: a1 = a5 + ra\n 18808: a4 = a4 + a1\n 18811: t2 = a4 <u a1\n 18814: a1 = a1 <u a5\n 18817: a3 = u64 [s1 + 0xc8]\n 18821: a5 = a5 + a3\n 18824: a1 = a1 + a5\n 18827: t2 = t2 + a1\n 18830: a1 = s1 + 0x7ff\n 18834: a1 = a1 + 0x71\n 18837: u64 [a1 + 0x560] = a4\n 18841: a1 = s1 + 0x7ff\n 18845: a1 = a1 + 0x71\n 18848: u64 [a1 + 0x558] = a2\n 18852: a1 = s1 + 0x7ff\n 18856: a1 = a1 + 0x71\n 18859: u64 [a1 + 0x550] = a0\n 18863: a0 = s1 + 0x7ff\n 18867: a0 = a0 + 0x71\n 18870: u64 [a0 + 0x588] = a3\n 18874: a0 = s1 + 0x7ff\n 18878: a0 = a0 + 0x71\n 18881: u64 [a0 + 0x580] = ra\n 18885: a0 = s1 + 0x7ff\n 18889: a0 = a0 + 0x71\n 18892: u64 [a0 + 0x578] = t0\n 18896: a0 = s1 + 0x7ff\n 18900: a0 = a0 + 0x71\n 18903: u64 [a0 + 0x570] = t1\n 18907: a0 = s1 + 0x7ff\n 18911: a0 = a0 + 0x601\n 18915: a1 = s1 + 0x7ff\n 18919: a1 = a1 + 0x5e1\n 18923: a2 = s1 + 0x7ff\n 18927: a2 = a2 + 0x5c1\n 18931: a4 = s1 + 0x7ff\n 18935: a4 = a4 + 0x71\n 18938: u64 [a4 + 0x568] = t2\n 18942: ra = 598, jump @929\n      : @657 [@dyn 299] (gas: 4)\n 18948: a0 = s1 + 0x7ff\n 18952: a0 = a0 + 0x5a1\n 18956: a1 = 0x40\n 18959: ra = 600, jump @17\n      : @658 [@dyn 300] (gas: 15)\n 18965: a2 = s1 + 0x7ff\n 18969: a2 = a2 + 0x71\n 18972: t0 = u64 [a2 + 0x548]\n 18976: a0 = a2 + 0x500\n 18980: a5 = u64 [a0 + 0x40]\n 18983: a4 = u64 [a0 + 0x38]\n 18986: a3 = u64 [a0 + 0x30]\n 18989: a0 = a4 | t0\n 18992: a1 = a3 | a5\n 18995: a1 = a1 | a0\n 18998: a1 = a1 >> 0x20\n 19001: a0 = a0 | a5\n 19004: a0 = a0 << 0x20\n 19007: a0 = a0 | a1\n 19010: jump @754 if a0 != 0\n      : @659 (gas: 16)\n 19014: a0 = u64 [s1 + 0x68]\n 19017: u64 [a2 + 0x510] = a0\n 19021: a0 = u64 [s1 + 0x70]\n 19024: u64 [a2 + 0x518] = a0\n 19028: a0 = u64 [s1 + 0x78]\n 19031: u64 [a2 + 0x520] = a0\n 19035: a1 = s1 + 0x7ff\n 19039: a1 = a1 + 0x581\n 19043: a0 = u64 [s1 + 0x80]\n 19047: u64 [a2 + 0x528] = a0\n 19051: a0 = a3\n 19053: u64 [s1 + 0xf8] = a3\n 19057: u64 [s1 + 0xf0] = a4\n 19061: u64 [s1 + 0xe0] = t0\n 19065: u64 [s1 + 0xe8] = a5\n 19069: ra = 602, jump @19\n      : @660 [@dyn 301] (gas: 10)\n 19075: a3 = u64 [s1 + 0xf8]\n 19079: a0 = u64 [s1 + 0xe8]\n 19083: a1 = u64 [s1 + 0xe0]\n 19087: a0 = a0 | a1\n 19090: a1 = 0xffffffe0\n 19100: a1 = a3 <u a1\n 19103: a2 = u64 [s1 + 0xf0]\n 19107: a1 = 0 if a2 != 0\n 19109: a1 = 0 if a0 != 0\n 19111: jump @754 if a1 == 0\n      : @661 (gas: 14)\n 19115: i32 a0 = a3 + 0x20\n 19118: a1 = u64 [s1 + 0x40]\n 19121: a4 = s1 + 0x7ff\n 19125: a4 = a4 + 0x71\n 19128: u64 [a4 + 0x4f0] = a1\n 19132: a1 = u64 [s1 + 0x48]\n 19135: u64 [a4 + 0x4f8] = a1\n 19139: a1 = u64 [s1 + 0x50]\n 19142: u64 [a4 + 0x500] = a1\n 19146: a1 = s1 + 0x7ff\n 19150: a1 = a1 + 0x561\n 19154: a2 = u64 [s1 + 0x58]\n 19157: u64 [a4 + 0x508] = a2\n 19161: ra = 604, jump @19\n      : @662 [@dyn 302] (gas: 3)\n 19167: a1 = 0x40\n 19170: a0 = u64 [s1 + 0xf8]\n 19174: ra = 606, jump @26\n      : @663 [@dyn 303] (gas: 5)\n 19180: i32 a1 = a0 + 0\n 19182: a2 = 0x40\n 19185: a0 = 0\n 19187: ecalli 13 // 'seal_return'\n 19189: jump @591\n      : @664 (gas: 8)\n 19192: a1 = s1 + 0x2078\n 19196: u64 [a1 + 800] = 0\n 19200: u64 [a1 + 792] = 0\n 19204: u64 [a1 + 784] = 0\n 19208: u64 [a1 + 776] = 0x5\n 19213: a0 = s1 + 0x1a60\n 19217: a1 = s1 + 0x2380\n 19221: ra = 608, jump @21\n      : @665 [@dyn 304] (gas: 3)\n 19227: t0 = 0x262\n 19231: a1 = s1 + 0x1878\n 19235: fallthrough\n      : @666 [@dyn 305] (gas: 10)\n 19236: a2 = a1 + 0x100\n 19240: a0 = u64 [a2 + 0xf8]\n 19244: u64 [s1 + 0x88] = a0\n 19248: a0 = u64 [a2 + 0xf0]\n 19252: u64 [s1 + 0x80] = a0\n 19256: a0 = u64 [a2 + 0xe8]\n 19260: u64 [s1 + 0x90] = a0\n 19264: a0 = s1 + 0x1a40\n 19268: a1 = 0x40\n 19271: ra = 612, jump @17\n      : @667 [@dyn 306] (gas: 14)\n 19277: t0 = s1 + 0x1878\n 19281: a1 = t0 + 0x100\n 19285: a5 = u64 [a1 + 0xe0]\n 19289: a4 = u64 [a1 + 0xd8]\n 19293: a3 = u64 [a1 + 0xd0]\n 19297: a0 = u64 [a1 + 0xc8]\n 19301: a2 = a3 | a5\n 19304: a1 = a0 | a4\n 19307: a1 = a1 | a2\n 19310: a1 = a1 >> 0x20\n 19313: a2 = a2 | a4\n 19316: a2 = a2 << 0x20\n 19319: a1 = a1 | a2\n 19322: jump @754 if a1 != 0\n      : @668 (gas: 11)\n 19326: u64 [t0 + 440] = 0\n 19330: u64 [t0 + 432] = 0\n 19334: u64 [t0 + 424] = 0\n 19338: u64 [s1 + 0xa8] = a3\n 19342: a3 = 0x23b872dd00000000\n 19352: a1 = s1 + 0x1a20\n 19356: u64 [t0 + 0x1c0] = a3\n 19360: u64 [s1 + 0xb8] = a0\n 19364: u64 [s1 + 0xa0] = a4\n 19368: u64 [s1 + 0x98] = a5\n 19372: ra = 614, jump @19\n      : @669 [@dyn 307] (gas: 7)\n 19378: a0 = 0x301f0\n 19383: u64 [s1 + 0xb0] = a0\n 19387: i32 a0 = a0 + 0\n 19389: u64 [s1 + 0x78] = a0\n 19392: ra = 0x268\n 19396: ecalli 0 // 'address'\n 19397: fallthrough\n      : @670 [@dyn 308] (gas: 5)\n 19398: a2 = u64 [s1 + 0xb0]\n 19402: a0 = u64 [a2 + 0x8]\n 19405: a1 = i32 [a2 + 0x10]\n 19408: a2 = u64 [a2]\n 19410: t0 = 618, jump @1255\n      : @671 [@dyn 309] (gas: 14)\n 19416: u64 [s1 + 0x70] = a1\n 19419: a0 = a0 >> 0x20\n 19422: a1 = reverse a2\n 19424: a2 = a1 << 0x20\n 19427: a0 = a0 | a2\n 19430: u64 [s1 + 0x68] = a0\n 19433: a1 = a1 >> 0x20\n 19436: u64 [s1 + 0x60] = a1\n 19439: a0 = u64 [s1 + 0x78]\n 19442: ra = 0x26c\n 19446: ecalli 6 // 'caller'\n 19448: a2 = u64 [s1 + 0xb0]\n 19452: t0 = 0x26e\n 19456: jump @1238\n      : @672 [@dyn 310] (gas: 2)\n 19459: a2 = u64 [s1 + 0xb0]\n 19463: t0 = 622, jump @1238\n      : @673 [@dyn 311] (gas: 50)\n 19469: t0 = a1 | a0\n 19472: a3 = a3 >> 0x20\n 19475: a2 = reverse a2\n 19477: a1 = a2 << 0x20\n 19480: t1 = a1 | a3\n 19483: t2 = a2 >> 0x20\n 19486: a0 = u64 [s1 + 0xb8]\n 19490: a3 = a0 + 0x4\n 19493: a4 = a3 <u a0\n 19496: a0 = u64 [s1 + 0xa8]\n 19500: a5 = a0 + a4\n 19503: a0 = a5 <u a0\n 19506: a0 = a4 if a4 == 0\n 19509: a1 = u64 [s1 + 0xa0]\n 19513: a0 = a0 + a1\n 19516: a4 = a0 <u a1\n 19519: a1 = u64 [s1 + 0x98]\n 19523: a4 = a4 + a1\n 19526: a1 = u64 [s1 + 0xe0]\n 19530: a2 = s1 + 0x1878\n 19534: u64 [a2 + 0x120] = a1\n 19538: a1 = u64 [s1 + 0xe8]\n 19542: u64 [a2 + 0x118] = a1\n 19546: a1 = u64 [s1 + 0xf0]\n 19550: u64 [a2 + 0x110] = a1\n 19554: a1 = u64 [s1 + 0xf8]\n 19558: u64 [a2 + 0x108] = a1\n 19562: a1 = u64 [s1 + 0x60]\n 19565: u64 [a2 + 0x138] = a1\n 19569: a1 = u64 [s1 + 0x68]\n 19572: u64 [a2 + 0x130] = a1\n 19576: a1 = u64 [s1 + 0x70]\n 19579: u64 [a2 + 0x128] = a1\n 19583: a1 = a2 + 0x100\n 19587: u64 [a1 + 0x80] = a4\n 19591: u64 [a1 + 0x78] = a0\n 19594: u64 [a2 + 320] = 0\n 19598: u64 [a1 + 0x70] = a5\n 19601: u64 [a1 + 0x68] = a3\n 19604: u64 [a2 + 0x158] = t2\n 19608: u64 [a2 + 0x150] = t1\n 19612: u64 [a2 + 0x148] = t0\n 19616: a5 = a2\n 19618: a0 = s1 + 0x1a00\n 19622: a1 = s1 + 0x19e0\n 19626: a2 = s1 + 0x19c0\n 19630: a3 = s1 + 0x19a0\n 19634: a4 = s1 + 0x1980\n 19638: u64 [a5 + 352] = 0\n 19642: ra = 624, jump @938\n      : @674 [@dyn 312] (gas: 17)\n 19648: a1 = s1 + 0x1878\n 19652: a0 = u64 [a1 + 0x190]\n 19656: t0 = u64 [a1 + 0x1a0]\n 19660: t1 = u64 [a1 + 0x188]\n 19664: a3 = u64 [a1 + 0x198]\n 19668: a1 = u64 [s1 + 0xa8]\n 19672: a4 = a0 ^ a1\n 19675: a5 = a0 <u a1\n 19678: ra = u64 [s1 + 0xb8]\n 19682: t2 = t1 <u ra\n 19685: a5 = t2 if a4 == 0\n 19688: a2 = u64 [s1 + 0xa0]\n 19692: a4 = a3 - a2\n 19695: a3 = a3 <u a2\n 19698: a2 = u64 [s1 + 0x98]\n 19702: a2 = t0 - a2\n 19705: t0 = 626, jump @1261\n      : @675 [@dyn 313] (gas: 3)\n 19711: ra = 0x274\n 19715: ecalli 10 // 'ref_time_left'\n 19717: fallthrough\n      : @676 [@dyn 314] (gas: 9)\n 19718: a0 = u64 [s1 + 0x80]\n 19722: a0 = reverse a0\n 19724: a1 = a0 << 0x20\n 19727: a2 = u64 [s1 + 0x88]\n 19731: a2 = reverse a2\n 19733: a2 = a2 >> 0x20\n 19736: a1 = a1 | a2\n 19739: a2 = u64 [s1 + 0x90]\n 19743: t0 = 630, jump @1248\n      : @677 [@dyn 315] (gas: 2)\n 19749: a3 = u64 [s1 + 0xb0]\n 19753: t0 = 632, jump @1264\n      : @678 [@dyn 316] (gas: 4)\n 19759: u64 [a2 + 832] = 0\n 19763: u64 [a2 + 824] = 0\n 19767: u64 [a2 + 816] = 0\n 19771: t0 = 634, jump @1266\n      : @679 [@dyn 317] (gas: 2)\n 19777: u64 [a2 + 808] = 0\n 19781: jump @754 if a0 != 0\n      : @680 (gas: 3)\n 19785: a0 = u64 [s1 + 0xb8]\n 19789: a1 = a3\n 19791: ra = 636, jump @26\n      : @681 [@dyn 318] (gas: 4)\n 19797: u64 [s1 + 0xf0] = a0\n 19801: a1 = 0x20\n 19804: a0 = u64 [s1 + 0xb8]\n 19808: ra = 638, jump @26\n      : @682 [@dyn 319] (gas: 35)\n 19814: a2 = s1 + 0x2078\n 19818: a3 = a2 + 0x300\n 19822: u32 [a3 + 72] = 0x20\n 19826: u64 [a3 + 128] = 0xffffffffffffffff\n 19831: u64 [a3 + 120] = 0xffffffffffffffff\n 19835: u64 [a3 + 112] = 0xffffffffffffffff\n 19839: u64 [a3 + 104] = 0xffffffffffffffff\n 19843: a1 = u64 [s1 + 0xb0]\n 19847: a1 = a1 << 0x20\n 19850: a2 = a1 >> 0x20\n 19853: a1 = 0x800000000\n 19863: u64 [s1 + 0xe8] = a2\n 19867: t0 = a2 | a1\n 19870: a1 = s1 + 0x23a0\n 19874: a1 = a1 << 0x20\n 19877: a1 = a1 >> 0x20\n 19880: a2 = s1 + 0x23e0\n 19884: a2 = a2 << 0x20\n 19887: a3 = a2 | a1\n 19890: a1 = u64 [s1 + 0xf0]\n 19894: a1 = a1 << 0x20\n 19897: a1 = a1 >> 0x20\n 19900: a4 = u64 [s1 + 0xf8]\n 19904: a4 = a4 << 0x20\n 19907: a4 = a4 | a1\n 19910: a0 = a0 << 0x20\n 19913: a0 = a0 >> 0x20\n 19916: a1 = s1 + 0x23c0\n 19920: a1 = a1 << 0x20\n 19923: a5 = a1 | a0\n 19926: a1 = 0xffffffffffffffff\n 19929: a2 = 0xffffffffffffffff\n 19932: a0 = t0\n 19934: ecalli 2 // 'call'\n 19936: fallthrough\n      : @683 (gas: 1)\n 19937: jump @763 if a0 != 0\n      : @684 (gas: 2)\n 19941: ecalli 12 // 'return_data_size'\n 19943: fallthrough\n      : @685 (gas: 2)\n 19944: a1 = 0x20\n 19947: jump @687 if a0 >=u a1\n      : @686 (gas: 3)\n 19950: ecalli 12 // 'return_data_size'\n 19952: a1 = a0\n 19954: fallthrough\n      : @687 (gas: 18)\n 19955: a2 = s1 + 0x1878\n 19959: a3 = u64 [s1 + 0xb8]\n 19963: a4 = u64 [s1 + 0xa0]\n 19967: a5 = u64 [s1 + 0x98]\n 19971: u64 [s1 + 0xf0] = a1\n 19975: u64 [s1 + 248] = 0\n 19979: u64 [a2 + 0xa8] = a1\n 19983: u64 [a2 + 0xc8] = a3\n 19987: u64 [a2 + 176] = 0\n 19991: a3 = u64 [s1 + 0xa8]\n 19995: u64 [a2 + 0xd0] = a3\n 19999: u64 [a2 + 184] = 0\n 20003: u64 [a2 + 0xd8] = a4\n 20007: u64 [a2 + 192] = 0\n 20011: a0 = s1 + 0x1940\n 20015: a1 = s1 + 0x1920\n 20019: u64 [a2 + 0xe0] = a5\n 20023: ra = 640, jump @919\n      : @688 [@dyn 320] (gas: 34)\n 20029: t1 = u64 [s1 + 0xb8]\n 20033: a0 = u64 [s1 + 0xf0]\n 20037: ra = a0 + t1\n 20040: a1 = ra <u a0\n 20043: t0 = u64 [s1 + 0xa8]\n 20047: a5 = u64 [s1 + 0xf8]\n 20051: a2 = a5 + t0\n 20054: a2 = a2 + a1\n 20057: a3 = a2 ^ a5\n 20060: a4 = a2 <u a5\n 20063: a4 = a1 if a3 == 0\n 20066: a3 = u64 [s1 + 0xa0]\n 20070: a1 = a5 + a3\n 20073: a4 = a4 + a1\n 20076: t2 = a4 <u a1\n 20079: a1 = a1 <u a5\n 20082: a0 = u64 [s1 + 0x98]\n 20086: a5 = a5 + a0\n 20089: a1 = a1 + a5\n 20092: t2 = t2 + a1\n 20095: a1 = s1 + 0x1878\n 20099: u64 [a1 + 0x58] = a4\n 20102: u64 [a1 + 0x50] = a2\n 20105: u64 [a1 + 0x48] = ra\n 20108: u64 [a1 + 0x80] = a0\n 20112: u64 [a1 + 0x78] = a3\n 20115: u64 [a1 + 0x70] = t0\n 20118: u64 [a1 + 0x68] = t1\n 20121: a4 = a1\n 20123: a0 = s1 + 0x1900\n 20127: a1 = s1 + 0x18e0\n 20131: a2 = s1 + 0x18c0\n 20135: u64 [a4 + 0x60] = t2\n 20138: ra = 642, jump @929\n      : @689 [@dyn 321] (gas: 35)\n 20144: a0 = u64 [s1 + 0x78]\n 20147: ecalli 6 // 'caller'\n 20149: a0 = s1 + 0x2078\n 20153: a1 = u64 [s1 + 0xc0]\n 20157: a2 = a0 + 0x300\n 20161: u64 [a2 + 0xc0] = a1\n 20165: a1 = u64 [s1 + 0xc8]\n 20169: u64 [a2 + 0xb8] = a1\n 20173: a1 = u64 [s1 + 0xd0]\n 20177: u64 [a2 + 0xb0] = a1\n 20181: a1 = u64 [s1 + 0xd8]\n 20185: u64 [a2 + 0xa8] = a1\n 20189: u32 [a0 + 968] = 0\n 20193: u64 [a0 + 1024] = 0\n 20197: u64 [a0 + 1016] = 0\n 20201: u64 [a0 + 1008] = 0\n 20205: u64 [a0 + 1000] = 0\n 20209: a0 = s1 + 0x2420\n 20213: a0 = a0 << 0x20\n 20216: a0 = a0 >> 0x20\n 20219: a4 = 0x201f0\n 20224: a1 = s1 + 0x2460\n 20228: a1 = a1 << 0x20\n 20231: a3 = a1 | a0\n 20234: u64 [s1 + 0xf8] = a4\n 20238: a4 = a4 << 0x20\n 20241: a4 = a4 >> 0x20\n 20244: a0 = s1 + 0x2440\n 20248: a0 = a0 << 0x20\n 20251: a5 = a0 | a4\n 20254: a1 = 0xffffffffffffffff\n 20257: a2 = 0xffffffffffffffff\n 20260: a0 = u64 [s1 + 0xe8]\n 20264: ecalli 2 // 'call'\n 20266: fallthrough\n      : @690 (gas: 1)\n 20267: jump @692 if a0 != 0\n      : @691 (gas: 1)\n 20270: jump @878\n      : @692 (gas: 3)\n 20273: a0 = s1 + 0x18a0\n 20277: a1 = 0x40\n 20280: ra = 644, jump @17\n      : @693 [@dyn 322] (gas: 13)\n 20286: a0 = s1 + 0x1878\n 20290: a1 = u64 [a0 + 0x40]\n 20293: u64 [s1 + 0xf0] = a1\n 20297: a1 = u64 [a0 + 0x38]\n 20300: u64 [s1 + 0xe8] = a1\n 20304: a1 = u64 [a0 + 0x30]\n 20307: u64 [s1 + 0xe0] = a1\n 20311: a0 = u64 [a0 + 0x28]\n 20314: u64 [s1 + 0xf8] = a0\n 20318: ra = 0x286\n 20322: ecalli 12 // 'return_data_size'\n 20324: t0 = 0x288\n 20328: jump @1237\n      : @694 [@dyn 323] (gas: 1)\n 20331: t0 = 648, jump @1237\n      : @695 [@dyn 324] (gas: 1)\n 20337: jump @754 if a1 != 0\n      : @696 (gas: 3)\n 20341: a2 = a0\n 20343: a0 = a0 >> 0x20\n 20346: jump @754 if a0 != 0\n      : @697 (gas: 1)\n 20350: t0 = 650, jump @1265\n      : @698 [@dyn 325] (gas: 1)\n 20356: ra = 652, jump @26\n      : @699 [@dyn 326] (gas: 11)\n 20362: a1 = s1 + 0x2078\n 20366: a2 = u64 [s1 + 0xe8]\n 20370: u32 [a1 + 0x408] = a2\n 20374: i32 a0 = a0 + 0\n 20376: a1 = s1 + 0x2000\n 20380: i32 a1 = a1 + 0x480\n 20384: a2 = 0\n 20386: ecalli 11 // 'return_data_copy'\n 20388: a0 = s1 + 0x2078\n 20392: a0 = i32 [a0 + 0x408]\n 20396: jump @779\n      : @700 (gas: 7)\n 20399: u64 [s1 + 632] = 0\n 20403: u64 [s1 + 624] = 0\n 20407: u64 [s1 + 616] = 0\n 20411: a1 = s1 + 0x260\n 20415: u64 [s1 + 608] = 0x3\n 20420: a0 = 0\n 20422: ra = 654, jump @19\n      : @701 [@dyn 327] (gas: 21)\n 20428: a0 = sp + 0xffffffffffffffe0\n 20431: a1 = a0 & 0xffffffffffffffe0\n 20434: sp = a1\n 20436: u64 [s1 + 248] = 0\n 20440: a5 = 0\n 20442: t2 = 0\n 20444: t1 = 0\n 20446: t0 = u64 [0x20130]\n 20451: a2 = u64 [0x20138]\n 20456: ra = u64 [0x20140]\n 20461: a0 = u64 [0x20148]\n 20466: u64 [a1 + 0x18] = t0\n 20469: u64 [s1 + 0xd0] = a2\n 20473: u64 [a1 + 0x10] = a2\n 20476: u64 [a1 + 0x8] = ra\n 20479: a2 = a0\n 20481: u64 [a1] = a0\n 20483: a0 = 0xffffff60\n 20493: u64 [s1 + 0x98] = a0\n 20497: u64 [s1 + 0x90] = a1\n 20501: fallthrough\n      : @702 (gas: 19)\n 20502: u64 [s1 + 0xd8] = a2\n 20506: a0 = u64 [s1 + 0xb8]\n 20510: a2 = u64 [s1 + 0xf8]\n 20514: a0 = a2 <u a0\n 20517: a2 = u64 [s1 + 0xa8]\n 20521: a3 = a5 ^ a2\n 20524: u64 [s1 + 0xf0] = a5\n 20528: a2 = a5 <u a2\n 20531: a2 = a0 if a3 == 0\n 20534: a4 = u64 [s1 + 0xb0]\n 20538: a0 = t2 <u a4\n 20541: a3 = u64 [s1 + 0xa0]\n 20545: a5 = t1 ^ a3\n 20548: a3 = t1 <u a3\n 20551: a3 = a0 if a5 == 0\n 20554: a0 = t2 ^ a4\n 20557: a0 = a0 | a5\n 20560: a3 = a2 if a0 == 0\n 20563: jump @732 if a3 == 0\n      : @703 (gas: 6)\n 20567: a0 = s1 + 0x240\n 20571: u64 [s1 + 0xe8] = t1\n 20575: u64 [s1 + 0xc8] = t0\n 20579: u64 [s1 + 0xe0] = t2\n 20583: u64 [s1 + 0xc0] = ra\n 20587: ra = 656, jump @21\n      : @704 [@dyn 328] (gas: 10)\n 20593: a5 = u64 [s1 + 0xe0]\n 20597: a0 = u64 [s1 + 0xe8]\n 20601: a0 = a0 | a5\n 20604: a1 = u64 [s1 + 0xf8]\n 20608: a2 = u64 [s1 + 0x98]\n 20612: a1 = a1 <u a2\n 20615: a2 = u64 [s1 + 0xf0]\n 20619: a1 = 0 if a2 != 0\n 20621: a1 = 0 if a0 != 0\n 20623: jump @754 if a1 == 0\n      : @705 (gas: 13)\n 20627: t0 = u64 [s1 + 0x258]\n 20631: a2 = s1 + 0x200\n 20635: a1 = u64 [a2 + 0x50]\n 20638: a3 = u64 [a2 + 0x48]\n 20641: a4 = u64 [a2 + 0x40]\n 20644: a0 = u64 [s1 + 0xf8]\n 20648: i32 a0 = a0 + 0xa0\n 20652: u64 [a2 + 0x20] = a4\n 20655: u64 [a2 + 0x28] = a3\n 20658: u64 [a2 + 0x30] = a1\n 20661: a1 = s1 + 0x220\n 20665: u64 [s1 + 0x238] = t0\n 20669: ra = 658, jump @19\n      : @706 [@dyn 329] (gas: 36)\n 20675: t1 = u64 [s1 + 0xe8]\n 20679: a5 = u64 [s1 + 0xd8]\n 20683: a5 = a5 + 0x1\n 20686: a0 = a5 <u 0x1\n 20689: ra = u64 [s1 + 0xc0]\n 20693: ra = ra + a0\n 20696: a0 = a5 | ra\n 20699: a0 = a0 <u 0x1\n 20702: a1 = u64 [s1 + 0xd0]\n 20706: a0 = a0 + a1\n 20709: a1 = a0 <u a1\n 20712: a3 = u64 [s1 + 0xc8]\n 20716: a3 = a3 + a1\n 20719: a1 = u64 [s1 + 0xf8]\n 20723: t0 = a1 + 0x20\n 20726: a2 = t0 <u a1\n 20729: a4 = u64 [s1 + 0xf0]\n 20733: t2 = a4 + a2\n 20736: a4 = t2 <u a4\n 20739: a4 = a2 if a2 == 0\n 20742: a1 = u64 [s1 + 0xe0]\n 20746: a4 = a4 + a1\n 20749: a2 = a4 <u a1\n 20752: t1 = t1 + a2\n 20755: a1 = u64 [s1 + 0x90]\n 20759: u64 [a1 + 0x8] = ra\n 20762: a2 = a5\n 20764: u64 [a1] = a5\n 20766: u64 [a1 + 0x10] = a0\n 20769: u64 [a1 + 0x18] = a3\n 20772: u64 [s1 + 0xd0] = a0\n 20776: u64 [s1 + 0xf8] = t0\n 20780: a5 = t2\n 20782: t2 = a4\n 20784: t0 = a3\n 20786: jump @702\n      : @707 (gas: 8)\n 20789: a1 = s1 + 0x2078\n 20793: u64 [a1 + 512] = 0\n 20797: u64 [a1 + 504] = 0\n 20801: u64 [a1 + 496] = 0\n 20805: u64 [a1 + 488] = 0x5\n 20810: a0 = s1 + 0x16c0\n 20814: a1 = s1 + 0x2260\n 20818: ra = 660, jump @21\n      : @708 [@dyn 330] (gas: 11)\n 20824: a1 = s1 + 0x1078\n 20828: a2 = a1 + 0x600\n 20832: a0 = u64 [a2 + 0x58]\n 20835: u64 [s1 + 0xa8] = a0\n 20839: a0 = u64 [a2 + 0x50]\n 20842: u64 [s1 + 0xa0] = a0\n 20846: a0 = u64 [a2 + 0x48]\n 20849: u64 [s1 + 0xb0] = a0\n 20853: a0 = s1 + 0x16a0\n 20857: a1 = 0x40\n 20860: ra = 662, jump @17\n      : @709 [@dyn 331] (gas: 14)\n 20866: t0 = s1 + 0x1078\n 20870: a1 = t0 + 0x600\n 20874: a5 = u64 [a1 + 0x40]\n 20877: a3 = u64 [a1 + 0x38]\n 20880: a4 = u64 [a1 + 0x30]\n 20883: a0 = u64 [a1 + 0x28]\n 20886: a2 = a4 | a5\n 20889: a1 = a0 | a3\n 20892: a1 = a1 | a2\n 20895: a1 = a1 >> 0x20\n 20898: a2 = a2 | a3\n 20901: a2 = a2 << 0x20\n 20904: a1 = a1 | a2\n 20907: jump @754 if a1 != 0\n      : @710 (gas: 11)\n 20911: u64 [t0 + 1560] = 0\n 20915: u64 [t0 + 1552] = 0\n 20919: u64 [t0 + 1544] = 0\n 20923: u64 [s1 + 0xc0] = a3\n 20927: a3 = 0xa9059cbb00000000\n 20937: a1 = s1 + 0x1680\n 20941: u64 [t0 + 0x620] = a3\n 20945: u64 [s1 + 0xd8] = a0\n 20949: u64 [s1 + 0xc8] = a4\n 20953: u64 [s1 + 0xb8] = a5\n 20957: ra = 664, jump @19\n      : @711 [@dyn 332] (gas: 8)\n 20963: a0 = 0x301f0\n 20968: u64 [s1 + 0xd0] = a0\n 20972: i32 a0 = a0 + 0\n 20974: ra = 0x29a\n 20978: ecalli 6 // 'caller'\n 20980: a2 = u64 [s1 + 0xd0]\n 20984: t0 = 0x29c\n 20988: jump @1238\n      : @712 [@dyn 333] (gas: 2)\n 20991: a2 = u64 [s1 + 0xd0]\n 20995: t0 = 668, jump @1238\n      : @713 [@dyn 334] (gas: 42)\n 21001: t0 = a1 | a0\n 21004: a3 = a3 >> 0x20\n 21007: a2 = reverse a2\n 21009: a1 = a2 << 0x20\n 21012: t1 = a1 | a3\n 21015: t2 = a2 >> 0x20\n 21018: a0 = u64 [s1 + 0xd8]\n 21022: a3 = a0 + 0x4\n 21025: a4 = a3 <u a0\n 21028: a0 = u64 [s1 + 0xc8]\n 21032: a5 = a0 + a4\n 21035: a0 = a5 <u a0\n 21038: a0 = a4 if a4 == 0\n 21041: a1 = u64 [s1 + 0xc0]\n 21045: a0 = a0 + a1\n 21048: a4 = a0 <u a1\n 21051: a1 = u64 [s1 + 0xb8]\n 21055: a4 = a4 + a1\n 21058: a1 = u64 [s1 + 0xe0]\n 21062: a2 = s1 + 0x1078\n 21066: u64 [a2 + 0x5a0] = a1\n 21070: a1 = u64 [s1 + 0xe8]\n 21074: u64 [a2 + 0x598] = a1\n 21078: a1 = u64 [s1 + 0xf0]\n 21082: u64 [a2 + 0x590] = a1\n 21086: a1 = u64 [s1 + 0xf8]\n 21090: u64 [a2 + 0x588] = a1\n 21094: a1 = a2 + 0x500\n 21098: u64 [a1 + 0xe0] = a4\n 21102: u64 [a1 + 0xd8] = a0\n 21106: u64 [a1 + 0xd0] = a5\n 21110: u64 [a1 + 0xc8] = a3\n 21114: u64 [a2 + 0x5b8] = t2\n 21118: u64 [a2 + 0x5b0] = t1\n 21122: u64 [a2 + 0x5a8] = t0\n 21126: a4 = a2\n 21128: a0 = s1 + 0x1660\n 21132: a1 = s1 + 0x1640\n 21136: a2 = s1 + 0x1620\n 21140: a3 = s1 + 0x1600\n 21144: u64 [a4 + 1472] = 0\n 21148: ra = 670, jump @1112\n      : @714 [@dyn 335] (gas: 17)\n 21154: a1 = s1 + 0x1078\n 21158: a0 = u64 [a1 + 0x5f0]\n 21162: t0 = u64 [a1 + 0x600]\n 21166: t1 = u64 [a1 + 0x5e8]\n 21170: a3 = u64 [a1 + 0x5f8]\n 21174: a1 = u64 [s1 + 0xc8]\n 21178: a4 = a0 ^ a1\n 21181: a5 = a0 <u a1\n 21184: ra = u64 [s1 + 0xd8]\n 21188: t2 = t1 <u ra\n 21191: a5 = t2 if a4 == 0\n 21194: a2 = u64 [s1 + 0xc0]\n 21198: a4 = a3 - a2\n 21201: a3 = a3 <u a2\n 21204: a2 = u64 [s1 + 0xb8]\n 21208: a2 = t0 - a2\n 21211: t0 = 672, jump @1261\n      : @715 [@dyn 336] (gas: 3)\n 21217: ra = 0x2a2\n 21221: ecalli 10 // 'ref_time_left'\n 21223: fallthrough\n      : @716 [@dyn 337] (gas: 9)\n 21224: a0 = u64 [s1 + 0xa0]\n 21228: a0 = reverse a0\n 21230: a1 = a0 << 0x20\n 21233: a2 = u64 [s1 + 0xa8]\n 21237: a2 = reverse a2\n 21239: a2 = a2 >> 0x20\n 21242: a1 = a1 | a2\n 21245: a2 = u64 [s1 + 0xb0]\n 21249: t0 = 676, jump @1248\n      : @717 [@dyn 338] (gas: 2)\n 21255: a3 = u64 [s1 + 0xd0]\n 21259: t0 = 678, jump @1264\n      : @718 [@dyn 339] (gas: 4)\n 21265: u64 [a2 + 544] = 0\n 21269: u64 [a2 + 536] = 0\n 21273: u64 [a2 + 528] = 0\n 21277: t0 = 680, jump @1266\n      : @719 [@dyn 340] (gas: 2)\n 21283: u64 [a2 + 520] = 0\n 21287: jump @754 if a0 != 0\n      : @720 (gas: 3)\n 21291: a0 = u64 [s1 + 0xd8]\n 21295: a1 = a3\n 21297: ra = 682, jump @26\n      : @721 [@dyn 341] (gas: 4)\n 21303: u64 [s1 + 0xf0] = a0\n 21307: a1 = 0x20\n 21310: a0 = u64 [s1 + 0xd8]\n 21314: ra = 684, jump @26\n      : @722 [@dyn 342] (gas: 34)\n 21320: a2 = s1 + 0x2078\n 21324: a3 = a2 + 0x200\n 21328: u32 [a3 + 40] = 0x20\n 21332: u64 [a3 + 96] = 0xffffffffffffffff\n 21336: u64 [a3 + 88] = 0xffffffffffffffff\n 21340: u64 [a3 + 80] = 0xffffffffffffffff\n 21344: u64 [a3 + 72] = 0xffffffffffffffff\n 21348: a1 = u64 [s1 + 0xd0]\n 21352: a1 = a1 << 0x20\n 21355: a1 = a1 >> 0x20\n 21358: a2 = 0x800000000\n 21368: t0 = a1 | a2\n 21371: a1 = s1 + 0x2280\n 21375: a1 = a1 << 0x20\n 21378: a1 = a1 >> 0x20\n 21381: a2 = s1 + 0x22c0\n 21385: a2 = a2 << 0x20\n 21388: a3 = a2 | a1\n 21391: a1 = u64 [s1 + 0xf0]\n 21395: a1 = a1 << 0x20\n 21398: a1 = a1 >> 0x20\n 21401: a4 = u64 [s1 + 0xf8]\n 21405: a4 = a4 << 0x20\n 21408: a4 = a4 | a1\n 21411: a0 = a0 << 0x20\n 21414: a0 = a0 >> 0x20\n 21417: a1 = s1 + 0x22a0\n 21421: a1 = a1 << 0x20\n 21424: a5 = a1 | a0\n 21427: a1 = 0xffffffffffffffff\n 21430: a2 = 0xffffffffffffffff\n 21433: a0 = t0\n 21435: ecalli 2 // 'call'\n 21437: fallthrough\n      : @723 (gas: 1)\n 21438: jump @872 if a0 == 0\n      : @724 (gas: 3)\n 21442: a0 = s1 + 0x15e0\n 21446: a1 = 0x40\n 21449: ra = 686, jump @17\n      : @725 [@dyn 343] (gas: 14)\n 21455: a0 = s1 + 0x1078\n 21459: a2 = a0 + 0x500\n 21463: a1 = u64 [a2 + 0x80]\n 21467: u64 [s1 + 0xf0] = a1\n 21471: a1 = u64 [a2 + 0x78]\n 21474: u64 [s1 + 0xe8] = a1\n 21478: a1 = u64 [a2 + 0x70]\n 21481: u64 [s1 + 0xe0] = a1\n 21485: a0 = u64 [a2 + 0x68]\n 21488: u64 [s1 + 0xf8] = a0\n 21492: ra = 0x2b0\n 21496: ecalli 12 // 'return_data_size'\n 21498: t0 = 0x2b2\n 21502: jump @1237\n      : @726 [@dyn 344] (gas: 1)\n 21505: t0 = 690, jump @1237\n      : @727 [@dyn 345] (gas: 1)\n 21511: jump @754 if a1 != 0\n      : @728 (gas: 3)\n 21515: a2 = a0\n 21517: a0 = a0 >> 0x20\n 21520: jump @754 if a0 != 0\n      : @729 (gas: 1)\n 21524: t0 = 692, jump @1265\n      : @730 [@dyn 346] (gas: 1)\n 21530: ra = 694, jump @26\n      : @731 [@dyn 347] (gas: 11)\n 21536: a1 = s1 + 0x2078\n 21540: a2 = u64 [s1 + 0xe8]\n 21544: u32 [a1 + 0x268] = a2\n 21548: i32 a0 = a0 + 0\n 21550: a1 = s1 + 0x2000\n 21554: i32 a1 = a1 + 0x2e0\n 21558: a2 = 0\n 21560: ecalli 11 // 'return_data_copy'\n 21562: a0 = s1 + 0x2078\n 21566: a0 = i32 [a0 + 0x268]\n 21570: jump @779\n      : @732 (gas: 11)\n 21573: a0 = u64 [s1 + 0xf8]\n 21577: a3 = a0 + 0xa0\n 21581: a0 = a3 <u a0\n 21584: a2 = u64 [s1 + 0xf0]\n 21588: a1 = a2 + a0\n 21591: a2 = a1 <u a2\n 21594: a2 = a0 if a0 == 0\n 21597: a0 = t2 + a2\n 21600: t0 = a0 <u t2\n 21603: t0 = t0 + t1\n 21606: fallthrough\n      : @733 (gas: 24)\n 21607: a4 = a3 + 0xffffffffffffff80\n 21610: a3 = a4 <u a3\n 21613: a5 = a1 + a3\n 21616: a5 = a5 + 0xffffffffffffffff\n 21619: a2 = a5 ^ a1\n 21622: a1 = a5 <u a1\n 21625: a1 = a3 if a2 == 0\n 21628: a2 = a0 + 0xffffffffffffffff\n 21631: a1 = a1 + a2\n 21634: a2 = a1 <u a2\n 21637: a0 = a0 <u 0x1\n 21640: a0 = t0 - a0\n 21643: a2 = a2 + a0\n 21646: u64 [s1 + 504] = 0\n 21650: u64 [s1 + 496] = 0\n 21654: u64 [s1 + 488] = 0\n 21658: u64 [s1 + 480] = 0x80\n 21664: u64 [s1 + 0x1c0] = a4\n 21668: u64 [s1 + 0x1c8] = a5\n 21672: u64 [s1 + 0x1d0] = a1\n 21676: a0 = s1 + 0x1e0\n 21680: a1 = s1 + 0x1c0\n 21684: u64 [s1 + 0x1d8] = a2\n 21688: ra = 696, jump @919\n      : @734 [@dyn 348] (gas: 3)\n 21694: a0 = s1 + 0x1a0\n 21698: a1 = 0x40\n 21701: ra = 698, jump @17\n      : @735 [@dyn 349] (gas: 21)\n 21707: a5 = s1 + 0x100\n 21711: a2 = u64 [a5 + 0xb8]\n 21715: u64 [s1 + 0xf8] = a2\n 21719: a1 = u64 [a5 + 0xb0]\n 21723: u64 [s1 + 0xf0] = a1\n 21727: a3 = u64 [a5 + 0xa8]\n 21731: u64 [s1 + 0xe8] = a3\n 21735: a4 = u64 [a5 + 0xa0]\n 21739: u64 [s1 + 0xe0] = a4\n 21743: u64 [s1 + 344] = 0\n 21747: u64 [s1 + 336] = 0\n 21751: u64 [s1 + 328] = 0\n 21755: u64 [a5 + 64] = 0x80\n 21760: u64 [a5 + 0x78] = a2\n 21763: u64 [a5 + 0x70] = a1\n 21766: u64 [a5 + 0x68] = a3\n 21769: a0 = s1 + 0x180\n 21773: a1 = s1 + 0x160\n 21777: a2 = s1 + 0x140\n 21781: u64 [a5 + 0x60] = a4\n 21784: ra = 700, jump @890\n      : @736 [@dyn 350] (gas: 1)\n 21790: t0 = 702, jump @1270\n      : @737 [@dyn 351] (gas: 1)\n 21796: jump @754 if a0 != 0\n      : @738 (gas: 8)\n 21800: t0 = a3\n 21802: a5 = s1 + 0x100\n 21806: a0 = u64 [a5 + 0x88]\n 21810: a1 = u64 [a5 + 0x98]\n 21814: u64 [s1 + 0xd8] = a1\n 21818: t1 = u64 [s1 + 0x180]\n 21822: a3 = u64 [a5 + 0x90]\n 21826: jump @753\n      : @739 (gas: 10)\n 21829: a2 = s1 + 0x7ff\n 21833: a2 = a2 + 0x71\n 21836: u64 [a2 + 776] = 0\n 21840: u64 [a2 + 768] = 0\n 21844: u64 [a2 + 760] = 0\n 21848: a1 = s1 + 0x7ff\n 21852: a1 = a1 + 0x361\n 21856: u64 [a2 + 752] = 0x4\n 21861: a0 = 0\n 21863: ra = 704, jump @19\n      : @740 [@dyn 352] (gas: 37)\n 21869: a0 = sp + 0xffffffffffffffe0\n 21872: a4 = a0 & 0xffffffffffffffe0\n 21875: sp = a4\n 21877: u64 [s1 + 248] = 0\n 21881: t2 = 0\n 21883: t1 = 0\n 21885: t0 = 0\n 21887: ra = u64 [0x200f0]\n 21892: a3 = u64 [0x200f8]\n 21897: a1 = u64 [s1 + 0x70]\n 21900: a0 = a1 + 0x20\n 21903: u64 [s1 + 0x98] = a0\n 21907: a0 = a0 <u a1\n 21910: a1 = u64 [s1 + 0x68]\n 21913: a2 = a1 + a0\n 21916: u64 [s1 + 0x90] = a2\n 21920: a1 = a2 <u a1\n 21923: a1 = a0 if a0 == 0\n 21926: a5 = u64 [0x20100]\n 21931: a0 = u64 [0x20108]\n 21936: u64 [a4 + 0x18] = ra\n 21939: u64 [s1 + 0xc0] = a3\n 21943: u64 [a4 + 0x10] = a3\n 21946: u64 [s1 + 0xd0] = a5\n 21950: u64 [a4 + 0x8] = a5\n 21953: a5 = a4\n 21955: a2 = a0\n 21957: u64 [a4] = a0\n 21959: a0 = u64 [s1 + 0x60]\n 21962: a1 = a1 + a0\n 21965: u64 [s1 + 0x88] = a1\n 21969: a0 = a1 <u a0\n 21972: a1 = u64 [s1 + 0x58]\n 21975: a0 = a0 + a1\n 21978: u64 [s1 + 0x80] = a0\n 21982: u64 [s1 + 0x78] = a4\n 21985: fallthrough\n      : @741 (gas: 19)\n 21986: u64 [s1 + 0xc8] = a2\n 21990: u64 [s1 + 0xd8] = ra\n 21994: a0 = u64 [s1 + 0xb8]\n 21998: a1 = u64 [s1 + 0xf8]\n 22002: a0 = a1 <u a0\n 22005: a2 = u64 [s1 + 0xa8]\n 22009: a1 = t2 ^ a2\n 22012: a2 = t2 <u a2\n 22015: a2 = a0 if a1 == 0\n 22018: a4 = u64 [s1 + 0xb0]\n 22022: a0 = t1 <u a4\n 22025: a3 = u64 [s1 + 0xa0]\n 22029: a1 = t0 ^ a3\n 22032: a3 = t0 <u a3\n 22035: a3 = a0 if a1 == 0\n 22038: a0 = t1 ^ a4\n 22041: a0 = a0 | a1\n 22044: a3 = a2 if a0 == 0\n 22047: jump @746 if a3 == 0\n      : @742 (gas: 7)\n 22051: a0 = s1 + 0x7ff\n 22055: a0 = a0 + 0x341\n 22059: a1 = a5\n 22061: u64 [s1 + 0xf0] = t0\n 22065: u64 [s1 + 0xe8] = t1\n 22069: u64 [s1 + 0xe0] = t2\n 22073: ra = 706, jump @21\n      : @743 [@dyn 353] (gas: 30)\n 22079: t2 = u64 [s1 + 0xf8]\n 22083: t1 = u64 [s1 + 0xe0]\n 22087: ra = u64 [s1 + 0xe8]\n 22091: a1 = u64 [s1 + 0x98]\n 22095: a0 = a1 + t2\n 22098: a1 = a0 <u a1\n 22101: a4 = u64 [s1 + 0x90]\n 22105: a2 = a4 + t1\n 22108: a2 = a2 + a1\n 22111: a5 = a2 ^ a4\n 22114: a4 = a2 <u a4\n 22117: a4 = a1 if a5 == 0\n 22120: a5 = u64 [s1 + 0x88]\n 22124: a1 = a5 + ra\n 22127: t0 = a1 <u a5\n 22130: a5 = u64 [s1 + 0xf0]\n 22134: a3 = u64 [s1 + 0x80]\n 22138: a5 = a5 + a3\n 22141: a5 = a5 + t0\n 22144: a4 = a4 + a1\n 22147: a1 = a4 <u a1\n 22150: a1 = a1 + a5\n 22153: a1 = a1 | a2\n 22156: a2 = a0 | a4\n 22159: a2 = a2 | a1\n 22162: a1 = a1 | a4\n 22165: a2 = a2 >> 0x20\n 22168: a1 = a1 << 0x20\n 22171: a1 = a1 | a2\n 22174: jump @754 if a1 != 0\n      : @744 (gas: 15)\n 22178: a5 = s1 + 0x7ff\n 22182: a5 = a5 + 0x71\n 22185: t0 = u64 [a5 + 0x2e8]\n 22189: a3 = a5 + 0x200\n 22193: a1 = u64 [a3 + 0xe0]\n 22197: a2 = u64 [a3 + 0xd8]\n 22201: a4 = u64 [a3 + 0xd0]\n 22205: u64 [a3 + 0xb0] = a4\n 22209: u64 [a3 + 0xb8] = a2\n 22213: u64 [a3 + 0xc0] = a1\n 22217: a1 = s1 + 0x7ff\n 22221: a1 = a1 + 0x321\n 22225: u64 [a5 + 0x2c8] = t0\n 22229: u64 [s1 + 0xf8] = t2\n 22233: ra = 708, jump @19\n      : @745 [@dyn 354] (gas: 39)\n 22239: t0 = u64 [s1 + 0xf0]\n 22243: a3 = u64 [s1 + 0xc8]\n 22247: a3 = a3 + 0x1\n 22250: a0 = a3 <u 0x1\n 22253: ra = u64 [s1 + 0xd0]\n 22257: ra = ra + a0\n 22260: a0 = a3 | ra\n 22263: a0 = a0 <u 0x1\n 22266: a1 = u64 [s1 + 0xc0]\n 22270: t2 = a1 + a0\n 22273: a1 = t2 <u a1\n 22276: a0 = u64 [s1 + 0xd8]\n 22280: a0 = a0 + a1\n 22283: a1 = u64 [s1 + 0xf8]\n 22287: t1 = a1 + 0x20\n 22290: a2 = t1 <u a1\n 22293: a4 = u64 [s1 + 0xe0]\n 22297: a1 = a4 + a2\n 22300: a4 = a1 <u a4\n 22303: a4 = a2 if a2 == 0\n 22306: a2 = u64 [s1 + 0xe8]\n 22310: a4 = a4 + a2\n 22313: a2 = a4 <u a2\n 22316: t0 = t0 + a2\n 22319: a2 = ra\n 22321: u64 [s1 + 0xd0] = a2\n 22325: a5 = u64 [s1 + 0x78]\n 22328: u64 [a5 + 0x8] = a2\n 22331: a2 = a3\n 22333: u64 [a5] = a3\n 22335: a3 = t2\n 22337: u64 [a5 + 0x10] = a3\n 22340: ra = a0\n 22342: u64 [a5 + 0x18] = a0\n 22345: u64 [s1 + 0xc0] = a3\n 22349: u64 [s1 + 0xf8] = t1\n 22353: t2 = a1\n 22355: t1 = a4\n 22357: jump @741\n      : @746 (gas: 2)\n 22360: a5 = u64 [s1 + 0x70]\n 22363: fallthrough\n      : @747 (gas: 29)\n 22364: a1 = u64 [s1 + 0xf8]\n 22368: a0 = a1 + 0x20\n 22371: a1 = a0 <u a1\n 22374: a2 = t2 + a1\n 22377: a3 = a2 <u t2\n 22380: a3 = a1 if a1 == 0\n 22383: a3 = a3 + t1\n 22386: a1 = a3 <u t1\n 22389: a4 = t0 + a1\n 22392: a1 = s1 + 0x7ff\n 22396: a1 = a1 + 0x71\n 22399: u64 [a1 + 0x270] = a5\n 22403: a5 = a1 + 0x200\n 22407: u64 [a5 + 0x50] = a0\n 22410: a0 = u64 [s1 + 0x68]\n 22413: u64 [a5 + 0x78] = a0\n 22416: a0 = u64 [s1 + 0x60]\n 22419: u64 [a5 + 0x80] = a0\n 22423: u64 [a5 + 0x58] = a2\n 22426: a0 = u64 [s1 + 0x58]\n 22429: u64 [a5 + 0x88] = a0\n 22433: u64 [a5 + 0x60] = a3\n 22436: a2 = a1\n 22438: a0 = s1 + 0x7ff\n 22442: a0 = a0 + 0x2e1\n 22446: a1 = s1 + 0x7ff\n 22450: a1 = a1 + 0x2c1\n 22454: u64 [a2 + 0x268] = a4\n 22458: ra = 710, jump @919\n      : @748 [@dyn 355] (gas: 4)\n 22464: a0 = s1 + 0x7ff\n 22468: a0 = a0 + 0x2a1\n 22472: a1 = 0x40\n 22475: ra = 712, jump @17\n      : @749 [@dyn 356] (gas: 30)\n 22481: a0 = s1 + 0x7ff\n 22485: a0 = a0 + 0x71\n 22488: a3 = u64 [a0 + 0x248]\n 22492: u64 [s1 + 0xf8] = a3\n 22496: a2 = u64 [a0 + 0x240]\n 22500: u64 [s1 + 0xf0] = a2\n 22504: a4 = u64 [a0 + 0x238]\n 22508: u64 [s1 + 0xe8] = a4\n 22512: a5 = u64 [a0 + 0x230]\n 22516: u64 [s1 + 0xe0] = a5\n 22520: a1 = u64 [s1 + 0x58]\n 22523: u64 [a0 + 0x1e8] = a1\n 22527: a1 = u64 [s1 + 0x60]\n 22530: u64 [a0 + 0x1e0] = a1\n 22534: a1 = u64 [s1 + 0x68]\n 22537: u64 [a0 + 0x1d8] = a1\n 22541: a1 = u64 [s1 + 0x70]\n 22544: u64 [a0 + 0x1d0] = a1\n 22548: u64 [a0 + 0x208] = a3\n 22552: u64 [a0 + 0x200] = a2\n 22556: u64 [a0 + 0x1f8] = a4\n 22560: a3 = a0\n 22562: a0 = s1 + 0x7ff\n 22566: a0 = a0 + 0x281\n 22570: a1 = s1 + 0x7ff\n 22574: a1 = a1 + 0x261\n 22578: a2 = s1 + 0x7ff\n 22582: a2 = a2 + 0x241\n 22586: u64 [a3 + 0x1f0] = a5\n 22590: ra = 714, jump @890\n      : @750 [@dyn 357] (gas: 1)\n 22596: t0 = 716, jump @1270\n      : @751 [@dyn 358] (gas: 1)\n 22602: jump @754 if a0 != 0\n      : @752 (gas: 10)\n 22605: t0 = a3\n 22607: a1 = s1 + 0x7ff\n 22611: a1 = a1 + 0x71\n 22614: a5 = a1 + 0x200\n 22618: a0 = u64 [a5 + 0x18]\n 22621: a3 = u64 [a5 + 0x28]\n 22624: u64 [s1 + 0xd8] = a3\n 22628: t1 = u64 [a1 + 0x210]\n 22632: a3 = u64 [a5 + 0x20]\n 22635: fallthrough\n      : @753 (gas: 26)\n 22636: t2 = a0 ^ a4\n 22639: a5 = a0 <u a4\n 22642: ra = t1 <u a2\n 22645: a5 = ra if t2 == 0\n 22648: a1 = a3 - t0\n 22651: t2 = a1 - a5\n 22654: a1 = a1 <u a5\n 22657: u64 [s1 + 0xd0] = a1\n 22661: a3 = a3 <u t0\n 22664: a5 = u64 [s1 + 0xf8]\n 22668: a1 = u64 [s1 + 0xd8]\n 22672: a5 = a1 - a5\n 22675: a5 = a5 - a3\n 22678: a1 = u64 [s1 + 0xd0]\n 22682: a5 = a5 - a1\n 22685: a0 = a0 - a4\n 22688: a0 = a0 - ra\n 22691: a1 = t1 - a2\n 22694: a0 = a0 | a5\n 22697: a3 = a1 | t2\n 22700: a3 = a3 | a0\n 22703: a0 = a0 | t2\n 22706: a3 = a3 >> 0x20\n 22709: a0 = a0 << 0x20\n 22712: a0 = a0 | a3\n 22715: jump @870 if a0 == 0\n      : @754 (gas: 1)\n 22719: trap\n      : @755 (gas: 4)\n 22720: a0 = s1 + 0x7ff\n 22724: a0 = a0 + 0x761\n 22728: a1 = 0x40\n 22731: ra = 718, jump @17\n      : @756 [@dyn 359] (gas: 14)\n 22737: a0 = s1 + 0x7ff\n 22741: a0 = a0 + 0x71\n 22744: a1 = u64 [a0 + 0x708]\n 22748: u64 [s1 + 0xf0] = a1\n 22752: a1 = u64 [a0 + 0x700]\n 22756: u64 [s1 + 0xe8] = a1\n 22760: a1 = u64 [a0 + 0x6f8]\n 22764: u64 [s1 + 0xe0] = a1\n 22768: a0 = u64 [a0 + 0x6f0]\n 22772: u64 [s1 + 0xf8] = a0\n 22776: ra = 0x2d0\n 22780: ecalli 12 // 'return_data_size'\n 22782: t0 = 0x2d2\n 22786: jump @1237\n      : @757 [@dyn 360] (gas: 1)\n 22789: t0 = 722, jump @1237\n      : @758 [@dyn 361] (gas: 1)\n 22795: jump @754 if a1 != 0\n      : @759 (gas: 3)\n 22798: a2 = a0\n 22800: a0 = a0 >> 0x20\n 22803: jump @754 if a0 != 0\n      : @760 (gas: 1)\n 22806: t0 = 724, jump @1265\n      : @761 [@dyn 362] (gas: 1)\n 22812: ra = 726, jump @26\n      : @762 [@dyn 363] (gas: 11)\n 22818: a1 = s1 + 0x1878\n 22822: a2 = u64 [s1 + 0xe8]\n 22826: u32 [a1 + 0x7a8] = a2\n 22830: i32 a0 = a0 + 0\n 22832: a1 = s1 + 0x2000\n 22836: i32 a1 = a1 + 0x20\n 22839: a2 = 0\n 22841: ecalli 11 // 'return_data_copy'\n 22843: a0 = s1 + 0x1878\n 22847: a0 = i32 [a0 + 0x7a8]\n 22851: jump @779\n      : @763 (gas: 3)\n 22854: a0 = s1 + 0x1960\n 22858: a1 = 0x40\n 22861: ra = 728, jump @17\n      : @764 [@dyn 364] (gas: 13)\n 22867: a0 = s1 + 0x1878\n 22871: a1 = u64 [a0 + 0x100]\n 22875: u64 [s1 + 0xf0] = a1\n 22879: a1 = u64 [a0 + 0xf8]\n 22883: u64 [s1 + 0xe8] = a1\n 22887: a1 = u64 [a0 + 0xf0]\n 22891: u64 [s1 + 0xe0] = a1\n 22895: a0 = u64 [a0 + 0xe8]\n 22899: u64 [s1 + 0xf8] = a0\n 22903: ra = 0x2da\n 22907: ecalli 12 // 'return_data_size'\n 22909: t0 = 0x2dc\n 22913: jump @1237\n      : @765 [@dyn 365] (gas: 1)\n 22916: t0 = 732, jump @1237\n      : @766 [@dyn 366] (gas: 1)\n 22922: jump @754 if a1 != 0\n      : @767 (gas: 3)\n 22926: a2 = a0\n 22928: a0 = a0 >> 0x20\n 22931: jump @754 if a0 != 0\n      : @768 (gas: 1)\n 22935: t0 = 734, jump @1265\n      : @769 [@dyn 367] (gas: 1)\n 22941: ra = 736, jump @26\n      : @770 [@dyn 368] (gas: 11)\n 22947: a1 = s1 + 0x2078\n 22951: a2 = u64 [s1 + 0xe8]\n 22955: u32 [a1 + 0x388] = a2\n 22959: i32 a0 = a0 + 0\n 22961: a1 = s1 + 0x2000\n 22965: i32 a1 = a1 + 0x400\n 22969: a2 = 0\n 22971: ecalli 11 // 'return_data_copy'\n 22973: a0 = s1 + 0x2078\n 22977: a0 = i32 [a0 + 0x388]\n 22981: jump @779\n      : @771 (gas: 4)\n 22984: a0 = s1 + 0x7ff\n 22988: a0 = a0 + 0x661\n 22992: a1 = 0x40\n 22995: ra = 738, jump @17\n      : @772 [@dyn 369] (gas: 14)\n 23001: a0 = s1 + 0x7ff\n 23005: a0 = a0 + 0x71\n 23008: a1 = u64 [a0 + 0x608]\n 23012: u64 [s1 + 0xf0] = a1\n 23016: a1 = u64 [a0 + 0x600]\n 23020: u64 [s1 + 0xe8] = a1\n 23024: a1 = u64 [a0 + 0x5f8]\n 23028: u64 [s1 + 0xe0] = a1\n 23032: a0 = u64 [a0 + 0x5f0]\n 23036: u64 [s1 + 0xf8] = a0\n 23040: ra = 0x2e4\n 23044: ecalli 12 // 'return_data_size'\n 23046: t0 = 0x2e6\n 23050: jump @1237\n      : @773 [@dyn 370] (gas: 1)\n 23053: t0 = 742, jump @1237\n      : @774 [@dyn 371] (gas: 1)\n 23059: jump @754 if a1 != 0\n      : @775 (gas: 3)\n 23063: a2 = a0\n 23065: a0 = a0 >> 0x20\n 23068: jump @754 if a0 != 0\n      : @776 (gas: 1)\n 23072: t0 = 744, jump @1265\n      : @777 [@dyn 372] (gas: 1)\n 23078: ra = 746, jump @26\n      : @778 [@dyn 373] (gas: 11)\n 23084: a1 = s1 + 0x2078\n 23088: a2 = u64 [s1 + 0xe8]\n 23092: u32 [a1 + 0x48] = a2\n 23095: i32 a0 = a0 + 0\n 23097: a1 = s1 + 0x2000\n 23101: i32 a1 = a1 + 0xc0\n 23105: a2 = 0\n 23107: ecalli 11 // 'return_data_copy'\n 23109: a0 = s1 + 0x2078\n 23113: a0 = i32 [a0 + 0x48]\n 23116: fallthrough\n      : @779 (gas: 2)\n 23117: a1 = u64 [s1 + 0xf0]\n 23121: jump @754 if a0 <u a1\n      : @780 (gas: 2)\n 23125: ecalli 12 // 'return_data_size'\n 23127: fallthrough\n      : @781 (gas: 3)\n 23128: a1 = a0\n 23130: a0 = a0 >> 0x20\n 23133: jump @754 if a0 != 0\n      : @782 (gas: 3)\n 23137: a0 = u64 [s1 + 0xf8]\n 23141: u64 [s1 + 0xf0] = a1\n 23145: ra = 748, jump @26\n      : @783 [@dyn 374] (gas: 5)\n 23151: i32 a1 = a0 + 0\n 23153: a2 = i32 [s1 + 0xf0]\n 23157: a0 = 0x1\n 23160: ecalli 13 // 'seal_return'\n 23162: fallthrough\n      : @784 (gas: 4)\n 23163: a1 = 0x201f0\n 23168: i32 a1 = a1 + 0\n 23170: a0 = 0x1\n 23173: jump @786\n      : @785 (gas: 6)\n 23175: i32 a1 = a1 + 0\n 23177: a0 = 0x1\n 23180: a2 = 0\n 23182: ecalli 13 // 'seal_return'\n 23184: a1 = 0x201f0\n 23189: jump @785\n      : @786 (gas: 4)\n 23191: a2 = 0\n 23193: ecalli 13 // 'seal_return'\n 23195: a1 = 0x201f0\n 23200: jump @785\n      : @787 (gas: 2)\n 23202: a1 = 0x201f0\n 23207: jump @785\n      : @788 (gas: 2)\n 23209: a1 = 0x201f0\n 23214: jump @785\n      : @789 (gas: 2)\n 23216: a1 = 0x201f0\n 23221: jump @785\n      : @790 (gas: 2)\n 23223: a1 = 0x201f0\n 23228: jump @785\n      : @791 (gas: 2)\n 23230: a1 = 0x201f0\n 23235: jump @785\n      : @792 (gas: 2)\n 23237: a1 = 0x201f0\n 23242: jump @785\n      : @793 (gas: 2)\n 23244: a1 = 0x201f0\n 23249: jump @785\n      : @794 (gas: 2)\n 23251: a1 = 0x201f0\n 23256: jump @785\n      : @795 (gas: 2)\n 23258: a1 = 0x201f0\n 23263: jump @785\n      : @796 (gas: 2)\n 23265: a1 = 0x201f0\n 23270: jump @785\n      : @797 (gas: 2)\n 23272: a1 = 0x201f0\n 23277: jump @785\n      : @798 (gas: 2)\n 23279: a1 = 0x201f0\n 23284: jump @785\n      : @799 (gas: 2)\n 23286: a1 = 0x201f0\n 23291: jump @785\n      : @800 (gas: 2)\n 23293: a1 = 0x201f0\n 23298: jump @785\n      : @801 (gas: 2)\n 23300: a1 = 0x201f0\n 23305: jump @785\n      : @802 (gas: 8)\n 23308: a2 = s1 + 0x7ff\n 23312: a2 = a2 + 0x71\n 23315: u64 [a2 + 448] = 0\n 23319: u64 [a2 + 440] = 0\n 23323: u64 [a2 + 432] = 0\n 23327: t0 = 0x2ee\n 23331: a0 = 0x4e487b7100000000\n 23341: fallthrough\n      : @803 [@dyn 375] (gas: 5)\n 23342: a1 = s1 + 0x7ff\n 23346: a1 = a1 + 0x221\n 23350: u64 [a2 + 0x1c8] = a0\n 23354: a0 = 0\n 23356: ra = 752, jump @19\n      : @804 [@dyn 376] (gas: 11)\n 23362: a1 = s1 + 0x7ff\n 23366: a1 = a1 + 0x71\n 23369: u64 [a1 + 424] = 0\n 23373: u64 [a1 + 416] = 0\n 23377: u64 [a1 + 400] = 0x22\n 23382: a2 = a1\n 23384: a0 = 0x4\n 23387: a1 = s1 + 0x7ff\n 23391: a1 = a1 + 0x201\n 23395: u64 [a2 + 408] = 0\n 23399: ra = 754, jump @19\n      : @805 [@dyn 377] (gas: 2)\n 23405: a1 = i32 [0x201dc]\n 23410: jump @807 if a1 >u 63\n      : @806 (gas: 3)\n 23414: u32 [0x201dc] = 0x40\n 23420: a1 = 0x201f0\n 23425: jump @860\n      : @807 (gas: 2)\n 23428: a1 = 0x201f0\n 23433: jump @860\n      : @808 (gas: 2)\n 23436: a1 = 0x201f0\n 23441: jump @785\n      : @809 (gas: 2)\n 23444: a1 = 0x201f0\n 23449: jump @785\n      : @810 (gas: 2)\n 23452: a1 = 0x201f0\n 23457: jump @785\n      : @811 (gas: 2)\n 23460: a1 = 0x201f0\n 23465: jump @785\n      : @812 (gas: 6)\n 23468: u64 [s1 + 304] = 0\n 23472: u64 [s1 + 296] = 0\n 23476: u64 [s1 + 288] = 0\n 23480: t0 = 0x2f4\n 23484: a0 = 0x4e487b7100000000\n 23494: fallthrough\n      : @813 [@dyn 378] (gas: 4)\n 23495: a1 = s1 + 0x120\n 23499: u64 [s1 + 0x138] = a0\n 23503: a0 = 0\n 23505: ra = 758, jump @19\n      : @814 [@dyn 379] (gas: 7)\n 23511: u64 [s1 + 280] = 0\n 23515: u64 [s1 + 272] = 0\n 23519: u64 [s1 + 256] = 0x22\n 23524: a0 = 0x4\n 23527: a1 = s1 + 0x100\n 23531: u64 [s1 + 264] = 0\n 23535: ra = 760, jump @19\n      : @815 [@dyn 380] (gas: 2)\n 23541: a1 = i32 [0x201dc]\n 23546: jump @817 if a1 >u 63\n      : @816 (gas: 3)\n 23550: u32 [0x201dc] = 0x40\n 23556: a1 = 0x201f0\n 23561: jump @860\n      : @817 (gas: 2)\n 23564: a1 = 0x201f0\n 23569: jump @860\n      : @818 (gas: 2)\n 23572: a1 = 0x201f0\n 23577: jump @785\n      : @819 (gas: 2)\n 23580: a1 = 0x201f0\n 23585: jump @785\n      : @820 (gas: 2)\n 23588: a1 = 0x201f0\n 23593: jump @785\n      : @821 (gas: 2)\n 23596: a1 = 0x201f0\n 23601: jump @785\n      : @822 (gas: 2)\n 23604: a1 = 0x201f0\n 23609: jump @785\n      : @823 (gas: 2)\n 23612: a1 = 0x201f0\n 23617: jump @785\n      : @824 (gas: 2)\n 23620: a1 = 0x201f0\n 23625: jump @785\n      : @825 (gas: 2)\n 23628: a1 = 0x201f0\n 23633: jump @785\n      : @826 (gas: 8)\n 23636: u64 [s1 + 752] = 0\n 23640: u64 [s1 + 744] = 0\n 23644: u64 [s1 + 736] = 0\n 23648: a0 = 0xe602df0500000000\n 23658: a1 = s1 + 0x2e0\n 23662: u64 [s1 + 0x2f8] = a0\n 23666: a0 = 0\n 23668: ra = 762, jump @19\n      : @827 [@dyn 381] (gas: 7)\n 23674: u64 [s1 + 728] = 0\n 23678: u64 [s1 + 720] = 0\n 23682: u64 [s1 + 712] = 0\n 23686: a0 = 0x4\n 23689: a1 = s1 + 0x2c0\n 23693: u64 [s1 + 704] = 0\n 23697: ra = 764, jump @19\n      : @828 [@dyn 382] (gas: 2)\n 23703: a1 = i32 [0x201dc]\n 23708: jump @830 if a1 >u 63\n      : @829 (gas: 3)\n 23712: u32 [0x201dc] = 0x40\n 23718: a1 = 0x201f0\n 23723: jump @860\n      : @830 (gas: 2)\n 23726: a1 = 0x201f0\n 23731: jump @860\n      : @831 (gas: 8)\n 23734: u64 [s1 + 816] = 0\n 23738: u64 [s1 + 808] = 0\n 23742: u64 [s1 + 800] = 0\n 23746: a0 = 0x94280d6200000000\n 23756: a1 = s1 + 0x320\n 23760: u64 [s1 + 0x338] = a0\n 23764: a0 = 0\n 23766: ra = 766, jump @19\n      : @832 [@dyn 383] (gas: 7)\n 23772: u64 [s1 + 792] = 0\n 23776: u64 [s1 + 784] = 0\n 23780: u64 [s1 + 776] = 0\n 23784: a0 = 0x4\n 23787: a1 = s1 + 0x300\n 23791: u64 [s1 + 768] = 0\n 23795: ra = 768, jump @19\n      : @833 [@dyn 384] (gas: 2)\n 23801: a1 = i32 [0x201dc]\n 23806: jump @835 if a1 >u 63\n      : @834 (gas: 3)\n 23810: u32 [0x201dc] = 0x40\n 23816: a1 = 0x201f0\n 23821: jump @860\n      : @835 (gas: 2)\n 23824: a1 = 0x201f0\n 23829: jump @860\n      : @836 (gas: 2)\n 23832: a1 = 0x201f0\n 23837: jump @785\n      : @837 (gas: 2)\n 23840: a1 = 0x201f0\n 23845: jump @785\n      : @838 (gas: 2)\n 23848: a1 = 0x201f0\n 23853: jump @785\n      : @839 (gas: 8)\n 23856: u64 [s1 + 1584] = 0\n 23860: u64 [s1 + 1576] = 0\n 23864: u64 [s1 + 1568] = 0\n 23868: a0 = 0xfb8f41b200000000\n 23878: a1 = s1 + 0x620\n 23882: u64 [s1 + 0x638] = a0\n 23886: a0 = 0\n 23888: ra = 770, jump @19\n      : @840 [@dyn 385] (gas: 6)\n 23894: a0 = u64 [s1 + 0x80]\n 23898: ra = 0x304\n 23902: ecalli 6 // 'caller'\n 23904: a2 = u64 [s1 + 0xb0]\n 23908: t0 = 0x306\n 23912: jump @1236\n      : @841 [@dyn 386] (gas: 2)\n 23915: a2 = u64 [s1 + 0xb0]\n 23919: t0 = 774, jump @1236\n      : @842 [@dyn 387] (gas: 8)\n 23925: u64 [s1 + 1560] = 0\n 23929: a2 = s1 + 0x600\n 23933: u64 [a2 + 0x10] = a1\n 23936: u64 [a2 + 0x8] = a0\n 23939: a0 = 0x4\n 23942: a1 = s1 + 0x600\n 23946: u64 [a2] = a3\n 23948: ra = 776, jump @19\n      : @843 [@dyn 388] (gas: 11)\n 23954: a0 = u64 [s1 + 0x60]\n 23957: u64 [s1 + 0x5f8] = a0\n 23961: a0 = u64 [s1 + 0x58]\n 23964: u64 [s1 + 0x5f0] = a0\n 23968: a0 = u64 [s1 + 0x68]\n 23971: u64 [s1 + 0x5e8] = a0\n 23975: a0 = 0x24\n 23978: a1 = s1 + 0x5e0\n 23982: a2 = u64 [s1 + 0x70]\n 23985: u64 [s1 + 0x5e0] = a2\n 23989: ra = 778, jump @19\n      : @844 [@dyn 389] (gas: 12)\n 23995: a0 = u64 [s1 + 0xe8]\n 23999: a3 = s1 + 0x500\n 24003: u64 [a3 + 0xd8] = a0\n 24007: a0 = u64 [s1 + 0xd8]\n 24011: u64 [a3 + 0xd0] = a0\n 24015: a0 = u64 [s1 + 0xc8]\n 24019: u64 [a3 + 0xc8] = a0\n 24023: a0 = 0x44\n 24026: a1 = s1 + 0x5c0\n 24030: a2 = u64 [s1 + 0xd0]\n 24034: u64 [a3 + 0xc0] = a2\n 24038: ra = 780, jump @19\n      : @845 [@dyn 390] (gas: 3)\n 24044: a0 = u64 [s1 + 0xc0]\n 24048: a0 = i32 [a0]\n 24050: jump @847 if a0 >u 127\n      : @846 (gas: 7)\n 24054: a1 = u64 [s1 + 0xc0]\n 24058: u32 [a1 + 0] = 0x80\n 24062: a0 = 0x1\n 24065: a2 = 0x64\n 24068: a1 = u64 [s1 + 0xe0]\n 24072: ecalli 13 // 'seal_return'\n 24074: jump @855\n      : @847 (gas: 5)\n 24077: a0 = 0x1\n 24080: a2 = 0x64\n 24083: a1 = u64 [s1 + 0xe0]\n 24087: ecalli 13 // 'seal_return'\n 24089: jump @855\n      : @848 (gas: 8)\n 24092: u64 [s1 + 1648] = 0\n 24096: u64 [s1 + 1640] = 0\n 24100: u64 [s1 + 1632] = 0\n 24104: a0 = 0xe602df0500000000\n 24114: a1 = s1 + 0x660\n 24118: u64 [s1 + 0x678] = a0\n 24122: a0 = 0\n 24124: ra = 782, jump @19\n      : @849 [@dyn 391] (gas: 8)\n 24130: u64 [s1 + 1624] = 0\n 24134: u64 [s1 + 1616] = 0\n 24138: u64 [s1 + 1608] = 0\n 24142: a0 = 0x4\n 24145: a1 = s1 + 0x640\n 24149: u64 [s1 + 1600] = 0\n 24153: ra = 0x312\n 24157: jump @19\n      : @850 (gas: 8)\n 24160: u64 [s1 + 1712] = 0\n 24164: u64 [s1 + 1704] = 0\n 24168: u64 [s1 + 1696] = 0\n 24172: a0 = 0x94280d6200000000\n 24182: a1 = s1 + 0x6a0\n 24186: u64 [s1 + 0x6b8] = a0\n 24190: a0 = 0\n 24192: ra = 784, jump @19\n      : @851 [@dyn 392] (gas: 7)\n 24198: u64 [s1 + 1688] = 0\n 24202: u64 [s1 + 1680] = 0\n 24206: u64 [s1 + 1672] = 0\n 24210: a0 = 0x4\n 24213: a1 = s1 + 0x680\n 24217: u64 [s1 + 1664] = 0\n 24221: ra = 786, jump @19\n      : @852 [@dyn 393] (gas: 3)\n 24227: a0 = u64 [s1 + 0xc0]\n 24231: a0 = i32 [a0]\n 24233: jump @854 if a0 >u 63\n      : @853 (gas: 7)\n 24237: a1 = u64 [s1 + 0xc0]\n 24241: u32 [a1 + 0] = 0x40\n 24244: a0 = 0x1\n 24247: a2 = 0x24\n 24250: a1 = u64 [s1 + 0xe0]\n 24254: ecalli 13 // 'seal_return'\n 24256: jump @855\n      : @854 (gas: 5)\n 24258: a0 = 0x1\n 24261: a2 = 0x24\n 24264: a1 = u64 [s1 + 0xe0]\n 24268: ecalli 13 // 'seal_return'\n 24270: fallthrough\n      : @855 (gas: 12)\n 24271: a0 = s1 + 0x7ff\n 24275: a0 = a0 + 0x71\n 24278: u64 [a0 + 1120] = 0\n 24282: u64 [a0 + 1112] = 0\n 24286: u64 [a0 + 1104] = 0\n 24290: a2 = a0\n 24292: a0 = 0x96c6fd1e00000000\n 24302: a1 = s1 + 0x7ff\n 24306: a1 = a1 + 0x4c1\n 24310: u64 [a2 + 0x468] = a0\n 24314: a0 = 0\n 24316: ra = 788, jump @19\n      : @856 [@dyn 394] (gas: 11)\n 24322: a0 = s1 + 0x7ff\n 24326: a0 = a0 + 0x71\n 24329: u64 [a0 + 1096] = 0\n 24333: u64 [a0 + 1088] = 0\n 24337: u64 [a0 + 1080] = 0\n 24341: a2 = a0\n 24343: a0 = 0x4\n 24346: a1 = s1 + 0x7ff\n 24350: a1 = a1 + 0x4a1\n 24354: u64 [a2 + 1072] = 0\n 24358: ra = 790, jump @19\n      : @857 [@dyn 395] (gas: 2)\n 24364: a1 = i32 [0x201dc]\n 24369: jump @859 if a1 >u 63\n      : @858 (gas: 3)\n 24373: u32 [0x201dc] = 0x40\n 24379: a1 = 0x201f0\n 24384: jump @860\n      : @859 (gas: 2)\n 24386: a1 = 0x201f0\n 24391: fallthrough\n      : @860 (gas: 5)\n 24392: i32 a1 = a1 + 0\n 24394: a0 = 0x1\n 24397: a2 = 0x24\n 24400: ecalli 13 // 'seal_return'\n 24402: fallthrough\n      : @861 (gas: 12)\n 24403: a0 = s1 + 0x7ff\n 24407: a0 = a0 + 0x71\n 24410: u64 [a0 + 1248] = 0\n 24414: u64 [a0 + 1240] = 0\n 24418: u64 [a0 + 1232] = 0\n 24422: a2 = a0\n 24424: a0 = 0xe450d38c00000000\n 24434: a1 = s1 + 0x7ff\n 24438: a1 = a1 + 0x541\n 24442: u64 [a2 + 0x4e8] = a0\n 24446: a0 = 0\n 24448: ra = 792, jump @19\n      : @862 [@dyn 396] (gas: 6)\n 24454: a0 = u64 [s1 + 0xd0]\n 24458: ra = 0x31a\n 24462: ecalli 6 // 'caller'\n 24464: a2 = u64 [s1 + 0xd8]\n 24468: t0 = 0x31c\n 24472: jump @1236\n      : @863 [@dyn 397] (gas: 2)\n 24475: a2 = u64 [s1 + 0xd8]\n 24479: t0 = 796, jump @1236\n      : @864 [@dyn 398] (gas: 11)\n 24485: a2 = s1 + 0x7ff\n 24489: a2 = a2 + 0x71\n 24492: u64 [a2 + 1224] = 0\n 24496: a4 = a2 + 0x400\n 24500: u64 [a4 + 0xc0] = a1\n 24504: u64 [a4 + 0xb8] = a0\n 24508: a0 = 0x4\n 24511: a1 = s1 + 0x7ff\n 24515: a1 = a1 + 0x521\n 24519: u64 [a4 + 0xb0] = a3\n 24523: ra = 798, jump @19\n      : @865 [@dyn 399] (gas: 15)\n 24529: a0 = u64 [s1 + 0xa8]\n 24533: a3 = s1 + 0x7ff\n 24537: a3 = a3 + 0x71\n 24540: a4 = a3 + 0x400\n 24544: u64 [a4 + 0xa8] = a0\n 24548: a0 = u64 [s1 + 0xa0]\n 24552: u64 [a4 + 0xa0] = a0\n 24556: a0 = u64 [s1 + 0xb0]\n 24560: u64 [a4 + 0x98] = a0\n 24564: a0 = 0x24\n 24567: a1 = s1 + 0x7ff\n 24571: a1 = a1 + 0x501\n 24575: a2 = u64 [s1 + 0xb8]\n 24579: u64 [a4 + 0x90] = a2\n 24583: ra = 800, jump @19\n      : @866 [@dyn 400] (gas: 16)\n 24589: a0 = u64 [s1 + 0xf8]\n 24593: a1 = s1 + 0x7ff\n 24597: a1 = a1 + 0x71\n 24600: a2 = a1 + 0x400\n 24604: u64 [a2 + 0x88] = a0\n 24608: a0 = u64 [s1 + 0xe8]\n 24612: u64 [a2 + 0x80] = a0\n 24616: a0 = u64 [s1 + 0xe0]\n 24620: u64 [a2 + 0x78] = a0\n 24623: a3 = a1\n 24625: a0 = 0x44\n 24628: a1 = s1 + 0x7ff\n 24632: a1 = a1 + 0x4e1\n 24636: a2 = u64 [s1 + 0xf0]\n 24640: u64 [a3 + 0x470] = a2\n 24644: ra = 802, jump @19\n      : @867 [@dyn 401] (gas: 3)\n 24650: a0 = u64 [s1 + 0xc0]\n 24654: a0 = i32 [a0]\n 24656: jump @869 if a0 >u 127\n      : @868 (gas: 3)\n 24660: a1 = u64 [s1 + 0xc0]\n 24664: u32 [a1 + 0] = 0x80\n 24668: fallthrough\n      : @869 (gas: 5)\n 24669: a0 = 0x1\n 24672: a2 = 0x64\n 24675: a1 = u64 [s1 + 0xc8]\n 24679: ecalli 13 // 'seal_return'\n 24681: fallthrough\n      : @870 (gas: 3)\n 24682: a0 = a2\n 24684: u64 [s1 + 0xf8] = a1\n 24688: ra = 804, jump @26\n      : @871 [@dyn 402] (gas: 5)\n 24694: i32 a1 = a0 + 0\n 24696: a2 = i32 [s1 + 0xf8]\n 24700: a0 = 0\n 24702: ecalli 13 // 'seal_return'\n 24704: jump @591\n      : @872 (gas: 3)\n 24707: u64 [s1 + 248] = 0x20\n 24712: ecalli 12 // 'return_data_size'\n 24714: fallthrough\n      : @873 (gas: 1)\n 24715: jump @875 if a0 >u 31\n      : @874 (gas: 3)\n 24719: ecalli 12 // 'return_data_size'\n 24721: u64 [s1 + 0xf8] = a0\n 24725: fallthrough\n      : @875 (gas: 19)\n 24726: a2 = s1 + 0x1078\n 24730: a0 = u64 [s1 + 0xf8]\n 24734: a4 = a2 + 0x500\n 24738: u64 [a4 + 0x28] = a0\n 24741: a0 = u64 [s1 + 0xd8]\n 24745: u64 [a4 + 0x48] = a0\n 24748: u64 [s1 + 240] = 0\n 24752: u64 [a2 + 1328] = 0\n 24756: a0 = u64 [s1 + 0xc8]\n 24760: u64 [a4 + 0x50] = a0\n 24763: u64 [a2 + 1336] = 0\n 24767: a0 = u64 [s1 + 0xc0]\n 24771: u64 [a4 + 0x58] = a0\n 24774: u64 [a2 + 1344] = 0\n 24778: a0 = s1 + 0x15c0\n 24782: a1 = s1 + 0x15a0\n 24786: a3 = u64 [s1 + 0xb8]\n 24790: u64 [a4 + 0x60] = a3\n 24793: ra = 806, jump @919\n      : @876 [@dyn 403] (gas: 35)\n 24799: t0 = u64 [s1 + 0xd8]\n 24803: a0 = u64 [s1 + 0xf8]\n 24807: ra = a0 + t0\n 24810: a1 = ra <u a0\n 24813: t1 = u64 [s1 + 0xc8]\n 24817: a5 = u64 [s1 + 0xf0]\n 24821: a2 = a5 + t1\n 24824: a2 = a2 + a1\n 24827: a3 = a2 ^ a5\n 24830: a4 = a2 <u a5\n 24833: a4 = a1 if a3 == 0\n 24836: a3 = u64 [s1 + 0xc0]\n 24840: a1 = a5 + a3\n 24843: a4 = a4 + a1\n 24846: t2 = a4 <u a1\n 24849: a1 = a1 <u a5\n 24852: a0 = u64 [s1 + 0xb8]\n 24856: a5 = a5 + a0\n 24859: a1 = a1 + a5\n 24862: t2 = t2 + a1\n 24865: a1 = s1 + 0x1078\n 24869: a5 = a1 + 0x400\n 24873: u64 [a5 + 0xd8] = a4\n 24877: u64 [a5 + 0xd0] = a2\n 24881: u64 [a1 + 0x4c8] = ra\n 24885: u64 [a1 + 0x500] = a0\n 24889: u64 [a5 + 0xf8] = a3\n 24893: u64 [a1 + 0x4f0] = t1\n 24897: u64 [a1 + 0x4e8] = t0\n 24901: a4 = a1\n 24903: a0 = s1 + 0x1580\n 24907: a1 = s1 + 0x1560\n 24911: a2 = s1 + 0x1540\n 24915: u64 [a4 + 0x4e0] = t2\n 24919: ra = 808, jump @929\n      : @877 [@dyn 404] (gas: 4)\n 24925: a1 = 0x201f0\n 24930: i32 a1 = a1 + 0\n 24932: a0 = 0\n 24934: jump @786\n      : @878 (gas: 2)\n 24937: a1 = i32 [s1 + 0xf8]\n 24941: jump @786\n      : @879 (gas: 17)\n 24944: sp = sp + 0xffffffffffffff30\n 24948: u64 [sp + 0xc8] = ra\n 24952: u64 [sp + 0xc0] = s0\n 24956: u64 [sp + 0xb8] = s1\n 24960: s0 = sp + 0xd0\n 24964: sp = sp & 0xfffffffffffffff0\n 24967: a2 = u64 [a1 + 0x18]\n 24970: u64 [sp + 0x10] = a2\n 24973: a2 = u64 [a1 + 0x10]\n 24976: u64 [sp + 0x8] = a2\n 24979: a2 = u64 [a1 + 0x8]\n 24982: u64 [sp] = a2\n 24984: s1 = u64 [a1]\n 24986: u64 [sp + 0x28] = a0\n 24989: a0 = sp + 0x90\n 24993: a1 = 0x40\n 24996: ra = 810, jump @17\n      : @880 [@dyn 405] (gas: 39)\n 25002: a1 = u64 [sp + 0x98]\n 25006: a2 = u64 [sp + 0x90]\n 25010: a0 = s1 + 0x1f\n 25013: ra = a0 <u s1\n 25016: a3 = u64 [sp]\n 25018: a4 = a3 + ra\n 25021: a0 = a0 & 0xffffffffffffffe0\n 25024: t1 = a1 + a4\n 25027: t0 = a2 + a0\n 25030: u64 [sp + 0x20] = a2\n 25033: a5 = t0 <u a2\n 25036: t1 = t1 + a5\n 25039: s1 = t1 ^ a1\n 25042: u64 [sp + 0x18] = a1\n 25045: a2 = t1 <u a1\n 25048: a2 = a5 if s1 == 0\n 25051: t2 = u64 [sp + 0xa8]\n 25055: a4 = a4 <u a3\n 25058: s1 = u64 [sp + 0xa0]\n 25062: a4 = ra if ra == 0\n 25065: a0 = u64 [sp + 0x8]\n 25068: a4 = a4 + a0\n 25071: a5 = a4 <u a0\n 25074: a4 = a4 + s1\n 25077: a3 = a4 + a2\n 25080: a0 = u64 [sp + 0x10]\n 25083: a0 = a0 + t2\n 25086: a0 = a0 + a5\n 25089: a5 = a3 <u a4\n 25092: a4 = a4 <u s1\n 25095: a0 = a0 + a4\n 25098: a4 = a0 + a5\n 25101: a0 = a4 >u 0\n 25103: a5 = a3 >u 0\n 25105: a5 = a0 if a4 != 0\n 25108: a0 = a3 | a4\n 25111: a1 = t1 >u 0\n 25113: a1 = a5 if a0 != 0\n 25116: jump @884 if a1 != 0\n      : @881 (gas: 8)\n 25119: a0 = a3 <u s1\n 25122: a1 = a4 ^ t2\n 25125: a5 = a4 <u t2\n 25128: a5 = a0 if a1 == 0\n 25131: a0 = a3 ^ s1\n 25134: a0 = a0 | a1\n 25137: a2 = a5 if a0 != 0\n 25140: jump @884 if a2 != 0\n      : @882 (gas: 8)\n 25143: u64 [sp + 0x70] = t0\n 25146: u64 [sp + 0x78] = t1\n 25149: u64 [sp + 0x80] = a3\n 25153: a0 = 0x40\n 25156: a1 = sp + 0x70\n 25159: u64 [sp + 0x88] = a4\n 25163: u64 [sp + 0x10] = t2\n 25166: ra = 812, jump @19\n      : @883 [@dyn 406] (gas: 14)\n 25172: a0 = u64 [sp + 0x28]\n 25175: a1 = u64 [sp + 0x10]\n 25178: u64 [a0 + 0x18] = a1\n 25181: u64 [a0 + 0x10] = s1\n 25184: a1 = u64 [sp + 0x18]\n 25187: u64 [a0 + 0x8] = a1\n 25190: a1 = u64 [sp + 0x20]\n 25193: u64 [a0] = a1\n 25195: sp = s0 + 0xffffffffffffff30\n 25199: ra = u64 [sp + 0xc8]\n 25203: s0 = u64 [sp + 0xc0]\n 25207: s1 = u64 [sp + 0xb8]\n 25211: sp = sp + 0xd0\n 25215: ret\n      : @884 (gas: 6)\n 25217: u64 [sp + 96] = 0\n 25220: u64 [sp + 88] = 0\n 25223: u64 [sp + 80] = 0\n 25226: t0 = 0x32e\n 25230: a0 = 0x4e487b7100000000\n 25240: fallthrough\n      : @885 [@dyn 407] (gas: 4)\n 25241: a1 = sp + 0x50\n 25244: u64 [sp + 0x68] = a0\n 25247: a0 = 0\n 25249: ra = 816, jump @19\n      : @886 [@dyn 408] (gas: 7)\n 25255: u64 [sp + 72] = 0\n 25258: u64 [sp + 64] = 0\n 25261: u64 [sp + 48] = 0x41\n 25265: a0 = 0x4\n 25268: a1 = sp + 0x30\n 25271: u64 [sp + 56] = 0\n 25274: ra = 818, jump @19\n      : @887 [@dyn 409] (gas: 2)\n 25280: a1 = i32 [0x201dc]\n 25285: jump @889 if a1 >u 63\n      : @888 (gas: 2)\n 25289: u32 [0x201dc] = 0x40\n 25295: fallthrough\n      : @889 (gas: 7)\n 25296: a1 = 0x201f0\n 25301: i32 a1 = a1 + 0\n 25303: a0 = 0x1\n 25306: a2 = 0x24\n 25309: ra = 0x334\n 25313: ecalli 13 // 'seal_return'\n 25315: fallthrough\n      : @890 [@dyn 410] (gas: 22)\n 25316: sp = sp + 0xfffffffffffffee0\n 25320: u64 [sp + 0x118] = ra\n 25324: u64 [sp + 0x110] = s0\n 25328: u64 [sp + 0x108] = s1\n 25332: s0 = sp + 0x120\n 25336: sp = sp & 0xfffffffffffffff0\n 25339: a4 = u64 [a1 + 0x10]\n 25342: a3 = u64 [a1 + 0x18]\n 25345: a5 = u64 [a1 + 0x8]\n 25348: t0 = u64 [a1]\n 25350: u64 [sp + 0x68] = a3\n 25353: u64 [sp + 0x78] = a5\n 25356: a1 = a5 | a3\n 25359: a3 = t0 | a4\n 25362: a3 = a3 | a1\n 25365: a3 = a3 >> 0x20\n 25368: u64 [sp + 0x70] = a4\n 25371: a1 = a1 | a4\n 25374: a1 = a1 << 0x20\n 25377: a1 = a1 | a3\n 25380: u64 [sp + 0x8] = a0\n 25383: jump @905 if a1 != 0\n      : @891 (gas: 15)\n 25387: a0 = u64 [a2 + 0x18]\n 25390: u64 [sp + 0x48] = a0\n 25393: s1 = u64 [a2 + 0x10]\n 25396: a0 = u64 [a2 + 0x8]\n 25399: u64 [sp + 0x50] = a0\n 25402: a0 = u64 [a2]\n 25404: u64 [sp + 0x58] = a0\n 25407: u64 [sp + 248] = 0\n 25411: u64 [sp + 240] = 0\n 25415: u64 [sp + 232] = 0\n 25419: a1 = sp + 0xe0\n 25423: u64 [sp + 224] = 0x20\n 25428: a0 = t0\n 25430: u64 [sp + 0x60] = t0\n 25433: ra = 822, jump @19\n      : @892 [@dyn 411] (gas: 12)\n 25439: a1 = u64 [sp + 0x58]\n 25442: a0 = a1 | s1\n 25445: a2 = u64 [sp + 0x48]\n 25448: a3 = u64 [sp + 0x50]\n 25451: a2 = a2 | a3\n 25454: a0 = a0 | a2\n 25457: a0 = a0 >> 0x20\n 25460: u64 [sp + 0x20] = s1\n 25463: a2 = a2 | s1\n 25466: a2 = a2 << 0x20\n 25469: a0 = a0 | a2\n 25472: jump @905 if a0 != 0\n      : @893 (gas: 2)\n 25476: a0 = sp + 0xc0\n 25480: ra = 824, jump @17\n      : @894 [@dyn 412] (gas: 13)\n 25486: a0 = u64 [sp + 0x70]\n 25489: a1 = u64 [sp + 0x68]\n 25492: a1 = a1 | a0\n 25495: a0 = 0x100000000\n 25505: u64 [sp + 0x10] = a0\n 25508: a0 = 0xffffffe0\n 25518: a2 = u64 [sp + 0x60]\n 25521: a0 = a2 <u a0\n 25524: a3 = u64 [sp + 0x78]\n 25527: a0 = 0 if a3 != 0\n 25529: u64 [sp + 0x18] = a1\n 25532: a0 = 0 if a1 != 0\n 25534: jump @905 if a0 == 0\n      : @895 (gas: 16)\n 25538: a3 = u64 [sp + 0xd8]\n 25542: a4 = u64 [sp + 0xd0]\n 25546: a5 = u64 [sp + 0xc8]\n 25550: a1 = u64 [sp + 0xc0]\n 25554: i32 a0 = a2 + 0x20\n 25557: u64 [sp + 0x28] = a1\n 25560: u64 [sp + 0xa0] = a1\n 25564: u64 [sp + 0x30] = a5\n 25567: u64 [sp + 0xa8] = a5\n 25571: u64 [sp + 0x38] = a4\n 25574: u64 [sp + 0xb0] = a4\n 25578: a1 = sp + 0xa0\n 25582: u64 [sp + 0x40] = a3\n 25585: u64 [sp + 0xb8] = a3\n 25589: s1 = a2\n 25591: ra = 826, jump @19\n      : @896 [@dyn 413] (gas: 8)\n 25597: a0 = u64 [sp + 0x10]\n 25600: a0 = a0 + 0xffffffffffffffc0\n 25603: a0 = s1 <u a0\n 25606: a1 = u64 [sp + 0x78]\n 25609: a0 = 0 if a1 != 0\n 25611: a1 = u64 [sp + 0x18]\n 25614: a0 = 0 if a1 != 0\n 25616: jump @905 if a0 == 0\n      : @897 (gas: 10)\n 25620: a0 = u64 [sp + 0x48]\n 25623: a1 = u64 [sp + 0x20]\n 25626: a0 = a0 | a1\n 25629: a1 = 0xffffffe0\n 25639: a3 = u64 [sp + 0x58]\n 25642: a1 = a3 <u a1\n 25645: a4 = u64 [sp + 0x50]\n 25648: a1 = 0 if a4 != 0\n 25650: a1 = 0 if a0 != 0\n 25652: jump @905 if a1 == 0\n      : @898 (gas: 13)\n 25656: a2 = s1\n 25658: a1 = u64 [sp + 0x28]\n 25661: a5 = u64 [sp + 0x38]\n 25664: a0 = a1 | a5\n 25667: a4 = u64 [sp + 0x40]\n 25670: s1 = u64 [sp + 0x30]\n 25673: a4 = a4 | s1\n 25676: a0 = a0 | a4\n 25679: a0 = a0 >> 0x20\n 25682: a4 = a4 | a5\n 25685: a4 = a4 << 0x20\n 25688: a0 = a0 | a4\n 25691: jump @905 if a0 != 0\n      : @899 (gas: 5)\n 25695: i32 a0 = a2 + 0x40\n 25698: i32 a3 = a3 + 0x20\n 25701: u64 [sp + 0x58] = a3\n 25704: s1 = a1\n 25706: ra = 828, jump @26\n      : @900 [@dyn 414] (gas: 4)\n 25712: u64 [sp + 0x50] = a0\n 25715: a0 = u64 [sp + 0x58]\n 25718: a1 = s1\n 25720: ra = 830, jump @26\n      : @901 [@dyn 415] (gas: 4)\n 25726: a1 = a0\n 25728: a0 = u64 [sp + 0x50]\n 25731: a2 = s1\n 25733: ra = 832, jump @0\n      : @902 [@dyn 416] (gas: 27)\n 25739: a0 = u64 [sp + 0x60]\n 25742: a0 = a0 + s1\n 25745: a1 = a0 <u s1\n 25748: a2 = u64 [sp + 0x78]\n 25751: a4 = u64 [sp + 0x30]\n 25754: a2 = a2 + a4\n 25757: a2 = a2 + a1\n 25760: a3 = a2 ^ a4\n 25763: a4 = a2 <u a4\n 25766: a4 = a1 if a3 == 0\n 25769: a1 = u64 [sp + 0x70]\n 25772: a3 = u64 [sp + 0x38]\n 25775: a1 = a1 + a3\n 25778: a3 = a1 <u a3\n 25781: a5 = u64 [sp + 0x68]\n 25784: s1 = u64 [sp + 0x40]\n 25787: a5 = a5 + s1\n 25790: a3 = a3 + a5\n 25793: a4 = a4 + a1\n 25796: a1 = a4 <u a1\n 25799: a1 = a1 + a3\n 25802: a1 = a1 | a4\n 25805: a3 = 0xffffffc0\n 25815: a3 = a0 <u a3\n 25818: a3 = 0 if a2 != 0\n 25820: a3 = 0 if a1 != 0\n 25822: jump @905 if a3 == 0\n      : @903 (gas: 7)\n 25826: i32 a0 = a0 + 0x40\n 25829: u64 [sp + 152] = 0\n 25833: u64 [sp + 144] = 0\n 25837: u64 [sp + 136] = 0\n 25841: a1 = sp + 0x80\n 25845: u64 [sp + 128] = 0\n 25849: ra = 834, jump @19\n      : @904 [@dyn 417] (gas: 35)\n 25855: s1 = u64 [sp + 0x28]\n 25858: s1 = s1 + 0x1f\n 25861: a0 = 0x1ffffffe0\n 25871: a0 = a0 & s1\n 25874: a1 = u64 [sp + 0x60]\n 25877: a0 = a0 + a1\n 25880: a1 = a0 <u a1\n 25883: a3 = u64 [sp + 0x78]\n 25886: a2 = a3 + a1\n 25889: a3 = a2 <u a3\n 25892: a3 = a1 if a1 == 0\n 25895: a1 = u64 [sp + 0x70]\n 25898: a3 = a3 + a1\n 25901: a1 = a3 <u a1\n 25904: a4 = u64 [sp + 0x68]\n 25907: a1 = a1 + a4\n 25910: a4 = a0 + 0x40\n 25913: a0 = a4 <u a0\n 25916: a5 = a2 + a0\n 25919: a2 = a5 <u a2\n 25922: a2 = a0 if a0 == 0\n 25925: a2 = a2 + a3\n 25928: a0 = a2 <u a3\n 25931: a0 = a0 + a1\n 25934: a1 = u64 [sp + 0x8]\n 25937: u64 [a1] = a4\n 25939: u64 [a1 + 0x8] = a5\n 25942: u64 [a1 + 0x10] = a2\n 25945: u64 [a1 + 0x18] = a0\n 25948: sp = s0 + 0xfffffffffffffee0\n 25952: ra = u64 [sp + 0x118]\n 25956: s0 = u64 [sp + 0x110]\n 25960: s1 = u64 [sp + 0x108]\n 25964: sp = sp + 0x120\n 25968: ret\n      : @905 (gas: 1)\n 25970: trap\n      : @906 [@dyn 418] (gas: 5)\n 25971: a1 = 0x4\n 25974: ra = 0x346\n 25978: ecalli 4 // 'call_data_load'\n 25980: t0 = 0x348\n 25984: jump @1259\n      : @907 [@dyn 419] (gas: 1)\n 25987: t0 = 840, jump @1259\n      : @908 [@dyn 420] (gas: 1)\n 25993: jump @911 if a3 == 0\n      : @909 (gas: 1)\n 25996: t0 = 842, jump @1269\n      : @910 [@dyn 421] (gas: 1)\n 26002: ret\n      : @911 (gas: 8)\n 26004: a1 = 0x201f0\n 26009: i32 a1 = a1 + 0\n 26011: a0 = 0x1\n 26014: a2 = 0\n 26016: ra = 0x34c\n 26020: ecalli 13 // 'seal_return'\n 26022: t0 = 0x34e\n 26026: jump @1273\n      : @912 [@dyn 422] (gas: 1)\n 26029: t0 = 846, jump @1273\n      : @913 [@dyn 423] (gas: 5)\n 26035: a1 = 0x24\n 26038: ra = 0x350\n 26042: ecalli 4 // 'call_data_load'\n 26044: t0 = 0x352\n 26048: jump @1259\n      : @914 [@dyn 424] (gas: 1)\n 26051: t0 = 850, jump @1259\n      : @915 [@dyn 425] (gas: 1)\n 26057: jump @918 if a3 == 0\n      : @916 (gas: 1)\n 26060: t0 = 852, jump @1269\n      : @917 [@dyn 426] (gas: 1)\n 26066: ret\n      : @918 (gas: 7)\n 26068: a1 = 0x201f0\n 26073: i32 a1 = a1 + 0\n 26075: a0 = 0x1\n 26078: a2 = 0\n 26080: ra = 0x356\n 26084: ecalli 13 // 'seal_return'\n 26086: fallthrough\n      : @919 [@dyn 427] (gas: 46)\n 26087: sp = sp + 0xffffffffffffff70\n 26091: u64 [sp + 0x88] = ra\n 26095: u64 [sp + 0x80] = s0\n 26099: u64 [sp + 0x78] = s1\n 26102: s0 = sp + 0x90\n 26106: sp = sp & 0xfffffffffffffff0\n 26109: t0 = a0\n 26111: a2 = u64 [a1]\n 26113: t2 = u64 [a0 + 0x8]\n 26116: a5 = u64 [a1 + 0x8]\n 26119: t1 = u64 [a0]\n 26121: a3 = a2 + 0x1f\n 26124: ra = a3 <u a2\n 26127: a2 = a5 + ra\n 26130: a3 = a3 & 0xffffffffffffffe0\n 26133: u64 [sp + 0x8] = t1\n 26136: t1 = t1 + a3\n 26139: a4 = t1 <u a3\n 26142: a3 = a2 + t2\n 26145: a3 = a3 + a4\n 26148: s1 = a3 ^ a2\n 26151: a0 = a3 <u a2\n 26154: a0 = a4 if s1 == 0\n 26157: a4 = u64 [t0 + 0x18]\n 26160: a5 = a2 <u a5\n 26163: s1 = u64 [a1 + 0x10]\n 26166: t0 = u64 [t0 + 0x10]\n 26169: a1 = u64 [a1 + 0x18]\n 26172: a5 = ra if ra == 0\n 26175: a5 = a5 + s1\n 26178: s1 = a5 <u s1\n 26181: a2 = a5 + t0\n 26184: a0 = a0 + a2\n 26187: a5 = a2 <u a5\n 26190: a2 = a0 <u a2\n 26193: a1 = a1 + a4\n 26196: a1 = a1 + s1\n 26199: a1 = a1 + a5\n 26202: a5 = a1 + a2\n 26205: a1 = a5 >u 0\n 26207: a2 = a0 >u 0\n 26209: a2 = a1 if a5 != 0\n 26212: a1 = a0 | a5\n 26215: s1 = a3 >u 0\n 26217: s1 = a2 if a1 != 0\n 26220: jump @923 if s1 != 0\n      : @920 (gas: 13)\n 26223: a1 = u64 [sp + 0x8]\n 26226: a1 = t1 <u a1\n 26229: a2 = a3 ^ t2\n 26232: s1 = a3 <u t2\n 26235: s1 = a1 if a2 == 0\n 26238: a1 = a0 <u t0\n 26241: a2 = a5 ^ a4\n 26244: a4 = a5 <u a4\n 26247: a4 = a1 if a2 == 0\n 26250: a1 = a0 ^ t0\n 26253: a1 = a1 | a2\n 26256: a4 = s1 if a1 == 0\n 26259: jump @923 if a4 != 0\n      : @921 (gas: 7)\n 26262: u64 [sp + 0x50] = t1\n 26265: u64 [sp + 0x58] = a3\n 26268: u64 [sp + 0x60] = a0\n 26271: a0 = 0x40\n 26274: a1 = sp + 0x50\n 26277: u64 [sp + 0x68] = a5\n 26280: ra = 856, jump @19\n      : @922 [@dyn 428] (gas: 6)\n 26286: sp = s0 + 0xffffffffffffff70\n 26290: ra = u64 [sp + 0x88]\n 26294: s0 = u64 [sp + 0x80]\n 26298: s1 = u64 [sp + 0x78]\n 26301: sp = sp + 0x90\n 26305: ret\n      : @923 (gas: 1)\n 26307: t0 = 858, jump @1272\n      : @924 [@dyn 429] (gas: 1)\n 26313: ra = 860, jump @19\n      : @925 [@dyn 430] (gas: 7)\n 26319: u64 [sp + 40] = 0\n 26322: u64 [sp + 32] = 0\n 26325: u64 [sp + 16] = 0x41\n 26329: a0 = 0x4\n 26332: a1 = sp + 0x10\n 26335: u64 [sp + 24] = 0\n 26338: ra = 862, jump @19\n      : @926 [@dyn 431] (gas: 2)\n 26344: a1 = i32 [0x201dc]\n 26349: jump @928 if a1 >u 63\n      : @927 (gas: 2)\n 26353: u32 [0x201dc] = 0x40\n 26359: fallthrough\n      : @928 (gas: 7)\n 26360: a1 = 0x201f0\n 26365: i32 a1 = a1 + 0\n 26367: a0 = 0x1\n 26370: a2 = 0x24\n 26373: ra = 0x360\n 26377: ecalli 13 // 'seal_return'\n 26379: fallthrough\n      : @929 [@dyn 432] (gas: 53)\n 26380: sp = sp + 0xffffffffffffff90\n 26383: u64 [sp + 0x68] = ra\n 26386: u64 [sp + 0x60] = s0\n 26389: u64 [sp + 0x58] = s1\n 26392: s0 = sp + 0x70\n 26395: sp = sp & 0xfffffffffffffff0\n 26398: a3 = a1\n 26400: t2 = u64 [a1 + 0x10]\n 26403: a1 = u64 [a1 + 0x8]\n 26406: t0 = u64 [a2 + 0x8]\n 26409: s1 = u64 [a3]\n 26411: u64 [sp] = s1\n 26413: a4 = u64 [a2]\n 26415: u64 [sp + 0x8] = a4\n 26418: ra = u64 [a2 + 0x10]\n 26421: a5 = t0 ^ a1\n 26424: u64 [sp + 0x28] = a5\n 26427: a5 = t0 <u a1\n 26430: a4 = a4 <u s1\n 26433: t1 = u64 [sp + 0x28]\n 26436: a5 = a4 if t1 == 0\n 26439: s1 = a4\n 26441: a3 = u64 [a3 + 0x18]\n 26444: u64 [sp + 0x18] = a3\n 26447: a2 = u64 [a2 + 0x18]\n 26450: u64 [sp + 0x10] = a2\n 26453: a3 = ra - t2\n 26456: a2 = a3 - a5\n 26459: u64 [sp + 0x20] = a2\n 26462: a2 = a3 <u a5\n 26465: u64 [sp + 0x28] = t2\n 26468: a4 = ra <u t2\n 26471: t2 = u64 [sp + 0x18]\n 26474: a3 = u64 [sp + 0x10]\n 26477: a3 = a3 - t2\n 26480: a3 = a3 - a4\n 26483: a3 = a3 - a2\n 26486: a2 = t0 - a1\n 26489: a2 = a2 - s1\n 26492: t0 = u64 [sp]\n 26494: a4 = u64 [sp + 0x8]\n 26497: a4 = a4 - t0\n 26500: a5 = a2 >u 0\n 26502: a4 = a4 <u 0x20\n 26505: a4 = a4 ^ 0x1\n 26508: a4 = a5 if a2 != 0\n 26511: s1 = a3 >s 0\n 26513: a2 = u64 [sp + 0x20]\n 26516: a5 = a2 >u 0\n 26518: a5 = s1 if a3 != 0\n 26521: a2 = a2 | a3\n 26524: a4 = a5 if a2 != 0\n 26527: jump @935 if a4 == 0\n      : @930 (gas: 10)\n 26530: s1 = a0\n 26532: a3 = u64 [sp + 0x28]\n 26535: a0 = t0 | a3\n 26538: a2 = a1 | t2\n 26541: a0 = a0 | a2\n 26544: a0 = a0 >> 0x20\n 26547: a2 = a2 | a3\n 26550: a2 = a2 << 0x20\n 26553: a0 = a0 | a2\n 26556: jump @934 if a0 != 0\n      : @931 (gas: 3)\n 26559: a0 = sp + 0x30\n 26562: a1 = t0\n 26564: ra = 866, jump @17\n      : @932 [@dyn 433] (gas: 9)\n 26570: a0 = u64 [sp + 0x48]\n 26573: a1 = u64 [sp + 0x40]\n 26576: a2 = u64 [sp + 0x30]\n 26579: a3 = u64 [sp + 0x38]\n 26582: a4 = a1 | a0\n 26585: a5 = a2 <u 0x2\n 26588: a5 = 0 if a3 != 0\n 26590: a5 = 0 if a4 != 0\n 26592: jump @936 if a5 == 0\n      : @933 (gas: 10)\n 26595: u64 [s1] = a2\n 26597: u64 [s1 + 0x8] = a3\n 26600: u64 [s1 + 0x10] = a1\n 26603: u64 [s1 + 0x18] = a0\n 26606: sp = s0 + 0xffffffffffffff90\n 26609: ra = u64 [sp + 0x68]\n 26612: s0 = u64 [sp + 0x60]\n 26615: s1 = u64 [sp + 0x58]\n 26618: sp = sp + 0x70\n 26621: ret\n      : @934 (gas: 1)\n 26623: trap\n      : @935 (gas: 2)\n 26624: a1 = 0x201f0\n 26629: jump @937\n      : @936 (gas: 2)\n 26631: a1 = 0x201f0\n 26636: fallthrough\n      : @937 (gas: 6)\n 26637: i32 a1 = a1 + 0\n 26639: a0 = 0x1\n 26642: a2 = 0\n 26644: ra = 0x364\n 26648: ecalli 13 // 'seal_return'\n 26650: fallthrough\n      : @938 [@dyn 434] (gas: 23)\n 26651: sp = sp + 0xffffffffffffff10\n 26655: u64 [sp + 0xe8] = ra\n 26659: u64 [sp + 0xe0] = s0\n 26663: u64 [sp + 0xd8] = s1\n 26667: s0 = sp + 0xf0\n 26671: sp = sp & 0xfffffffffffffff0\n 26674: s1 = u64 [a1 + 0x10]\n 26677: t0 = u64 [a1 + 0x18]\n 26680: a5 = u64 [a1 + 0x8]\n 26683: a1 = u64 [a1]\n 26685: u64 [sp + 0x68] = a5\n 26688: u64 [sp + 0x58] = t0\n 26691: t1 = a5 | t0\n 26694: t0 = a1\n 26696: a5 = a1 | s1\n 26699: a5 = a5 | t1\n 26702: a5 = a5 >> 0x20\n 26705: u64 [sp + 0x60] = s1\n 26708: a1 = t1 | s1\n 26711: a1 = a1 << 0x20\n 26714: a1 = a1 | a5\n 26717: u64 [sp + 0x50] = a0\n 26720: jump @945 if a1 != 0\n      : @939 (gas: 27)\n 26724: a0 = u64 [a4 + 0x18]\n 26727: u64 [sp + 0x20] = a0\n 26730: a0 = u64 [a4 + 0x10]\n 26733: u64 [sp + 0x18] = a0\n 26736: a0 = u64 [a4 + 0x8]\n 26739: u64 [sp + 0x10] = a0\n 26742: a0 = u64 [a4]\n 26744: u64 [sp + 0x8] = a0\n 26747: a0 = u64 [a3 + 0x10]\n 26750: u64 [sp + 0x30] = a0\n 26753: a0 = u64 [a3 + 0x8]\n 26756: u64 [sp + 0x38] = a0\n 26759: a0 = u64 [a3]\n 26761: u64 [sp + 0x40] = a0\n 26764: a0 = u64 [a2 + 0x10]\n 26767: a1 = u64 [a2 + 0x8]\n 26770: a2 = u64 [a2]\n 26772: a0 = a0 << 0x20\n 26775: a0 = a0 >> 0x20\n 26778: u64 [sp + 200] = 0\n 26782: u64 [sp + 0xb0] = a2\n 26786: u64 [sp + 0xb8] = a1\n 26790: a1 = sp + 0xb0\n 26794: u64 [sp + 0xc0] = a0\n 26798: s1 = t0\n 26800: a0 = t0\n 26802: ra = 870, jump @19\n      : @940 [@dyn 435] (gas: 12)\n 26808: a0 = u64 [sp + 0x60]\n 26811: a1 = u64 [sp + 0x58]\n 26814: a2 = a0 | a1\n 26817: a0 = 0x100000000\n 26827: u64 [sp + 0x28] = a0\n 26830: a0 = 0xffffffe0\n 26840: a0 = s1 <u a0\n 26843: a1 = u64 [sp + 0x68]\n 26846: a0 = 0 if a1 != 0\n 26848: u64 [sp + 0x48] = a2\n 26851: a0 = 0 if a2 != 0\n 26853: jump @945 if a0 == 0\n      : @941 (gas: 14)\n 26857: a1 = 0xffffffff\n 26867: a2 = u64 [sp + 0x30]\n 26870: a2 = a2 & a1\n 26873: a1 = u64 [sp + 0x38]\n 26876: a1 = a1 & 0xffffffffffffffff\n 26879: a3 = u64 [sp + 0x40]\n 26882: a3 = a3 & 0xffffffffffffffff\n 26885: i32 a0 = s1 + 0x20\n 26888: u64 [sp + 168] = 0\n 26892: u64 [sp + 0x90] = a3\n 26896: u64 [sp + 0x98] = a1\n 26900: a1 = sp + 0x90\n 26904: u64 [sp + 0xa0] = a2\n 26908: ra = 872, jump @19\n      : @942 [@dyn 436] (gas: 8)\n 26914: a0 = u64 [sp + 0x28]\n 26917: a0 = a0 + 0xffffffffffffffc0\n 26920: a0 = s1 <u a0\n 26923: a1 = u64 [sp + 0x68]\n 26926: a0 = 0 if a1 != 0\n 26928: a1 = u64 [sp + 0x48]\n 26931: a0 = 0 if a1 != 0\n 26933: jump @945 if a0 == 0\n      : @943 (gas: 26)\n 26937: a0 = s1 + 0x60\n 26940: u64 [sp + 0x48] = a0\n 26943: a0 = a0 <u s1\n 26946: a1 = u64 [sp + 0x68]\n 26949: a2 = a1 + a0\n 26952: u64 [sp + 0x40] = a2\n 26955: a1 = a2 <u a1\n 26958: a1 = a0 if a0 == 0\n 26961: a0 = u64 [sp + 0x60]\n 26964: a1 = a1 + a0\n 26967: u64 [sp + 0x38] = a1\n 26970: a0 = a1 <u a0\n 26973: a1 = u64 [sp + 0x58]\n 26976: a0 = a0 + a1\n 26979: u64 [sp + 0x68] = a0\n 26982: i32 a0 = s1 + 0x40\n 26985: a1 = u64 [sp + 0x8]\n 26988: u64 [sp + 0x70] = a1\n 26991: a1 = u64 [sp + 0x10]\n 26994: u64 [sp + 0x78] = a1\n 26997: a1 = u64 [sp + 0x18]\n 27000: u64 [sp + 0x80] = a1\n 27004: a1 = sp + 0x70\n 27007: a2 = u64 [sp + 0x20]\n 27010: u64 [sp + 0x88] = a2\n 27014: ra = 874, jump @19\n      : @944 [@dyn 437] (gas: 15)\n 27020: a0 = u64 [sp + 0x50]\n 27023: a1 = u64 [sp + 0x38]\n 27026: u64 [a0 + 0x10] = a1\n 27029: a1 = u64 [sp + 0x40]\n 27032: u64 [a0 + 0x8] = a1\n 27035: a1 = u64 [sp + 0x48]\n 27038: u64 [a0] = a1\n 27040: a1 = u64 [sp + 0x68]\n 27043: u64 [a0 + 0x18] = a1\n 27046: sp = s0 + 0xffffffffffffff10\n 27050: ra = u64 [sp + 0xe8]\n 27054: s0 = u64 [sp + 0xe0]\n 27058: s1 = u64 [sp + 0xd8]\n 27062: sp = sp + 0xf0\n 27066: ret\n      : @945 (gas: 1)\n 27068: trap\n      : @946 (gas: 30)\n 27069: sp = sp + 0xffffffffffffff80\n 27072: u64 [sp + 0x78] = ra\n 27075: u64 [sp + 0x70] = s0\n 27078: u64 [sp + 0x68] = s1\n 27081: s0 = sp + 0x80\n 27085: sp = sp & 0xfffffffffffffff0\n 27088: a4 = u64 [a2]\n 27090: a3 = u64 [a1]\n 27092: s1 = u64 [a2 + 0x8]\n 27095: t1 = u64 [a1 + 0x8]\n 27098: t2 = u64 [a2 + 0x10]\n 27101: a5 = u64 [a1 + 0x10]\n 27104: a2 = u64 [a2 + 0x18]\n 27107: a1 = u64 [a1 + 0x18]\n 27110: t0 = t1 ^ s1\n 27113: u64 [sp + 0x8] = s1\n 27116: s1 = t1 <u s1\n 27119: u64 [sp + 0x18] = a4\n 27122: u64 [sp + 0x10] = a3\n 27125: a3 = a3 <u a4\n 27128: u64 [sp] = a3\n 27130: s1 = a3 if t0 == 0\n 27133: a3 = a1 ^ a2\n 27136: ra = a1 <u a2\n 27139: t0 = a5 <u t2\n 27142: ra = t0 if a3 == 0\n 27145: a4 = a5 ^ t2\n 27148: a3 = a3 | a4\n 27151: ra = s1 if a3 == 0\n 27154: jump @948 if ra != 0\n      : @947 (gas: 23)\n 27157: a3 = a5 - t2\n 27160: a1 = a1 - a2\n 27163: a1 = a1 - t0\n 27166: a2 = a3 <u s1\n 27169: a1 = a1 - a2\n 27172: a3 = a3 - s1\n 27175: a2 = u64 [sp + 0x8]\n 27178: a2 = t1 - a2\n 27181: a4 = u64 [sp]\n 27183: a2 = a2 - a4\n 27186: a4 = u64 [sp + 0x18]\n 27189: a5 = u64 [sp + 0x10]\n 27192: a4 = a5 - a4\n 27195: u64 [a0] = a4\n 27197: u64 [a0 + 0x8] = a2\n 27200: u64 [a0 + 0x10] = a3\n 27203: u64 [a0 + 0x18] = a1\n 27206: sp = s0 + 0xffffffffffffff80\n 27209: ra = u64 [sp + 0x78]\n 27212: s0 = u64 [sp + 0x70]\n 27215: s1 = u64 [sp + 0x68]\n 27218: sp = sp + 0x80\n 27222: ret\n      : @948 (gas: 6)\n 27224: u64 [sp + 80] = 0\n 27227: u64 [sp + 72] = 0\n 27230: u64 [sp + 64] = 0\n 27233: t0 = 0x36c\n 27237: a0 = 0x4e487b7100000000\n 27247: fallthrough\n      : @949 [@dyn 438] (gas: 4)\n 27248: a1 = sp + 0x40\n 27251: u64 [sp + 0x58] = a0\n 27254: a0 = 0\n 27256: ra = 878, jump @19\n      : @950 [@dyn 439] (gas: 7)\n 27262: u64 [sp + 56] = 0\n 27265: u64 [sp + 48] = 0\n 27268: u64 [sp + 32] = 0x11\n 27272: a0 = 0x4\n 27275: a1 = sp + 0x20\n 27278: u64 [sp + 40] = 0\n 27281: ra = 880, jump @19\n      : @951 [@dyn 440] (gas: 2)\n 27287: a1 = i32 [0x201dc]\n 27292: jump @953 if a1 >u 63\n      : @952 (gas: 2)\n 27296: u32 [0x201dc] = 0x40\n 27302: fallthrough\n      : @953 (gas: 7)\n 27303: a1 = 0x201f0\n 27308: i32 a1 = a1 + 0\n 27310: a0 = 0x1\n 27313: a2 = 0x24\n 27316: ra = 0x372\n 27320: ecalli 13 // 'seal_return'\n 27322: fallthrough\n      : @954 [@dyn 441] (gas: 70)\n 27323: sp = sp + 0xffffffffffffff40\n 27327: u64 [sp + 0xb8] = ra\n 27331: u64 [sp + 0xb0] = s0\n 27335: u64 [sp + 0xa8] = s1\n 27339: s0 = sp + 0xc0\n 27343: sp = sp & 0xfffffffffffffff0\n 27346: ra = u64 [a2]\n 27348: t0 = u64 [a1]\n 27350: a3 = u64 [a1 + 0x8]\n 27353: u64 [sp + 0x58] = a0\n 27356: a4 = u64 [a2 + 0x8]\n 27359: a0 = t0 mulhu ra\n 27362: s1 = a3 * ra\n 27365: a0 = a0 + s1\n 27368: s1 = a0 <u s1\n 27371: a5 = a3 mulhu ra\n 27374: a5 = a5 + s1\n 27377: s1 = t0 * a4\n 27380: a0 = a0 + s1\n 27383: u64 [sp + 0x50] = a0\n 27386: a0 = a0 <u s1\n 27389: s1 = t0 mulhu a4\n 27392: a0 = a0 + s1\n 27395: a0 = a0 + a5\n 27398: a5 = a0 <u a5\n 27401: s1 = a3 mulhu a4\n 27404: a5 = a5 + s1\n 27407: s1 = a3 * a4\n 27410: a0 = a0 + s1\n 27413: u64 [sp + 0x48] = a0\n 27416: s1 = a0 <u s1\n 27419: a5 = a5 + s1\n 27422: u64 [sp + 0x40] = a5\n 27425: t1 = u64 [a2 + 0x10]\n 27428: a2 = u64 [a2 + 0x18]\n 27431: t2 = u64 [a1 + 0x18]\n 27434: a0 = u64 [a1 + 0x10]\n 27437: a5 = a3 * t1\n 27440: u64 [sp + 0x20] = a2\n 27443: s1 = a2 * t0\n 27446: a1 = s1 + a5\n 27449: u64 [sp + 0x28] = a4\n 27452: s1 = a4 * a0\n 27455: a2 = t2 * ra\n 27458: a2 = a2 + s1\n 27461: s1 = t1 * t0\n 27464: a5 = a0 * ra\n 27467: s1 = s1 + a5\n 27470: u64 [sp + 0x30] = t1\n 27473: a4 = t1 mulhu t0\n 27476: u64 [sp + 0x10] = a4\n 27479: a4 = a4 + a1\n 27482: t1 = a0 mulhu ra\n 27485: a1 = t1 + a2\n 27488: a2 = s1 <u a5\n 27491: u64 [sp + 0x18] = a1\n 27494: u64 [sp + 0x8] = a4\n 27497: a5 = a1 + a4\n 27500: a2 = a2 + a5\n 27503: u64 [sp + 0x38] = t2\n 27506: a5 = a3 | t2\n 27509: a1 = t0 | a0\n 27512: a1 = a1 | a5\n 27515: a4 = u64 [sp + 0x40]\n 27518: a5 = u64 [sp + 0x48]\n 27521: s1 = s1 + a5\n 27524: t2 = s1 <u a5\n 27527: a2 = a2 + a4\n 27530: a2 = a2 + t2\n 27533: jump @956 if a1 == 0\n      : @955 (gas: 50)\n 27537: a1 = a2 ^ a4\n 27540: u64 [sp + 0x48] = a2\n 27543: a2 = u64 [sp + 0x48]\n 27546: a2 = a2 <u a4\n 27549: t2 = a2 if a1 != 0\n 27552: u64 [sp + 0x40] = s1\n 27555: a1 = u64 [sp + 0x10]\n 27558: a2 = u64 [sp + 0x8]\n 27561: s1 = a2 <u a1\n 27564: a2 = a3 >u 0\n 27566: a1 = u64 [sp + 0x20]\n 27569: a5 = a1 >u 0\n 27571: a2 = a2 & a5\n 27574: a5 = a1 mulhu t0\n 27577: a5 = a5 >u 0\n 27579: a2 = a2 | a5\n 27582: a4 = t1\n 27584: t1 = u64 [sp + 0x30]\n 27587: a3 = a3 mulhu t1\n 27590: a3 = a3 >u 0\n 27592: a2 = a2 | a3\n 27595: a2 = a2 | s1\n 27598: u64 [sp + 0x10] = a2\n 27601: a2 = u64 [sp + 0x18]\n 27604: a2 = a2 <u a4\n 27607: a4 = u64 [sp + 0x28]\n 27610: a3 = a4 >u 0\n 27612: s1 = u64 [sp + 0x38]\n 27615: a5 = s1 >u 0\n 27617: a3 = a3 & a5\n 27620: a5 = s1 mulhu ra\n 27623: a5 = a5 >u 0\n 27625: a3 = a3 | a5\n 27628: a5 = a4 mulhu a0\n 27631: a5 = a5 >u 0\n 27633: a3 = a3 | a5\n 27636: a2 = a2 | a3\n 27639: a3 = t1 | a1\n 27642: a5 = a0 | s1\n 27645: s1 = u64 [sp + 0x40]\n 27648: a3 = a3 >u 0\n 27650: a5 = a5 >u 0\n 27652: a3 = a3 & a5\n 27655: a2 = a2 | a3\n 27658: a1 = u64 [sp + 0x10]\n 27661: a1 = a1 | a2\n 27664: a2 = u64 [sp + 0x48]\n 27667: a0 = a1 | t2\n 27670: a0 = a0 & 0x1\n 27673: jump @957 if a0 != 0\n      : @956 (gas: 13)\n 27676: a0 = t0 * ra\n 27679: a1 = u64 [sp + 0x58]\n 27682: u64 [a1] = a0\n 27684: a0 = u64 [sp + 0x50]\n 27687: u64 [a1 + 0x8] = a0\n 27690: u64 [a1 + 0x10] = s1\n 27693: u64 [a1 + 0x18] = a2\n 27696: sp = s0 + 0xffffffffffffff40\n 27700: ra = u64 [sp + 0xb8]\n 27704: s0 = u64 [sp + 0xb0]\n 27708: s1 = u64 [sp + 0xa8]\n 27712: sp = sp + 0xc0\n 27716: ret\n      : @957 (gas: 6)\n 27718: u64 [sp + 144] = 0\n 27722: u64 [sp + 136] = 0\n 27726: u64 [sp + 128] = 0\n 27730: t0 = 0x374\n 27734: a0 = 0x4e487b7100000000\n 27744: fallthrough\n      : @958 [@dyn 442] (gas: 4)\n 27745: a1 = sp + 0x80\n 27749: u64 [sp + 0x98] = a0\n 27753: a0 = 0\n 27755: ra = 886, jump @19\n      : @959 [@dyn 443] (gas: 7)\n 27761: u64 [sp + 120] = 0\n 27764: u64 [sp + 112] = 0\n 27767: u64 [sp + 96] = 0x11\n 27771: a0 = 0x4\n 27774: a1 = sp + 0x60\n 27777: u64 [sp + 104] = 0\n 27780: ra = 888, jump @19\n      : @960 [@dyn 444] (gas: 2)\n 27786: a1 = i32 [0x201dc]\n 27791: jump @962 if a1 >u 63\n      : @961 (gas: 2)\n 27795: u32 [0x201dc] = 0x40\n 27801: fallthrough\n      : @962 (gas: 7)\n 27802: a1 = 0x201f0\n 27807: i32 a1 = a1 + 0\n 27809: a0 = 0x1\n 27812: a2 = 0x24\n 27815: ra = 0x37a\n 27819: ecalli 13 // 'seal_return'\n 27821: fallthrough\n      : @963 [@dyn 445] (gas: 16)\n 27822: sp = sp + 0xfffffffffffffef0\n 27826: u64 [sp + 0x108] = ra\n 27830: u64 [sp + 0x100] = s0\n 27834: u64 [sp + 0xf8] = s1\n 27838: s0 = sp + 0x110\n 27842: sp = sp & 0xfffffffffffffff0\n 27845: t1 = u64 [a2 + 0x10]\n 27848: a5 = u64 [a2 + 0x18]\n 27851: s1 = u64 [a2 + 0x8]\n 27854: a2 = u64 [a2]\n 27856: a4 = s1 | a5\n 27859: a3 = a2 | t1\n 27862: a3 = a3 | a4\n 27865: u64 [sp] = a0\n 27867: u64 [sp + 0xa8] = a3\n 27871: jump @983 if a3 == 0\n      : @964 (gas: 73)\n 27875: a0 = u64 [a1 + 0x18]\n 27878: ra = u64 [a1 + 0x10]\n 27881: t0 = u64 [a1 + 0x8]\n 27884: t2 = u64 [a1]\n 27886: u64 [sp + 0x60] = t2\n 27889: a1 = clz t1\n 27891: a1 = a1 + 0x40\n 27894: a4 = clz a5\n 27896: a4 = a1 if a5 == 0\n 27899: u64 [sp + 0x30] = a2\n 27902: a1 = clz a2\n 27904: a2 = a1 + 0x40\n 27907: a1 = clz s1\n 27909: u64 [sp + 0x38] = s1\n 27912: a1 = a2 if s1 == 0\n 27915: a2 = a1 + 0x80\n 27919: u64 [sp + 0x40] = a5\n 27922: u64 [sp + 0x48] = t1\n 27925: a3 = t1 | a5\n 27928: a4 = a2 if a3 == 0\n 27931: a2 = a2 <u a1\n 27934: a2 = 0 if a3 != 0\n 27936: a1 = clz ra\n 27938: a1 = a1 + 0x40\n 27941: a5 = clz a0\n 27943: a5 = a1 if a0 == 0\n 27946: a1 = clz t2\n 27948: a1 = a1 + 0x40\n 27951: a3 = clz t0\n 27953: a3 = a1 if t0 == 0\n 27956: a1 = a3 + 0x80\n 27960: s1 = ra | a0\n 27963: a5 = a1 if s1 == 0\n 27966: a1 = a1 <u a3\n 27969: a1 = 0 if s1 != 0\n 27971: t1 = a2 ^ a1\n 27974: s1 = a2 <u a1\n 27977: a3 = a4 <u a5\n 27980: s1 = a3 if t1 == 0\n 27983: a2 = a2 - a1\n 27986: t2 = s1 <u 0x1\n 27989: t2 = t2 + 0xffffffffffffffff\n 27992: a3 = a2 - a3\n 27995: t1 = -s1\n 27997: a1 = a4 - a5\n 28000: a2 = t1 >u 0\n 28002: a4 = t2 >u 0\n 28004: a4 = a2 if t2 == 0\n 28007: u64 [sp + 0xa0] = a1\n 28011: a2 = a1 <u 0x100\n 28015: a2 = a2 ^ 0x1\n 28018: a5 = a3 >u 0\n 28020: a2 = a5 if a3 != 0\n 28023: a2 = a4 if s1 != 0\n 28026: s1 = u64 [sp + 0x60]\n 28029: a4 = s1 | ra\n 28032: a5 = t0 | a0\n 28035: a4 = a4 | a5\n 28038: a1 = u64 [sp + 0xa8]\n 28042: a5 = a1 <u 0x1\n 28045: a4 = a4 <u 0x1\n 28048: a4 = a4 | a5\n 28051: a2 = a2 | a4\n 28054: u64 [sp + 0x68] = a0\n 28057: a1 = a0\n 28059: a1 = 0 if a2 != 0\n 28061: a4 = ra\n 28063: a4 = 0 if a2 != 0\n 28065: u64 [sp + 0x58] = t0\n 28068: a5 = t0\n 28070: a5 = 0 if a2 != 0\n 28072: s1 = 0 if a2 != 0\n 28074: jump @981 if a2 != 0\n      : @965 (gas: 7)\n 28078: a0 = u64 [sp + 0xa0]\n 28082: a2 = a0 ^ 0xff\n 28086: t0 = a2 | t1\n 28089: a2 = a3 | t2\n 28092: a2 = t0 | a2\n 28095: a0 = u64 [sp]\n 28097: jump @982 if a2 == 0\n      : @966 (gas: 18)\n 28101: a2 = u64 [sp + 0xa0]\n 28105: a1 = a2 + 0x1\n 28108: u64 [sp + 0xa8] = a1\n 28112: u64 [sp + 0x50] = ra\n 28115: a0 = a1 <u 0x1\n 28118: a0 = a0 + a3\n 28121: u64 [sp + 0x80] = a0\n 28125: a0 = a0 | a1\n 28128: a0 = a0 <u 0x1\n 28131: a0 = a0 + t1\n 28134: u64 [sp + 0x70] = a0\n 28137: a0 = a0 <u t1\n 28140: a0 = a0 + t2\n 28143: u64 [sp + 0x78] = a0\n 28146: t0 = 0x37c\n 28150: s1 = 0xff - a2\n 28154: a2 = 0x80 - s1\n 28158: fallthrough\n      : @967 [@dyn 446] (gas: 4)\n 28159: u64 [sp + 0x28] = s1\n 28162: a0 = u64 [sp + 0x60]\n 28165: a1 = u64 [sp + 0x58]\n 28168: ra = 894, jump @1281\n      : @968 [@dyn 447] (gas: 6)\n 28174: u64 [sp + 0x98] = a0\n 28178: u64 [sp + 0x90] = a1\n 28182: a0 = u64 [sp + 0x50]\n 28185: a1 = u64 [sp + 0x68]\n 28188: a2 = s1\n 28190: ra = 896, jump @1286\n      : @969 [@dyn 448] (gas: 10)\n 28196: u64 [sp + 0x88] = a0\n 28200: a0 = u64 [sp + 0x90]\n 28204: a0 = a0 | a1\n 28207: u64 [sp + 0x90] = a0\n 28211: a1 = u64 [sp + 0xa0]\n 28215: a2 = 0x7f - a1\n 28218: a0 = u64 [sp + 0x60]\n 28221: s1 = u64 [sp + 0x58]\n 28224: a1 = s1\n 28226: ra = 898, jump @1286\n      : @970 [@dyn 449] (gas: 18)\n 28232: a2 = u64 [sp + 0x28]\n 28235: a3 = a2 <u 0x80\n 28239: u64 [sp + 0xa0] = a3\n 28243: a4 = u64 [sp + 0x90]\n 28247: a1 = a4 if a3 != 0\n 28250: a4 = u64 [sp + 0x68]\n 28253: a1 = a4 if a2 == 0\n 28256: u64 [sp + 0x90] = a1\n 28260: a1 = u64 [sp + 0x98]\n 28264: a4 = u64 [sp + 0x88]\n 28268: a1 = a1 | a4\n 28271: a1 = a0 if a3 == 0\n 28274: a0 = u64 [sp + 0x50]\n 28277: a1 = a0 if a2 == 0\n 28280: u64 [sp + 0x98] = a1\n 28284: a0 = u64 [sp + 0x60]\n 28287: a1 = s1\n 28289: ra = 900, jump @1286\n      : @971 [@dyn 450] (gas: 13)\n 28295: a5 = u64 [sp + 0x70]\n 28298: a2 = u64 [sp + 0x78]\n 28301: a3 = u64 [sp + 0x80]\n 28305: a3 = a3 | a2\n 28308: a2 = u64 [sp + 0xa8]\n 28312: a2 = a2 | a5\n 28315: a2 = a2 | a3\n 28318: a3 = u64 [sp + 0xa0]\n 28322: a1 = 0 if a3 == 0\n 28324: u64 [sp + 0x88] = a1\n 28328: a0 = 0 if a3 == 0\n 28330: u64 [sp + 0xa0] = a0\n 28334: jump @979 if a2 == 0\n      : @972 (gas: 5)\n 28338: s1 = u64 [sp + 0xa8]\n 28342: a2 = s1 + 0xffffffffffffff80\n 28345: a0 = u64 [sp + 0x50]\n 28348: a1 = u64 [sp + 0x68]\n 28351: ra = 902, jump @1281\n      : @973 [@dyn 451] (gas: 6)\n 28357: u64 [sp + 0x28] = a0\n 28360: u64 [sp + 0x18] = a1\n 28363: a0 = u64 [sp + 0x60]\n 28366: a1 = u64 [sp + 0x58]\n 28369: a2 = s1\n 28371: ra = 904, jump @1281\n      : @974 [@dyn 452] (gas: 6)\n 28377: u64 [sp + 0x10] = a0\n 28380: u64 [sp + 0x20] = a1\n 28383: a2 = 0x80 - s1\n 28387: a0 = u64 [sp + 0x50]\n 28390: a1 = u64 [sp + 0x68]\n 28393: ra = 906, jump @1286\n      : @975 [@dyn 453] (gas: 20)\n 28399: a2 = u64 [sp + 0x20]\n 28402: a1 = a1 | a2\n 28405: a2 = s1 <u 0x80\n 28409: u64 [sp + 0x20] = a2\n 28412: a3 = u64 [sp + 0x18]\n 28415: a1 = a3 if a2 == 0\n 28418: a3 = u64 [sp + 0x58]\n 28421: a3 = a1 if s1 != 0\n 28424: u64 [sp + 0x58] = a3\n 28427: a1 = u64 [sp + 0x10]\n 28430: a0 = a0 | a1\n 28433: a1 = u64 [sp + 0x28]\n 28436: a0 = a1 if a2 == 0\n 28439: a1 = u64 [sp + 0x60]\n 28442: a1 = a0 if s1 != 0\n 28445: u64 [sp + 0x60] = a1\n 28448: a0 = u64 [sp + 0x50]\n 28451: a1 = u64 [sp + 0x68]\n 28454: a2 = s1\n 28456: ra = 908, jump @1281\n      : @976 [@dyn 454] (gas: 24)\n 28462: t0 = u64 [sp + 0x58]\n 28465: t2 = 0\n 28467: a2 = u64 [sp + 0x20]\n 28470: a1 = 0 if a2 == 0\n 28472: a0 = 0 if a2 == 0\n 28474: u64 [sp + 0x68] = a0\n 28477: a3 = u64 [sp + 0x30]\n 28480: a0 = a3 <u 0x1\n 28483: a2 = u64 [sp + 0x38]\n 28486: a0 = a2 - a0\n 28489: u64 [sp + 0x20] = a0\n 28492: a0 = a3 | a2\n 28495: a0 = a0 <u 0x1\n 28498: a2 = u64 [sp + 0x48]\n 28501: a4 = a2 - a0\n 28504: u64 [sp + 0x18] = a4\n 28507: a0 = a2 <u a0\n 28510: a2 = u64 [sp + 0x40]\n 28513: a2 = a2 - a0\n 28516: u64 [sp + 0x10] = a2\n 28519: a3 = a3 + 0xffffffffffffffff\n 28522: u64 [sp + 0x8] = a3\n 28525: ra = u64 [sp + 0x60]\n 28528: fallthrough\n      : @977 (gas: 103)\n 28529: u64 [sp + 40] = 0\n 28532: a4 = ra >> 0x3f\n 28535: a3 = t0 << 0x1\n 28538: s1 = t0\n 28540: t0 = a3 | a4\n 28543: a4 = ra << 0x1\n 28546: ra = u64 [sp + 0x90]\n 28550: a2 = ra >> 0x3f\n 28553: a2 = a2 | a4\n 28556: u64 [sp + 0x60] = a2\n 28559: a0 = u64 [sp + 0x20]\n 28562: t1 = a0 ^ t0\n 28565: a4 = a0 <u t0\n 28568: a0 = u64 [sp + 0x8]\n 28571: a5 = t2\n 28573: t2 = a0 <u a2\n 28576: t2 = a4 if t1 != 0\n 28579: a1 = a1 << 0x1\n 28582: a0 = u64 [sp + 0x68]\n 28585: a2 = a0 >> 0x3f\n 28588: a1 = a1 | a2\n 28591: u64 [sp + 0x58] = a1\n 28594: a2 = s1 >> 0x3f\n 28597: a0 = a0 << 0x1\n 28600: t1 = a0 | a2\n 28603: a0 = ra << 0x1\n 28606: a1 = u64 [sp + 0x98]\n 28610: a2 = a1 >> 0x3f\n 28613: a0 = a0 | a2\n 28616: a2 = a1 << 0x1\n 28619: a1 = u64 [sp + 0x88]\n 28623: a4 = a1 >> 0x3f\n 28626: a2 = a2 | a4\n 28629: a4 = a1 << 0x1\n 28632: s1 = u64 [sp + 0xa0]\n 28636: ra = s1 >> 0x3f\n 28639: a4 = a4 | ra\n 28642: s1 = s1 << 0x1\n 28645: a5 = a5 | s1\n 28648: u64 [sp + 0xa0] = a5\n 28652: a4 = a4 | 0\n 28654: u64 [sp + 0x88] = a4\n 28658: a1 = a2 | 0\n 28660: u64 [sp + 0x98] = a1\n 28664: a0 = a0 | 0\n 28666: u64 [sp + 0x90] = a0\n 28670: a2 = u64 [sp + 0x18]\n 28673: a0 = a2 - t1\n 28676: a0 = a0 <u t2\n 28679: a2 = a2 <u t1\n 28682: a4 = u64 [sp + 0x10]\n 28685: a3 = u64 [sp + 0x58]\n 28688: a4 = a4 - a3\n 28691: a4 = a4 - a2\n 28694: a4 = a4 - a0\n 28697: a4 = a4 >>a 0x3f\n 28700: a0 = u64 [sp + 0x30]\n 28703: a1 = a4 & a0\n 28706: u64 [sp + 0x50] = a1\n 28709: a5 = u64 [sp + 0x38]\n 28712: a5 = a5 & a4\n 28715: a0 = t0 ^ a5\n 28718: s1 = t0 <u a5\n 28721: t2 = u64 [sp + 0x60]\n 28724: ra = t2 <u a1\n 28727: s1 = ra if a0 == 0\n 28730: a2 = u64 [sp + 0x48]\n 28733: a2 = a2 & a4\n 28736: a1 = t1 - a2\n 28739: a0 = a1 - s1\n 28742: u64 [sp + 0x68] = a0\n 28745: a0 = a1 <u s1\n 28748: a2 = t1 <u a2\n 28751: s1 = u64 [sp + 0x40]\n 28754: s1 = s1 & a4\n 28757: a1 = a3 - s1\n 28760: a1 = a1 - a2\n 28763: a1 = a1 - a0\n 28766: a3 = t0 - a5\n 28769: t0 = a3 - ra\n 28772: a0 = u64 [sp + 0x50]\n 28775: ra = t2 - a0\n 28778: a5 = u64 [sp + 0xa8]\n 28782: s1 = u64 [sp + 0x80]\n 28786: a0 = a5 | s1\n 28789: a0 = a0 <u 0x1\n 28792: a3 = u64 [sp + 0x70]\n 28795: a2 = a3 <u a0\n 28798: a0 = a3 - a0\n 28801: a3 = a5 <u 0x1\n 28804: s1 = s1 - a3\n 28807: a3 = u64 [sp + 0x78]\n 28810: a3 = a3 - a2\n 28813: a5 = a5 + 0xffffffffffffffff\n 28816: u64 [sp + 0x80] = s1\n 28820: u64 [sp + 0x78] = a3\n 28823: a2 = s1 | a3\n 28826: u64 [sp + 0xa8] = a5\n 28830: a3 = a5 | a0\n 28833: a2 = a2 | a3\n 28836: t2 = a4 & 0x1\n 28839: u64 [sp + 0x70] = a0\n 28842: jump @977 if a2 != 0\n      : @978 (gas: 1)\n 28846: jump @980\n      : @979 (gas: 3)\n 28848: t2 = 0\n 28850: u64 [sp + 40] = 0\n 28853: fallthrough\n      : @980 (gas: 21)\n 28854: a3 = u64 [sp + 0x98]\n 28858: a0 = a3 >> 0x3f\n 28861: a1 = u64 [sp + 0x90]\n 28865: a1 = a1 << 0x1\n 28868: a0 = a0 | a1\n 28871: a5 = u64 [sp + 0x88]\n 28875: a1 = a5 >> 0x3f\n 28878: a3 = a3 << 0x1\n 28881: a1 = a1 | a3\n 28884: a2 = u64 [sp + 0xa0]\n 28888: a3 = a2 >> 0x3f\n 28891: a5 = a5 << 0x1\n 28894: s1 = a2 << 0x1\n 28897: s1 = t2 | s1\n 28900: a2 = u64 [sp + 0x28]\n 28903: a3 = a3 | a2\n 28906: a5 = a5 | a3\n 28909: a4 = a2 | a1\n 28912: a1 = a2 | a0\n 28915: a0 = u64 [sp]\n 28917: jump @982\n      : @981 (gas: 2)\n 28919: a0 = u64 [sp]\n 28921: fallthrough\n      : @982 (gas: 10)\n 28922: u64 [a0] = s1\n 28924: u64 [a0 + 0x8] = a5\n 28927: u64 [a0 + 0x10] = a4\n 28930: u64 [a0 + 0x18] = a1\n 28933: sp = s0 + 0xfffffffffffffef0\n 28937: ra = u64 [sp + 0x108]\n 28941: s0 = u64 [sp + 0x100]\n 28945: s1 = u64 [sp + 0xf8]\n 28949: sp = sp + 0x110\n 28953: ret\n      : @983 (gas: 6)\n 28955: u64 [sp + 224] = 0\n 28959: u64 [sp + 216] = 0\n 28963: u64 [sp + 208] = 0\n 28967: t0 = 0x38e\n 28971: a0 = 0x4e487b7100000000\n 28981: fallthrough\n      : @984 [@dyn 455] (gas: 4)\n 28982: a1 = sp + 0xd0\n 28986: u64 [sp + 0xe8] = a0\n 28990: a0 = 0\n 28992: ra = 912, jump @19\n      : @985 [@dyn 456] (gas: 7)\n 28998: u64 [sp + 200] = 0\n 29002: u64 [sp + 192] = 0\n 29006: u64 [sp + 176] = 0x12\n 29011: a0 = 0x4\n 29014: a1 = sp + 0xb0\n 29018: u64 [sp + 184] = 0\n 29022: ra = 914, jump @19\n      : @986 [@dyn 457] (gas: 2)\n 29028: a1 = i32 [0x201dc]\n 29033: jump @988 if a1 >u 63\n      : @987 (gas: 2)\n 29037: u32 [0x201dc] = 0x40\n 29043: fallthrough\n      : @988 (gas: 7)\n 29044: a1 = 0x201f0\n 29049: i32 a1 = a1 + 0\n 29051: a0 = 0x1\n 29054: a2 = 0x24\n 29057: ra = 0x394\n 29061: ecalli 13 // 'seal_return'\n 29063: fallthrough\n      : @989 [@dyn 458] (gas: 29)\n 29064: sp = sp + 0xfffffffffffffe10\n 29068: u64 [sp + 0x1e8] = ra\n 29072: u64 [sp + 0x1e0] = s0\n 29076: u64 [sp + 0x1d8] = s1\n 29080: s0 = sp + 0x1f0\n 29084: sp = sp + 0xfffffffffffff8f0\n 29088: sp = sp & 0xffffffffffffffe0\n 29091: a2 = u64 [a1 + 0x18]\n 29094: u64 [sp + 0x68] = a2\n 29097: a2 = u64 [a1 + 0x10]\n 29100: u64 [sp + 0x80] = a2\n 29104: a2 = u64 [a1 + 0x8]\n 29107: u64 [sp + 0x70] = a2\n 29110: a1 = u64 [a1]\n 29112: u64 [sp + 0x78] = a1\n 29115: u64 [sp + 0x48] = a0\n 29118: i32 a0 = sp + 0x720\n 29122: ecalli 1 // 'balance'\n 29124: a1 = sp + 0x700\n 29128: a0 = u64 [a1 + 0x38]\n 29131: u64 [sp + 0xa8] = a0\n 29135: a0 = u64 [a1 + 0x30]\n 29138: u64 [sp + 0xb0] = a0\n 29142: a0 = u64 [a1 + 0x28]\n 29145: u64 [sp + 0xb8] = a0\n 29149: a0 = u64 [a1 + 0x20]\n 29152: u64 [sp + 0xa0] = a0\n 29156: a0 = sp + 0x700\n 29160: ra = 918, jump @1078\n      : @990 [@dyn 459] (gas: 15)\n 29166: a1 = sp + 0x700\n 29170: a0 = u64 [a1 + 0x18]\n 29173: u64 [sp + 0x88] = a0\n 29177: a0 = u64 [a1 + 0x10]\n 29180: u64 [sp + 0x90] = a0\n 29184: a0 = u64 [a1 + 0x8]\n 29187: u64 [sp + 0x98] = a0\n 29191: s1 = u64 [a1]\n 29193: u64 [a1 + 88] = 0\n 29196: u64 [a1 + 80] = 0\n 29199: u64 [a1 + 72] = 0\n 29202: u64 [a1 + 64] = 0x5\n 29206: a0 = sp + 0x6e0\n 29210: a1 = sp + 0x740\n 29214: ra = 920, jump @21\n      : @991 [@dyn 460] (gas: 15)\n 29220: a1 = sp + 0x600\n 29224: a0 = u64 [a1 + 0xf0]\n 29228: u64 [sp + 0x58] = a0\n 29231: a0 = u64 [a1 + 0xe8]\n 29235: u64 [sp + 0x50] = a0\n 29238: a0 = u64 [a1 + 0xe0]\n 29242: u64 [sp + 0x60] = a0\n 29245: a0 = u64 [sp + 0x88]\n 29249: a1 = u64 [sp + 0x98]\n 29253: a0 = a0 | a1\n 29256: u64 [sp + 0x28] = s1\n 29259: a1 = u64 [sp + 0x90]\n 29263: a1 = a1 | s1\n 29266: a0 = a0 | a1\n 29269: jump @1014 if a0 == 0\n      : @992 (gas: 29)\n 29273: a0 = sp + 0x700\n 29277: u64 [a0 + 248] = 0\n 29281: u64 [a0 + 240] = 0\n 29285: u64 [a0 + 232] = 0\n 29289: u64 [a0 + 224] = 0\n 29293: i32 a0 = sp + 0x7e0\n 29297: ecalli 16 // 'value_transferred'\n 29299: a4 = sp + 0x700\n 29303: a0 = u64 [a4 + 0xe0]\n 29307: a1 = u64 [a4 + 0xe8]\n 29311: a2 = u64 [a4 + 0xf0]\n 29315: a3 = u64 [a4 + 0xf8]\n 29319: a4 = sp + 0x600\n 29323: u64 [a4 + 0x98] = a3\n 29327: u64 [a4 + 0x90] = a2\n 29331: u64 [a4 + 0x88] = a1\n 29335: u64 [a4 + 0x80] = a0\n 29339: a0 = u64 [sp + 0xa8]\n 29343: u64 [a4 + 0xb8] = a0\n 29347: a0 = u64 [sp + 0xb0]\n 29351: u64 [a4 + 0xb0] = a0\n 29355: a0 = u64 [sp + 0xb8]\n 29359: u64 [a4 + 0xa8] = a0\n 29363: a0 = sp + 0x6c0\n 29367: a1 = sp + 0x6a0\n 29371: a2 = sp + 0x680\n 29375: a3 = u64 [sp + 0xa0]\n 29379: u64 [a4 + 0xa0] = a3\n 29383: ra = 922, jump @946\n      : @993 [@dyn 461] (gas: 44)\n 29389: a1 = sp + 0x600\n 29393: a0 = u64 [a1 + 0xd8]\n 29397: u64 [sp + 0x30] = a0\n 29400: a0 = u64 [a1 + 0xd0]\n 29404: u64 [sp + 0x38] = a0\n 29407: a0 = u64 [a1 + 0xc8]\n 29411: u64 [sp + 0x40] = a0\n 29414: s1 = u64 [a1 + 0xc0]\n 29418: a0 = sp + 0x1000\n 29422: u64 [a0 + 4294965272] = 0\n 29426: a0 = sp + 0x1000\n 29430: u64 [a0 + 4294965264] = 0\n 29434: a0 = sp + 0x1000\n 29438: u64 [a0 + 4294965256] = 0\n 29442: a0 = sp + 0x1000\n 29446: u64 [a0 + 4294965248] = 0\n 29450: a0 = sp + 0x1000\n 29454: i32 a0 = a0 + 0xfffffffffffff800\n 29458: ecalli 16 // 'value_transferred'\n 29460: a0 = sp + 0x1000\n 29464: a3 = u64 [a0 + 0xfffffffffffff800]\n 29468: a0 = sp + 0x1000\n 29472: a0 = u64 [a0 + 0xfffffffffffff808]\n 29476: a1 = sp + 0x1000\n 29480: a1 = u64 [a1 + 0xfffffffffffff810]\n 29484: a2 = sp + 0x1000\n 29488: a2 = u64 [a2 + 0xfffffffffffff818]\n 29492: a4 = u64 [sp + 0x88]\n 29496: a5 = sp + 0x600\n 29500: u64 [a5 + 0x38] = a4\n 29503: a4 = u64 [sp + 0x90]\n 29507: u64 [a5 + 0x30] = a4\n 29510: a4 = u64 [sp + 0x98]\n 29514: u64 [a5 + 0x28] = a4\n 29517: a4 = u64 [sp + 0x28]\n 29520: u64 [a5 + 0x20] = a4\n 29523: u64 [a5 + 0x58] = a2\n 29526: u64 [a5 + 0x50] = a1\n 29529: u64 [a5 + 0x48] = a0\n 29532: a0 = sp + 0x660\n 29536: a1 = sp + 0x640\n 29540: a2 = sp + 0x620\n 29544: u64 [a5 + 0x40] = a3\n 29547: ra = 924, jump @954\n      : @994 [@dyn 462] (gas: 22)\n 29553: a4 = sp + 0x600\n 29557: a3 = u64 [a4 + 0x60]\n 29560: a0 = u64 [a4 + 0x68]\n 29563: a1 = u64 [a4 + 0x70]\n 29566: a2 = u64 [a4 + 0x78]\n 29569: a4 = u64 [sp + 0x30]\n 29572: a5 = sp + 0x500\n 29576: u64 [a5 + 0xd8] = a4\n 29580: a4 = u64 [sp + 0x38]\n 29583: u64 [a5 + 0xd0] = a4\n 29587: a4 = u64 [sp + 0x40]\n 29590: u64 [a5 + 0xc8] = a4\n 29594: u64 [sp + 0x20] = s1\n 29597: u64 [a5 + 0xc0] = s1\n 29601: u64 [a5 + 0xf8] = a2\n 29605: u64 [a5 + 0xf0] = a1\n 29609: u64 [a5 + 0xe8] = a0\n 29613: a0 = sp + 0x600\n 29617: a1 = sp + 0x5e0\n 29621: a2 = sp + 0x5c0\n 29625: u64 [a5 + 0xe0] = a3\n 29629: ra = 926, jump @963\n      : @995 [@dyn 463] (gas: 27)\n 29635: a1 = sp + 0x600\n 29639: a2 = u64 [a1 + 0x18]\n 29642: a0 = u64 [a1 + 0x10]\n 29645: a5 = u64 [a1 + 0x8]\n 29648: s1 = u64 [a1]\n 29650: a1 = u64 [sp + 0x68]\n 29653: t0 = a2 ^ a1\n 29656: u64 [sp + 0x28] = a2\n 29659: a1 = a1 <u a2\n 29662: a4 = u64 [sp + 0x80]\n 29666: a2 = a4 <u a0\n 29669: a2 = a1 if t0 != 0\n 29672: a3 = u64 [sp + 0x70]\n 29675: a1 = a5 ^ a3\n 29678: u64 [sp + 0x88] = a5\n 29682: a3 = a3 <u a5\n 29685: a5 = u64 [sp + 0x78]\n 29688: u64 [sp + 0x90] = s1\n 29692: s1 = a5 <u s1\n 29695: s1 = a3 if a1 != 0\n 29698: u64 [sp + 0x78] = a0\n 29701: a1 = a0 ^ a4\n 29704: a0 = a1 | t0\n 29707: s1 = a2 if a0 != 0\n 29710: a0 = sp + 0x5a0\n 29714: a1 = 0x40\n 29717: ra = 928, jump @17\n      : @996 [@dyn 464] (gas: 9)\n 29723: a2 = sp + 0x500\n 29727: a1 = u64 [a2 + 0xb8]\n 29731: a4 = u64 [a2 + 0xb0]\n 29735: a3 = u64 [a2 + 0xa8]\n 29739: a0 = u64 [a2 + 0xa0]\n 29743: u64 [sp + 0xb8] = a0\n 29747: u64 [sp + 0xb0] = a3\n 29751: u64 [sp + 0xa8] = a1\n 29755: jump @1046 if s1 != 0\n      : @997 (gas: 9)\n 29759: a2 = a0 | a4\n 29762: a1 = a1 | a3\n 29765: a2 = a2 | a1\n 29768: a2 = a2 >> 0x20\n 29771: a1 = a1 | a4\n 29774: a1 = a1 << 0x20\n 29777: a1 = a1 | a2\n 29780: u64 [sp + 0xa0] = a4\n 29784: jump @1075 if a1 != 0\n      : @998 (gas: 8)\n 29788: a3 = sp + 0x500\n 29792: u64 [a3 + 144] = 0\n 29796: u64 [a3 + 136] = 0\n 29800: u64 [a3 + 128] = 0\n 29804: a2 = 0x23b872dd00000000\n 29814: a1 = sp + 0x580\n 29818: u64 [a3 + 0x98] = a2\n 29822: ra = 930, jump @19\n      : @999 [@dyn 465] (gas: 6)\n 29828: s1 = 0x301f0\n 29833: i32 a0 = s1 + 0\n 29835: u64 [sp + 0x18] = a0\n 29838: ra = 0x3a4\n 29842: ecalli 0 // 'address'\n 29843: fallthrough\n      : @1000 [@dyn 466] (gas: 4)\n 29844: a0 = u64 [s1 + 0x8]\n 29847: a1 = i32 [s1 + 0x10]\n 29850: a2 = u64 [s1]\n 29852: t0 = 934, jump @1255\n      : @1001 [@dyn 467] (gas: 14)\n 29858: u64 [sp + 0x80] = a1\n 29862: a0 = a0 >> 0x20\n 29865: a1 = reverse a2\n 29867: a2 = a1 << 0x20\n 29870: a0 = a0 | a2\n 29873: u64 [sp + 0x70] = a0\n 29876: a1 = a1 >> 0x20\n 29879: u64 [sp + 0x68] = a1\n 29882: a0 = u64 [sp + 0x18]\n 29885: ra = 0x3a8\n 29889: ecalli 6 // 'caller'\n 29891: u64 [sp + 0x98] = s1\n 29895: t0 = 0x3aa\n 29899: jump @1275\n      : @1002 [@dyn 468] (gas: 2)\n 29902: u64 [sp + 0x98] = s1\n 29906: t0 = 938, jump @1275\n      : @1003 [@dyn 469] (gas: 48)\n 29912: t0 = a1 | a3\n 29915: a0 = a0 >> 0x20\n 29918: a1 = reverse a2\n 29920: a2 = a1 << 0x20\n 29923: a0 = a0 | a2\n 29926: a1 = a1 >> 0x20\n 29929: a3 = u64 [sp + 0xb8]\n 29933: a2 = a3 + 0x4\n 29936: a3 = a2 <u a3\n 29939: a5 = u64 [sp + 0xb0]\n 29943: a4 = a5 + a3\n 29946: s1 = a4 <u a5\n 29949: s1 = a3 if a3 == 0\n 29952: a3 = u64 [sp + 0xa0]\n 29956: s1 = s1 + a3\n 29959: a3 = s1 <u a3\n 29962: a5 = u64 [sp + 0xa8]\n 29966: a3 = a3 + a5\n 29969: a5 = u64 [sp + 0x28]\n 29972: u64 [sp + 0x4f8] = a5\n 29976: a5 = u64 [sp + 0x78]\n 29979: u64 [sp + 0x4f0] = a5\n 29983: a5 = u64 [sp + 0x88]\n 29987: u64 [sp + 0x4e8] = a5\n 29991: a5 = u64 [sp + 0x90]\n 29995: u64 [sp + 0x4e0] = a5\n 29999: a5 = u64 [sp + 0x68]\n 30002: u64 [sp + 0x510] = a5\n 30006: a5 = u64 [sp + 0x70]\n 30009: u64 [sp + 0x508] = a5\n 30013: a5 = u64 [sp + 0x80]\n 30017: u64 [sp + 0x500] = a5\n 30021: a5 = sp + 0x500\n 30025: u64 [a5 + 24] = 0\n 30028: u64 [a5 + 56] = 0\n 30031: u64 [a5 + 0x58] = a3\n 30034: u64 [a5 + 0x50] = s1\n 30037: u64 [a5 + 0x48] = a4\n 30040: u64 [a5 + 0x40] = a2\n 30043: u64 [a5 + 0x30] = a1\n 30046: u64 [a5 + 0x28] = a0\n 30049: a0 = sp + 0x560\n 30053: a1 = sp + 0x540\n 30057: a2 = sp + 0x520\n 30061: a3 = sp + 0x500\n 30065: a4 = sp + 0x4e0\n 30069: u64 [a5 + 0x20] = t0\n 30072: ra = 940, jump @938\n      : @1004 [@dyn 470] (gas: 30)\n 30078: a1 = sp + 0x500\n 30082: a0 = u64 [a1 + 0x68]\n 30085: t2 = u64 [a1 + 0x78]\n 30088: t0 = u64 [a1 + 0x60]\n 30091: a3 = u64 [a1 + 0x70]\n 30094: a1 = u64 [sp + 0xb0]\n 30098: a4 = a0 ^ a1\n 30101: a5 = a0 <u a1\n 30104: t1 = a1\n 30106: a2 = u64 [sp + 0xb8]\n 30110: a1 = t0 <u a2\n 30113: a5 = a1 if a4 == 0\n 30116: s1 = u64 [sp + 0xa0]\n 30120: a4 = a3 - s1\n 30123: a3 = a3 <u s1\n 30126: s1 = u64 [sp + 0xa8]\n 30130: s1 = t2 - s1\n 30133: s1 = s1 - a3\n 30136: a3 = a4 <u a5\n 30139: s1 = s1 - a3\n 30142: u64 [sp + 0x90] = s1\n 30146: a4 = a4 - a5\n 30149: u64 [sp + 0x88] = a4\n 30153: a0 = a0 - t1\n 30156: a0 = a0 - a1\n 30159: u64 [sp + 0x80] = a0\n 30163: s1 = t0 - a2\n 30166: ra = 0x3ae\n 30170: ecalli 10 // 'ref_time_left'\n 30172: fallthrough\n      : @1005 [@dyn 471] (gas: 9)\n 30173: a0 = u64 [sp + 0x50]\n 30176: a0 = reverse a0\n 30178: a1 = a0 << 0x20\n 30181: a2 = u64 [sp + 0x58]\n 30184: a2 = reverse a2\n 30186: a2 = a2 >> 0x20\n 30189: a1 = a1 | a2\n 30192: a2 = u64 [sp + 0x60]\n 30195: t0 = 944, jump @1248\n      : @1006 [@dyn 472] (gas: 23)\n 30201: a3 = u64 [sp + 0x98]\n 30205: u64 [a3 + 0x8] = a0\n 30208: u64 [a3] = a1\n 30210: u32 [a3 + 0x10] = a2\n 30213: a0 = sp + 0x7ff\n 30217: a0 = a0 + 0x39\n 30220: u64 [a0 + 0] = 0\n 30222: u64 [a0 + 4294967288] = 0\n 30225: a0 = sp + 0x1000\n 30229: u64 [a0 + 4294965288] = 0\n 30233: a3 = u64 [sp + 0x88]\n 30237: a0 = s1 | a3\n 30240: a1 = u64 [sp + 0x90]\n 30244: a4 = u64 [sp + 0x80]\n 30248: a1 = a1 | a4\n 30251: a0 = a0 | a1\n 30254: a0 = a0 >> 0x20\n 30257: a1 = a1 | a3\n 30260: a1 = a1 << 0x20\n 30263: a0 = a0 | a1\n 30266: a1 = sp + 0x1000\n 30270: u64 [a1 + 4294965280] = 0\n 30274: jump @1075 if a0 != 0\n      : @1007 (gas: 6)\n 30278: a2 = s1\n 30280: s1 = u64 [sp + 0xb8]\n 30284: a0 = s1\n 30286: a1 = a2\n 30288: u64 [sp + 0x78] = a2\n 30291: ra = 946, jump @26\n      : @1008 [@dyn 473] (gas: 5)\n 30297: u64 [sp + 0x90] = a0\n 30301: a1 = 0x20\n 30304: a0 = s1\n 30306: s1 = 0x20\n 30309: ra = 948, jump @26\n      : @1009 [@dyn 474] (gas: 37)\n 30315: a2 = sp + 0x7ff\n 30319: a2 = a2 + 0x39\n 30322: u32 [a2 + 0x8] = s1\n 30325: u64 [a2 + 64] = 0xffffffffffffffff\n 30329: u64 [a2 + 56] = 0xffffffffffffffff\n 30333: u64 [a2 + 48] = 0xffffffffffffffff\n 30337: u64 [a2 + 40] = 0xffffffffffffffff\n 30341: a1 = u64 [sp + 0x98]\n 30345: a1 = a1 << 0x20\n 30348: a1 = a1 >> 0x20\n 30351: a2 = 0x800000000\n 30361: t0 = a1 | a2\n 30364: a1 = sp + 0x7ff\n 30368: a1 = a1 + 0x21\n 30371: a1 = a1 << 0x20\n 30374: a1 = a1 >> 0x20\n 30377: a2 = sp + 0x7ff\n 30381: a2 = a2 + 0x61\n 30384: a2 = a2 << 0x20\n 30387: a3 = a2 | a1\n 30390: a1 = u64 [sp + 0x90]\n 30394: a1 = a1 << 0x20\n 30397: a1 = a1 >> 0x20\n 30400: a4 = u64 [sp + 0x78]\n 30403: a4 = a4 << 0x20\n 30406: a4 = a4 | a1\n 30409: a0 = a0 << 0x20\n 30412: a0 = a0 >> 0x20\n 30415: a1 = sp + 0x7ff\n 30419: a1 = a1 + 0x41\n 30422: a1 = a1 << 0x20\n 30425: a5 = a1 | a0\n 30428: a1 = 0xffffffffffffffff\n 30431: a2 = 0xffffffffffffffff\n 30434: a0 = t0\n 30436: ecalli 2 // 'call'\n 30438: fallthrough\n      : @1010 (gas: 1)\n 30439: jump @1058 if a0 != 0\n      : @1011 (gas: 2)\n 30443: ecalli 12 // 'return_data_size'\n 30445: fallthrough\n      : @1012 (gas: 1)\n 30446: jump @1032 if a0 >=u s1\n      : @1013 (gas: 2)\n 30450: ecalli 12 // 'return_data_size'\n 30452: jump @1033\n      : @1014 (gas: 3)\n 30455: a0 = sp + 0x280\n 30459: a1 = 0x40\n 30462: ra = 950, jump @17\n      : @1015 [@dyn 475] (gas: 16)\n 30468: a4 = sp + 0x200\n 30472: a1 = u64 [a4 + 0x98]\n 30476: a2 = u64 [a4 + 0x90]\n 30480: a3 = u64 [a4 + 0x88]\n 30484: a0 = u64 [a4 + 0x80]\n 30488: u64 [sp + 0x90] = a3\n 30492: u64 [sp + 0x40] = a1\n 30495: a3 = a3 | a1\n 30498: a1 = a0 | a2\n 30501: a1 = a1 | a3\n 30504: a1 = a1 >> 0x20\n 30507: u64 [sp + 0x88] = a2\n 30511: a2 = a2 | a3\n 30514: a2 = a2 << 0x20\n 30517: a1 = a1 | a2\n 30520: jump @1075 if a1 != 0\n      : @1016 (gas: 9)\n 30524: a3 = sp + 0x200\n 30528: u64 [a3 + 112] = 0\n 30531: u64 [a3 + 104] = 0\n 30534: u64 [a3 + 96] = 0\n 30537: a2 = 0x23b872dd00000000\n 30547: a1 = sp + 0x260\n 30551: u64 [a3 + 0x78] = a2\n 30554: u64 [sp + 0x98] = a0\n 30558: ra = 952, jump @19\n      : @1017 [@dyn 476] (gas: 6)\n 30564: s1 = 0x301f0\n 30569: i32 a0 = s1 + 0\n 30571: u64 [sp + 0x18] = a0\n 30574: ra = 0x3ba\n 30578: ecalli 0 // 'address'\n 30579: fallthrough\n      : @1018 [@dyn 477] (gas: 4)\n 30580: a0 = u64 [s1 + 0x8]\n 30583: a1 = i32 [s1 + 0x10]\n 30586: a2 = u64 [s1]\n 30588: t0 = 956, jump @1255\n      : @1019 [@dyn 478] (gas: 14)\n 30594: u64 [sp + 0x30] = a1\n 30597: a0 = a0 >> 0x20\n 30600: a1 = reverse a2\n 30602: a2 = a1 << 0x20\n 30605: a0 = a0 | a2\n 30608: u64 [sp + 0x28] = a0\n 30611: a1 = a1 >> 0x20\n 30614: u64 [sp + 0x20] = a1\n 30617: a0 = u64 [sp + 0x18]\n 30620: ra = 0x3be\n 30624: ecalli 6 // 'caller'\n 30626: u64 [sp + 0x38] = s1\n 30629: t0 = 0x3c0\n 30633: jump @1275\n      : @1020 [@dyn 479] (gas: 2)\n 30636: u64 [sp + 0x38] = s1\n 30639: t0 = 960, jump @1275\n      : @1021 [@dyn 480] (gas: 48)\n 30645: t0 = a1 | a3\n 30648: a0 = a0 >> 0x20\n 30651: a1 = reverse a2\n 30653: a2 = a1 << 0x20\n 30656: a0 = a0 | a2\n 30659: a1 = a1 >> 0x20\n 30662: a3 = u64 [sp + 0x98]\n 30666: a2 = a3 + 0x4\n 30669: a3 = a2 <u a3\n 30672: a5 = u64 [sp + 0x90]\n 30676: a4 = a5 + a3\n 30679: s1 = a4 <u a5\n 30682: s1 = a3 if a3 == 0\n 30685: a3 = u64 [sp + 0x88]\n 30689: s1 = s1 + a3\n 30692: a3 = s1 <u a3\n 30695: a5 = u64 [sp + 0x40]\n 30698: a3 = a3 + a5\n 30701: a5 = u64 [sp + 0x68]\n 30704: u64 [sp + 0x1d8] = a5\n 30708: a5 = u64 [sp + 0x80]\n 30712: u64 [sp + 0x1d0] = a5\n 30716: a5 = u64 [sp + 0x70]\n 30719: u64 [sp + 0x1c8] = a5\n 30723: a5 = u64 [sp + 0x78]\n 30726: u64 [sp + 0x1c0] = a5\n 30730: a5 = u64 [sp + 0x20]\n 30733: u64 [sp + 0x1f0] = a5\n 30737: a5 = u64 [sp + 0x28]\n 30740: u64 [sp + 0x1e8] = a5\n 30744: a5 = u64 [sp + 0x30]\n 30747: u64 [sp + 0x1e0] = a5\n 30751: u64 [sp + 504] = 0\n 30755: a5 = sp + 0x200\n 30759: u64 [a5 + 24] = 0\n 30762: u64 [a5 + 0x38] = a3\n 30765: u64 [a5 + 0x30] = s1\n 30768: u64 [a5 + 0x28] = a4\n 30771: u64 [a5 + 0x20] = a2\n 30774: u64 [a5 + 0x10] = a1\n 30777: u64 [a5 + 0x8] = a0\n 30780: a0 = sp + 0x240\n 30784: a1 = sp + 0x220\n 30788: a2 = sp + 0x200\n 30792: a3 = sp + 0x1e0\n 30796: a4 = sp + 0x1c0\n 30800: u64 [a5] = t0\n 30802: ra = 962, jump @938\n      : @1022 [@dyn 481] (gas: 30)\n 30808: a1 = sp + 0x200\n 30812: a0 = u64 [a1 + 0x48]\n 30815: t2 = u64 [a1 + 0x58]\n 30818: t0 = u64 [a1 + 0x40]\n 30821: a3 = u64 [a1 + 0x50]\n 30824: a1 = u64 [sp + 0x90]\n 30828: a4 = a0 ^ a1\n 30831: a5 = a0 <u a1\n 30834: t1 = a1\n 30836: a2 = u64 [sp + 0x98]\n 30840: a1 = t0 <u a2\n 30843: a5 = a1 if a4 == 0\n 30846: s1 = u64 [sp + 0x88]\n 30850: a4 = a3 - s1\n 30853: a3 = a3 <u s1\n 30856: s1 = u64 [sp + 0x40]\n 30859: s1 = t2 - s1\n 30862: s1 = s1 - a3\n 30865: a3 = a4 <u a5\n 30868: s1 = s1 - a3\n 30871: u64 [sp + 0x80] = s1\n 30875: a4 = a4 - a5\n 30878: u64 [sp + 0x78] = a4\n 30881: a0 = a0 - t1\n 30884: a0 = a0 - a1\n 30887: u64 [sp + 0x70] = a0\n 30890: s1 = t0 - a2\n 30893: ra = 0x3c4\n 30897: ecalli 10 // 'ref_time_left'\n 30899: fallthrough\n      : @1023 [@dyn 482] (gas: 9)\n 30900: a0 = u64 [sp + 0x50]\n 30903: a0 = reverse a0\n 30905: a1 = a0 << 0x20\n 30908: a2 = u64 [sp + 0x58]\n 30911: a2 = reverse a2\n 30913: a2 = a2 >> 0x20\n 30916: a1 = a1 | a2\n 30919: a2 = u64 [sp + 0x60]\n 30922: t0 = 966, jump @1248\n      : @1024 [@dyn 483] (gas: 21)\n 30928: a3 = u64 [sp + 0x38]\n 30931: u64 [a3 + 0x8] = a0\n 30934: u64 [a3] = a1\n 30936: u32 [a3 + 0x10] = a2\n 30939: a2 = sp + 0x700\n 30943: u64 [a2 + 120] = 0\n 30946: a5 = 0\n 30948: u64 [a2 + 112] = 0\n 30951: u64 [a2 + 104] = 0\n 30954: a3 = u64 [sp + 0x78]\n 30957: a0 = s1 | a3\n 30960: a1 = u64 [sp + 0x80]\n 30964: a4 = u64 [sp + 0x70]\n 30967: a1 = a1 | a4\n 30970: a0 = a0 | a1\n 30973: a0 = a0 >> 0x20\n 30976: a1 = a1 | a3\n 30979: a1 = a1 << 0x20\n 30982: a0 = a0 | a1\n 30985: u64 [a2 + 96] = 0\n 30988: jump @1075 if a0 != 0\n      : @1025 (gas: 6)\n 30992: a2 = s1\n 30994: s1 = u64 [sp + 0x98]\n 30998: a0 = s1\n 31000: a1 = a2\n 31002: u64 [sp + 0x68] = a2\n 31005: ra = 968, jump @26\n      : @1026 [@dyn 484] (gas: 5)\n 31011: u64 [sp + 0x80] = a0\n 31015: a1 = 0x20\n 31018: a0 = s1\n 31020: s1 = 0x20\n 31023: ra = 970, jump @26\n      : @1027 [@dyn 485] (gas: 33)\n 31029: u32 [sp + 0x780] = s1\n 31033: a2 = sp + 0x700\n 31037: u64 [a2 + 184] = 0xffffffffffffffff\n 31042: u64 [a2 + 176] = 0xffffffffffffffff\n 31047: u64 [a2 + 168] = 0xffffffffffffffff\n 31052: u64 [a2 + 160] = 0xffffffffffffffff\n 31057: a1 = u64 [sp + 0x38]\n 31060: a1 = a1 << 0x20\n 31063: a1 = a1 >> 0x20\n 31066: a2 = 0x800000000\n 31076: t0 = a1 | a2\n 31079: a1 = sp + 0x760\n 31083: a1 = a1 << 0x20\n 31086: a1 = a1 >> 0x20\n 31089: a2 = sp + 0x7a0\n 31093: a2 = a2 << 0x20\n 31096: a3 = a2 | a1\n 31099: a1 = u64 [sp + 0x80]\n 31103: a1 = a1 << 0x20\n 31106: a1 = a1 >> 0x20\n 31109: a4 = u64 [sp + 0x68]\n 31112: a4 = a4 << 0x20\n 31115: a4 = a4 | a1\n 31118: a0 = a0 << 0x20\n 31121: a0 = a0 >> 0x20\n 31124: a1 = sp + 0x780\n 31128: a1 = a1 << 0x20\n 31131: a5 = a1 | a0\n 31134: a1 = 0xffffffffffffffff\n 31137: a2 = 0xffffffffffffffff\n 31140: a0 = t0\n 31142: ecalli 2 // 'call'\n 31144: fallthrough\n      : @1028 (gas: 1)\n 31145: jump @1065 if a0 != 0\n      : @1029 (gas: 2)\n 31149: ecalli 12 // 'return_data_size'\n 31151: fallthrough\n      : @1030 (gas: 1)\n 31152: jump @1039 if a0 >=u s1\n      : @1031 (gas: 2)\n 31156: ecalli 12 // 'return_data_size'\n 31158: jump @1040\n      : @1032 (gas: 2)\n 31161: a0 = 0x20\n 31164: fallthrough\n      : @1033 (gas: 18)\n 31165: s1 = 0\n 31167: a2 = u64 [sp + 0xb8]\n 31171: a3 = u64 [sp + 0xb0]\n 31175: a1 = u64 [sp + 0xa0]\n 31179: u64 [sp + 0x98] = a0\n 31183: a4 = sp + 0x400\n 31187: u64 [a4 + 0x80] = a0\n 31191: u64 [a4 + 0xa0] = a2\n 31195: u64 [a4 + 136] = 0\n 31199: u64 [a4 + 0xa8] = a3\n 31203: u64 [a4 + 144] = 0\n 31207: u64 [a4 + 0xb0] = a1\n 31211: u64 [a4 + 152] = 0\n 31215: a0 = sp + 0x4a0\n 31219: a1 = sp + 0x480\n 31223: a5 = u64 [sp + 0xa8]\n 31227: u64 [a4 + 0xb8] = a5\n 31231: ra = 972, jump @919\n      : @1034 [@dyn 486] (gas: 32)\n 31237: t0 = u64 [sp + 0xb8]\n 31241: a1 = u64 [sp + 0x98]\n 31245: a0 = a1 + t0\n 31248: a1 = a0 <u a1\n 31251: t1 = u64 [sp + 0xb0]\n 31255: a2 = t1\n 31257: a2 = a2 + a1\n 31260: a3 = a2 ^ 0\n 31262: a4 = a2 <u 0\n 31264: a4 = a1 if a3 == 0\n 31267: a5 = u64 [sp + 0xa0]\n 31271: a1 = a5\n 31273: a4 = a4 + a1\n 31276: t2 = a4 <u a1\n 31279: a1 = a1 <u 0\n 31281: a3 = u64 [sp + 0xa8]\n 31285: s1 = a3\n 31287: a1 = a1 + s1\n 31290: t2 = t2 + a1\n 31293: s1 = sp + 0x400\n 31297: u64 [s1 + 0x30] = a4\n 31300: u64 [s1 + 0x28] = a2\n 31303: u64 [s1 + 0x20] = a0\n 31306: u64 [s1 + 0x58] = a3\n 31309: u64 [s1 + 0x50] = a5\n 31312: u64 [s1 + 0x48] = t1\n 31315: u64 [s1 + 0x40] = t0\n 31318: a0 = sp + 0x460\n 31322: a1 = sp + 0x440\n 31326: a2 = sp + 0x420\n 31330: u64 [s1 + 0x38] = t2\n 31333: ra = 974, jump @929\n      : @1035 [@dyn 487] (gas: 25)\n 31339: s1 = sp + 0x7ff\n 31343: s1 = s1 + 0x39\n 31346: u64 [s1 + 128] = 0\n 31350: u64 [s1 + 120] = 0\n 31353: u64 [s1 + 112] = 0\n 31356: u64 [s1 + 104] = 0\n 31359: a0 = sp + 0x1000\n 31363: i32 a0 = a0 + 0xfffffffffffff8a0\n 31367: ecalli 16 // 'value_transferred'\n 31369: a0 = u64 [s1 + 0x68]\n 31372: u64 [sp + 0xb8] = a0\n 31376: a0 = u64 [s1 + 0x70]\n 31379: u64 [sp + 0xb0] = a0\n 31383: a0 = u64 [s1 + 0x78]\n 31386: u64 [sp + 0xa8] = a0\n 31390: a0 = u64 [s1 + 0x80]\n 31394: u64 [sp + 0xa0] = a0\n 31398: u64 [s1 + 160] = 0\n 31402: u64 [s1 + 152] = 0\n 31406: u64 [s1 + 144] = 0\n 31410: u64 [s1 + 136] = 0x2\n 31415: a0 = sp + 0x400\n 31419: a1 = sp + 0x7ff\n 31423: a1 = a1 + 0xc1\n 31427: ra = 976, jump @21\n      : @1036 [@dyn 488] (gas: 22)\n 31433: a4 = sp + 0x400\n 31437: a3 = u64 [a4]\n 31439: a0 = u64 [a4 + 0x8]\n 31442: a1 = u64 [a4 + 0x10]\n 31445: a2 = u64 [a4 + 0x18]\n 31448: a4 = u64 [sp + 0xa0]\n 31452: a5 = sp + 0x300\n 31456: u64 [a5 + 0xb8] = a4\n 31460: a4 = u64 [sp + 0xa8]\n 31464: u64 [a5 + 0xb0] = a4\n 31468: a4 = u64 [sp + 0xb0]\n 31472: u64 [a5 + 0xa8] = a4\n 31476: a4 = u64 [sp + 0xb8]\n 31480: u64 [a5 + 0xa0] = a4\n 31484: u64 [a5 + 0xd8] = a2\n 31488: u64 [a5 + 0xd0] = a1\n 31492: u64 [a5 + 0xc8] = a0\n 31496: a0 = sp + 0x3e0\n 31500: a1 = sp + 0x3c0\n 31504: a2 = sp + 0x3a0\n 31508: u64 [a5 + 0xc0] = a3\n 31512: ra = 978, jump @954\n      : @1037 [@dyn 489] (gas: 21)\n 31518: a5 = sp + 0x300\n 31522: a3 = u64 [a5 + 0xe0]\n 31526: a0 = u64 [a5 + 0xe8]\n 31530: a1 = u64 [a5 + 0xf0]\n 31534: a2 = u64 [a5 + 0xf8]\n 31538: a4 = u64 [sp + 0x30]\n 31541: u64 [a5 + 0x58] = a4\n 31544: a4 = u64 [sp + 0x38]\n 31547: u64 [a5 + 0x50] = a4\n 31550: a4 = u64 [sp + 0x40]\n 31553: u64 [a5 + 0x48] = a4\n 31556: a4 = u64 [sp + 0x20]\n 31559: u64 [a5 + 0x40] = a4\n 31562: u64 [a5 + 0x78] = a2\n 31565: u64 [a5 + 0x70] = a1\n 31568: u64 [a5 + 0x68] = a0\n 31571: a0 = sp + 0x380\n 31575: a1 = sp + 0x360\n 31579: a2 = sp + 0x340\n 31583: u64 [a5 + 0x60] = a3\n 31586: ra = 980, jump @963\n      : @1038 [@dyn 490] (gas: 10)\n 31592: a1 = sp + 0x300\n 31596: a0 = u64 [a1 + 0x98]\n 31600: u64 [sp + 0xa8] = a0\n 31604: a0 = u64 [a1 + 0x90]\n 31608: u64 [sp + 0xb0] = a0\n 31612: a0 = u64 [a1 + 0x88]\n 31616: u64 [sp + 0xb8] = a0\n 31620: a0 = u64 [a1 + 0x80]\n 31624: u64 [sp + 0xa0] = a0\n 31628: jump @1042\n      : @1039 (gas: 2)\n 31631: a0 = 0x20\n 31634: fallthrough\n      : @1040 (gas: 17)\n 31635: s1 = 0\n 31637: a2 = u64 [sp + 0x90]\n 31641: a1 = u64 [sp + 0x88]\n 31645: a3 = u64 [sp + 0x40]\n 31648: u64 [sp + 0x80] = a0\n 31652: u64 [sp + 0x160] = a0\n 31656: a0 = u64 [sp + 0x98]\n 31660: u64 [sp + 0x180] = a0\n 31664: u64 [sp + 360] = 0\n 31668: u64 [sp + 0x188] = a2\n 31672: u64 [sp + 368] = 0\n 31676: u64 [sp + 0x190] = a1\n 31680: u64 [sp + 376] = 0\n 31684: a0 = sp + 0x180\n 31688: a1 = sp + 0x160\n 31692: u64 [sp + 0x198] = a3\n 31696: ra = 982, jump @919\n      : @1041 [@dyn 491] (gas: 31)\n 31702: t0 = u64 [sp + 0x98]\n 31706: a1 = u64 [sp + 0x80]\n 31710: a0 = a1 + t0\n 31713: a1 = a0 <u a1\n 31716: t1 = u64 [sp + 0x90]\n 31720: a2 = t1\n 31722: a2 = a2 + a1\n 31725: a3 = a2 ^ 0\n 31727: a4 = a2 <u 0\n 31729: a4 = a1 if a3 == 0\n 31732: a5 = u64 [sp + 0x88]\n 31736: a1 = a5\n 31738: a4 = a4 + a1\n 31741: t2 = a4 <u a1\n 31744: a1 = a1 <u 0\n 31746: a3 = u64 [sp + 0x40]\n 31749: s1 = a3\n 31751: a1 = a1 + s1\n 31754: t2 = t2 + a1\n 31757: u64 [sp + 0x110] = a4\n 31761: u64 [sp + 0x108] = a2\n 31765: u64 [sp + 0x100] = a0\n 31769: u64 [sp + 0x138] = a3\n 31773: u64 [sp + 0x130] = a5\n 31777: u64 [sp + 0x128] = t1\n 31781: u64 [sp + 0x120] = t0\n 31785: a0 = sp + 0x140\n 31789: a1 = sp + 0x120\n 31793: a2 = sp + 0x100\n 31797: u64 [sp + 0x118] = t2\n 31801: ra = 984, jump @929\n      : @1042 [@dyn 492] (gas: 6)\n 31807: s1 = 0x301f0\n 31812: i32 a0 = s1 + 0\n 31814: ra = 0x3da\n 31818: ecalli 6 // 'caller'\n 31820: t0 = 0x3dc\n 31824: jump @1256\n      : @1043 [@dyn 493] (gas: 1)\n 31827: t0 = 988, jump @1256\n      : @1044 [@dyn 494] (gas: 17)\n 31833: a0 = a0 | a2\n 31836: a1 = a1 >> 0x20\n 31839: a2 = u64 [sp + 0xa8]\n 31843: u64 [sp + 0xd8] = a2\n 31847: a2 = u64 [sp + 0xb0]\n 31851: u64 [sp + 0xd0] = a2\n 31855: a2 = u64 [sp + 0xb8]\n 31859: u64 [sp + 0xc8] = a2\n 31863: s1 = u64 [sp + 0xa0]\n 31867: u64 [sp + 0xc0] = s1\n 31871: u64 [sp + 248] = 0\n 31875: u64 [sp + 0xf0] = a1\n 31879: u64 [sp + 0xe8] = a0\n 31883: a0 = sp + 0xe0\n 31887: a1 = sp + 0xc0\n 31891: u64 [sp + 0xe0] = a3\n 31895: ra = 990, jump @1210\n      : @1045 [@dyn 495] (gas: 16)\n 31901: a0 = u64 [sp + 0x48]\n 31904: a1 = u64 [sp + 0xa8]\n 31908: u64 [a0 + 0x18] = a1\n 31911: a1 = u64 [sp + 0xb0]\n 31915: u64 [a0 + 0x10] = a1\n 31918: a1 = u64 [sp + 0xb8]\n 31922: u64 [a0 + 0x8] = a1\n 31925: u64 [a0] = s1\n 31927: sp = s0 + 0xfffffffffffff800\n 31931: sp = sp + 0xffffffffffffff00\n 31935: sp = sp + 0x710\n 31939: ra = u64 [sp + 0x1e8]\n 31943: s0 = u64 [sp + 0x1e0]\n 31947: s1 = u64 [sp + 0x1d8]\n 31951: sp = sp + 0x1f0\n 31955: ret\n      : @1046 (gas: 8)\n 31957: a0 = a0 | a4\n 31960: a1 = a1 | a3\n 31963: a0 = a0 | a1\n 31966: a0 = a0 >> 0x20\n 31969: a1 = a1 | a4\n 31972: a1 = a1 << 0x20\n 31975: a0 = a0 | a1\n 31978: jump @1075 if a0 != 0\n      : @1047 (gas: 10)\n 31982: s1 = a4\n 31984: a2 = sp + 0x300\n 31988: u64 [a2 + 48] = 0\n 31991: u64 [a2 + 40] = 0\n 31994: u64 [a2 + 32] = 0\n 31997: a0 = 0x8c379a000000000\n 32007: a1 = sp + 0x320\n 32011: u64 [a2 + 0x38] = a0\n 32014: a0 = u64 [sp + 0xb8]\n 32018: ra = 992, jump @19\n      : @1048 [@dyn 496] (gas: 11)\n 32024: a0 = u64 [sp + 0xa8]\n 32028: a2 = s1 | a0\n 32031: s1 = 0x100000000\n 32041: a0 = 0xfffffffc\n 32051: a1 = u64 [sp + 0xb8]\n 32055: a0 = a1 <u a0\n 32058: a1 = u64 [sp + 0xb0]\n 32062: a0 = 0 if a1 != 0\n 32064: u64 [sp + 0xa8] = a2\n 32068: a0 = 0 if a2 != 0\n 32070: jump @1075 if a0 == 0\n      : @1049 (gas: 9)\n 32074: a0 = u64 [sp + 0xb8]\n 32078: i32 a0 = a0 + 0x4\n 32081: a2 = sp + 0x300\n 32085: u64 [a2 + 24] = 0\n 32088: u64 [a2 + 16] = 0\n 32091: u64 [a2 + 0] = 0x20\n 32094: a1 = sp + 0x300\n 32098: u64 [a2 + 8] = 0\n 32101: ra = 994, jump @19\n      : @1050 [@dyn 497] (gas: 8)\n 32107: a0 = s1 + 0xffffffffffffffdc\n 32110: a1 = u64 [sp + 0xb8]\n 32114: a0 = a1 <u a0\n 32117: a1 = u64 [sp + 0xb0]\n 32121: a0 = 0 if a1 != 0\n 32123: a1 = u64 [sp + 0xa8]\n 32127: a0 = 0 if a1 != 0\n 32129: jump @1075 if a0 == 0\n      : @1051 (gas: 9)\n 32133: s1 = u64 [sp + 0xb8]\n 32137: i32 a0 = s1 + 0x24\n 32140: a2 = sp + 0x200\n 32144: u64 [a2 + 248] = 0\n 32148: u64 [a2 + 240] = 0\n 32152: u64 [a2 + 224] = 0x26\n 32157: a1 = sp + 0x2e0\n 32161: u64 [a2 + 232] = 0\n 32165: ra = 996, jump @19\n      : @1052 [@dyn 498] (gas: 9)\n 32171: a0 = 0x100000000\n 32181: u64 [sp + 0xa0] = a0\n 32185: a0 = 0xffffffbc\n 32195: a0 = s1 <u a0\n 32198: a1 = u64 [sp + 0xb0]\n 32202: a0 = 0 if a1 != 0\n 32204: a1 = u64 [sp + 0xa8]\n 32208: a0 = 0 if a1 != 0\n 32210: jump @1075 if a0 == 0\n      : @1053 (gas: 13)\n 32214: s1 = u64 [sp + 0xb8]\n 32218: i32 a0 = s1 + 0x44\n 32221: a1 = u64 [0x20150]\n 32226: a4 = sp + 0x200\n 32230: u64 [a4 + 0xd8] = a1\n 32234: a1 = u64 [0x20158]\n 32239: a2 = u64 [0x20160]\n 32244: a3 = u64 [0x20168]\n 32249: u64 [a4 + 0xd0] = a1\n 32253: u64 [a4 + 0xc8] = a2\n 32257: a1 = sp + 0x2c0\n 32261: u64 [a4 + 0xc0] = a3\n 32265: ra = 998, jump @19\n      : @1054 [@dyn 499] (gas: 8)\n 32271: a0 = u64 [sp + 0xa0]\n 32275: a0 = a0 + 0xffffffffffffff9c\n 32278: a0 = s1 <u a0\n 32281: a1 = u64 [sp + 0xb0]\n 32285: a0 = 0 if a1 != 0\n 32287: a1 = u64 [sp + 0xa8]\n 32291: a0 = 0 if a1 != 0\n 32293: jump @1075 if a0 == 0\n      : @1055 (gas: 10)\n 32297: s1 = u64 [sp + 0xb8]\n 32301: i32 a0 = s1 + 0x64\n 32304: a1 = u64 [0x20170]\n 32309: a2 = sp + 0x200\n 32313: u64 [a2 + 176] = 0\n 32317: u64 [a2 + 168] = 0\n 32321: u64 [a2 + 0xb8] = a1\n 32325: a1 = sp + 0x2a0\n 32329: u64 [a2 + 160] = 0\n 32333: ra = 1000, jump @19\n      : @1056 [@dyn 500] (gas: 3)\n 32339: a1 = 0x84\n 32343: a0 = s1\n 32345: ra = 1002, jump @26\n      : @1057 [@dyn 501] (gas: 5)\n 32351: i32 a1 = a0 + 0\n 32353: a0 = 0x1\n 32356: a2 = 0x84\n 32360: ecalli 13 // 'seal_return'\n 32362: fallthrough\n      : @1058 (gas: 3)\n 32363: a0 = sp + 0x4c0\n 32367: a1 = 0x40\n 32370: ra = 1004, jump @17\n      : @1059 [@dyn 502] (gas: 12)\n 32376: a1 = sp + 0x400\n 32380: a0 = u64 [a1 + 0xd8]\n 32384: u64 [sp + 0xb8] = a0\n 32388: a0 = u64 [a1 + 0xd0]\n 32392: u64 [sp + 0xb0] = a0\n 32396: a0 = u64 [a1 + 0xc8]\n 32400: u64 [sp + 0xa8] = a0\n 32404: s1 = u64 [a1 + 0xc0]\n 32408: ra = 0x3ee\n 32412: ecalli 12 // 'return_data_size'\n 32414: t0 = 0x3f0\n 32418: jump @1263\n      : @1060 [@dyn 503] (gas: 1)\n 32421: t0 = 1008, jump @1263\n      : @1061 [@dyn 504] (gas: 1)\n 32427: jump @1075 if a1 != 0\n      : @1062 (gas: 3)\n 32431: s1 = a0\n 32433: a0 = a0 >> 0x20\n 32436: jump @1075 if a0 != 0\n      : @1063 (gas: 5)\n 32440: i32 a0 = s1 + 0\n 32442: u64 [sp + 0xb0] = a0\n 32446: a0 = u64 [sp + 0xb8]\n 32450: a1 = s1\n 32452: ra = 1010, jump @26\n      : @1064 [@dyn 505] (gas: 11)\n 32458: a1 = sp + 0x7ff\n 32462: a1 = a1 + 0x39\n 32465: u32 [a1 + 0x48] = s1\n 32468: s1 = a1\n 32470: i32 a0 = a0 + 0\n 32472: a1 = sp + 0x1000\n 32476: i32 a1 = a1 + 0xfffffffffffff880\n 32480: a2 = 0\n 32482: ecalli 11 // 'return_data_copy'\n 32484: a0 = i32 [s1 + 0x48]\n 32487: jump @1072\n      : @1065 (gas: 3)\n 32489: a0 = sp + 0x1a0\n 32493: a1 = 0x40\n 32496: ra = 1012, jump @17\n      : @1066 [@dyn 506] (gas: 11)\n 32502: a0 = u64 [sp + 0x1b8]\n 32506: u64 [sp + 0xb8] = a0\n 32510: a0 = u64 [sp + 0x1b0]\n 32514: u64 [sp + 0xb0] = a0\n 32518: a0 = u64 [sp + 0x1a8]\n 32522: u64 [sp + 0xa8] = a0\n 32526: s1 = u64 [sp + 0x1a0]\n 32530: ra = 0x3f6\n 32534: ecalli 12 // 'return_data_size'\n 32536: t0 = 0x3f8\n 32540: jump @1263\n      : @1067 [@dyn 507] (gas: 1)\n 32543: t0 = 1016, jump @1263\n      : @1068 [@dyn 508] (gas: 1)\n 32549: jump @1075 if a1 != 0\n      : @1069 (gas: 3)\n 32552: s1 = a0\n 32554: a0 = a0 >> 0x20\n 32557: jump @1075 if a0 != 0\n      : @1070 (gas: 5)\n 32560: i32 a0 = s1 + 0\n 32562: u64 [sp + 0xb0] = a0\n 32566: a0 = u64 [sp + 0xb8]\n 32570: a1 = s1\n 32572: ra = 1018, jump @26\n      : @1071 [@dyn 509] (gas: 7)\n 32578: u32 [sp + 0x7c0] = s1\n 32582: i32 a0 = a0 + 0\n 32584: i32 a1 = sp + 0x7c0\n 32588: a2 = 0\n 32590: ecalli 11 // 'return_data_copy'\n 32592: a0 = i32 [sp + 0x7c0]\n 32596: fallthrough\n      : @1072 (gas: 2)\n 32597: a1 = u64 [sp + 0xb0]\n 32601: jump @1075 if a0 <u a1\n      : @1073 (gas: 2)\n 32604: ecalli 12 // 'return_data_size'\n 32606: fallthrough\n      : @1074 (gas: 3)\n 32607: s1 = a0\n 32609: a0 = a0 >> 0x20\n 32612: jump @1076 if a0 == 0\n      : @1075 (gas: 1)\n 32615: trap\n      : @1076 (gas: 3)\n 32616: a0 = u64 [sp + 0xb8]\n 32620: a1 = s1\n 32622: ra = 1020, jump @26\n      : @1077 [@dyn 510] (gas: 6)\n 32628: i32 a1 = a0 + 0\n 32630: i32 a2 = s1 + 0\n 32632: a0 = 0x1\n 32635: ra = 0x3fe\n 32639: ecalli 13 // 'seal_return'\n 32641: fallthrough\n      : @1078 [@dyn 511] (gas: 14)\n 32642: sp = sp + 0xfffffffffffffe00\n 32646: u64 [sp + 0x1f8] = ra\n 32650: u64 [sp + 0x1f0] = s0\n 32654: u64 [sp + 0x1e8] = s1\n 32658: s0 = sp + 0x200\n 32662: sp = sp & 0xffffffffffffffe0\n 32665: u64 [sp + 0x28] = a0\n 32668: u64 [sp + 376] = 0\n 32672: u64 [sp + 368] = 0\n 32676: u64 [sp + 360] = 0\n 32680: u64 [sp + 352] = 0x5\n 32685: a0 = sp + 0x140\n 32689: a1 = sp + 0x160\n 32693: ra = 1024, jump @21\n      : @1079 [@dyn 512] (gas: 9)\n 32699: a0 = u64 [sp + 0x150]\n 32703: u64 [sp + 0x38] = a0\n 32706: a0 = u64 [sp + 0x148]\n 32710: u64 [sp + 0x30] = a0\n 32713: a0 = u64 [sp + 0x140]\n 32717: u64 [sp + 0x40] = a0\n 32720: a0 = sp + 0x120\n 32724: a1 = 0x40\n 32727: ra = 1026, jump @17\n      : @1080 [@dyn 513] (gas: 14)\n 32733: a2 = u64 [sp + 0x138]\n 32737: s1 = u64 [sp + 0x130]\n 32741: a1 = u64 [sp + 0x128]\n 32745: a0 = u64 [sp + 0x120]\n 32749: u64 [sp + 0x48] = a1\n 32752: u64 [sp + 0x50] = a2\n 32755: a2 = a2 | a1\n 32758: a1 = a0 | s1\n 32761: a1 = a1 | a2\n 32764: a1 = a1 >> 0x20\n 32767: a2 = a2 | s1\n 32770: a2 = a2 << 0x20\n 32773: a1 = a1 | a2\n 32776: jump @1108 if a1 != 0\n      : @1081 (gas: 8)\n 32780: u64 [sp + 272] = 0\n 32784: u64 [sp + 264] = 0\n 32788: u64 [sp + 256] = 0\n 32792: a2 = 0x70a0823100000000\n 32802: a1 = sp + 0x100\n 32806: u64 [sp + 0x118] = a2\n 32810: u64 [sp + 0x58] = a0\n 32813: ra = 1028, jump @19\n      : @1082 [@dyn 514] (gas: 6)\n 32819: a0 = 0x301f0\n 32824: u64 [sp + 0x20] = a0\n 32827: i32 a0 = a0 + 0\n 32829: ra = 0x406\n 32833: ecalli 0 // 'address'\n 32834: fallthrough\n      : @1083 [@dyn 515] (gas: 10)\n 32835: a4 = u64 [sp + 0x58]\n 32838: u64 [sp + 0x18] = s1\n 32841: a0 = u64 [sp + 0x50]\n 32844: a0 = a0 | s1\n 32847: a1 = 0xfffffffc\n 32857: a1 = a4 <u a1\n 32860: a2 = u64 [sp + 0x48]\n 32863: a1 = 0 if a2 != 0\n 32865: a1 = 0 if a0 != 0\n 32867: jump @1108 if a1 == 0\n      : @1084 (gas: 2)\n 32871: s1 = u64 [sp + 0x20]\n 32874: t0 = 1032, jump @1256\n      : @1085 [@dyn 516] (gas: 9)\n 32880: a2 = a2 | a0\n 32883: a1 = a1 >> 0x20\n 32886: i32 a0 = a4 + 0x4\n 32889: u64 [sp + 248] = 0\n 32893: u64 [sp + 0xf0] = a1\n 32897: u64 [sp + 0xe8] = a2\n 32901: a1 = sp + 0xe0\n 32905: u64 [sp + 0xe0] = a3\n 32909: ra = 1034, jump @19\n      : @1086 [@dyn 517] (gas: 3)\n 32915: ra = 0x40c\n 32919: ecalli 10 // 'ref_time_left'\n 32921: fallthrough\n      : @1087 [@dyn 518] (gas: 9)\n 32922: a0 = u64 [sp + 0x30]\n 32925: a0 = reverse a0\n 32927: a1 = a0 << 0x20\n 32930: a2 = u64 [sp + 0x38]\n 32933: a2 = reverse a2\n 32935: a2 = a2 >> 0x20\n 32938: a1 = a1 | a2\n 32941: a2 = u64 [sp + 0x40]\n 32944: t0 = 1038, jump @1248\n      : @1088 [@dyn 519] (gas: 10)\n 32950: u64 [s1 + 0x8] = a0\n 32953: u64 [s1] = a1\n 32955: u32 [s1 + 0x10] = a2\n 32958: u64 [sp + 408] = 0\n 32962: u64 [sp + 400] = 0\n 32966: u64 [sp + 392] = 0\n 32970: u64 [sp + 384] = 0\n 32974: a1 = 0x24\n 32977: a0 = u64 [sp + 0x58]\n 32980: ra = 1040, jump @26\n      : @1089 [@dyn 520] (gas: 4)\n 32986: u64 [sp + 0x40] = a0\n 32989: a1 = 0x20\n 32992: a0 = u64 [sp + 0x58]\n 32995: ra = 1042, jump @26\n      : @1090 [@dyn 521] (gas: 30)\n 33001: u32 [sp + 416] = 0x20\n 33006: u64 [sp + 472] = 0\n 33010: u64 [sp + 464] = 0\n 33014: u64 [sp + 456] = 0\n 33018: u64 [sp + 448] = 0\n 33022: s1 = s1 << 0x20\n 33025: s1 = s1 >> 0x20\n 33028: a1 = 0x1800000000\n 33038: t0 = s1 | a1\n 33041: a1 = sp + 0x180\n 33045: a1 = a1 << 0x20\n 33048: a1 = a1 >> 0x20\n 33051: a2 = sp + 0x1c0\n 33055: a2 = a2 << 0x20\n 33058: a3 = a2 | a1\n 33061: a1 = u64 [sp + 0x40]\n 33064: a1 = a1 << 0x20\n 33067: a1 = a1 >> 0x20\n 33070: a2 = 0x2400000000\n 33080: a4 = a1 | a2\n 33083: a0 = a0 << 0x20\n 33086: a0 = a0 >> 0x20\n 33089: a1 = sp + 0x1a0\n 33093: a1 = a1 << 0x20\n 33096: a5 = a1 | a0\n 33099: a1 = 0xffffffffffffffff\n 33102: a2 = 0xffffffffffffffff\n 33105: a0 = t0\n 33107: ecalli 2 // 'call'\n 33109: fallthrough\n      : @1091 (gas: 1)\n 33110: jump @1099 if a0 != 0\n      : @1092 (gas: 2)\n 33114: ecalli 12 // 'return_data_size'\n 33116: fallthrough\n      : @1093 (gas: 2)\n 33117: a4 = 0x20\n 33120: jump @1095 if a0 >=u a4\n      : @1094 (gas: 3)\n 33123: ecalli 12 // 'return_data_size'\n 33125: a4 = a0\n 33127: fallthrough\n      : @1095 (gas: 17)\n 33128: s1 = 0\n 33130: a2 = u64 [sp + 0x58]\n 33133: a3 = u64 [sp + 0x50]\n 33136: a0 = u64 [sp + 0x18]\n 33139: a1 = u64 [sp + 0x48]\n 33142: u64 [sp + 0x50] = a4\n 33145: u64 [sp + 0x80] = a4\n 33149: u64 [sp + 0xa0] = a2\n 33153: u64 [sp + 136] = 0\n 33157: u64 [sp + 0xa8] = a1\n 33161: u64 [sp + 144] = 0\n 33165: u64 [sp + 0xb0] = a0\n 33169: u64 [sp + 152] = 0\n 33173: a0 = sp + 0xa0\n 33177: a1 = sp + 0x80\n 33181: u64 [sp + 0xb8] = a3\n 33185: ra = 1044, jump @919\n      : @1096 [@dyn 522] (gas: 8)\n 33191: a1 = u64 [sp + 0x50]\n 33194: a1 = a1 <u 0x20\n 33197: a1 = a1 ^ 0x1\n 33200: a0 = 0\n 33202: a2 = a0\n 33204: s1 = 0\n 33206: a2 = a1 if s1 == 0\n 33209: jump @1109 if a2 == 0\n      : @1097 (gas: 3)\n 33213: a0 = sp + 0x60\n 33216: a1 = u64 [sp + 0x58]\n 33219: ra = 1046, jump @17\n      : @1098 [@dyn 523] (gas: 15)\n 33226: a0 = u64 [sp + 0x70]\n 33229: a1 = u64 [sp + 0x78]\n 33232: a2 = u64 [sp + 0x60]\n 33235: a3 = u64 [sp + 0x68]\n 33238: a4 = u64 [sp + 0x28]\n 33241: u64 [a4 + 0x10] = a0\n 33244: u64 [a4 + 0x18] = a1\n 33247: u64 [a4] = a2\n 33249: u64 [a4 + 0x8] = a3\n 33252: sp = s0 + 0xfffffffffffffe00\n 33256: ra = u64 [sp + 0x1f8]\n 33260: s0 = u64 [sp + 0x1f0]\n 33264: s1 = u64 [sp + 0x1e8]\n 33268: sp = sp + 0x200\n 33272: ret\n      : @1099 (gas: 3)\n 33274: a0 = sp + 0xc0\n 33278: a1 = 0x40\n 33281: ra = 1048, jump @17\n      : @1100 [@dyn 524] (gas: 9)\n 33288: a0 = u64 [sp + 0xd8]\n 33292: u64 [sp + 0x58] = a0\n 33295: a0 = u64 [sp + 0xd0]\n 33299: u64 [sp + 0x50] = a0\n 33302: a0 = u64 [sp + 0xc8]\n 33306: u64 [sp + 0x48] = a0\n 33309: s1 = u64 [sp + 0xc0]\n 33313: ecalli 12 // 'return_data_size'\n 33315: fallthrough\n      : @1101 (gas: 12)\n 33316: a1 = u64 [sp + 0x58]\n 33319: a2 = u64 [sp + 0x48]\n 33322: a1 = a1 | a2\n 33325: u64 [sp + 0x58] = s1\n 33328: a3 = u64 [sp + 0x50]\n 33331: a2 = s1 | a3\n 33334: a2 = a2 | a1\n 33337: a2 = a2 >> 0x20\n 33340: a1 = a1 | a3\n 33343: a1 = a1 << 0x20\n 33346: a1 = a1 | a2\n 33349: jump @1108 if a1 != 0\n      : @1102 (gas: 3)\n 33352: s1 = a0\n 33354: a0 = a0 >> 0x20\n 33357: jump @1108 if a0 != 0\n      : @1103 (gas: 5)\n 33360: i32 a0 = s1 + 0\n 33362: u64 [sp + 0x50] = a0\n 33365: a0 = u64 [sp + 0x58]\n 33368: a1 = s1\n 33370: ra = 1050, jump @26\n      : @1104 [@dyn 525] (gas: 6)\n 33376: u32 [sp + 0x1e0] = s1\n 33380: i32 a0 = a0 + 0\n 33382: i32 a1 = sp + 0x1e0\n 33386: a2 = 0\n 33388: ecalli 11 // 'return_data_copy'\n 33390: fallthrough\n      : @1105 (gas: 3)\n 33391: a0 = i32 [sp + 0x1e0]\n 33395: a1 = u64 [sp + 0x50]\n 33398: jump @1108 if a0 <u a1\n      : @1106 (gas: 2)\n 33401: ecalli 12 // 'return_data_size'\n 33403: fallthrough\n      : @1107 (gas: 3)\n 33404: s1 = a0\n 33406: a0 = a0 >> 0x20\n 33409: jump @1110 if a0 == 0\n      : @1108 (gas: 1)\n 33412: trap\n      : @1109 (gas: 5)\n 33413: a1 = 0x201f0\n 33418: i32 a1 = a1 + 0\n 33420: a0 = 0x1\n 33423: ecalli 13 // 'seal_return'\n 33425: fallthrough\n      : @1110 (gas: 3)\n 33426: a0 = u64 [sp + 0x58]\n 33429: a1 = s1\n 33431: ra = 1052, jump @26\n      : @1111 [@dyn 526] (gas: 5)\n 33437: i32 a1 = a0 + 0\n 33439: i32 a2 = s1 + 0\n 33441: a0 = 0x1\n 33444: ecalli 13 // 'seal_return'\n 33446: jump @1110\n      : @1112 (gas: 22)\n 33448: sp = sp + 0xffffffffffffff50\n 33452: u64 [sp + 0xa8] = ra\n 33456: u64 [sp + 0xa0] = s0\n 33460: u64 [sp + 0x98] = s1\n 33464: s0 = sp + 0xb0\n 33468: sp = sp & 0xfffffffffffffff0\n 33471: a5 = u64 [a1 + 0x10]\n 33474: a4 = u64 [a1 + 0x18]\n 33477: s1 = u64 [a1 + 0x8]\n 33480: t0 = u64 [a1]\n 33482: u64 [sp + 0x40] = a4\n 33485: u64 [sp + 0x38] = s1\n 33488: a1 = s1 | a4\n 33491: a4 = t0 | a5\n 33494: a4 = a4 | a1\n 33497: a4 = a4 >> 0x20\n 33500: u64 [sp + 0x48] = a5\n 33503: a1 = a1 | a5\n 33506: a1 = a1 << 0x20\n 33509: a1 = a1 | a4\n 33512: u64 [sp + 0x30] = a0\n 33515: jump @1117 if a1 != 0\n      : @1113 (gas: 21)\n 33519: s1 = t0\n 33521: a0 = u64 [a3 + 0x18]\n 33524: u64 [sp + 0x28] = a0\n 33527: a0 = u64 [a3 + 0x10]\n 33530: u64 [sp + 0x20] = a0\n 33533: a0 = u64 [a3 + 0x8]\n 33536: u64 [sp + 0x18] = a0\n 33539: a0 = u64 [a3]\n 33541: u64 [sp + 0x10] = a0\n 33544: a0 = u64 [a2 + 0x10]\n 33547: a1 = u64 [a2 + 0x8]\n 33550: a2 = u64 [a2]\n 33552: a0 = a0 << 0x20\n 33555: a0 = a0 >> 0x20\n 33558: u64 [sp + 136] = 0\n 33562: u64 [sp + 0x70] = a2\n 33565: u64 [sp + 0x78] = a1\n 33568: a1 = sp + 0x70\n 33571: u64 [sp + 0x80] = a0\n 33575: a0 = t0\n 33577: ra = 1054, jump @19\n      : @1114 [@dyn 527] (gas: 9)\n 33584: a2 = u64 [sp + 0x48]\n 33587: a3 = u64 [sp + 0x40]\n 33590: a0 = a2 | a3\n 33593: a1 = 0xffffffe0\n 33603: a1 = s1 <u a1\n 33606: a4 = u64 [sp + 0x38]\n 33609: a1 = 0 if a4 != 0\n 33611: a1 = 0 if a0 != 0\n 33613: jump @1117 if a1 == 0\n      : @1115 (gas: 23)\n 33616: a0 = s1 + 0x40\n 33619: u64 [sp + 0x8] = a0\n 33622: a0 = a0 <u s1\n 33625: a1 = a4 + a0\n 33628: u64 [sp] = a1\n 33630: a1 = a1 <u a4\n 33633: a1 = a0 if a0 == 0\n 33636: a1 = a1 + a2\n 33639: u64 [sp + 0x38] = a1\n 33642: a0 = a1 <u a2\n 33645: a0 = a0 + a3\n 33648: u64 [sp + 0x48] = a0\n 33651: i32 a0 = s1 + 0x20\n 33654: a1 = u64 [sp + 0x10]\n 33657: u64 [sp + 0x50] = a1\n 33660: a1 = u64 [sp + 0x18]\n 33663: u64 [sp + 0x58] = a1\n 33666: a1 = u64 [sp + 0x20]\n 33669: u64 [sp + 0x60] = a1\n 33672: a1 = sp + 0x50\n 33675: a2 = u64 [sp + 0x28]\n 33678: u64 [sp + 0x68] = a2\n 33681: ra = 1056, jump @19\n      : @1116 [@dyn 528] (gas: 15)\n 33688: a0 = u64 [sp + 0x30]\n 33691: a1 = u64 [sp + 0x38]\n 33694: u64 [a0 + 0x10] = a1\n 33697: a1 = u64 [sp]\n 33699: u64 [a0 + 0x8] = a1\n 33702: a1 = u64 [sp + 0x8]\n 33705: u64 [a0] = a1\n 33707: a1 = u64 [sp + 0x48]\n 33710: u64 [a0 + 0x18] = a1\n 33713: sp = s0 + 0xffffffffffffff50\n 33717: ra = u64 [sp + 0xa8]\n 33721: s0 = u64 [sp + 0xa0]\n 33725: s1 = u64 [sp + 0x98]\n 33729: sp = sp + 0xb0\n 33733: ret\n      : @1117 (gas: 1)\n 33735: trap\n      : @1118 (gas: 45)\n 33736: sp = sp + 0xffffffffffffff90\n 33739: u64 [sp + 0x68] = ra\n 33742: u64 [sp + 0x60] = s0\n 33745: u64 [sp + 0x58] = s1\n 33748: s0 = sp + 0x70\n 33751: sp = sp & 0xfffffffffffffff0\n 33754: a3 = u64 [a1 + 0x18]\n 33757: u64 [sp + 0x8] = a3\n 33760: a4 = u64 [a2 + 0x18]\n 33763: t2 = u64 [a1]\n 33765: u64 [sp] = t2\n 33767: a3 = u64 [a1 + 0x8]\n 33770: s1 = u64 [a2 + 0x8]\n 33773: a5 = u64 [a2]\n 33775: t1 = u64 [a1 + 0x10]\n 33778: t0 = u64 [a2 + 0x10]\n 33781: a2 = s1 + a3\n 33784: t2 = t2 + a5\n 33787: a5 = t2 <u a5\n 33790: a2 = a2 + a5\n 33793: ra = a2 ^ s1\n 33796: s1 = a2 <u s1\n 33799: s1 = a5 if ra == 0\n 33802: a1 = t0 + t1\n 33805: a5 = u64 [sp + 0x8]\n 33808: a5 = a5 + a4\n 33811: a4 = a1 <u t0\n 33814: a4 = a4 + a5\n 33817: a5 = a1 + s1\n 33820: a1 = a5 <u a1\n 33823: ra = a4 + a1\n 33826: a4 = a2 ^ a3\n 33829: a3 = a2 <u a3\n 33832: a1 = u64 [sp]\n 33834: s1 = t2 <u a1\n 33837: s1 = a3 if a4 != 0\n 33840: t0 = a5 <u t1\n 33843: a1 = u64 [sp + 0x8]\n 33846: a4 = ra ^ a1\n 33849: a3 = ra <u a1\n 33852: a3 = t0 if a4 == 0\n 33855: a1 = a5 ^ t1\n 33858: a1 = a1 | a4\n 33861: s1 = a3 if a1 != 0\n 33864: jump @1120 if s1 != 0\n      : @1119 (gas: 10)\n 33867: u64 [a0] = t2\n 33869: u64 [a0 + 0x8] = a2\n 33872: u64 [a0 + 0x10] = a5\n 33875: u64 [a0 + 0x18] = ra\n 33878: sp = s0 + 0xffffffffffffff90\n 33881: ra = u64 [sp + 0x68]\n 33884: s0 = u64 [sp + 0x60]\n 33887: s1 = u64 [sp + 0x58]\n 33890: sp = sp + 0x70\n 33893: ret\n      : @1120 (gas: 1)\n 33895: t0 = 1058, jump @1272\n      : @1121 [@dyn 529] (gas: 1)\n 33901: ra = 1060, jump @19\n      : @1122 [@dyn 530] (gas: 7)\n 33908: u64 [sp + 40] = 0\n 33911: u64 [sp + 32] = 0\n 33914: u64 [sp + 16] = 0x11\n 33918: a0 = 0x4\n 33921: a1 = sp + 0x10\n 33924: u64 [sp + 24] = 0\n 33927: ra = 1062, jump @19\n      : @1123 [@dyn 531] (gas: 2)\n 33934: a1 = i32 [0x201dc]\n 33939: jump @1125 if a1 >u 63\n      : @1124 (gas: 2)\n 33943: u32 [0x201dc] = 0x40\n 33949: fallthrough\n      : @1125 (gas: 7)\n 33950: a1 = 0x201f0\n 33955: i32 a1 = a1 + 0\n 33957: a0 = 0x1\n 33960: a2 = 0x24\n 33963: ra = 0x428\n 33967: ecalli 13 // 'seal_return'\n 33969: fallthrough\n      : @1126 [@dyn 532] (gas: 20)\n 33970: sp = sp + 0xfffffffffffffd50\n 33974: a4 = sp + 0x200\n 33978: u64 [a4 + 0xa8] = ra\n 33982: u64 [a4 + 0xa0] = s0\n 33986: u64 [a4 + 0x98] = s1\n 33990: s0 = sp + 0x2b0\n 33994: sp = sp & 0xfffffffffffffff0\n 33997: t0 = u64 [a2 + 0x10]\n 34000: a5 = u64 [a2 + 0x18]\n 34003: s1 = u64 [a2 + 0x8]\n 34006: a4 = u64 [a2]\n 34008: u64 [sp + 0x28] = a5\n 34011: u64 [sp + 0x18] = s1\n 34014: a2 = s1 | a5\n 34017: u64 [sp + 0x30] = a4\n 34020: u64 [sp + 0x20] = t0\n 34023: a4 = a4 | t0\n 34026: a2 = a2 | a4\n 34029: u64 [sp + 0x38] = a0\n 34032: jump @1135 if a2 == 0\n      : @1127 (gas: 10)\n 34036: a2 = u64 [a3 + 0x18]\n 34039: a0 = u64 [a3 + 0x10]\n 34042: ra = u64 [a3]\n 34044: t2 = u64 [a3 + 0x8]\n 34047: u64 [sp + 0x8] = a0\n 34050: a0 = ra | a0\n 34053: u64 [sp + 0x10] = a2\n 34056: a2 = t2 | a2\n 34059: a0 = a0 | a2\n 34062: jump @1135 if a0 == 0\n      : @1128 (gas: 24)\n 34066: t1 = u64 [a1 + 0x18]\n 34069: a5 = u64 [a1]\n 34071: a4 = u64 [a1 + 0x8]\n 34074: t0 = u64 [a1 + 0x10]\n 34077: a1 = 0x63\n 34080: a0 = a5 mulhu a1\n 34083: a2 = a4 * a1\n 34086: a0 = a0 + a2\n 34089: u64 [sp + 0x48] = a0\n 34092: a0 = a0 <u a2\n 34095: a2 = a4 mulhu a1\n 34098: a0 = a0 + a2\n 34101: a2 = t0 * a1\n 34104: a2 = a2 + a0\n 34107: u64 [sp + 0x40] = a2\n 34110: a0 = a2 <u a0\n 34113: a3 = t0 mulhu a1\n 34116: a2 = t1 * a1\n 34119: a2 = a2 + a3\n 34122: s1 = a5 | t0\n 34125: a4 = a4 | t1\n 34128: a4 = a4 | s1\n 34131: s1 = a2 + a0\n 34134: jump @1130 if a4 == 0\n      : @1129 (gas: 7)\n 34137: a0 = 0 if s1 != 0\n 34139: a2 = a2 <u a3\n 34142: a3 = t1 mulhu a1\n 34145: a3 = a3 >u 0\n 34147: a2 = a2 | a3\n 34150: a0 = a0 | a2\n 34153: jump @1150 if a0 != 0\n      : @1130 (gas: 20)\n 34157: a0 = a5 * 0x63\n 34160: u64 [sp + 0x1f0] = ra\n 34164: u64 [sp] = a0\n 34166: a3 = sp + 0x200\n 34170: u64 [a3 + 0x10] = a0\n 34173: u64 [sp + 0x1f8] = t2\n 34177: a0 = u64 [sp + 0x48]\n 34180: u64 [a3 + 0x18] = a0\n 34183: a0 = u64 [sp + 0x8]\n 34186: u64 [a3] = a0\n 34188: a0 = u64 [sp + 0x40]\n 34191: u64 [a3 + 0x20] = a0\n 34194: a0 = u64 [sp + 0x10]\n 34197: u64 [a3 + 0x8] = a0\n 34200: a0 = sp + 0x230\n 34204: a1 = sp + 0x210\n 34208: a2 = sp + 0x1f0\n 34212: u64 [sp + 0x10] = s1\n 34215: u64 [a3 + 0x28] = s1\n 34218: ra = 1066, jump @954\n      : @1131 [@dyn 533] (gas: 25)\n 34224: a1 = 0x64\n 34227: s1 = u64 [sp + 0x30]\n 34230: a0 = s1 mulhu a1\n 34233: a3 = u64 [sp + 0x18]\n 34236: a2 = a3 * a1\n 34239: t1 = a2 + a0\n 34242: a2 = t1 <u a2\n 34245: a3 = a3 mulhu a1\n 34248: a3 = a3 + a2\n 34251: a0 = u64 [sp + 0x20]\n 34254: a2 = a0 * a1\n 34257: a2 = a2 + a3\n 34260: a4 = a2 <u a3\n 34263: a5 = a0 mulhu a1\n 34266: a0 = u64 [sp + 0x28]\n 34269: a3 = a0 * a1\n 34272: a3 = a3 + a5\n 34275: t0 = a3 + a4\n 34278: a4 = 0 if t0 != 0\n 34280: a3 = a3 <u a5\n 34283: a5 = a0 mulhu a1\n 34286: a5 = a5 >u 0\n 34288: a3 = a3 | a5\n 34291: a3 = a3 | a4\n 34294: jump @1144 if a3 != 0\n      : @1132 (gas: 26)\n 34298: a3 = sp + 0x200\n 34302: a0 = u64 [a3 + 0x48]\n 34305: u64 [sp + 0x8] = a0\n 34308: a0 = u64 [a3 + 0x40]\n 34311: u64 [sp + 0x18] = a0\n 34314: a0 = u64 [a3 + 0x38]\n 34317: u64 [sp + 0x20] = a0\n 34320: a0 = u64 [a3 + 0x30]\n 34323: u64 [sp + 0x28] = a0\n 34326: a1 = s1 * 0x64\n 34329: a0 = u64 [sp]\n 34331: u64 [sp + 0x190] = a0\n 34335: u64 [sp + 0x1b0] = a1\n 34339: a0 = u64 [sp + 0x48]\n 34342: u64 [sp + 0x198] = a0\n 34346: u64 [sp + 0x1b8] = t1\n 34350: a0 = u64 [sp + 0x40]\n 34353: u64 [sp + 0x1a0] = a0\n 34357: u64 [sp + 0x1c0] = a2\n 34361: a0 = u64 [sp + 0x10]\n 34364: u64 [sp + 0x1a8] = a0\n 34368: a0 = sp + 0x1d0\n 34372: a1 = sp + 0x1b0\n 34376: a2 = sp + 0x190\n 34380: u64 [sp + 0x1c8] = t0\n 34384: ra = 1068, jump @1118\n      : @1133 [@dyn 534] (gas: 20)\n 34390: a0 = u64 [sp + 0x1d0]\n 34394: a1 = u64 [sp + 0x1d8]\n 34398: a2 = u64 [sp + 0x1e0]\n 34402: a3 = u64 [sp + 0x1e8]\n 34406: u64 [sp + 0x148] = a3\n 34410: u64 [sp + 0x140] = a2\n 34414: u64 [sp + 0x138] = a1\n 34418: u64 [sp + 0x130] = a0\n 34422: a0 = u64 [sp + 0x8]\n 34425: u64 [sp + 0x168] = a0\n 34429: a0 = u64 [sp + 0x18]\n 34432: u64 [sp + 0x160] = a0\n 34436: a0 = u64 [sp + 0x20]\n 34439: u64 [sp + 0x158] = a0\n 34443: a0 = sp + 0x170\n 34447: a1 = sp + 0x150\n 34451: a2 = sp + 0x130\n 34455: a3 = u64 [sp + 0x28]\n 34458: u64 [sp + 0x150] = a3\n 34462: ra = 1070, jump @963\n      : @1134 [@dyn 535] (gas: 16)\n 34468: a0 = u64 [sp + 0x180]\n 34472: a1 = u64 [sp + 0x188]\n 34476: a2 = u64 [sp + 0x170]\n 34480: a3 = u64 [sp + 0x178]\n 34484: a4 = u64 [sp + 0x38]\n 34487: u64 [a4 + 0x10] = a0\n 34490: u64 [a4 + 0x18] = a1\n 34493: u64 [a4] = a2\n 34495: u64 [a4 + 0x8] = a3\n 34498: sp = s0 + 0xfffffffffffffd50\n 34502: a0 = sp + 0x200\n 34506: ra = u64 [a0 + 0xa8]\n 34510: s0 = u64 [a0 + 0xa0]\n 34514: s1 = u64 [a0 + 0x98]\n 34518: sp = sp + 0x2b0\n 34522: ret\n      : @1135 (gas: 3)\n 34524: a0 = sp + 0xd0\n 34528: a1 = 0x40\n 34531: ra = 1072, jump @17\n      : @1136 [@dyn 536] (gas: 15)\n 34538: a2 = u64 [sp + 0xe8]\n 34542: s1 = u64 [sp + 0xe0]\n 34546: a0 = u64 [sp + 0xd8]\n 34550: a1 = u64 [sp + 0xd0]\n 34554: u64 [sp + 0x40] = a0\n 34557: u64 [sp + 0x38] = a2\n 34560: a0 = a0 | a2\n 34563: u64 [sp + 0x48] = a1\n 34566: a1 = a1 | s1\n 34569: a1 = a1 | a0\n 34572: a1 = a1 >> 0x20\n 34575: a0 = a0 | s1\n 34578: a0 = a0 << 0x20\n 34581: a0 = a0 | a1\n 34584: jump @1143 if a0 != 0\n      : @1137 (gas: 8)\n 34588: u64 [sp + 192] = 0\n 34592: u64 [sp + 184] = 0\n 34596: u64 [sp + 176] = 0\n 34600: a0 = 0x8c379a000000000\n 34610: a1 = sp + 0xb0\n 34614: u64 [sp + 0xc8] = a0\n 34618: a0 = u64 [sp + 0x48]\n 34621: ra = 1074, jump @19\n      : @1138 [@dyn 537] (gas: 11)\n 34628: a2 = u64 [sp + 0x38]\n 34631: a2 = a2 | s1\n 34634: s1 = 0x100000000\n 34644: a0 = 0xfffffffc\n 34654: a1 = u64 [sp + 0x48]\n 34657: a0 = a1 <u a0\n 34660: a1 = u64 [sp + 0x40]\n 34663: a0 = 0 if a1 != 0\n 34665: u64 [sp + 0x38] = a2\n 34668: a0 = 0 if a2 != 0\n 34670: jump @1143 if a0 == 0\n      : @1139 (gas: 8)\n 34673: a0 = u64 [sp + 0x48]\n 34676: i32 a0 = a0 + 0x4\n 34679: u64 [sp + 168] = 0\n 34683: u64 [sp + 160] = 0\n 34687: u64 [sp + 144] = 0x20\n 34692: a1 = sp + 0x90\n 34696: u64 [sp + 152] = 0\n 34700: ra = 1076, jump @19\n      : @1140 [@dyn 538] (gas: 8)\n 34707: a0 = s1 + 0xffffffffffffffdc\n 34710: a1 = u64 [sp + 0x48]\n 34713: a0 = a1 <u a0\n 34716: a1 = u64 [sp + 0x40]\n 34719: a0 = 0 if a1 != 0\n 34721: a1 = u64 [sp + 0x38]\n 34724: a0 = 0 if a1 != 0\n 34726: jump @1143 if a0 == 0\n      : @1141 (gas: 8)\n 34729: s1 = u64 [sp + 0x48]\n 34732: i32 a0 = s1 + 0x24\n 34735: u64 [sp + 136] = 0\n 34739: u64 [sp + 128] = 0\n 34743: u64 [sp + 112] = 0x1f\n 34747: a1 = sp + 0x70\n 34750: u64 [sp + 120] = 0\n 34753: ra = 1078, jump @19\n      : @1142 [@dyn 539] (gas: 7)\n 34760: a0 = 0xffffffbc\n 34770: a0 = s1 <u a0\n 34773: a1 = u64 [sp + 0x40]\n 34776: a0 = 0 if a1 != 0\n 34778: a1 = u64 [sp + 0x38]\n 34781: a0 = 0 if a1 != 0\n 34783: jump @1157 if a0 != 0\n      : @1143 (gas: 1)\n 34787: trap\n      : @1144 (gas: 6)\n 34788: u64 [sp + 288] = 0\n 34792: u64 [sp + 280] = 0\n 34796: u64 [sp + 272] = 0\n 34800: t0 = 0x438\n 34804: a0 = 0x4e487b7100000000\n 34814: fallthrough\n      : @1145 [@dyn 540] (gas: 4)\n 34815: a1 = sp + 0x110\n 34819: u64 [sp + 0x128] = a0\n 34823: a0 = 0\n 34825: ra = 1082, jump @19\n      : @1146 [@dyn 541] (gas: 7)\n 34832: u64 [sp + 264] = 0\n 34836: u64 [sp + 256] = 0\n 34840: u64 [sp + 240] = 0x11\n 34845: a0 = 0x4\n 34848: a1 = sp + 0xf0\n 34852: u64 [sp + 248] = 0\n 34856: ra = 1084, jump @19\n      : @1147 [@dyn 542] (gas: 2)\n 34863: a1 = i32 [0x201dc]\n 34868: jump @1149 if a1 >u 63\n      : @1148 (gas: 3)\n 34872: u32 [0x201dc] = 0x40\n 34878: a1 = 0x201f0\n 34883: jump @1156\n      : @1149 (gas: 2)\n 34885: a1 = 0x201f0\n 34890: jump @1156\n      : @1150 (gas: 7)\n 34892: a2 = sp + 0x200\n 34896: u64 [a2 + 128] = 0\n 34900: u64 [a2 + 120] = 0\n 34903: u64 [a2 + 112] = 0\n 34906: t0 = 0x43e\n 34910: a0 = 0x4e487b7100000000\n 34920: fallthrough\n      : @1151 [@dyn 543] (gas: 4)\n 34921: a1 = sp + 0x270\n 34925: u64 [a2 + 0x88] = a0\n 34929: a0 = 0\n 34931: ra = 1088, jump @19\n      : @1152 [@dyn 544] (gas: 8)\n 34938: a2 = sp + 0x200\n 34942: u64 [a2 + 104] = 0\n 34945: u64 [a2 + 96] = 0\n 34948: u64 [a2 + 80] = 0x11\n 34952: a0 = 0x4\n 34955: a1 = sp + 0x250\n 34959: u64 [a2 + 88] = 0\n 34962: ra = 1090, jump @19\n      : @1153 [@dyn 545] (gas: 2)\n 34969: a1 = i32 [0x201dc]\n 34974: jump @1155 if a1 >u 63\n      : @1154 (gas: 3)\n 34978: u32 [0x201dc] = 0x40\n 34984: a1 = 0x201f0\n 34989: jump @1156\n      : @1155 (gas: 2)\n 34991: a1 = 0x201f0\n 34996: fallthrough\n      : @1156 (gas: 5)\n 34997: i32 a1 = a1 + 0\n 34999: a0 = 0x1\n 35002: a2 = 0x24\n 35005: ecalli 13 // 'seal_return'\n 35007: fallthrough\n      : @1157 (gas: 12)\n 35008: s1 = u64 [sp + 0x48]\n 35011: i32 a0 = s1 + 0x44\n 35014: a1 = u64 [0x20178]\n 35019: u64 [sp + 0x68] = a1\n 35022: a1 = u64 [0x20180]\n 35027: a2 = u64 [0x20188]\n 35032: a3 = u64 [0x20190]\n 35037: u64 [sp + 0x60] = a1\n 35040: u64 [sp + 0x58] = a2\n 35043: a1 = sp + 0x50\n 35046: u64 [sp + 0x50] = a3\n 35049: ra = 1092, jump @19\n      : @1158 [@dyn 546] (gas: 3)\n 35056: a1 = 0x64\n 35059: a0 = s1\n 35061: ra = 1094, jump @26\n      : @1159 [@dyn 547] (gas: 6)\n 35068: i32 a1 = a0 + 0\n 35070: a0 = 0x1\n 35073: a2 = 0x64\n 35076: ra = 0x448\n 35080: ecalli 13 // 'seal_return'\n 35082: fallthrough\n      : @1160 [@dyn 548] (gas: 14)\n 35083: sp = sp + 0xfffffffffffffc20\n 35087: a3 = sp + 0x300\n 35091: u64 [a3 + 0xd8] = ra\n 35095: u64 [a3 + 0xd0] = s0\n 35099: u64 [a3 + 0xc8] = s1\n 35103: s0 = sp + 0x3e0\n 35107: sp = sp & 0xffffffffffffffe0\n 35110: s1 = sp\n 35112: t2 = u32 [a0 + 0x10]\n 35115: a3 = u64 [a0]\n 35117: a4 = u64 [a0 + 0x8]\n 35120: a0 = a3 | t2\n 35123: a0 = a0 | a4\n 35126: jump @1192 if a0 == 0\n      : @1161 (gas: 13)\n 35130: t0 = u64 [a1 + 0x10]\n 35133: t1 = u64 [a1 + 0x8]\n 35136: ra = u64 [a1]\n 35138: a5 = 0xffffffff\n 35148: a1 = t1 & 0xffffffffffffffff\n 35151: a0 = ra & 0xffffffffffffffff\n 35154: a5 = t0 & a5\n 35157: u64 [s1 + 0x48] = a0\n 35160: u64 [s1 + 0x38] = a5\n 35163: a0 = a0 | a5\n 35166: u64 [s1 + 0x40] = a1\n 35169: a0 = a0 | a1\n 35172: jump @1197 if a0 == 0\n      : @1162 (gas: 18)\n 35176: a0 = u64 [a2 + 0x18]\n 35179: u64 [s1 + 0x98] = a0\n 35183: a0 = u64 [a2 + 0x10]\n 35186: u64 [s1 + 0x88] = a0\n 35190: a0 = u64 [a2 + 0x8]\n 35193: u64 [s1 + 0x80] = a0\n 35197: a0 = u64 [a2]\n 35199: u64 [s1 + 0x90] = a0\n 35203: u64 [s1 + 824] = 0\n 35207: u64 [s1 + 0x60] = a3\n 35210: u64 [s1 + 0x320] = a3\n 35214: u64 [s1 + 0x58] = a4\n 35217: u64 [s1 + 0x328] = a4\n 35221: a1 = s1 + 0x320\n 35225: u64 [s1 + 0x50] = t2\n 35228: u64 [s1 + 0x330] = t2\n 35232: a0 = 0\n 35234: ra = 1098, jump @19\n      : @1163 [@dyn 549] (gas: 7)\n 35241: u64 [s1 + 792] = 0\n 35245: u64 [s1 + 784] = 0\n 35249: u64 [s1 + 776] = 0\n 35253: a0 = 0x20\n 35256: a1 = s1 + 0x300\n 35260: u64 [s1 + 768] = 0\n 35264: ra = 1100, jump @19\n      : @1164 [@dyn 550] (gas: 3)\n 35271: a2 = 0x201dc\n 35276: a0 = i32 [0x201dc]\n 35281: jump @1166 if a0 >u 63\n      : @1165 (gas: 2)\n 35285: u32 [0x201dc] = 0x40\n 35291: fallthrough\n      : @1166 (gas: 15)\n 35292: u64 [s1 + 0x70] = a2\n 35295: a0 = sp + 0xffffffffffffffe0\n 35298: a2 = a0 & 0xffffffffffffffe0\n 35301: u64 [s1 + 0x68] = a2\n 35304: sp = a2\n 35306: a0 = 0x201f0\n 35311: i32 a0 = a0 + 0\n 35313: i32 a2 = a2 + 0\n 35315: a1 = 0x40\n 35318: u64 [s1 + 0x78] = a0\n 35321: ra = 0x44e\n 35325: ecalli 9 // 'hash_keccak_256'\n 35327: a3 = u64 [s1 + 0x68]\n 35330: t0 = 0x450\n 35334: jump @1260\n      : @1167 [@dyn 551] (gas: 2)\n 35337: a3 = u64 [s1 + 0x68]\n 35340: t0 = 1104, jump @1260\n      : @1168 [@dyn 552] (gas: 7)\n 35346: u64 [a4 + 0x58] = a3\n 35349: u64 [a4 + 0x50] = a2\n 35352: u64 [a4 + 0x48] = a1\n 35355: u64 [a4 + 0x40] = a0\n 35358: a0 = s1 + 0x2e0\n 35362: a1 = s1 + 0x340\n 35366: ra = 1106, jump @21\n      : @1169 [@dyn 553] (gas: 28)\n 35373: a1 = s1 + 0x200\n 35377: a2 = u64 [a1 + 0xf8]\n 35381: a0 = u64 [a1 + 0xf0]\n 35385: a5 = u64 [a1 + 0xe8]\n 35389: a4 = u64 [a1 + 0xe0]\n 35393: a1 = u64 [s1 + 0x98]\n 35397: t1 = a2 ^ a1\n 35400: u64 [s1 + 0x28] = a2\n 35403: a1 = a2 <u a1\n 35406: a2 = u64 [s1 + 0x88]\n 35410: a3 = a0 <u a2\n 35413: u64 [s1 + 0x10] = a3\n 35416: a1 = a3 if t1 == 0\n 35419: a3 = u64 [s1 + 0x80]\n 35423: t0 = a5 ^ a3\n 35426: u64 [s1 + 0x30] = a5\n 35429: a5 = a5 <u a3\n 35432: a3 = u64 [s1 + 0x90]\n 35436: u64 [s1 + 0x68] = a4\n 35439: a3 = a4 <u a3\n 35442: u64 [s1 + 0x18] = a3\n 35445: a5 = a3 if t0 == 0\n 35448: u64 [s1 + 0x20] = a0\n 35451: a2 = a2 ^ a0\n 35454: a0 = a2 | t1\n 35457: u64 [s1 + 0x8] = a5\n 35460: a1 = a5 if a0 == 0\n 35463: jump @1203 if a1 != 0\n      : @1170 (gas: 11)\n 35467: u64 [s1 + 728] = 0\n 35471: a0 = u64 [s1 + 0x60]\n 35474: a2 = s1 + 0x200\n 35478: u64 [a2 + 0xc0] = a0\n 35482: a0 = u64 [s1 + 0x58]\n 35485: u64 [a2 + 0xc8] = a0\n 35489: a1 = s1 + 0x2c0\n 35493: a0 = u64 [s1 + 0x50]\n 35496: u64 [a2 + 0xd0] = a0\n 35500: a0 = 0\n 35502: ra = 1108, jump @19\n      : @1171 [@dyn 554] (gas: 7)\n 35509: u64 [s1 + 696] = 0\n 35513: u64 [s1 + 688] = 0\n 35517: u64 [s1 + 680] = 0\n 35521: a0 = 0x20\n 35524: a1 = s1 + 0x2a0\n 35528: u64 [s1 + 672] = 0\n 35532: ra = 1110, jump @19\n      : @1172 [@dyn 555] (gas: 27)\n 35539: a0 = u64 [s1 + 0x88]\n 35543: a1 = u64 [s1 + 0x20]\n 35546: a0 = a1 - a0\n 35549: a2 = u64 [s1 + 0x8]\n 35552: a1 = a0 - a2\n 35555: u64 [s1 + 0x20] = a1\n 35558: a0 = a0 <u a2\n 35561: a1 = u64 [s1 + 0x98]\n 35565: a2 = u64 [s1 + 0x28]\n 35568: a1 = a2 - a1\n 35571: a2 = u64 [s1 + 0x10]\n 35574: a1 = a1 - a2\n 35577: a1 = a1 - a0\n 35580: u64 [s1 + 0x28] = a1\n 35583: a2 = u64 [s1 + 0x70]\n 35586: a0 = i32 [a2]\n 35588: a1 = u64 [s1 + 0x80]\n 35592: a3 = u64 [s1 + 0x30]\n 35595: a1 = a3 - a1\n 35598: a3 = u64 [s1 + 0x18]\n 35601: a1 = a1 - a3\n 35604: u64 [s1 + 0x30] = a1\n 35607: a1 = u64 [s1 + 0x90]\n 35611: a3 = u64 [s1 + 0x68]\n 35614: a3 = a3 - a1\n 35617: u64 [s1 + 0x68] = a3\n 35620: jump @1174 if a0 >u 63\n      : @1173 (gas: 2)\n 35624: u32 [a2 + 0] = 0x40\n 35627: fallthrough\n      : @1174 (gas: 12)\n 35628: a0 = sp + 0xffffffffffffffe0\n 35631: a0 = a0 & 0xffffffffffffffe0\n 35634: u64 [s1 + 0x18] = a0\n 35637: sp = a0\n 35639: i32 a2 = a0 + 0\n 35641: a1 = 0x40\n 35644: a0 = u64 [s1 + 0x78]\n 35647: ra = 0x458\n 35651: ecalli 9 // 'hash_keccak_256'\n 35653: a3 = u64 [s1 + 0x18]\n 35656: t0 = 0x45a\n 35660: jump @1260\n      : @1175 [@dyn 556] (gas: 2)\n 35663: a3 = u64 [s1 + 0x18]\n 35666: t0 = 1114, jump @1260\n      : @1176 [@dyn 557] (gas: 15)\n 35672: u64 [a4 + 0x78] = a3\n 35675: u64 [a4 + 0x70] = a2\n 35678: u64 [a4 + 0x68] = a1\n 35681: u64 [a4 + 0x60] = a0\n 35684: a0 = u64 [s1 + 0x28]\n 35687: u64 [a4 + 0x98] = a0\n 35691: a0 = u64 [s1 + 0x20]\n 35694: u64 [a4 + 0x90] = a0\n 35698: a0 = u64 [s1 + 0x30]\n 35701: u64 [a4 + 0x88] = a0\n 35705: a0 = u64 [s1 + 0x68]\n 35708: u64 [a4 + 0x80] = a0\n 35712: a0 = s1 + 0x360\n 35716: a1 = s1 + 0x380\n 35720: ra = 1116, jump @22\n      : @1177 [@dyn 558] (gas: 11)\n 35727: u64 [s1 + 664] = 0\n 35731: a0 = u64 [s1 + 0x38]\n 35734: a2 = s1 + 0x200\n 35738: u64 [a2 + 0x90] = a0\n 35742: a0 = u64 [s1 + 0x40]\n 35745: u64 [a2 + 0x88] = a0\n 35749: a1 = s1 + 0x280\n 35753: a0 = u64 [s1 + 0x48]\n 35756: u64 [a2 + 0x80] = a0\n 35760: a0 = 0\n 35762: ra = 1118, jump @19\n      : @1178 [@dyn 559] (gas: 7)\n 35769: u64 [s1 + 632] = 0\n 35773: u64 [s1 + 624] = 0\n 35777: u64 [s1 + 616] = 0\n 35781: a0 = 0x20\n 35784: a1 = s1 + 0x260\n 35788: u64 [s1 + 608] = 0\n 35792: ra = 1120, jump @19\n      : @1179 [@dyn 560] (gas: 7)\n 35799: a1 = u64 [s1 + 0x70]\n 35802: a0 = sp + 0xffffffffffffffe0\n 35805: a0 = a0 & 0xffffffffffffffe0\n 35808: u64 [s1 + 0x68] = a0\n 35811: sp = a0\n 35813: a0 = i32 [a1]\n 35815: jump @1181 if a0 >u 63\n      : @1180 (gas: 2)\n 35819: u32 [a1 + 0] = 0x40\n 35822: fallthrough\n      : @1181 (gas: 12)\n 35823: a0 = sp + 0xffffffffffffffe0\n 35826: a0 = a0 & 0xffffffffffffffe0\n 35829: u64 [s1 + 0x70] = a0\n 35832: sp = a0\n 35834: i32 a2 = a0 + 0\n 35836: a1 = 0x40\n 35839: a0 = u64 [s1 + 0x78]\n 35842: ra = 0x462\n 35846: ecalli 9 // 'hash_keccak_256'\n 35848: a3 = u64 [s1 + 0x70]\n 35851: t0 = 0x464\n 35855: jump @1240\n      : @1182 [@dyn 561] (gas: 2)\n 35858: a3 = u64 [s1 + 0x70]\n 35861: t0 = 1124, jump @1240\n      : @1183 [@dyn 562] (gas: 7)\n 35867: a1 = u64 [s1 + 0x68]\n 35870: u64 [a1 + 0x18] = a3\n 35873: u64 [a1 + 0x10] = a2\n 35876: u64 [a1 + 0x8] = a4\n 35879: u64 [a1] = a0\n 35881: a0 = s1 + 0x240\n 35885: ra = 1126, jump @21\n      : @1184 [@dyn 563] (gas: 30)\n 35892: a0 = u64 [s1 + 0x248]\n 35896: a1 = u64 [s1 + 0x240]\n 35900: t0 = u64 [s1 + 0x258]\n 35904: a3 = u64 [s1 + 0x250]\n 35908: a4 = u64 [s1 + 0x80]\n 35912: a4 = a4 + a0\n 35915: a5 = u64 [s1 + 0x90]\n 35919: a5 = a5 + a1\n 35922: a1 = a5 <u a1\n 35925: a4 = a4 + a1\n 35928: a2 = a4 ^ a0\n 35931: a0 = a4 <u a0\n 35934: a0 = a1 if a2 == 0\n 35937: a1 = u64 [s1 + 0x88]\n 35941: a1 = a1 + a3\n 35944: a2 = u64 [s1 + 0x98]\n 35948: t0 = t0 + a2\n 35951: a2 = a1 <u a3\n 35954: a2 = a2 + t0\n 35957: a0 = a0 + a1\n 35960: a1 = a0 <u a1\n 35963: a1 = a1 + a2\n 35966: a2 = s1 + 0x300\n 35970: u64 [a2 + 0xa0] = a5\n 35974: u64 [a2 + 0xa8] = a4\n 35978: u64 [a2 + 0xb0] = a0\n 35982: u64 [a2 + 0xb8] = a1\n 35986: a1 = s1 + 0x3a0\n 35990: a0 = u64 [s1 + 0x68]\n 35993: ra = 1128, jump @22\n      : @1185 [@dyn 564] (gas: 3)\n 36000: a0 = s1 + 0x220\n 36004: a1 = 0x40\n 36007: ra = 1130, jump @17\n      : @1186 [@dyn 565] (gas: 6)\n 36014: a4 = s1 + 0x200\n 36018: a3 = u64 [a4 + 0x38]\n 36021: a1 = u64 [a4 + 0x30]\n 36024: a2 = u64 [a4 + 0x28]\n 36027: a0 = u64 [a4 + 0x20]\n 36030: t0 = 1132, jump @1239\n      : @1187 [@dyn 566] (gas: 1)\n 36036: jump @1191 if a1 != 0\n      : @1188 (gas: 12)\n 36040: a1 = u64 [s1 + 0x90]\n 36044: a3 = s1 + 0x200\n 36048: u64 [a3] = a1\n 36050: a1 = u64 [s1 + 0x80]\n 36054: u64 [a3 + 0x8] = a1\n 36057: a1 = u64 [s1 + 0x88]\n 36061: u64 [a3 + 0x10] = a1\n 36064: a1 = s1 + 0x200\n 36068: a2 = u64 [s1 + 0x98]\n 36072: u64 [a3 + 0x18] = a2\n 36075: u64 [s1 + 0x98] = a0\n 36079: ra = 1134, jump @19\n      : @1189 [@dyn 567] (gas: 29)\n 36086: u64 [s1 + 440] = 0\n 36090: a0 = u64 [s1 + 0x38]\n 36093: a5 = s1 + 0x100\n 36097: u64 [a5 + 0xb0] = a0\n 36101: a0 = u64 [s1 + 0x40]\n 36104: u64 [a5 + 0xa8] = a0\n 36108: a0 = u64 [s1 + 0x48]\n 36111: u64 [a5 + 0xa0] = a0\n 36115: u64 [s1 + 472] = 0\n 36119: a0 = u64 [s1 + 0x50]\n 36122: u64 [a5 + 0xd0] = a0\n 36126: a0 = u64 [s1 + 0x58]\n 36129: u64 [a5 + 0xc8] = a0\n 36133: a0 = u64 [0x20198]\n 36138: a1 = u64 [0x201a0]\n 36143: a2 = u64 [0x201a8]\n 36148: a3 = u64 [s1 + 0x60]\n 36151: u64 [a5 + 0xc0] = a3\n 36155: u64 [a5 + 0xf8] = a0\n 36159: u64 [a5 + 0xf0] = a1\n 36163: u64 [a5 + 0xe8] = a2\n 36167: a0 = u64 [0x201b0]\n 36172: a1 = 0x20\n 36175: a2 = s1 + 0x1e0\n 36179: a3 = s1 + 0x1c0\n 36183: a4 = s1 + 0x1a0\n 36187: u64 [a5 + 0xe0] = a0\n 36191: a0 = u64 [s1 + 0x98]\n 36195: ra = 1136, jump @23\n      : @1190 [@dyn 568] (gas: 7)\n 36202: sp = s0 + 0xfffffffffffffc20\n 36206: a0 = sp + 0x300\n 36210: ra = u64 [a0 + 0xd8]\n 36214: s0 = u64 [a0 + 0xd0]\n 36218: s1 = u64 [a0 + 0xc8]\n 36222: sp = sp + 0x3e0\n 36226: ret\n      : @1191 (gas: 1)\n 36228: trap\n      : @1192 (gas: 8)\n 36229: u64 [s1 + 208] = 0\n 36233: u64 [s1 + 200] = 0\n 36237: u64 [s1 + 192] = 0\n 36241: a0 = 0x96c6fd1e00000000\n 36251: a1 = s1 + 0xc0\n 36255: u64 [s1 + 0xd8] = a0\n 36259: a0 = 0\n 36261: ra = 1138, jump @19\n      : @1193 [@dyn 569] (gas: 7)\n 36268: u64 [s1 + 184] = 0\n 36272: u64 [s1 + 176] = 0\n 36276: u64 [s1 + 168] = 0\n 36280: a0 = 0x4\n 36283: a1 = s1 + 0xa0\n 36287: u64 [s1 + 160] = 0\n 36291: ra = 1140, jump @19\n      : @1194 [@dyn 570] (gas: 2)\n 36298: a1 = i32 [0x201dc]\n 36303: jump @1196 if a1 >u 63\n      : @1195 (gas: 3)\n 36307: u32 [0x201dc] = 0x40\n 36313: a1 = 0x201f0\n 36318: jump @1202\n      : @1196 (gas: 2)\n 36320: a1 = 0x201f0\n 36325: jump @1202\n      : @1197 (gas: 8)\n 36327: u64 [s1 + 272] = 0\n 36331: u64 [s1 + 264] = 0\n 36335: u64 [s1 + 256] = 0\n 36339: a0 = 0xec442f0500000000\n 36349: a1 = s1 + 0x100\n 36353: u64 [s1 + 0x118] = a0\n 36357: a0 = 0\n 36359: ra = 1142, jump @19\n      : @1198 [@dyn 571] (gas: 7)\n 36366: u64 [s1 + 248] = 0\n 36370: u64 [s1 + 240] = 0\n 36374: u64 [s1 + 232] = 0\n 36378: a0 = 0x4\n 36381: a1 = s1 + 0xe0\n 36385: u64 [s1 + 224] = 0\n 36389: ra = 1144, jump @19\n      : @1199 [@dyn 572] (gas: 2)\n 36396: a1 = i32 [0x201dc]\n 36401: jump @1201 if a1 >u 63\n      : @1200 (gas: 3)\n 36405: u32 [0x201dc] = 0x40\n 36411: a1 = 0x201f0\n 36416: jump @1202\n      : @1201 (gas: 2)\n 36418: a1 = 0x201f0\n 36423: fallthrough\n      : @1202 (gas: 5)\n 36424: i32 a1 = a1 + 0\n 36426: a0 = 0x1\n 36429: a2 = 0x24\n 36432: ecalli 13 // 'seal_return'\n 36434: fallthrough\n      : @1203 (gas: 8)\n 36435: u64 [s1 + 400] = 0\n 36439: u64 [s1 + 392] = 0\n 36443: u64 [s1 + 384] = 0\n 36447: a0 = 0xe450d38c00000000\n 36457: a1 = s1 + 0x180\n 36461: u64 [s1 + 0x198] = a0\n 36465: a0 = 0\n 36467: ra = 1146, jump @19\n      : @1204 [@dyn 573] (gas: 10)\n 36474: u64 [s1 + 376] = 0\n 36478: a0 = u64 [s1 + 0x50]\n 36481: u64 [s1 + 0x170] = a0\n 36485: a0 = u64 [s1 + 0x58]\n 36488: u64 [s1 + 0x168] = a0\n 36492: a0 = 0x4\n 36495: a1 = s1 + 0x160\n 36499: a2 = u64 [s1 + 0x60]\n 36502: u64 [s1 + 0x160] = a2\n 36506: ra = 1148, jump @19\n      : @1205 [@dyn 574] (gas: 11)\n 36513: a0 = u64 [s1 + 0x28]\n 36516: u64 [s1 + 0x158] = a0\n 36520: a0 = u64 [s1 + 0x20]\n 36523: u64 [s1 + 0x150] = a0\n 36527: a0 = u64 [s1 + 0x30]\n 36530: u64 [s1 + 0x148] = a0\n 36534: a0 = 0x24\n 36537: a1 = s1 + 0x140\n 36541: a2 = u64 [s1 + 0x68]\n 36544: u64 [s1 + 0x140] = a2\n 36548: ra = 1150, jump @19\n      : @1206 [@dyn 575] (gas: 12)\n 36555: a0 = u64 [s1 + 0x98]\n 36559: a3 = s1 + 0x100\n 36563: u64 [a3 + 0x38] = a0\n 36566: a0 = u64 [s1 + 0x88]\n 36570: u64 [a3 + 0x30] = a0\n 36573: a0 = u64 [s1 + 0x80]\n 36577: u64 [a3 + 0x28] = a0\n 36580: a0 = 0x44\n 36583: a1 = s1 + 0x120\n 36587: a2 = u64 [s1 + 0x90]\n 36591: u64 [a3 + 0x20] = a2\n 36594: ra = 1152, jump @19\n      : @1207 [@dyn 576] (gas: 3)\n 36601: a0 = u64 [s1 + 0x70]\n 36604: a0 = i32 [a0]\n 36606: jump @1209 if a0 >u 127\n      : @1208 (gas: 3)\n 36610: a1 = u64 [s1 + 0x70]\n 36613: u32 [a1 + 0] = 0x80\n 36617: fallthrough\n      : @1209 (gas: 6)\n 36618: a0 = 0x1\n 36621: a2 = 0x64\n 36624: a1 = u64 [s1 + 0x78]\n 36627: ra = 0x482\n 36631: ecalli 13 // 'seal_return'\n 36633: fallthrough\n      : @1210 [@dyn 577] (gas: 17)\n 36634: sp = sp + 0xfffffffffffffd40\n 36638: a2 = sp + 0x200\n 36642: u64 [a2 + 0xb8] = ra\n 36646: u64 [a2 + 0xb0] = s0\n 36650: u64 [a2 + 0xa8] = s1\n 36654: s0 = sp + 0x2c0\n 36658: sp = sp & 0xffffffffffffffe0\n 36661: s1 = sp\n 36663: a3 = u32 [a0 + 0x10]\n 36666: a2 = u64 [a0]\n 36668: a4 = u64 [a0 + 0x8]\n 36671: u64 [s1 + 0x30] = a2\n 36674: u64 [s1 + 0x28] = a3\n 36677: a0 = a2 | a3\n 36680: u64 [s1 + 0x20] = a4\n 36683: a0 = a0 | a4\n 36686: jump @1229 if a0 == 0\n      : @1211 (gas: 15)\n 36690: a0 = u64 [a1 + 0x18]\n 36693: u64 [s1 + 0x58] = a0\n 36696: a0 = u64 [a1 + 0x10]\n 36699: u64 [s1 + 0x50] = a0\n 36702: a0 = u64 [a1 + 0x8]\n 36705: u64 [s1 + 0x48] = a0\n 36708: a0 = u64 [a1]\n 36710: u64 [s1 + 0x40] = a0\n 36713: u64 [s1 + 568] = 0\n 36717: u64 [s1 + 560] = 0\n 36721: u64 [s1 + 552] = 0\n 36725: u64 [s1 + 544] = 0x2\n 36730: a0 = s1 + 0x200\n 36734: a1 = s1 + 0x220\n 36738: ra = 1156, jump @21\n      : @1212 [@dyn 578] (gas: 20)\n 36745: a3 = u64 [s1 + 0x200]\n 36749: a0 = u64 [s1 + 0x208]\n 36753: a1 = u64 [s1 + 0x210]\n 36757: a2 = u64 [s1 + 0x218]\n 36761: a4 = u64 [s1 + 0x58]\n 36764: u64 [s1 + 0x1b8] = a4\n 36768: a4 = u64 [s1 + 0x50]\n 36771: u64 [s1 + 0x1b0] = a4\n 36775: a4 = u64 [s1 + 0x48]\n 36778: u64 [s1 + 0x1a8] = a4\n 36782: a4 = u64 [s1 + 0x40]\n 36785: u64 [s1 + 0x1a0] = a4\n 36789: u64 [s1 + 0x1d8] = a2\n 36793: u64 [s1 + 0x1d0] = a1\n 36797: u64 [s1 + 0x1c8] = a0\n 36801: a0 = s1 + 0x1e0\n 36805: a1 = s1 + 0x1c0\n 36809: a2 = s1 + 0x1a0\n 36813: u64 [s1 + 0x1c0] = a3\n 36817: ra = 1158, jump @1118\n      : @1213 [@dyn 579] (gas: 16)\n 36823: a0 = u64 [s1 + 0x1e0]\n 36827: a1 = u64 [s1 + 0x1e8]\n 36831: a2 = u64 [s1 + 0x1f0]\n 36835: a3 = u64 [s1 + 0x1f8]\n 36839: u64 [s1 + 600] = 0\n 36843: u64 [s1 + 592] = 0\n 36847: u64 [s1 + 584] = 0\n 36851: a5 = s1 + 0x200\n 36855: u64 [a5 + 64] = 0x2\n 36859: u64 [a5 + 0x78] = a3\n 36862: u64 [a5 + 0x70] = a2\n 36865: u64 [a5 + 0x68] = a1\n 36868: u64 [a5 + 0x60] = a0\n 36871: a0 = s1 + 0x240\n 36875: a1 = s1 + 0x260\n 36879: ra = 1160, jump @22\n      : @1214 [@dyn 580] (gas: 11)\n 36886: u64 [s1 + 408] = 0\n 36890: a0 = u64 [s1 + 0x28]\n 36893: a2 = s1 + 0x100\n 36897: u64 [a2 + 0x90] = a0\n 36901: a0 = u64 [s1 + 0x20]\n 36904: u64 [a2 + 0x88] = a0\n 36908: a1 = s1 + 0x180\n 36912: a0 = u64 [s1 + 0x30]\n 36915: u64 [a2 + 0x80] = a0\n 36919: a0 = 0\n 36921: ra = 1162, jump @19\n      : @1215 [@dyn 581] (gas: 7)\n 36928: u64 [s1 + 376] = 0\n 36932: u64 [s1 + 368] = 0\n 36936: u64 [s1 + 360] = 0\n 36940: a0 = 0x20\n 36943: a1 = s1 + 0x160\n 36947: u64 [s1 + 352] = 0\n 36951: ra = 1164, jump @19\n      : @1216 [@dyn 582] (gas: 6)\n 36958: a0 = sp + 0xffffffffffffffe0\n 36961: a0 = a0 & 0xffffffffffffffe0\n 36964: u64 [s1 + 0x38] = a0\n 36967: sp = a0\n 36969: a1 = i32 [0x201dc]\n 36974: jump @1218 if a1 >u 63\n      : @1217 (gas: 2)\n 36978: u32 [0x201dc] = 0x40\n 36984: fallthrough\n      : @1218 (gas: 13)\n 36985: a0 = sp + 0xffffffffffffffe0\n 36988: a2 = a0 & 0xffffffffffffffe0\n 36991: u64 [s1 + 0x18] = a2\n 36994: sp = a2\n 36996: a0 = 0x201f0\n 37001: i32 a0 = a0 + 0\n 37003: i32 a2 = a2 + 0\n 37005: a1 = 0x40\n 37008: ra = 0x48e\n 37012: ecalli 9 // 'hash_keccak_256'\n 37014: a3 = u64 [s1 + 0x18]\n 37017: t0 = 0x490\n 37021: jump @1240\n      : @1219 [@dyn 583] (gas: 2)\n 37024: a3 = u64 [s1 + 0x18]\n 37027: t0 = 1168, jump @1240\n      : @1220 [@dyn 584] (gas: 7)\n 37033: a1 = u64 [s1 + 0x38]\n 37036: u64 [a1 + 0x18] = a3\n 37039: u64 [a1 + 0x10] = a2\n 37042: u64 [a1 + 0x8] = a4\n 37045: u64 [a1] = a0\n 37047: a0 = s1 + 0x140\n 37051: ra = 1170, jump @21\n      : @1221 [@dyn 585] (gas: 30)\n 37058: a0 = u64 [s1 + 0x148]\n 37062: a1 = u64 [s1 + 0x140]\n 37066: t0 = u64 [s1 + 0x158]\n 37070: a3 = u64 [s1 + 0x150]\n 37074: a4 = u64 [s1 + 0x48]\n 37077: a4 = a4 + a0\n 37080: a5 = u64 [s1 + 0x40]\n 37083: a5 = a5 + a1\n 37086: a1 = a5 <u a1\n 37089: a4 = a4 + a1\n 37092: a2 = a4 ^ a0\n 37095: a0 = a4 <u a0\n 37098: a0 = a1 if a2 == 0\n 37101: a1 = u64 [s1 + 0x50]\n 37104: a1 = a1 + a3\n 37107: a2 = u64 [s1 + 0x58]\n 37110: t0 = t0 + a2\n 37113: a2 = a1 <u a3\n 37116: a2 = a2 + t0\n 37119: a0 = a0 + a1\n 37122: a1 = a0 <u a1\n 37125: a1 = a1 + a2\n 37128: a2 = s1 + 0x200\n 37132: u64 [a2 + 0x80] = a5\n 37136: u64 [a2 + 0x88] = a4\n 37140: u64 [a2 + 0x90] = a0\n 37144: u64 [a2 + 0x98] = a1\n 37148: a1 = s1 + 0x280\n 37152: a0 = u64 [s1 + 0x38]\n 37155: ra = 1172, jump @22\n      : @1222 [@dyn 586] (gas: 3)\n 37162: a0 = s1 + 0x120\n 37166: a1 = 0x40\n 37169: ra = 1174, jump @17\n      : @1223 [@dyn 587] (gas: 6)\n 37176: a4 = s1 + 0x100\n 37180: a3 = u64 [a4 + 0x38]\n 37183: a1 = u64 [a4 + 0x30]\n 37186: a2 = u64 [a4 + 0x28]\n 37189: a0 = u64 [a4 + 0x20]\n 37192: t0 = 1176, jump @1239\n      : @1224 [@dyn 588] (gas: 1)\n 37198: jump @1228 if a1 != 0\n      : @1225 (gas: 12)\n 37202: a1 = u64 [s1 + 0x40]\n 37205: a3 = s1 + 0x100\n 37209: u64 [a3] = a1\n 37211: a1 = u64 [s1 + 0x48]\n 37214: u64 [a3 + 0x8] = a1\n 37217: a1 = u64 [s1 + 0x50]\n 37220: u64 [a3 + 0x10] = a1\n 37223: a1 = s1 + 0x100\n 37227: a2 = u64 [s1 + 0x58]\n 37230: u64 [a3 + 0x18] = a2\n 37233: u64 [s1 + 0x58] = a0\n 37236: ra = 1178, jump @19\n      : @1226 [@dyn 589] (gas: 25)\n 37243: u64 [s1 + 184] = 0\n 37247: a0 = u64 [s1 + 0x28]\n 37250: u64 [s1 + 0xb0] = a0\n 37254: a0 = u64 [s1 + 0x20]\n 37257: u64 [s1 + 0xa8] = a0\n 37261: a0 = u64 [s1 + 0x30]\n 37264: u64 [s1 + 0xa0] = a0\n 37268: u64 [s1 + 216] = 0\n 37272: u64 [s1 + 208] = 0\n 37276: u64 [s1 + 200] = 0\n 37280: a0 = u64 [0x201b8]\n 37285: a1 = u64 [0x201c0]\n 37290: a2 = u64 [0x201c8]\n 37295: u64 [s1 + 192] = 0\n 37299: u64 [s1 + 0xf8] = a0\n 37303: u64 [s1 + 0xf0] = a1\n 37307: u64 [s1 + 0xe8] = a2\n 37311: a0 = u64 [0x201d0]\n 37316: a1 = 0x20\n 37319: a2 = s1 + 0xe0\n 37323: a3 = s1 + 0xc0\n 37327: a4 = s1 + 0xa0\n 37331: u64 [s1 + 0xe0] = a0\n 37335: a0 = u64 [s1 + 0x58]\n 37338: ra = 1180, jump @23\n      : @1227 [@dyn 590] (gas: 7)\n 37345: sp = s0 + 0xfffffffffffffd40\n 37349: a0 = sp + 0x200\n 37353: ra = u64 [a0 + 0xb8]\n 37357: s0 = u64 [a0 + 0xb0]\n 37361: s1 = u64 [a0 + 0xa8]\n 37365: sp = sp + 0x2c0\n 37369: ret\n      : @1228 (gas: 1)\n 37371: trap\n      : @1229 (gas: 8)\n 37372: u64 [s1 + 144] = 0\n 37376: u64 [s1 + 136] = 0\n 37380: u64 [s1 + 128] = 0\n 37384: a0 = 0xec442f0500000000\n 37394: a1 = s1 + 0x80\n 37398: u64 [s1 + 0x98] = a0\n 37402: a0 = 0\n 37404: ra = 1182, jump @19\n      : @1230 [@dyn 591] (gas: 7)\n 37411: u64 [s1 + 120] = 0\n 37414: u64 [s1 + 112] = 0\n 37417: u64 [s1 + 104] = 0\n 37420: a0 = 0x4\n 37423: a1 = s1 + 0x60\n 37426: u64 [s1 + 96] = 0\n 37429: ra = 1184, jump @19\n      : @1231 [@dyn 592] (gas: 2)\n 37436: a1 = i32 [0x201dc]\n 37441: jump @1233 if a1 >u 63\n      : @1232 (gas: 2)\n 37445: u32 [0x201dc] = 0x40\n 37451: fallthrough\n      : @1233 (gas: 8)\n 37452: a1 = 0x201f0\n 37457: i32 a1 = a1 + 0\n 37459: a0 = 0x1\n 37462: a2 = 0x24\n 37465: ecalli 13 // 'seal_return'\n 37467: a0 = 0\n 37469: ra = 0x4a2\n 37473: jump @32\n      : @1234 [export #0: 'call'] (gas: 2)\n 37477: a0 = 0\n 37479: ra = 1186, jump @32\n      : @1235 [@dyn 593] [export #1: 'deploy'] (gas: 2)\n 37486: a0 = 0x1\n 37489: ra = 1188, jump @32\n      : @1236 [@dyn 594] (gas: 14)\n 37496: a0 = u64 [a2 + 0x8]\n 37499: a1 = i32 [a2 + 0x10]\n 37502: a2 = u64 [a2]\n 37504: a0 = reverse a0\n 37506: a3 = a0 << 0x20\n 37509: a1 = reverse a1\n 37511: a1 = a1 >> 0x20\n 37514: a3 = a3 | a1\n 37517: a0 = a0 >> 0x20\n 37520: a1 = reverse a2\n 37522: a2 = a1 << 0x20\n 37525: a0 = a0 | a2\n 37528: a1 = a1 >> 0x20\n 37531: jump [t0]\n      : @1237 (gas: 12)\n 37533: a1 = u64 [s1 + 0xf0]\n 37537: a2 = u64 [s1 + 0xe0]\n 37541: a1 = a1 | a2\n 37544: a3 = u64 [s1 + 0xe8]\n 37548: a2 = u64 [s1 + 0xf8]\n 37552: a2 = a2 | a3\n 37555: a2 = a2 | a1\n 37558: a2 = a2 >> 0x20\n 37561: a1 = a1 | a3\n 37564: a1 = a1 << 0x20\n 37567: a1 = a1 | a2\n 37570: jump [t0]\n      : @1238 (gas: 8)\n 37572: a0 = u64 [a2 + 0x8]\n 37575: a1 = i32 [a2 + 0x10]\n 37578: a2 = u64 [a2]\n 37580: a3 = reverse a0\n 37582: a0 = a3 << 0x20\n 37585: a1 = reverse a1\n 37587: a1 = a1 >> 0x20\n 37590: jump [t0]\n      : @1239 (gas: 8)\n 37592: a3 = a3 | a2\n 37595: a2 = a0 | a1\n 37598: a2 = a2 | a3\n 37601: a2 = a2 >> 0x20\n 37604: a1 = a1 | a3\n 37607: a1 = a1 << 0x20\n 37610: a1 = a1 | a2\n 37613: jump [t0]\n      : @1240 (gas: 9)\n 37615: a0 = u64 [a3 + 0x18]\n 37618: a1 = u64 [a3 + 0x10]\n 37621: a2 = u64 [a3 + 0x8]\n 37624: a3 = u64 [a3]\n 37626: a0 = reverse a0\n 37628: a4 = reverse a1\n 37630: a2 = reverse a2\n 37632: a3 = reverse a3\n 37634: jump [t0]\n      : @1241 (gas: 16)\n 37636: a4 = u64 [s1 + 0x138]\n 37640: a2 = a4 <u 0x80\n 37644: a3 = u64 [s1 + 0xf0]\n 37648: a1 = a3 if a2 != 0\n 37651: a5 = u64 [s1 + 0xf8]\n 37655: a3 = u64 [s1 + 0x108]\n 37659: a3 = a3 | a5\n 37662: a3 = a0 if a2 == 0\n 37665: a1 = 0xffffffffffffffff if a4 == 0\n 37668: a3 = 0xffffffffffffffff if a4 == 0\n 37671: a4 = u64 [s1 + 0x100]\n 37675: a4 = 0 if a2 == 0\n 37677: a5 = 0 if a2 == 0\n 37679: a0 = u64 [s1 + 0x110]\n 37683: a0 = a0 & ~a3\n 37686: jump [t0]\n      : @1242 (gas: 16)\n 37688: a2 = u64 [s1 + 0xd8]\n 37692: a0 = u64 [a2 + 0x8]\n 37695: a1 = i32 [a2 + 0x10]\n 37698: a2 = u64 [a2]\n 37700: a0 = reverse a0\n 37702: a3 = a0 << 0x20\n 37705: a1 = reverse a1\n 37707: a1 = a1 >> 0x20\n 37710: a3 = a3 | a1\n 37713: a0 = a0 >> 0x20\n 37716: a1 = reverse a2\n 37718: a2 = a1 << 0x20\n 37721: a0 = a0 | a2\n 37724: a1 = a1 >> 0x20\n 37727: a2 = s1 + 0x1078\n 37731: jump [t0]\n      : @1243 (gas: 9)\n 37733: a1 = u64 [s1 + 0xf8]\n 37737: a0 = u64 [s1 + 0xe0]\n 37741: a0 = a0 + 0xffffffffffffffdc\n 37744: a0 = a1 <u a0\n 37747: a2 = u64 [s1 + 0xf0]\n 37751: a0 = 0 if a2 != 0\n 37753: a2 = u64 [s1 + 0xe8]\n 37757: a0 = 0 if a2 != 0\n 37759: jump [t0]\n      : @1244 (gas: 9)\n 37761: a3 = u64 [s1 + 0xf8]\n 37765: a0 = u64 [s1 + 0xe0]\n 37769: a0 = a0 + 0xffffffffffffff9c\n 37772: a0 = a3 <u a0\n 37775: a1 = u64 [s1 + 0xf0]\n 37779: a0 = 0 if a1 != 0\n 37781: a1 = u64 [s1 + 0xe8]\n 37785: a0 = 0 if a1 != 0\n 37787: jump [t0]\n      : @1245 (gas: 7)\n 37789: a4 = 0x100000000\n 37799: a0 = 0xfffffffc\n 37809: a0 = a1 <u a0\n 37812: a2 = u64 [s1 + 0xf0]\n 37816: a0 = 0 if a2 != 0\n 37818: a0 = 0 if a3 != 0\n 37820: jump [t0]\n      : @1246 (gas: 8)\n 37822: a0 = a0 | a2\n 37825: a2 = a4 | a1\n 37828: a2 = a2 | a0\n 37831: a2 = a2 >> 0x20\n 37834: a0 = a0 | a1\n 37837: a0 = a0 << 0x20\n 37840: a0 = a0 | a2\n 37843: jump [t0]\n      : @1247 (gas: 14)\n 37845: a3 = a3 + a4\n 37848: u64 [s1 + 0x108] = a3\n 37852: a3 = a3 << 0x3b\n 37855: a4 = a2 >> 0x5\n 37858: a4 = a4 | a3\n 37861: a0 = u64 [s1 + 0x128]\n 37865: t1 = u64 [a0 + 0x18]\n 37868: a2 = a2 << 0x3b\n 37871: a3 = u64 [a0 + 0x10]\n 37874: a1 = a1 >> 0x5\n 37877: a0 = a1 | a2\n 37880: t2 = reverse t1\n 37882: a2 = reverse a3\n 37884: jump [t0]\n      : @1248 (gas: 6)\n 37886: a2 = reverse a2\n 37888: a3 = a2 << 0x20\n 37891: a0 = a0 >> 0x20\n 37894: a0 = a0 | a3\n 37897: a2 = a2 >> 0x20\n 37900: jump [t0]\n      : @1249 (gas: 14)\n 37902: a5 = a5 + a2\n 37905: a4 = a5 <u a2\n 37908: a0 = u64 [s1 + 0x130]\n 37912: a2 = a2 <u a0\n 37915: a0 = t2 + a2\n 37918: a0 = a0 + a4\n 37921: a2 = a1 | a5\n 37924: a0 = a0 | a3\n 37927: a2 = a2 | a0\n 37930: a2 = a2 >> 0x20\n 37933: a0 = a0 | a5\n 37936: a0 = a0 << 0x20\n 37939: a0 = a0 | a2\n 37942: jump [t0]\n      : @1250 (gas: 6)\n 37944: a2 = 0x100000000\n 37954: a0 = 0xffffffbc\n 37964: a0 = a1 <u a0\n 37967: a0 = 0 if a3 != 0\n 37969: a0 = 0 if a4 != 0\n 37971: jump [t0]\n      : @1251 (gas: 10)\n 37973: a4 = 0 if a2 == 0\n 37975: a1 = u64 [s1 + 0x118]\n 37979: a1 = a1 & ~a3\n 37982: a2 = u64 [s1 + 0x120]\n 37986: a0 = a2 & ~a0\n 37989: a2 = u64 [s1 + 0x128]\n 37993: a2 = a2 & ~a4\n 37996: a3 = u64 [s1 + 0x130]\n 38000: a3 = a3 & ~a5\n 38003: jump [t0]\n      : @1252 (gas: 13)\n 38005: a4 = a0 << 0x3f\n 38008: a5 = a1 >> 0x1\n 38011: t1 = a5 | a4\n 38014: a5 = a3 << 0x3f\n 38017: a0 = a0 >> 0x1\n 38020: a0 = a0 | a5\n 38023: a1 = a1 << 0x3f\n 38026: a5 = a2 >> 0x1\n 38029: a1 = a1 | a5\n 38032: a3 = a3 >> 0x1\n 38035: a2 = a2 & 0x1\n 38038: a5 = -a2\n 38040: jump [t0]\n      : @1253 (gas: 11)\n 38042: a0 = u64 [a3 + 0x18]\n 38045: a1 = u64 [a3 + 0x10]\n 38048: a2 = u64 [a3 + 0x8]\n 38051: a3 = u64 [a3]\n 38053: a0 = reverse a0\n 38055: a1 = reverse a1\n 38057: a2 = reverse a2\n 38059: a3 = reverse a3\n 38061: a4 = s1 + 0x1878\n 38065: a5 = a4 + 0x600\n 38069: jump [t0]\n      : @1254 (gas: 13)\n 38071: a5 = a5 + a2\n 38074: a3 = a5 <u a2\n 38077: a2 = a2 <u t2\n 38080: a0 = t1 + a2\n 38083: a0 = a0 + a3\n 38086: a2 = a1 | a5\n 38089: a0 = a0 | a4\n 38092: a2 = a2 | a0\n 38095: a2 = a2 >> 0x20\n 38098: a0 = a0 | a5\n 38101: a0 = a0 << 0x20\n 38104: a0 = a0 | a2\n 38107: jump [t0]\n      : @1255 (gas: 6)\n 38109: a0 = reverse a0\n 38111: a3 = a0 << 0x20\n 38114: a1 = reverse a1\n 38116: a1 = a1 >> 0x20\n 38119: a1 = a1 | a3\n 38122: jump [t0]\n      : @1256 (gas: 12)\n 38124: a0 = u64 [s1 + 0x8]\n 38127: a1 = i32 [s1 + 0x10]\n 38130: a2 = u64 [s1]\n 38132: a0 = reverse a0\n 38134: a3 = a0 << 0x20\n 38137: a1 = reverse a1\n 38139: a1 = a1 >> 0x20\n 38142: a3 = a3 | a1\n 38145: a0 = a0 >> 0x20\n 38148: a1 = reverse a2\n 38150: a2 = a1 << 0x20\n 38153: jump [t0]\n      : @1257 (gas: 4)\n 38155: a0 = 0x1878\n 38159: a3 = s1 + a0\n 38162: a4 = a3 + 0x500\n 38166: jump [t0]\n      : @1258 (gas: 8)\n 38168: a2 = a4 >u 0\n 38170: a1 = a1 ^ 0x1\n 38173: a1 = a2 if a4 != 0\n 38176: a2 = t2 >u 0\n 38178: a3 = a5 >u 0\n 38180: a3 = a2 if a5 == 0\n 38183: a3 = a1 if a0 == 0\n 38186: jump [t0]\n      : @1259 (gas: 10)\n 38188: a0 = u64 [sp + 0x10]\n 38191: a1 = u64 [sp + 0x18]\n 38194: a2 = 0x100000000\n 38204: a2 = a2 ^ a0\n 38207: a2 = a2 | a1\n 38210: a3 = a0 >> 0x20\n 38213: a3 = a3 <u 0x1\n 38216: a3 = 0 if a1 != 0\n 38218: a3 = 0 if a2 == 0\n 38220: jump [t0]\n      : @1260 (gas: 10)\n 38222: a0 = u64 [a3 + 0x18]\n 38225: a1 = u64 [a3 + 0x10]\n 38228: a2 = u64 [a3 + 0x8]\n 38231: a3 = u64 [a3]\n 38233: a0 = reverse a0\n 38235: a1 = reverse a1\n 38237: a2 = reverse a2\n 38239: a3 = reverse a3\n 38241: a4 = s1 + 0x300\n 38245: jump [t0]\n      : @1261 (gas: 12)\n 38247: a2 = a2 - a3\n 38250: a3 = a4 <u a5\n 38253: a2 = a2 - a3\n 38256: u64 [s1 + 0xf0] = a2\n 38260: a4 = a4 - a5\n 38263: u64 [s1 + 0xe8] = a4\n 38267: a0 = a0 - a1\n 38270: a0 = a0 - t2\n 38273: u64 [s1 + 0xe0] = a0\n 38277: a0 = t1 - ra\n 38280: u64 [s1 + 0xf8] = a0\n 38284: jump [t0]\n      : @1262 (gas: 8)\n 38286: a4 = a2 + a0\n 38289: a4 = a4 + a3\n 38292: a3 = a4 ^ a2\n 38295: u64 [s1 + 0x110] = a4\n 38299: a2 = a4 <u a2\n 38302: a2 = a0 if a3 == 0\n 38305: a4 = u64 [s1 + 0x108]\n 38309: jump [t0]\n      : @1263 (gas: 12)\n 38311: a1 = u64 [sp + 0xb8]\n 38315: a2 = u64 [sp + 0xa8]\n 38319: a1 = a1 | a2\n 38322: u64 [sp + 0xb8] = s1\n 38326: a3 = u64 [sp + 0xb0]\n 38330: a2 = s1 | a3\n 38333: a2 = a2 | a1\n 38336: a2 = a2 >> 0x20\n 38339: a1 = a1 | a3\n 38342: a1 = a1 << 0x20\n 38345: a1 = a1 | a2\n 38348: jump [t0]\n      : @1264 (gas: 6)\n 38350: u64 [a3 + 0x8] = a0\n 38353: u64 [a3] = a1\n 38355: u32 [a3 + 0x10] = a2\n 38358: a0 = 0x2078\n 38362: a2 = s1 + a0\n 38365: jump [t0]\n      : @1265 (gas: 6)\n 38367: i32 a0 = a2 + 0\n 38369: u64 [s1 + 0xf0] = a0\n 38373: a0 = u64 [s1 + 0xf8]\n 38377: a1 = a2\n 38379: u64 [s1 + 0xe8] = a2\n 38383: jump [t0]\n      : @1266 (gas: 13)\n 38385: a0 = u64 [s1 + 0xf8]\n 38389: a3 = a0\n 38391: a4 = u64 [s1 + 0xe8]\n 38395: a0 = a0 | a4\n 38398: a1 = u64 [s1 + 0xf0]\n 38402: a5 = u64 [s1 + 0xe0]\n 38406: a1 = a1 | a5\n 38409: a0 = a0 | a1\n 38412: a0 = a0 >> 0x20\n 38415: a1 = a1 | a4\n 38418: a1 = a1 << 0x20\n 38421: a0 = a0 | a1\n 38424: jump [t0]\n      : @1267 (gas: 10)\n 38426: u64 [s1 + 0xf8] = a0\n 38430: u64 [s1 + 0x100] = a1\n 38434: a0 = u64 [s1 + 0xf0]\n 38438: a0 = a0 | a1\n 38441: u64 [s1 + 0xf0] = a0\n 38445: a0 = u64 [s1 + 0x138]\n 38449: a2 = a0 + 0xffffffffffffff80\n 38452: a0 = 0xffffffffffffffff\n 38455: a1 = 0xffffffffffffffff\n 38458: jump [t0]\n      : @1268 (gas: 8)\n 38460: a4 = a4 | a2\n 38463: a2 = a0 | a1\n 38466: a2 = a2 | a4\n 38469: a2 = a2 >> 0x20\n 38472: a1 = a1 | a4\n 38475: a1 = a1 << 0x20\n 38478: a1 = a1 | a2\n 38481: jump [t0]\n      : @1269 (gas: 12)\n 38483: a2 = u64 [sp]\n 38485: a3 = u64 [sp + 0x8]\n 38488: u64 [s1] = a2\n 38490: u64 [s1 + 0x8] = a3\n 38493: u64 [s1 + 0x10] = a0\n 38496: u64 [s1 + 0x18] = a1\n 38499: sp = s0 + 0xffffffffffffffc0\n 38502: ra = u64 [sp + 0x38]\n 38505: s0 = u64 [sp + 0x30]\n 38508: s1 = u64 [sp + 0x28]\n 38511: sp = sp + 0x40\n 38514: jump [t0]\n      : @1270 (gas: 12)\n 38516: a4 = u64 [s1 + 0xe8]\n 38520: a2 = u64 [s1 + 0xe0]\n 38524: a0 = u64 [s1 + 0xf8]\n 38528: a0 = a0 | a4\n 38531: a3 = u64 [s1 + 0xf0]\n 38535: a1 = a2 | a3\n 38538: a1 = a1 | a0\n 38541: a1 = a1 >> 0x20\n 38544: a0 = a0 | a3\n 38547: a0 = a0 << 0x20\n 38550: a0 = a0 | a1\n 38553: jump [t0]\n      : @1271 (gas: 7)\n 38555: a0 = a0 << 0x3b\n 38558: a1 = a0 >> 0x38\n 38561: u64 [s1 + 0x138] = a1\n 38565: a2 = 0x80 - a1\n 38569: a0 = 0xffffffffffffffff\n 38572: a1 = 0xffffffffffffffff\n 38575: jump [t0]\n      : @1272 (gas: 8)\n 38577: u64 [sp + 64] = 0\n 38580: u64 [sp + 56] = 0\n 38583: u64 [sp + 48] = 0\n 38586: a0 = 0x4e487b7100000000\n 38596: a1 = sp + 0x30\n 38599: u64 [sp + 0x48] = a0\n 38602: a0 = 0\n 38604: jump [t0]\n      : @1273 (gas: 9)\n 38606: sp = sp + 0xffffffffffffffc0\n 38609: u64 [sp + 0x38] = ra\n 38612: u64 [sp + 0x30] = s0\n 38615: u64 [sp + 0x28] = s1\n 38618: s0 = sp + 0x40\n 38621: sp = sp & 0xffffffffffffffe0\n 38624: s1 = a0\n 38626: i32 a0 = sp + 0\n 38628: jump [t0]\n      : @1274 (gas: 8)\n 38630: a0 = a0 + a4\n 38633: a3 = a3 + a1\n 38636: a5 = a3 <u a1\n 38639: a0 = a0 + a5\n 38642: ra = u64 [s1 + 0x100]\n 38646: ra = ra + a3\n 38649: a3 = ra <u a3\n 38652: jump [t0]\n      : @1275 (gas: 8)\n 38654: a0 = u64 [s1 + 0x8]\n 38657: a1 = i32 [s1 + 0x10]\n 38660: a2 = u64 [s1]\n 38662: a0 = reverse a0\n 38664: a3 = a0 << 0x20\n 38667: a1 = reverse a1\n 38669: a1 = a1 >> 0x20\n 38672: jump [t0]\n      : @1276 (gas: 6)\n 38674: a1 = a3 << 0x3\n 38677: u64 [s1 + 0x138] = a1\n 38681: i32 a2 = 0x80 - a1\n 38685: a0 = 0xffffffffffffffff\n 38688: a1 = 0xffffffffffffffff\n 38691: jump [t0]\n      : @1277 (gas: 7)\n 38693: a3 = a3 | a5\n 38696: a3 = a1 if a2 == 0\n 38699: a1 = 0xffffffffffffffff\n 38702: a0 = a1 if a4 == 0\n 38705: a3 = a1 if a4 == 0\n 38708: a5 = 0 if a2 == 0\n 38710: jump [t0]\n      : @1278 (gas: 6)\n 38712: a1 = a2 & ~a1\n 38715: a2 = u64 [s1 + 0x128]\n 38719: a2 = a2 & ~a5\n 38722: a3 = u64 [s1 + 0x130]\n 38726: a3 = a3 & ~a4\n 38729: jump [t0]\n      : @1279 (gas: 4)\n 38731: a0 = 0x2078\n 38735: a3 = s1 + a0\n 38738: a4 = a3 + 0x200\n 38742: jump [t0]\n      : @1280 (gas: 6)\n 38744: a0 = u64 [a3 + 0x18]\n 38747: a1 = u64 [a3 + 0x10]\n 38750: a2 = u64 [a3 + 0x8]\n 38753: a3 = u64 [a3]\n 38755: a0 = reverse a0\n 38757: jump [t0]\n      : @1281 (gas: 2)\n 38759: a3 = a2 & 0x40\n 38762: jump @1285 if a3 != 0\n      : @1282 (gas: 1)\n 38765: jump @1284 if a2 == 0\n      : @1283 (gas: 6)\n 38768: i32 a3 = 0x40 - a2\n 38771: a3 = a1 << a3\n 38774: a1 = a1 >> a2\n 38777: a0 = a0 >> a2\n 38780: a0 = a0 | a3\n 38783: ret\n      : @1284 (gas: 1)\n 38785: ret\n      : @1285 (gas: 4)\n 38787: a0 = a2 + 0xffffffffffffffc0\n 38790: a0 = a1 >> a0\n 38793: a1 = 0\n 38795: ret\n      : @1286 (gas: 2)\n 38797: a3 = a2 & 0x40\n 38800: jump @1290 if a3 != 0\n      : @1287 (gas: 1)\n 38803: jump @1289 if a2 == 0\n      : @1288 (gas: 6)\n 38806: i32 a3 = 0x40 - a2\n 38809: a3 = a0 >> a3\n 38812: a0 = a0 << a2\n 38815: a1 = a1 << a2\n 38818: a1 = a1 | a3\n 38821: ret\n      : @1289 (gas: 1)\n 38823: ret\n      : @1290 (gas: 4)\n 38825: a1 = a2 + 0xffffffffffffffc0\n 38828: a1 = a0 << a1\n 38831: a0 = 0\n 38833: ret\n","bytecode":{"object":"50564d000076b2000000000000010700c11002c000800381d8454b4f54205341506b6f5420504c204e4b4f54534150706c6461206e656b6f546170207373657264207369206465737361206c6c756e2061000073736572646465636572205341502073692064657669616874207373656c756d696e696d206e786520534150206d00006465746365707220736e656b6f5420646576696563657373656c20657261696d206e616874206f74206d756d696e70786520736e656b9bc8e21bad52f2ddaa8d37fc68b0c26916a1c463f1a72b95efb323f54d5af5286f20746e756f6d41736e656b6f7420666f6d6572206f7420207473756d2065767461657267206562206e6168742072651af85fc1fbac358af209d74f347dae39c6658caab400868e9bd16be37ffe4bb65b7decebe5e15b8cf3841e7d42714fd11e29b2f7c01403dd25b9c3c7c80a205b003c599e0e5a57c228db122fc9f859f9d002053b5a39c3695bf8716f4416255e6369666675736e496f6d6120746e65697420666f20746e75727020736e656b6f000064656469766f73657672657365526562207473756d2072657461657267200030206e616874209bc8e21bad52f2ddaa8d37fc68b0c26916a1c463f1a72b95efb323f54d5af5289bc8e21bad52f2ddaa8d37fc68b0c26916a1c463f1a72b95efb323f54d5af5280481141100000000070000000e00000012000000200000002e0000003c000000420000004f0000005a00000069000000760000008600000096000000a1000000b3000000be0000006164647265737362616c616e636563616c6c63616c6c5f646174615f636f707963616c6c5f646174615f6c6f616463616c6c5f646174615f73697a6563616c6c65726465706f7369745f6576656e746765745f73746f72616765686173685f6b656363616b5f3235367265665f74696d655f6c65667472657475726e5f646174615f636f707972657475726e5f646174615f73697a657365616c5f72657475726e7365745f696d6d757461626c655f646174617365745f73746f7261676576616c75655f7472616e73666572726564051302c065920463616c6cc06e92066465706c6f7906c054af825202c0b3979b00e30100040804de0422055d05bd05d305e60509066406bf061d073b079207ea07f707570871089b08d508030922099109c109760a250b3b0b110c260c570c750d820dab0db10dc90dcf0dd50ddb0de50d010e610eb20eb80ed20ef80e150f1f0f6b0f780fd60feb0f13104e107c109d100c113d11f2116b1281125c136a139c13bf14cd14fc1403151c1523152a1530153b156c1501166b1672168e16b516d316dd164f177617d3172b1867187a18b718f718051941199619a319b919081a181a361a701a801a9e1ad81ae81a061b3e1b4e1b6c1ba71bbe1bc91bef1bac1cb21ce91c211d3e1d051e701e851ebc1ec21ef11e621f681fec20f520262141219721df211e22a422c222082312234f23592375239e23d023d923f123b824d6240825112543254d25692596253e26b026bd26d3265527bc27ce27472854287228bd28c3282e296b297129e629232a292a7d2ae02af52a252b2b2b532b652ba82bae2b052c0b2c402c742c8d2cf12cf72c342d7e2d602ed02e0e2f142f4c2f722f1730ba30f53039313f318031b231dc3147327f329c32473373333d3467348134d8341935e235ec35083626366c367636c036ed3642374f37a837bd37c73741384e386438a13870393a3acc3a333b483b783b7e3ba63bb83bf73bfd3b393c473cbd3ce83cf13c353d3e3d5e3da43dae3d0a3e3e3e723e7c3e953e9e3ecf3eed3e273f343f9a3f16406d409c40f2404541a041a641be41dd41264230424e42c342c942e7420b439643a043de43014484449144b244ec4401450b458c4532466646d446e946f3469147f94718482248664877484c49044a154a834adf4aec4a1b4b244b4d4bb24bc64bd84b034c0d4cc04cff4c064d254d2f4d414d554d664d3d4eb04e3e4f6b4f714f844f8a4fcc4f7150c35058518251e351ff510952a252e152e85207531153235337534853cf53015407541a542054be54cb541e5524556d553f56df56c057d15744584a58d15805590b591c592259535984598a599d59a359d9590d5a135a265a2c5a6f5a2e5b425b6d5bc75bd75bf55b7a5c975cdc5cf95c565d6b5d755d925dbb5dec5d425e865ea35e025f2c5f865f9b5fa55fd15f0d604a607660df605d61aa6154629962a762c062e4625f638e63fd6370647e648b64ff647365836589659265ad65b365c365c965d265e765ae66c966cf66e8660c67ca671b68b86822698c69706a7e6a976abb6a616c716c8a6cae6cff6d0e6e246e486e876ec56ed96eef6e2e6f3671467164718871ee712472cd727173c3731b7484749474a274ce74d8747e75dd75f97559766b760477647774778277ac77b5775878b478d07823793579057a6b7ac97a1e7b687bd67b3f7c537c597c9d7c187d6b7dab7d0f7e537e5f7e787ea57eab7eca7ef67e1f7f257f427f747f827fbb7fdd7f33804380708093809a80b680da80e980a781ca81088260829d82308398836d8474848e84b284b0855686a486ea8644879387c887ff8710882f8869887a889988f088fc880b89a989c789098a128a2d8ab58ad38a4f8b588b8f8bb98bd78b128c1b8c348ca08cae8cc48cf68c6a8dac8dca8d0e8e2c8e7a8ea18ecb8ef98e1a8f898fd78f169040905e90a090a990c2902a9138914e917b91e19123923c926e927892aa876e978a2098aa20977b2098bb20c89b0bc9ba0a979b019abbaeab20ae873751094ec87909647a017c8b95880195ac0178ab64caab9cf42836510934c87909647a017c8b95880195ac0178ab64caab9cf4281c51091a839aff01c8a80b7cbb9599ffc8a70c78cb83aaff5209f032003908e0010251083d1b330710020383770a0e28301b9511f07b10087b15648964753308206497501002f9037c78017c797c7a027c7b03978808d4980897aa1097bb18d4ba0ad4a8087c79057c7a047c7b067c7c07979908d4a90997bb1097cc18d4cb0bd4b909979920d489027c79097c7a087c7b0a7c7c0b979908d4a90997bb1097cc18d4cb0bd4b9097c7a0d7c7b0c7c7c0e7c780f97aa08d4ba0a97cc10978818d4c808d4a808978820d498037c78117c7a107c7b127c7c13978808d4a80897bb1097cc18d4cb0bd4b8087c7a157c7b147c7c167c791797aa08d4ba0a97cc10979918d4c909d4a909979920d4890a7c78197c79187c7b1a7c7c1b978808d4980897bb1097cc18d4cb0bd4b8087c791d7c7b1c7c7c1e7c771f979908d4b90997cc10977718d4c707d49707977720d487076f776fa86f396f2a7b5a187b59107b58087b57821008821595111032009511d87b10207b15187b161082897b19088289087b19828510828618330820501004b1026f686f59821a6faa821b086fbb787b18787a10787908787898bc38787c1f98bc30787c1e98bc28787c1d98bc20787c1c98bc18787c1b98bc10787c1a98bb08787b1998ab38787b1798ab30787b1698ab28787b1598ab20787b1498ab18787b1398ab10787b1298aa08787a11989a38787a0f989a30787a0e989a28787a0d989a20787a0c989a18787a0b989a10787a0a98990878790998893878790798893078790698892878790598892078790498891878790398891078790298880878780182102082151882161095112832009511a07b10587b15507b16489515608411e06476828718828910828a0882886f776f996faa6f887b18187b1a107b19087b17491138491130491128491120481140208318831a20831b403309ff33070a08821738821830821928821a206f776f886f996faa7b6a187b69107b68087b679551a082105882155082164895116032009511a07b10587b15509515608411e08272827a08827b108277188283828908828c108288186f746fbb6faa6f276f826fcc6f996f387b17187b1a107b1b087b147b18387b19307b1c287b12208318831a203309ff330b2033070a0f9551a08210588215509511603200951120ff7b10d8007b15d0007b16c8009515e0008411e082bc7b1c4082bc087b1c4882bc107b1c5082bb187b1b5833020682ab7b1b1882ab087b1b2082ab107b1b2882aa187b1a308296829a087b1a829a107b1a088299187b1910491138203300082892007b18385010088c006f687b187882186f887b18708218086f887b18688218106f887b18608218186f887b1898008218206f887b1890008218286f887b1888008218306f887b1880008218406f887b18b8008218486f887b18b0008218506f887b18a8008218586f887b18a0008379811a388317603308030a07955120ff8210d8008215d0008216c8009511e00032008b7910520931c8780883881f8488e05638000001253309dc0102390adc0102ae8a093d08dc0102013308f001028377c887073200009511f07b10087b158475010a05013d07d8010251050750100a4833000c951110fe7b10e8017b15e0017b16d8019515f001951110dd8411e06416956978184929e0034929d8034929c80380003307409568401c4929d0033300dc0028a0fc951110fe7b10e8017b15e0017b16d8019515f0019511d0f88411e064164926780649267006492660068000330740956860064926680650100e67fc49269806492690064926880649268006836780060a1001956b000682b7900082b8980082b9880082ba8000d49808d4a707d48707510706282a143809d8010249263806492630064926280695674006956820067b6938017b692006501010b85b956b000682ba5882b85082b94882b7405012120b8d0051080628e7137b67300182683801501014aefe83778168380133090a03018268380156181f0728d513956700068268300150101681fa826810068269180614070000000001000000d38707d497077b6880009888208888017b69689498937852080628a913826708067b6770826700067b67784926d8054926d0054926c005409567e0059568c0054926c805501018115b956800058289f800828af000828be8008287e000d49b0cd4a708d4c808988820d4ac0c97cc20d4c808510806282d134926b8054926b0054926a805330c129568a0057b6ca0057b69c8007b6ac0007b6bb8007b67d00050101a05fb826ad0008267c8008268c000d487071408e0ffffff00000000d88a088269b8009498947852080628d71283a7203a090000023a08080002492680057b6998057b68900514090000000000006e65956880057b6988057b67f00050101ca7fa4926580549265005492640054095676005956840054926480550101e3a5a95680005828c78828970828a68828760d4ca0bd49708d4b808988820d49b0b97bb20d4b808510806285a12492638054926300549262805330b0a956820057b6b20057b6998007b6a90007b67a0007b6c880050102032fa826aa0008267980082688800d487071408e0ffffff00000000d88a08826990009498947852080628041283a7203a0810000249260805492600057b68180514090000000000004e45956800057b6910057b6718501022daf99567e0048268d00050102493f895670004827af8008278f0008279e8008ea78e8bdba70b7b69e8008e977b68587b6ae000d4a8087b67507b6ba8007b68d800db8b0751070628be118267e0047b67604926b8064926b0064926a8064926a006039567c0049568a0065010265ffa956b000482b7d00082b8c80082b9c00082bad8005012280a8c0088920184807fd27c04d23c0bdb9800880820d2ac0c648994b9d4c4079479aa920628c31150122a838c008267608877207b67b000510a02027b6b10017b6018017b6c20017b6430014926b8044926b0044926a8049568a0044926a00403330750102ceff83908dc010256181f0b2003dc010220019517e08479e07b69280164913307f001028377839933082033002e0a090182676095781fd87807826ce800c87c09d8c90ada770a826b58501230b98a008268b00094c8826ad80094a8948b9487c87402d84207c8790cc8cb0b7b6b3801d39b0cd89b0adac70a7b6a00018267180195701fd8700b826a1001c8ba07d8a70cdabb0c82633001c8c303973b3b987a05d4ba0a97773b980b05d4b707c847077b671801d847076424501232038c00826758d87b07826ae000c8a70798ba05977b3bd4ba0a826b280182b282bb08987705948a94876fb86f2b5012342b8d00c8a70282673001d87307826a2001c8a707983a05977c3bd4ca0a987705c8b707956c000182cb38c88a0ad88a08c88707c8a9097bc908d8a908c887077bc79517e08473e064317b63f8000182671801d8740782691001d39b08d89b09da8709826c0801d8c007826a0001d3a208d8a20ada870ad3c007d48707da790a7b347b3b087b30107b3218510a5f4926d8064926d0064926c8064926c0069568c00664377b6430017b6b38017b6228017b602001501036c1f88263f80082622801826b380182643001954401884701c87b0bd4b40788770182682001c88707d88708c8820264702868ff8267b000857701826be800826850dbb8078268a8008269d800db98078263e000d43b0282685898893f7b695097330198bc3f978401826a6098a03f97bb0197a9017b69407b63387b60307b6c287b644851071a027b62a8007b6b2084aae07b6ab00049267804492670044926680495686004492660040333075010389ff69517e08477e07b6718016471330820330750103a59f99518e08488e07b6810016481837783893308200a09492638012033024926300149262801330b330c330049262001826a100182a71882a81082a90882a36f776f886f9a6f336434826918017b93187b6af0007b9a107b6810017b9808647a7b97017b64080164a38267b0007b6b0001d87b07857b017b6cf80094cb01956c000182c720d47007947b018268d00082c738c87808826ab800c82a0a8269c00082c730c879098267c80082642801c874048267a800520b4f0182673801d8780bc8ba0a6427d32a027b67e000d87a0cda2b0c50123c0388007b63e8005207a80d9567c0017b60d80050103e64f48267d8018268d0018269c801826ac001956b00067bb7f8007bb8f0007bb9e8007bbae0009568e00682671801501040e0f68264e80095440188470182621001c87202d424078877018268f000c87803d8830882670801c88707826838019589207b690801d8890a8268e000c8a8097b69e800d8890bdaaa0b82683001c8b800d8800b82682801c8b8087b68280182680001958b20d88b0c8269f800c8c908d89809dacc09826ad800c8a909d8a90c826a2001c8ca0a7b6a20017b621001826c18017bc208644a7bc47bc31064747bc7187b63f000826708017b6738018262e8007b603001648c6490288efe826950d48a07d427075207370149262001492618014926280149263001826338826230826828826c48285d016420826360826bb000d33b0b826c58d4cb0bd47b0b826220826c48510bb00082673801d8780bc8ba0ad30a02d80a0cda2b0c5012429f86005207480c9567400450104408f3956800048287587b6730018287507b6728018287487b6720018287407b671001826760501246f68800501048e289007b6708017b68f0003307ff3308ff8269380150104aa4890050124c51880050104e9889005012502f850082692001501252598900956b00077bba187bb9107bb8087bb7956800078267180150105436f5826c4882622001826750826838d48707826828d4c808826930d49209826a4095aa01492638074926300749262807956c0007491c20037bca407bc9487bc8507bc758956720079568400733006428e4f4956780048268f0007b6b2050105629f2826c48826b20826828826230826338826950826a60826798047b673001826790047b672801826788047b671801826780047b67200101d48c077b671001d493077b670801d42b077b67000150125866880050105adb88007b67e0007b68f8008267608a79033307ff3308ff50105c9b88007b67f0007b68e8008268e000d487077b67e000826738018379803307ff3308ff50105e758800826b380188b98000826ae000db9a07826ce800826af800501260168800826bf0005012623c8500826b40d4b707956c000182cbd4b80882cb08d4ba0a82cb10d4b909956c0007491c60037bc990007bca98007bc888007bc780004926780749267007492668079567600795688007501064ccf3956720048268a00050106612f195670004827a388279308278288ea78e9bdba70b7b68b8008e877b69b0007b6aa800d4a9097b67d8007b6be0007b69f000db9b075207110b826720047b67c0004926b8074926b0074926a8074926a00704956700049568a007501068e0f2956b000482b71082b80882b982ba1850126a90840088920184807fd27c04d23c0bdb9800880820d2ac0c648994b9d4c4079479ab921a0b50126c0b85008267c0008877207b67e800510a05027b6b10017b6018017b6c20017b6430014926f8034926f0034926e8039568e0034926e00304330750106e76f13908dc010256181f0b2003dc010220019517e08479e07b69280164913307f00102837783993308203300700a09018267c00095781fd87807826cb800c87c09d8c90ada770a826bb0005012723e83008268e80094c8826af00094a8948b9487c87402d84207c8790cc8cb0b7b6b3801d39b0cd89b0adac70a7b6a00018267180195701fd8700b826a1001c8ba07d8a70cdabb0c82633001c8c303973b3b987a05d4ba0a97773b980b05d4b707c847077b671801d8470764245012748884008267b000d87b07826aa800c8a70798ba05977b3bd4ba0a826b280182b282bb08987705948a94876fb86f2b501276af8500c8a70282673001d87307826a2001c8a707983a05977c3bd4ca0a987705c8b707956c000182cb38c88a0ad88a08c88707c8a9097bc908d8a908c887077bc79517e08473e064317b63f8000182671801d8740782691001d39b08d89b09da8709826c0801d8c007826a0001d3a208d8a20ada870ad3c007d48707da790a7b347b3b087b30107b3218510a5f4926d8074926d0074926c8074926c0079568c00764377b6430017b6b38017b6228017b60200150107845f18263f80082622801826b380182643001954401884701c87b0bd4b40788770182682001c88707d88708c8820264702868ff8267e8008577018269b8008268d800db98078268e000826af000dba807510712028267c0008477e07b67c8004926b8034926b0034926a8039568a0034926a00304330750107a59ef9517e08477e07b6720016471330820330750107c13f29518e08488e07b6818016481837783893308200a094926380120330c4926280149263001330b330a330933038267180182721882781082700882777b6710016f277b6718016f846f02826710016f786480826720017b781864287b68d8007b78107b6408017b7408826818017b78017b6000018267c8007b6bf000d87b07857b017b6ae80094ab017b6310017b69f800d43907947b018267a00082683801c87808826a90007b6ce000c8ca028264980082692801c8490982638800826c3001c8c303520b3b01d87800c8020bd3ab02d8ab0cda200c50127e61810052076106956760025020800021ed956b000282b77882b87082b96882ba60956b00077bb7f8007bb8f0007bb9e8007bbae0009568e00782672001502082009cef82601801950001880701826a0801c87a0ad4a0078877018268d800c88707d8870882620001c88202826838019589207b690001d889088269e000c8890b7b6bd000d89b0bda880b82682801c8b804d8840b82683001c8b8087b6830018268f000958b20d88b0c8269e800c8c908d89809dacc09826cf800c8c909d8c90c82631001c8c3037b6a0801826c20017bca087b6018017bc07bc71064207bc2187b67d800826700017b673801826cd0007b642801648a28a1fe826ac000826bb000d4ba07826ca800d4c908d4870752078d014926200149261801492628014926300128bb01826bc800826cc000d3cb0b8260b000d40b0b7b6b3801826cb800826ba800d4bc0c826b3801d4cb0b510bcb00d87800c8020bd3ab02d8ab0cda200c50228400fe7f5207fe049567800350208600beeb95680003828798007b673001828790007b672801828788007b671801828780007b6710018267c00050228800a6810050208a009182007b6708017b68f0003307ff3308ff8269380150208c0052820050228e00fe80005020900044820050229200da7d8269180150229400048200956b00107bba18f8956a00107ba910f8956900107b9808f8956800107b8700f89568ff079588018267200150209600cced8260b0000198073f8268a800978801d48707826ab80098a83f970901d49808826bc00098b93f97aa01d4a90997ba0195aa01956b0010492b38f8956b0010492b30f8956b0010492b28f8956c0010492c20f804956b00107bba40f8956a00107ba948f8956900107b9850f8956800107b8758f89567ff079577219568ff079588413300a6002841ed9567c003826818502098008aea826ca800826bb0008269b800826ac000956800038287d8007b6730018287d0007b6728018287c8007b6718018287c0007b6720010198973f97b801d487077b67100198b73f97c801d487077b67080198a73f979801d487077b67000197a7017b67f80050229a00ae800050209c002281007b67d8007b68f0008267c0008a79033307ff3308ff50209e00e080007b67e8007b68e0008268d800d487077b67d800826738018379803307ff3308ff5020a000b98000826b380188b98000826ad800db9a07826ce000826af0005022a200598000826be8005022a4007e7d826bf800d4b707956c000182cbd4b80882cb08d4ba0a82cb10d4b909956c0010492c60f804956b00107bb990f8956900107b9a98f8956900107b9888f8956800107b8780f895670010492778f895670010492770f895670010492768f89567ff079577619568ff07958881005020a600e9eb82688000978720987720826978d49707826a70d4a7075207ac01956720033308405020a80015e995680003828b38828c30828a28828720d4ba09d4c708d49808988820d4c909979920d4980852082202492610034926080349260003140900000000a079c308956800037b6918037b6738017b6a30017b6b28017b6c20015020aa00f2e9956c000182c83882c72882ca20d47a0a140b00000000010000001407fcffffff00000000d8780782c930949794a75107bc018387044926f8024926f0024926e002209568e0024926e8027b6a28017b6b20015020ac009ae9956a000182a83882a7209577dcd8780782a930949782a9289497510778018387244926d8024926d0024926c002269568c0024926c8025020ae005ee995670001827b28827a308278385022b000c47b510743018387443a08180002956b00027bb8b8003a082000027b6920013a092800023a0a3000027bb8b0007bb9a8009568a0027bbaa0005020b2000ee9956a000182a93882a72095779cd8790782a830948782a82894875107ec008397643a0838000249269002492688027b68980295688002492680025020b400cee833088400826738015020b60090eb8378330701330984000a0d019567ff079577b90049074917f8956700104927a8f8956800104928a0f805956760039568ff079588a1005020b80076e9806774038268780397772082698000d49707826968d498089569ff079599b90049192049191849191049190805826a707b9a30826a787b9a287b98407b97389567ff079577c1009568ff079588e1005020ba00a2e9956740033308405020bc00e8e6956b000382ba5882b85082b94882b7405022be0025795108e401003308f00102838833070133090a0d28213308f00102838833070133090a0d28113308f00102838833070133090a0d014926700149266801492660013302c000140700000000717b484e01956860017b67780133075020c200ade74926580149265001492640014133070495684001492648015020c4008fe73908dc010256183f122003dc0102403308f00102283e013308f001022836014926b0014926a8014926a0013302c600140700000000717b484e019568a0017b67b80133075020c80045e74926980149269001492680012233070495688001492688015020ca0027e73908dc010256183f122003dc0102403308f0010228d6003308f0010228ce004926100249260802492600023302cc00140700000000717b484e01956800027b67180233075020ce00dde64926f8014926f0014926e001413307049568e0014926e8015020d000bfe63908dc010256183f112003dc0102403308f00102286e3308f0010228674926500249264802492640023302d200140700000000717b484e01956840027b67580233075020d40077e64926380249263002492620022233070495682002492628025020d60059e63908dc010256183f112003dc0102403308f0010228083308f001020183883307013309240a0d7b6738013300d80028f5e87b6738015020d800eee88377330833090a0328c1e48267380133085020da00d7e88378330733090a0d2827fe3307d801027b67f8003907d801025517040728a03e95670020837760fc33083300de000a040195697818819704045247419bd8950a28ce10956a78205147239f8f9c7201524758ea769d0a28c3175147bb9c05a9e20a51479e15b3ac8f035247d261ddc60a285c1c51478c86aad1670c52473eed62dd0a281320524703defd060a2861135247b3a75e090a2865185247dd0d16180a2879165147dd72b8231705524767e53c310a28791252470a59c6510a28660f5147395dbf590a28861449298005492978054929700549296805956700208377e0fd3300e0000a103302e2002862785022e2005f7882b77882b8800082b97082ba68d49808d4a707d4870751070628d73d8267f80081775617030728d13d9567ff07957721015020e4009f629568ff079588718287c8007b67f8008287c0007b67f0008287b8007b67e8008287b0007b67e0009567ff07957701013308405020e6006ae3956aff0795aa7182a7a80082a8a00082a9980082ab90005022e8008676510706287e3b8267e0007ba7708267e8007ba7788267f0007ba780009568ff079588e1008267f8007ba7880064b77b6bf80033000202284be44929200649291806492910064929080695670020837780fe0a1001956a781895ab000682b71882b82082b91082ba08d49808d4a707d4870751070628fe3c8267f80081775617230728f83c956700208377a0fe3308040a0401956778188272400695780006828c38828a30828b28d42a07d4cb08d48707510706284d219567ff07957781043308405020ea0086e29569ff079599718292280495980004828c20828b18828710d42b0ad4c708d4a808988820d4ca0a97aa20d4a808510806288a3a492900044929f8034929f003140a00000000a079c3089568ff07958861047b9a08047b67f8007b6bf0007b62e0007b6ce8005020ec0055e38268f8008267e800826ae000d47a0a5022ee001e7552070628373a8387049569ff079599714929e8034929e0034929d003209568ff07958841044929d8037b6ae8007b6be0005020f00009e35022f200a97452070628fa398387249569ff079599714929c8034929c0034929b003319568ff07958821044929b8035020f400d4e2826ae800826bf0008268f800140900000000010000001407bcffffff00000000d8780794b794a752070628a4398387443a08c000027b69e000956cff0795cc7195cb00037bb8a8003a08c800023a09d000023a0ad800027bb8a0007bb998009568ff07958801047bba90005020f60063e25022f8001f7452070628543983a7643a08e000023a09e80002956bff0795bb7195ba00037ba888007ba98000140800000000000000307ba8789568ff079588e103492b70033300de012814e2492a0001492af800492af000492ae80095670020837760010a1001956a782082a7f80082a8000182a9f00082aae800d49808d4a707d4870751070628d53a8267f80081775617630728cf3a95670020837780013308440a0495687820958900018297087b67f8008297107b67f0008297187b67e8008297207b67e000956700208377a0013308240a0495677820957900018298287b68d8008298307b68d0008298387b68c8008298407b68c000956700208377c0013308040a0495697820959a000182ab4882a75082a85882a960956a7810826ce0007baca003826ce8007bac9803826cf0007bac9003826cf8007bac8803826cc0007bacc003826cc8007bacb803826cd0007bacb003826cd8007baca80395ac00037bc9e0007bc8d8007bc7d00064ac956760149568401495692014956a00147bcbc8035020fa00cc633302fc009568781001828700047b67f800958900038297f8007b67f0008297f0007b67e8008297e8007b67e0009567e0133308405020fe0065df956a781095ac000382c7800082c87882c97082cb68502200018372510706287b378267e00095a900037b97488267e8007b97508267f0007b97589568c0138267f8007b976064b77b6bf80033000202284ae04929e0044929d8044929d0044929c80495670020837740fd330002010a1001956a781895ab000482b7d80082b8e00082b9d00082bac800d49808d4a707d487075107062811398267f8008177330863ac78062809399567ff07957701330004013302440328f27495670010827718f87b67a80095670010827710f87b67b80095670010827708f87b67f80095670010827700f87b67f0009567e0073300060133024e0328b3748267f8077b67a0008267f0077b6798008267e8077b6790008267e0077b67880095670020837760fd3308440a0495677818827800057b68e800957900048298f8007b68d8008298f0007b68c8008297e8007b67d0008267b8009777209877204926d8077b67787b67d0078267f8007b67c8079568c0078267f0007b67c00733075020080121df4926b8074926b0074926a007013307209568a0074926a80750200a0103df3308dc01023907dc010256173f0b2003dc010240019517e08479e07b69b00064913307f00102837783997b68c0003308407b67e00033000c010a09826ab00033020e01285374826ab00050220e014c747b67686f877b67606f977b67586fa77b67509517e08477e07b677064713307f001037b67b00083777b678000330010010a068269b00033021201282c6f8269b00050221201256f492698077b6890077b678807956880077b6a800733075020140150de826750956a00077ba7788267587ba7708267607ba768330720956860078269687ba9605020160127de8268c000818756173f08480840019517e08477e07b6768647183793308408267e000330018010a09826a6833021a0128226f826a6850221a011c6f8268707b8a187b89107b8b087b879567400750201c01c6de82645807826a5007826b480782624007d24b07d2a208d287075117ff34028267d000d872038268c800d38b07d88b0cda730c8269d800d89a008268e800d38407d88408da7008d3a909d49707da7c087b62707b6b687b64607b6a5851080628e1387b60407b6c487b63508267f000826878d487078268f800d4870752070628ad39826780000a06018269b0008097108298829908d48707d4970752070628d239492638078267f0007b6720078267f8007b672807956820078267787b673007330750201e010ddd49261807492610074926000701330720956800074926080750202001efdc8268c000818756173f08480840019517e08477e07b6778647183793308408267e000330022010a09826a7833022401285372826a78502224014d727b67386f877b67306f977b67286fa77b67209517e08477e07b6778647182678000330026010a068269b0003302280128386d8269b00050222801316d4926f8067b68f0067b67e8069568e0067b6ae006330750202a015cdc826720956a00067ba7d8008267287ba7d0008267307ba7c8003307209568c0068269387ba9c00050202c012fdc8268c000818756173f08480840019517e08477e07b67c000647183793308408267e0000a098267d800826858c97807826948c99708d897078269e800826a60c99a09826a40c9a909c979098267c800826a68c97a07826a50c9a707956a781895ac00057bc9207bc8187bc710826bc00082b78268d000826970c989087bc80882b8086f798267787b791882ba1082b9186f887b78106fa87b78086f987b789568801d50202e01fadc8267d0007b676005826788007b6780058267f0007b67a0058267c8007b676805826790007b6788058267f8007b67a8058267d8007b677005826798007b6790058267b8007b67b0058267e8007b6778058267a0007b6798059567a0059568800595696005826aa8007b6ab8055020300161629567400533084050203201ced9956b000582ba5882b85082b94882b740502234010b6c51080628e9314926380549263005492628059568200549262005017b67f8003300020228c9da492ac000492ab800492ab000492aa80095670020837720010a1001956a782082a7b80082a8c00082a9b00082aaa800d49808d4a707d4870751070628a6338267f8008177330843ac7806289e339567a0133300360133024403287c6f95687810958900038297287b67f8008297307b67f0008297387b67e8008297407b67e00095670020837740013308240a04956778208278c8007b68d8008278d0007b68d0008278d8007b68c8008277e0007b67c0003307f001037b67b8008377330038010a06018269b800829708819810829950223a01156d9877206f99979a20d4a707989920956a7810826bc00095ac00027bcbe000826bc8007bcbd800826bd0007bcbd000826bd8007bcbc800826be0007bab0003826be8007bcbf800826bf0007bcbf000826bf8007bcbe80095ab00037bb9187bb7107bb808956780139568601395694013492a200350203c01ca609567201333084050203e0137d8956a781095ac000282cbc00082c8b80082c9b00082c7a80050224001d06d510806284a30492aa002492a9802492a88020195680013492a90027b67f80033000202282ad9492aa002492a9802492a9002492a88029567002083770003330042010a103302440128916e502244018e6e82b7980082b8a00082b9900082ba8800d49808d4a707d487075107062809328267f80081775617430728033295670020837720033308040a0495687820958900028297c0007b67e0008297b8007b67e8008297b0007b67f0008297a8007b67f8009567001b502046015a569568781895890002829788007b67d800829790007b67d000829798007b67c8008297a0007b67c0009567002083774003330048010a0133024a0128e36d50224a01e06d82b7c80082b8d00082b9d80082bae000956b781895bc00027bca207bc9187bc8107bc7088267c0007bc7408267c8007bc7388267d0007bc7308267d8007bc7288267e0007bc7608267e8007bc7588267f0007bc75064bc9567e01a9568c01a9569a01a956a801a826bf8007bcb480250204c01d25a9568781895890002829780007b67c0008297787b67c8008297707b67d0008297687b67d800956700208377600333082433004e010a0433025001282b6d50225001286d82b7f00082b8e80082b9f80082aa0003826cd000d37c0bd87c07826cd800d88c08dbb708826bc000d3ab07d8ab0a826cc800d89c0bdb7a0bd3c909d49707db7b08520806288b2095678018330840502052010ed695697818829220829c18829b10829a08d42b07d4ca08d47808988820d4c707977720d48707510706281a2e956778104927f8074927f0074927e807140700000000a079c308956860187b9764a77b6af8007b6bf0007b62e8007b6ce00050205401e5d68268f8008267e800826ae000d47a0a50225601ae6852070628c72d838704956978104929e0074929d8074929c80720956840184929d0077b6ae8007b6be00050205801a0d650225a01406852070628912d838724956978104929c0074929b8074929a8072e956820184929b00750205c0172d6826be800826af0008268f80050225e01d96852070628572d8387443a084000027b69e000956b781095bc00077bc8a0003a084800023a095000023a0a5800027bc898007bc99000956800187bca8800502060011dd650226201d967520706280e2d83a7643a086000023a09680002956b78107bb88007492b70077bb978079568e017492b68073300de0128e2d58267f800817756172307280c2f956700208377c0fd330804330064010a043302660128096950226601066982b94882b75082b85882ba60956bff0795bb717bba487bb8407bb7389567ff079577c1009568ff079588a1007bb930502068014e459568ff079588718287687b67f8008287607b67f0008287587b67e8008287507b67e0009567ff079577810033084050206a0117d4956aff0795aa7182a72882a82082a91882ab1050226c013767510706282f2c8267e000956800107b8760f88267e800956800107b8768f88267f0007ba79568ff079588618267f8007ba70864b77b6bf8003300020228f6d44929e0054929d8054929d0054929c80595670020837740fe33006e010a1033027001281d68502270011a6882b7d80082b8e00082b9d00082bac800d49808d4a707d4870751070628ea2d8267f80081775617030728e42d9567ff079577c1033308405020720157d39568ff07958871958900038297687b67588297607b67608297587b67688297507b677095687818492800064928f8054928f0054928e805049567ff079577a1039568601e5020740139d59567ff07957771827440038270380382734803827b300397473f980801d4870797383f984901d4980897093f98ba01d49a0c9839017b6be80084bb019abad2a808d27a02d2a90984c77f7b67f000dab70c7b6cb80088c7207b62a80094277b68b0007b69a000d4980894877b6bf80088b801aa780628192d826960826a70d49a07826868826b58d4b808d48707987720d49808978820d4780851080628a52a64a77b60d0007b64d8007b63e0008268b800956aff0795aa7195ab00037bb8108268a8007bb8188268b0007bb8209568ff07958881038269a0007bb9285020760165d38267f80051070628de26826760826858d487071408e0ffffff00000000826a70d88a088269689498947852080628322a8267e800847800ff83a7209569ff07959971826ad000959b00027bba98007bb890008268d8007bb8a0009568ff0795880103826ae0007bbaa80050207801f5d2826c703304330333028267f0008e779777057b67f80028762849294005492938054929300549292805956700208377a0fd33007a010a1033027c0128006650227c01fd6582b73882b84082b93082ba28d49808d4a707d4870751070628602c8267f800817756170307285b2c9567ff0795774133084050207e013fd195670010827a58f895670010827850f895670010827948f895670010827740f8502280016c63510806284a2995680010492838f895680010492830f895680010492828f89568ff07958821956a0010492a20f8127b67f800330002022817d24929200449291804492910044929080495670020837780fc0a1001956a781895ac000482c71882c82082c91064ab82ca08d49808d4a707d4870751070628b42b8267f80081785618030728af2b492b4004492b3804492b3004492b2804039567a0029568a01c50208201a0d2956800028289b000828aa800828cb8008287a000979b3f98a801d4b80297c83f7b69f000989901d498087b6ae00097a93f987a01d49a0b7b6ce80098c3017b67d000847c019acad28a04d22a09d23a0a84b77f7b67d800dac70b88b7209497d4a40894877b6cf80088c801aa780628272b7b6bb800956c00027bcb80007b69a8007bc988007b64b0007b64900233078000956880027b6aa0007bca9800502084010bd18267f80051070628ee1e8267d000847700ff8268e000956900027b98087b978267f0007b97108267e8007b97183307a0009568000250208601d0d0330833073302330ac0008269d800939aa00028602351473182a0700a286a294929a00549299805492990054929880595670020837700fe330088010a1033028a0128d56350228a01d26382b7980082b8a00082b9900082ba8800d49808d4a707d4870751070628b92a8267f8008177330823ac780628b22a9567ff079577e10133008c0133024403285165956aff0795aa7195ab000182b77082b87880a98001492a68017bb9607bb8589568ff079588c1017bb750330750208e0113d09567ff0795777149274801492740014927380164793307209568ff079588a1014929300150209001e9cf3908dc010256183f0b2003dc010240019517e08479e07b69f80064913307f00102837783993308400a09826af80082a71882a81082a90882aa6f776f886f996faa956b781895bc00057bcac0007bc9b8007bc8b0007bc7a8009567ff07957781019568201e5020920170d09568ff07958871958900018297287b67f8008297207b67f0008297187b67e8008297107b67e0009567ff0795776101330840502094010cce956aff0795aa7182a7080182a8000182a9f80082abf0005022960128615107062820268267e0007ba7d0008267e8007ba7d8008267f0007ba7e0009568ff07958841018267f8007ba7e80064b77b6bf8003300020228ebce4929a00449299804492990044929880495670020837700fd0a1001956a781895ac000482c7980082c8a00082c9900064ab82ca8800d49808d4a707d48707510706280c298267f800817756170307280729492bc004492bb804492bb004492ba80402956700059568201d5020980170cf956800058287187b67f8008287107b67f0008287087b67e80082877b67e0009567e00433084050209a0118cd956b000482b7f80082b8f00082b9e80082bae000d49707d48a09d47909989920d48707977720d497075107062820258267e000956900047b97c0008267e8007b97c8008267f0007b97d0009568c0048267f8007b97d80064a77b6af8003300020228ebcd492a8000491a78491a70491a68956700208377e0000a1001956a782082a77882a8800082a97064ab82aa68d49808d4a707d487075107062826288267f800817756170307282128492ba000492b9800492b9000492b8800059567e0129568002150209c017ace95687810958900028297787b67e8008297707b67f8008297687b67f0009567c01233084050209e0124cc956a781095ac000282cb6082c85882c95082c7485022a001c161510806283b248268e800978820988920492a40028268f00095ab00027bb8288268f8007bb8309568a0127bb9387b67f800330002022809cd49296004492958044929500449294804956700208377c0fc3300a2010a1001956a781895ab000482b75882b86082b95082ba48d49808d4a707d48707510706284c278267f8008177330843ac78062845279567a0043300a4013302440328b861956800048287b0007b67d8008287a8007b67f0008287a0007b67f8009517e08477e07b67e0006471956700208377e0fc3308240a0495677818957b000482b8800082b97882ba7082b7687b689000826be0007bb8187b6988007bb9107b6a80007bba087b67787bb73307f001037b67e80083777b67d0000a06018269e8008097108298829908d48707d4970752070628ac268267d8009777209878208267f0008269f800d497077b68d800d4870752070628ec268267d0003300a6010a068269e8003302a80128995c8269e8005022a801925c492698047b6890047b678804956880047b6a800433075020aa01bdcb4926780449267004492660040133072095686004492668045020ac019fcb3308dc01023907dc010256173f0b2003dc010240019517e08479e07b69b80064913307f00102837783997b68c8003308407b67c0003300ae010a09826ab8003302b00128ef60826ab8005022b001e8607b67b0006f877b67a8006f977b67a0006fa77b6798009517e08477e07b67b8006471492658048267d8007b6750048267f0007b674804956840048267f8007b67400433075020b20105cb82679800956a00047ba7388267a0007ba7308267a8007ba728330720956820048269b0007ba9205020b401d8ca8268c800818756173f08480840019517e08477e07b67c800647183793308408267c0000a09826ac80082a71882a81082a90882aa6f7b6f886f996faa8267b8007b7a187b79107b78087b7b8268e0005020b601f6cb956700043308405020b8013cc9956b000482b71882b81082b90882bad49707d48a09d47909989920d48707977720d497075107062849218267787b67e003826780007b67e803826788007b67f0039568e003826790007b67f80364a77b6ae0005020ba011dca8267d0003300bc010a068269e8003302be01280a5b8269e8005022be01035bd4780298aa206f99979820d4a808989920492698038267d8007b6790038267f0007b6788038267f8007b6780034926b8033a0a1001023a0b1801023a0c2001023a072801027b6ad8037b6bd0037b6cc8037b67c0037b69b0037b68a8033308209569c003956aa003956b80037b62a0038267e0005020c00160cb956760033308405020c2013dc8956b000382ba7882b87082b96882b7605022c4017a5a5108062858204926580349265003492648039568400349264003017b67f800330002022838c98267f8008177561723072884249567c0175020c601e74695687810958900078297487b67f8008297507b67f0008297587b67e8008297607b67e0009567782049278001492778014927700149276801956700208377e0010a1095687820958900018297687b67d8008297707b67d0008297787b67c800829780007b67c00095670020837700020a0195697820959b000182ba880082b7900082b8980082b9a000956b7810826cc0007bbc0007826cc8007bbcf806826cd0007bbcf006826cd8007bbce80695bc00077bc9207bc8187bc7109567a01795688017956960177bca085020c801533095677810957900078298287b68d8008298307b68d0008298387b68c8008298407b68c000956778204927c0014927b8014927b0014927a80195670020837720020a1095697820959a000182aba80082a7b00082a8b80082a9c000956a7810826ce0007bac8006826ce8007bac7806826cf0007bac7006826cf8007bac6806826cc0007baca006826cc8007bac9806826cd0007bac9006826cd8007bac880695ac00067bc9c0007bc8b8007bc7b00064ac956740179568201795690017956ae0167bcba8065020ca017e4a95687810958900068297e0007b67e0008297d8007b67e8008297d0007b67f0008297c8007b67f80095670020837740023308040a0401956a782095ab000182b7d00082b8c80082b9d80082bae000826cf000d37c0bd87c07826cf800d88c08dbb708826be000d3ab07d8ab0a826ce800d89c0bdb7a0bd3c909d49707db7b08520806287916956720153308405020cc01bfc5956978108292c00495980004828cb800828bb0008287a800d42b0ad4c708d4a808988820d4ca0a97aa20d4a80851080628c31d492998044929900449298804140a00000000a079c308956800157b9aa0047b67f8007b6bf0007b62e0007b6ce8005020ce0192c68268f8008267e800826ae000d47a0a5022d0015b5852070628741d83870495697810492980044929780449296804209568e014492970047b6ae8007b6be0005020d2014dc65022d401ed57520706283e1d83872495697810492960044929580449294804359568c014492950045020d6011fc6826be800826af0008268f8005022d801865852070628041d8387443a087000027b69e000956b781095bc00047bc8403a087800023a098000023a0a8800027bc8387bc9309568a0147bca285020da01cec55022dc018a5752070628bf1c83a7643a089000023a09980002956b781095ba00047ba8207ba918140800000064657463657ba81095688014492b08045020de018cc5330884008267f8005020e0014ec88378330701330984000a0d01492a4004492a3804492a3004492a2804956700208377a0040a1001956a782095ab000482b73882b84082b93082ba28d49808d4a707d487075107062892208267f8008177330843ac7806288b201407ffffffff000000007b67f8009567201c3300e2013302440328145a956878188287a8037b67f0008287b0037b67d0008087b8037b67c8009567001c3300e40133024e0328e9593302e601956878180195890003829798007b67e800829790007b67e000829788007b67d800492880038267c8007b97788267d0007b977064899568e01b8267f0007b97680333075020e80190c43302ea0195687818014928600349285803492848030164893307209568c01b492950035020ec0167c43308dc01023907dc010256173f0b2003dc010240019517e08479e07b69c80064913307f00102837783997b68f0003308407b67d0003300ee010a09826ac8003302f00128b759826ac8005022f001b0597b67c0006f877b67b8006f977b67b0006fa77b67a8009517e08477e07b67c80064718267d8008477ff8269e0008498ff8269f800826ae800d2a909956a7818492a400395ab00037bb9387bb8309568a01b7bb72833075020f201bbc38267a80095687818958900037b97208267b0007b97188267b8007b9710648a3307209568801b8269c0007ba908035020f40187c38268f000818756173f08480840019517e08477e07b67f800647183793308408267d0003300f6010a09826af8003302f801288054826af8005022f80179548268c8007b8a187b89107b8b087b879567601b5020fa0122c43302fc019568781801828700037b67f800958900028297f8007b67f0008297f0007b67e8008297e8007b67e0009567401b3308405020fe01bcc1956a781895ac000282c7e00082c8d80082c9d00082cbc80050220002d75451070628cf198267e00095a900027b97a8008267e8007b97b0008267f0007b97b8009568201b8267f8007b97c00064b77b6bf800502002029ec23308208267f8005020040261c5837833092033070a0d01956700208377c0fe7b62f8007b6bf0007b6ce8007b6ae0000a0195687818958900068297487b67b8008297507b67b0008297587b67a8008297607b67a00049288006492878064928700649196802956780129568e01e502006021dc395687810958900028297087b67d8008297107b67d0008297187b67c8008297207b67c0008267f800958900017b97c0008267e8007b97b8008267e0007b97b0008267f0007b97a8008267a0007b97e0008267a8007b97d8008267b0007b97d000648b956760129568401295692012826ab8007bbac80150200802ab2a956c781082cae80182c7f00182c8f80182c90002826bc0007bcb6001826bc8007bcb5801826bd0007bcb5001826bd8007bcb480195cb00017bb980007bb8787bb770956700129568e0119569c0117bba6850200a02472c95687810958900018297a0007b678000829798007b6778829790007b6770829788007b67689567a01150200c02ec3e956c781082ca280182c7300182c8380182c94001826bf8007bcbe000826be8007bcbd800826be0007bcbd000826bf0007bcbc8007bc900017bc8f8007bc7f0009567801195686011956940117bcae80050200e02cf29956b781095bc000182ca0882c71082c81882c920826cc0007bbc8000826cc8007bbc78826cd0007bbc70826cd8007bbc687bb9a0007bb898007bb7900095672011956800119569e0107bba8800502010026f2b956878108287c0007b67588287b8007b67508287b0007b67488287a8007b67403307f001037b67d80083777b67d0000a06018269d8008097108298829908d48707d4970752070628431d8267d000330012020a0633021402289b515022140298514919607b98587b97509568c0107b9a4833075020160207c09567781049174049173849173064793307209568a01049192850201802e8bf3309dc01023907dc010256173f0b2003dc010240017b69c0009517e08479e07b69b80064913307f001027b6760837783993308407b67c80033001a020a09826ab80033021c02287752826ab80050221c0270527bcaa0007bc998007bc890007bc78800956780109568001f50201e0269c09568781001828920828718828c10828b088268f800d389037b69a800d889088269e800d8970a7b6a9000da3a08826ae000d3ac027b6cb000d8ac0c826af0007b6bb800d8ab0a7b6a9800da2a0c7b67a000d37909d439077b6c8800da7c0851080628a41c8267d000330020020a06330222022878505022220275504909959b00ff7bb8f8007bb7f000956860107bbae800330750202402debe9569ff079599714929e8074929e0074929d807330720956840104929d00750202602babe8267e8008268a000c9780782688800c987097b69a000d887078268f8008269a800c9890882699000c99808c978087b68a8008269c00081978268e000826ab000c98a08826a9800c9a8087b68b000826af000826bb800c9ab0b7b6bb80056173f08480940019517e08477e07b67c000647183793308408267c800330028020a09826ac00033022a02280751826ac00050222a0200517bcac0007bc9b8007bc8b0007bc7a8008267a8007bc7e0008267a0007bc7d8008267b0007bc7d0008267b8007bc7c8009567201f9568401f50202c025abf95677818492700074927f8064927f0064927e80602956720109568601f50202e02b6be9567ff079577718278b8078272c8078273b007827ac007826be000d3b807d8b80c8260f000d80304da740c8267e800c97a09d87a0a8267f800c97207c9a707d8c90ac9a707c9c90ac9b808c94808956b781895bc0007491c0802c903097bc9287bc8307bca387bc740492b2007492b1807492b10079567801f9568a01f50203002b4be9567001033084050203202fabb956aff0795aa7195ac000782cba80082c8a00082c9980082c79000502234029051510806280a148268f00095ab00077bb8708268e0007bb8788268e8007bb880009568ff079588e1078269f8007bb988007b67f80050203602d9bc8267d000330038020a068269d80033023a0228c64d8269d80050223a02bf4dd4780298aa206f99979820d4a8089899203a0aa000023a0ba800023a0cb000029567ff079577717b7a68077b7b600749272807957b00077bbc583a0ab800024927200749271807492710077bba507bb9407bb8387b7230073308209569ff079599c107956aff0795aaa107956bff0795bb8107492748078267f80050203c0215be8267d0000a068267800095687818958900077b97608267787b97588267707b97508267687b9748482868074928a0074928980749289007492888078267d8009777209877209568c01f978820988a2095680020978820d48a0a826b6097bb2098bb209568e01f978820d4b80c3308ff3309ff7b67f0000a020151070628b812956878184928e0074928d8074928d0074928c807059567ff07957741079568402050203e0285bc9568ff07958871958900068297e0007b67b8008297d8007b67b0008297d0007b67c0009567ff07957721073308405020400225ba9562ff0795227195280006828cc800828bc000828ab8008287b000d4ca09d4b708d49808988820d4b909979920d498085108062826124922a00649229806492290067b6ae800140a00000000bb9c05a99568ff07958801077b2aa8067b67f8007b6be0007b6cc80050204202f1ba8267d000330044020a068269d8003302460228de4b8269d80050224602d74bd4780298aa206f99979820d4a8039899208267f800957a04d87a0b8267e800c8b708d87807dabb07826be000c8b707d8b70b826cc800c8cb0b956cff0795cc717bcb680695cb00067bb7607bb8588267587bb7288267507bb7208267487bb7188267407bb7107bba507bb9407bc338067bc230069567ff079577e1069568ff079588c1069569ff079599a106956aff0795aa8106492c4806502048021d3b9568ff07958871828778068282880682837006828a80068268e800d3870bd8870c8260f800d80304dab40c8269e000c99a0bd89a0a8269c800c99209c9a909d8cb0ac9a9097b69a800c9cb0b7b6ba000c98707c947077b679800c903077b67d00033004a020a0a018267b0006f779778208269b8006f99989920d498088269c00050224c02ec4b826ad80050224e02b24d49094919f84919f08267d000647a826ba000d4b7078268a800826c9800d4c808d48707987720d4b808978820d487074919e85107062868108267f80064a8502050022fbc7b67d8003308208267f800502052021ebc9569782048190820491940ff491938ff491930ff491928ff140800000000080000008269f000d48902956860209788209888209569a020979920d4890a8268d800978820988820826bd00097bb20d48b0b97772098772095688020978820d4780c3308ff3309ff64270a020151070628e2100a0c01330820ae87080a0c6478019569ff07959971826af800826be000826cc8007b68d8004926f0007b98b0057b9ad0054929b805826ae8007b9ad8054929c0057b9be0054929c8059567ff07957741069568ff07958821067b9ce80550205402a11c8263f8008268d800c83807d887088262e800826cf000c82c09c88909d3c90ad8c90bdaa80b8260e000c80c08c88b0bd88b04d8c808826ac800c8ac0cc8c808c884049568ff079588717b8b60059568ff079588717b8958059568ff079588717b8750059567ff079577717b7a88059567ff079577717b7080059567ff079577717b7278059567ff079577717b7370059567ff07957701069568ff079588e1059569ff079599c105956bff0795bb717bb46805502056020e1d9567ff079577a1053308405020580276b69569ff079599718292480595970005827c40827b38827a30d42b07d4ca08d47808988820d4c707977720d4870752077d0e8267687b9710058267707b9718058267787b9720059568ff0795888105826780007b97280564a77b6af8007b6bf0007b62e0007b6ce80050205a0242b7826af8008267e8008268e000d487071408e0ffffff00000000d88a088269f000949894785108180e83a720826840956bff0795bb717bb8f0048268487bb8f8048268507bb800059568ff07958861058269587bb9080550205c02e6b63308408267f80050205e02a9b9837833094033070a0d2849f49568782049282003492818034928100349280803059567601a95688023502060029cb7330262029568781801958900018297f8007b6788008297f0007b6780008297e8007b6790009567401a330840502064023eb59562781895280001828ce000828bd800828ad0008287c800d4ca09d4b708d49808988820d4b909979920d498085208450d4922b8014922b0014922a8017b6aa800140a00000000dd72b8239568201a7b2ac0017b67b8007b6ba0007b6c98005020660213b63307f001037b67b00083777b6778330068020a018269b000829708819810829950226a020b497b68709877206f98978920d497077b67689888207b686082677833006c020a068269b00033026e0228c4468269b00050226e02bd46d4780298aa206f99979820d4a8039894208267b800957a04d87a0b8267a800c8b70cd87c07dabb078268a000c88707d8870b82689800c88b0b8268e000956978187b9820018268e8007b9818018268f0007b9810018268f8007b9808018268607b9838018268687b9830018268707b982801959800017b8b80007b8778492940017b8c707b8a687b9458017b9350017b924801649c9567001a9568e0199569c019956aa019956b8019492c600150207002611b95687818828790018282a00182838801828a98018268a800d3870bd8870c8260b800d80304dab40c8269a000c99a0bd89a0a82699800c99209502272026e48330074020a0a01826780006f77977820826988006f99989920d498088269900050227602df46826ab00050227802a54849294003492938034929300350227a02b6484929280352077a0b8267b80064a850207c0240b77b67f0003308208267b80050207e022fb795697820959a0003481a4820492a8000ff491a78ff491a70ff491a68ff8268b000978820988920140800000000080000007b69e800d489029568a0239788209888209569e023979920d4890a8268f000978820988820826bf80097bb20d48b0b9777209877209568c023978820d4780c3308ff3309ff64270a02015207650b0a0c01330820ae87080a0c64780195697818826ab800826ba000826c98007b68f0004926f8007b98a8007b9ac8004929b000826aa8007b9ad0004929b8007b9bd8004929c00095674019956820197b9ce00050208002b0178263b8008267f000c83700d870088262a800826cf800c82c09c88909d3c90ad8c90bdaa80b826aa000c8ac08c88b0bd88b04d8c80882679800c87c0cc8c808c88404956878187b8b587b89507b80487b8780007b8a787b82707b8368648b956700199568e0189569c0187bb4605020820262188267780a06956778208268c000957900037b98c0008268c8007b98b8008268d0007b98b0008268d8007b98a8004827c803492700044927f8034927f0034927e80395672024977720987720330bf0010295686024978820d4780a7b6bf80097bb2098bb2095674024977720d4b70c3308ff3309ff8267e8000a0201520706283b129567a018330840502084024db1956778188278407b68f0008278387b68e8008278307b68e0008277287b67f800330086020a0c3302880228354350228802324352084e0964799877205207450950228a02614650208c020bb5956878208269e8007a8908048377956800208388800433090a0b956778208177080428a10a492678024926700249266802956860024926600203330750208e02f9b19517e08478e064814926f800330c330433033a023001023a093801023a004001023a074801027b82187b69d0007b89107b800864797b87140760ffffff000000007b6798007b689000017b69d8008267b8008269f800d879078269a800d39c0a7b6cf000d89c09daa709826bb000d8b407826aa000d3a30cd8a30adac70ad3b407d4c707da790a510af203956740027b63e8007b62c8007b64e0007b60c0005020900246b2826ce0008267e800d4c7078268f80082699800d898088269f00094989478510830088262580295690002829850829a48829b408267f8008377a0007b9b207b9a287b9830956820027b6238025020920202b18263e800826cd80095cc0188c7018260c000c87000d40c078877018268d000c88707d88708826ac800c88a0a8268f800958220d88209826bf000c89b04d8b40bda990b8268e000c88b0bd88b09c89303826890007b800864c97b8c7b87107b8a187b67d0007b62f800644c64b464a228e4fe95687820492800024928f8014928f0014928e801059567c01695686022502094025fb195687810958900068297587b67a8008297507b67a0008297487b67b0009567a0163308405020960209af9562781095280006828c40828a38828b30828728d4cb09d4a708d49808988820d4a909979920d49808520814074922180649221006492208067b6ac000140a00000000bb9c05a9956880167b2a20067b67d8007b6bc8007b6cb80050209802e2af3307f001037b67d000837733009a020a068269d00033029c0228c8408269d00050229c02c140d4780298aa206f99979820d4a8039894208267d800957a04d87a0b8267c800c8b70cd87c07dabb078268c000c88707d8870b8268b800c88b0b8268e000956978107b98a0058268e8007b9898058268f0007b9890058268f8007b988805959800057b8be0007b87d8007b8cd0007b8ac8007b94b8057b93b0057b92a805649b956760169568401695692016956a0016492bc00550209e020c30956878108287f005828200068283e805828af8058268c800d3870bd8870c8260d800d80304dab40c8269c000c99a0bd89a0a8269b800c992095022a0028c423300a2020a0a018267a0006f779778208269a8006f99989920d498088269b0005022a402fd40826ad0005022a602c3424929200249291802492910025022a802d44249290802520798058267d80064a85020aa025eb17b67f0003308208267d8005020ac024db195697820959a0002481a2820491a60ff491a58ff491a50ff491a48ff8268d00097882098882014090000000008000000d49802956880229788209888209569c022979920d4890a8268f000978820988820826bf80097bb20d48b0b9777209877209568a022978820d4780c3308ff3309ff64270a02015107c50c9567e0153308405020ae02bcac9567781095790005829880007b68f0008298787b68e8008298707b68e0008297687b67f8003300b0020a0c3302b202289f3e5022b2029c3e5208b80464799877205207af045022b402cb415020b60275b0956878208269e8007a8968028377956800208388e00233090a0b9567782081776802280b068267f800957aa000d87a078269f000c87908d89809da7709c89407d84702c832020195ab80d8ab0ac8a80c95ccffd38c09d88c08da9a089579ffc89808d89809887701c97207c879094926f8014926f0014926e8014926e00180007b6bc0017b6cc8017b68d0019567e0019568c0017b69d8015020b8022f119567a0013308405020ba02c0ab956c000182c9b8007b69f80082c8b0007b68f00082caa8007b6ae80082cba0007b6be000492658014926500149264801491c4080007bc9787bc8707bca689567800195686001956940017bcb605020bc02cc0d5022be02564152079b0364a2956c000182c7880082c898007b68d8008263800182ca9000282a039569ff0795997149290803492900034929f8029568ff07958861034929f0020433075020c00258ac9517e0847be064b14926f8003304330333023a00f000023a0af800028268709587207b679800d88707826868c878097b699000d88908da77083a0c0001023a070801027bb0187b6ac0007bba107b6cd0007bbc0864bc64797bb7826760c878087b688800d87807826858c887077b6780007b6b78017b69c8007b60d8008267b8008268f800d878078269a800d39408d89409da8709826bb000d8b307826aa000d3a208d8a20ada870ad3b307d48707da790a510a39019567ff079577410364c87b62f0007b63e8007b64e0005020c20278ac8264f8008263e0008260e80082689800c84807d88708826b9000c83b09c88909d3b90cd8b90bdac80b826c8800c80c08d8c802826cf000826a8000c8ac0cc82c0cc88b0bd88b08c8c808d49808d4b709d48909d4b808989920978820d4980852082102956cff0795cc7182c2e80295ca000282a8e00082a9d80082abd0007babb0007ba9b8007ba8c0009568ff07958821037bc2c8027b64f8005020c402e6aa8262f000826ac80095aa0188a7018260d000c87000d40a078877018268c000c87804d884088267d800c887078268f800958320d88309826be000c89b08d8b80bda990b8269e800c89b0bd89b09c8920264097b69d000826c787bc90864a97bca644a7bca1064707bc7187b6ac0007b63f800648464b3288dfe826c70018268f800958720d88708c88409d8490ada880ac83a0ad83a08c8820b9568ff079588717b8c7002958c00027bc7508267687bc7788267607bc780007bc9588267587bc788007bca6064899567ff079577e1029568ff079588c1027b9b68025020c6022d0e9567ff079577a1023308405020c802baa89567ff07957771827a48027b6af800827940027b69f000827b38027b6be800827c30027b6ce0008268587b78e8018268607b78e0018268687b78d8018268707b78d0017b7a08027b7900027b7bf801647a9567ff07957781029568ff07958861029569ff07959941027bacf0015020ca02a60a5022cc02303e52077564a29568ff07958871958c000282c71882ca287b6ad8008283100282ca2001d3b704d8b70cd89300da400cc92a08c9c804d8c8087b68d000d82a0a826cf8008268d800c9c80cc9ac0c8268d000c98c0cc9b707c90707c99308d4c707d4480ad47a0ad4470798aa20977720d4a7075107af07009567ff07957761073308405020ce02baa79567ff07957771827808077b68f000827800077b68e8008278f8067b68e0008277f0067b67f8003300d0020a0c3302d202289b395022d20298395208b464799877205207ac5022d402c93c5020d60273ab956878188269e8007a89a80783779568002083882033090a0b956778188177a807280a01956760193308405020d80238a795677818827800017b68f0008278f8007b68e8008278f0007b68e0008277e8007b67f8003300da020a0c3302dc02281c395022dc021939520835ff647998772052072cff5022de02483c5020e002f2aa956878208269e8007a8988038377956800208388000433090a0b95677820817788032888009567ff07957761063308405020e202b2a69567ff07957771827808067b68f000827800067b68e8008278f8057b68e0008277f0057b67f8003300e4020a0c3302e6022893385022e60290385208acfe64799877205207a3fe5022e802bf3b5020ea0269aa956878208269e8007a89488377956800208388c00033090a0b95677820817748018268f000ac876efe0a0c016478987720520762fe8267f8007b68f0005020ec0226aa83788169f0003307010a0d013308f0010283883307012812838833070133090a0d3308f0010228f233090a0d3308f0010228e73308f0010228e03308f0010228d93308f0010228d23308f0010228cb3308f0010228c43308f0010228bd3308f0010228b63308f0010228af3308f0010228a83308f0010228a13308f00102289a3308f0010228933308f00102288c3308f0010228853308f00102287eff9569ff079599714929c0014929b8014929b0013302ee02140700000000717b484e019568ff07958821027b97c80133075020f00283a69568ff079588714928a8014928a001492890012264893307049568ff0795880102492998015020f20258a63908dc010256183f122003dc0102403308f0010228c7033308f0010228bf033308f0010228f6fe3308f0010228eefe3308f0010228e6fe3308f0010228defe4926300149262801492620013302f402140700000000717b484e01956820017b67380133075020f602eea54926180149261001492600012233070495680001492608015020f802d0a53908dc010256183f122003dc0102403308f00102283f033308f001022837033308f00102286efe3308f001022866fe3308f00102285efe3308f001022856fe3308f00102284efe3308f001022846fe3308f00102283efe3308f001022836fe4926f0024926e8024926e00214070000000005df02e69568e0027b67f80233075020fa024ba54926d8024926d0024926c8023307049568c0024926c0025020fc022ea53908dc010256183f122003dc0102403308f00102289d023308f00102289502492630034926280349262003140700000000620d2894956820037b67380333075020fe02e9a4492618034926100349260803330704956800034926000350200003cca43908dc010256183f122003dc0102403308f00102283b023308f001022833023308f00102286afd3308f001022862fd3308f00102285afd492630064926280649262006140700000000b2418ffb956820067b6738063307502002036fa482678000330004030a068269b000330206032810358269b00050220603093549261806956900067b98107b9708330704956800067b9a5020080333a48267607b67f8058267587b67f0058267687b67e8053307249568e0058269707b69e00550200a030aa48267e800956a00057ba7d8008267d8007ba7d0008267c8007ba7c8003307449568c0058269d0007ba9c00050200c03d9a38267c000817756177f1b8268c000480880003307013309648268e0000a0d28c5003307013309648268e0000a0d28b60049267006492668064926600614070000000005df02e6956860067b677806330750200e0383a34926580649265006492648063307049568400649264006330012032862a34926b0064926a8064926a006140700000000620d28949568a0067b67b8063307502010033fa349269806492690064926880633070495688006492680065020120322a38267c000817756173f198268c0004808403307013309248268e0000a0d280f3307013309248268e0000a0d019567ff0795777149276004492758044927500464791407000000001efdc6969568ff079588c1047b976804330750201403c3a29567ff0795777149274804492740044927380464793307049568ff079588a104492930045020160399a23908dc010256183f112003dc0102403308f0010228083308f001020183883307013309240a0d019567ff079577714927e0044927d8044927d00464791407000000008cd350e49568ff07958841057b97e8043307502018033fa28267d00033001a030a068269d80033021c0328e0328269d80050221c03d9329569ff079599714929c804959b00047bb8c0007bb7b8003307049568ff07958821057bbab00050201e03f4a18267a800956aff0795aa7195ab00047bb7a8008267a0007bb7a0008267b0007bb798003307249568ff07958801058269b8007bb9900050202003b8a18267f8009568ff07958871958900047b9788008267e8007b9780008267e0007b9778648a3307449568ff079588e1048269f0007ba97004502022037ba18267c000817756177f0d8268c00048088000013307013309648268c8000a0d0164977b68f800502024031fa483788169f80033070a0d28bede4926f800200a0c0156171f0b0a0c7b67f80001956978108267f800959b00057bb7288267d8007bb7484926f000492930058267c8007bb750492938058267c0007bb758492940059567c0159568a015826ab8007bba60502026030e058262d8008267f800c82700d870088263c800826cf000c83c09c88909d3c90ad8c90bdaa80b826ac000c8ac08c88b0bd88b04d8c8088267b800c87c0cc8c808c8840495687810958c00047bcbd8007bc9d0007b80c8047b8700057bcaf8007b83f0047b82e804648b9567801595686015956940157bb4e00450202803b5053308f00102838833072831f98168f800282af9951130ff7b10c8007b15c0007b16b8009515d0008411f08289187b19108289107b19088289087b1982867b17289517900033084050202a03e19e821898008219900095671fd86700821ac80a0b8477e0c8b803c879027b1920d8920cc8c303d383067b1818d88309da6c098214a800d8ab0b8216a000da000b821708c87b0bd87b0cc86b0bc89b0a821710c84707c8c707d8ba0cd86b0bc8b707c8c70b8eb78eacdbb70cd4ba078e38db7c08520865d86a07d34b08d84b0cda870cd36a07d48707db7c0952094d7b12707b13787b1a80003307409518707b1b88007b141050202c03719f8217288218107b78187b76108218187b78088218207b78955130ff8210c8008215c0008216b8009511d000320049116049115849115033022e03140700000000717b484e019518507b17683307502030031e9f4911484911404911304133070495183049113850203203059f3908dc010256183f0b2003dc010240013308f001028388330701330924330034030a0d019511e0fe7b1018017b1510017b160801951520018411f0828b10828a18828c0882827b1a687b1c78d4ac08d4b20ad48a0a98aa207b1b70d4b808978820d4a8087b170852084b028297187b17488296108297087b175082977b17584921f8004921f0004921e8009518e0004921e0002064277b126050203603669e821858d46807821948821a50d4a909d497079877207b1620d46909979920d497075207f2019517c00050203803fd9c821770821868d47808140700000000010000007b17101407e0ffffff00000000821960d87907821a7894a77b181894875107b401821ad800821bd000821cc8008218c0008397207b18287b18a0007b1c307b1ca8007b1b387b1bb0009518a0007b1a407b1ab800649650203a03c89d8217109577c0d876078218789487821818948751076201821748821820d487071408e0ffffff00000000821a58d88a08821b5094b8947851083e016469821828821c38d4c807821b40821630d46b0bd4b707987720d4cb0b97bb20d4b7075207170183974083aa207b1a58648650203c0325a07b1750821758646850203e0317a064788217506469502040037b9b821760c86707d86708821978821b30c8b909c88909d3b90ad8b90bdaa80b821870821a38c8a808d8a80a821c68821640c86c0cc8ca0ac88b0bd88b08c8a808d4b808140ac0ffffff00000000d8a70a949a948a510a9400837740492198004921900049218800951880004921800050204203c69c82162895661f1407e0ffffff01000000d26707821860c88707d88708821a78c88a09d8a90ada880a821870c88a0ad88a08821b68c8b808957b40d87b07c8790cd89c09da7709c8a909d8a907c887078218087b8b7b8c087b89107b87189551e0fe82101801821510018216080195112001320000330804330046030a043302480328ac2f50224803a92f510a0b50224a03c73032003308f001028388330701330933004c030a0d33024e0328243150224e032131330824330050030a0433025203286c2f50225203692f510a0b50225403873032003308f0010283883307013309330056030a0d01951170ff7b1088007b1580007b1678951590008411f064728289827408828c088273959a1fd89a00c80c0984aae07b1308c8a303d8a30bc8490ac8ba0ad39a06d89a07da6b07822b18d8c90c828610822210828818da000cc86c0cd86c06c82c09c89707d8c90cd89709c8b808c86808c8c808c8980c8ec88e79dbc809d4c7088ea6db8906520657821808d88308d34a09d84a06da9806d82708d3bc09d8bc0bda980bd32708d49808da860b520b307b13507b1a587b17603307409518507b1c6850205803179b955170ff821088008215800082167895119000320050225a03ee2f50205c03f69a4911284911204911104133070495181049111850205e03dd9a3908dc010256183f0b2003dc010240013308f001028388330701330924330060030a0d019511907b10687b15607b16589515708411f0648a82841082880882920882a67b16829b7b1b08829010d3820c7b1c28d8820cd86b0b821328da3b0c64b682aa187b1a188299187b1910c9400ac9ca097b1920d8ca097b1428d8400b821418821a10c94a0ac9ba0ac99a0ac98209c969098212821b08c92b0b8e9c88bb2085bb01db9c0b8fa68219208e9cdba60cd4a909db9c0b510b616476821a28d4a207d44809d49707987720d4a909979920d49707520743951730642850206203c198821748821840821930821a38d4780b889c0294ac94bc510c277b697b6a087b68107b67189551908210688215608216589511703200003308f0010228083308f001020183883307013309330064030a0d01951110ff7b10e8007b15e0007b16d8009515f0008411f0828610828218828c0882887b1c687b1258d42c036482d4680cd43c0c98cc207b1660d46308978820d4c8087b175052085c0182b7187b172082b7107b171882b7087b171082b77b170882a7107b173082a7087b173882a77b174082971082980882999777209877204921c8007b19b0007b18b8009518b0007b17c00064266427502066030d99821760821858d48709140700000000010000007b17281407e0ffffff00000000d8760782186894877b194894975107d7001408ffffffff00000000821930d289098218388488ff821a4084aaff8367204921a8007b1a90007b189800951890007b19a00050206803a3988217289577c0d8760782186894878218489487510787009567607b1748d86707821868c878097b1940d88908da7708821760c878087b1838d87807821858c887077b17688367408218087b18708218107b18788218187b1880009518708219207b19880050206a0339988217508218387b78108218407b78088218487b788218687b7818955110ff8210e8008215e0008216d8009511f0003200009511807b10787b15707b1668951580008411f0829b828a829608828308829410828c10829918828818d363027b1608d863067b1b187b1a10d8ba0a7b1ada2a06d3980ad89800d84c02daa200d34c0bd4ba0adaa600520046c94c0ac99808c92808d86a09c99808c96a0a821908c99309821bc9b909821b18821c10c9bc0b7b7b7b79087b7a107b781895518082107882157082166895118000320049115049114849114033026c03140700000000717b484e019518407b1758330750206e03479749113849113049112011330704951820491128502070032e973908dc010256183f0b2003dc010240013308f001028388330701330924330072030a0d01951140ff7b10b8007b15b0007b16a8009515c0008411f082908282828a087b1758829b08d60207ca0a06c86707d86706d60a0cc86c0ccab206c867077b1750d86707d6b206c86707c8c707d8c70cd6ba06c86c0ccaba06c867077b1748d86706c86c0c7b1c40829310829918828418828710ca3a0c7b1920ca2906c8c6087b1b28ca7b06ca0409c86909ca2306ca070cc8c6067b1330d6230b7b1b10c88b0bd60703c89308d8c6097b18187b1b08c8b80cc8c9097b1438d44a0cd47208d4c808821b40821c48c8c606d8c604c8b909c8490951088f00d3b9087b1948821948d8b909db89047b1640821810821908d889068ea98218208e8cd2c909d6280c8eccd4c909643b821330d63a0a8eaad4a909d469097b1910821918d8b909821b288eba8216388e6cd2ca0ad6060c8eccd4ca0ad67b0c8eccd4ca0ad4a909d4830ad4670c8216408eaa8eccd2ca0ad4a909821810d49808821948d4480784770152072dca02078218587b878217507b87087b86107b8918955140ff8210b8008215b0008216a8009511c000320049219000492188004921800033027403140700000000717b484e01951880007b179800330750207603549549117849117049116011330704951860491168502078033b953908dc010256183f0b2003dc010240013308f00102838833070133092433007a030a0d019511f0fe7b1008017b1500017b16f800951510018411f0829310829c188296088299d4c60bd4390ad4ba0a7b177b1aa800510a3c0482871882801082820882847b1460683895884068cbdac80b7b1930689895894068687b1638da6908958980007b1c407b1348d4c30adaa90bd8890994a96808958840687cda780c6848958840682ada280a95a88000d47006da680cd8a8089468d38903d88906d8cb0ada3a06c989098864019544ffc9a90a9a63c9cb088e398e4bda490b7b18a000888900018599018eacdbac09db6b09821660d4060bd4720cd4cb0b8218a800888c0188bb01d4cb0bd4b9097b176864789498640b949b7b1258642c949c949652094d038217a0008579ff00d43902d44a09d492098217510939038219a0009598017b18a8007b1050888701c8a7077b178000d48707887701c837077b1770d83707c847077b177833027c039a96ff009a698000017b162882176082185850207e035f297b1798007b1890008217508218686469502080036f297b17880082179000d487077b1790008218a0009a897f8217608216586468502082034b29821928889a80007b1aa000821b9000dbab08821b68da9b087b18900082189800821b8800d4b808daa708821750da97087b1898008217606468502084030c29821c70821978821a8000d49a0a8219a800d4c909d4a909821aa00093a87b18880093a77b17a000510902028216a80095698082175082186850208603a8287b17287b181882176082185864695020880394287b17107b18209a69800082175082186850208a03a428821920d49808886980007b1920821a18da9a08821a58db680a7b1a58821810d48707821828da9807821860db67087b1860821750821868646950208c033f288212583304821920939893977b1768821a3088a701821938c979077b1720d49a07887701821948c9790b7b1b18d87907821940c979097b191095aaff7b1a0882106001491128980b3f972a016426d4ba02970b018210900098093fd4b9097b1960821720d32703d8270b821708644cd89704db3b0497880182176898793fd498087b185898693f977701d497039707018218980098893fd4970797890182188800988b3fd4b909978b018216a00098603fd40b0b976601d46c0c7b1ca00086bb7b1b880086987b18980086777b179000821918c93907d84707d83909821b10821a58c9ab0bc99b0bc97b0b99bb3f821730d27b087b1850821c38d2bc0cd3c207d8c206821460d88400da7006821948d2b909c99308c968077b1768d86807d89309821640d2b606c96a08c99808c97808c9c20ac90a02821750c97400821ca80082168000d46c07887701821a70d87a09c97a0788ca01c9a606821a78c99a0a95ccff7b1680007b1a78d4a6097b1ca800d47c0ad4a90984b4017b17705209c7fe2808330449112801821a980098a73f82189000978801d48707821c880098c83f97aa01d4a8088219a000989a3f97cc01979601d46406821928d49a0ad4ac0cd4890bd47908821728058217017b767b7c087b7b107b78189551f0fe82100801821500018216f8009511100132004921e0004921d8004921d00033028e03140700000000717b484e019518d0007b17e8003307502090037f904921c8004921c0004921b000123307049518b0004921b8005020920361903908dc010256183f0b2003dc010240013308f001028388330701330924330094030a0d01951110fe7b10e8017b15e0017b16d8019515f0019511f0f88411e08289187b19688289107b1980008289087b197082887b18787b1748831720070a01951800078287387b17a8008287307b17b0008287287b17b8008287207b17a00095170007502096039a0d951800078287187b1788008287107b1790008287087b1798008286491858491850491848491840059517e00695184007502098039390951800068287f0007b17588287e8007b17508287e0007b17608217880082189800d487077b162882189000d46808d487075107a204951700074927f8004927f0004927e8004927e0008317e0070a10951b000782b7e00082b8e80082b9f00082baf800951b00067bba98007bb990007bb888007bb780008217a8007bb7b8008217b0007bb7b0008217b8007bb7a8009517c0069518a00695198006821aa0007bbaa00050209a03f6f6951800068287d8007b17308287d0007b17388287c8007b17408286c00095170010492718f895170010492710f895170010492708f895170010492700f895170010837700f80a1095170010827a00f895170010827708f895180010828810f895190010829918f8821b8800951c00067bcb38821b90007bcb30821b98007bcb28821b287bcb207bc9587bc8507bc7489517600695184006951920067bca4050209c0350f7951b000682ba6082b76882b87082b978821b30951c00057bcbd800821b387bcbd000821b407bcbc8007b16207bc6c0007bc9f8007bc8f0007bc7e800951700069518e0059519c0057bcae00050209e03f1f895180006828918828710828c088286821868d389027b1928d89808821b8000d87b09db2809821a70d3ac087b1c8800d8ca0a821c787b169000d86c06db8a067b1778d3b708d42807db79069517a0053308405020a003708c951900058298b800829bb000829aa8008297a0007b17b8007b1ab0007b18a80052069a08d4b709d4a808d48909989920d4b808978820d498087b1ba00052080f0b951a0005492a9000492a8800492a8000140900000000dd72b823951880057ba998005020a203418d3306f0010383677b17183300a4030a0182670881681082695022a60341207b1880009877206f98978920d497077b17709888207b18688217183300a8030a067b1698003302aa032833227b1698005022aa032c22d4a8029877206f98978920d49707988820821ab80095a904d8a90a821cb000c8ac0bd8cb06daaa06821aa000c8a606d8a60a821ca800c8ca0a821c287b1cf804821c787b1cf004821c88007b1ce804821c90007b1ce004821c687b1c1005821c707b1c0805821c80007b1c0005951c0005491c18491c387bca587bc6507bcb487bc9407bc8307bc728951760059518400595192005951a0005951be0047bc2205020ac03a3f295180005828768828478828260828a708218b000d3870bd8870c64838219b800d89208dab80c8216a000c96a0bd86a0a8216a800c96406c9a606d8cb0ac9a6067b169000c9cb0b7b1b8800c93707c987077b178000c992063300ae030a0a018217506f779778208219586f99989920d498088219605022b0030b1e821a98007ba7087ba87aa9109517ff0795773949074917f895170010492728f8821a8800d4a60782189000821b8000d4b808d48707987720d4a808978820d4870795180010492820f85207250964698216b800646764987b19785020b2033c8e7b17900033082064673306205020b4032a8e9519ff079599397a9608491940ff491938ff491930ff491928ff8218980097882098882014090000000008000000d498029518ff079588219788209888209519ff07959961979920d4890a82189000978820988820821b7897bb20d48b0b9777209877209518ff07958841978820d4780c3308ff3309ff64270a0201520784070a0c01ae67cb020a0c28c902951780023308405020b6038789951b000282b8980082b9900082ba880082b780007b1a90007b1840d48a0ad49708d4a8089888207b198800d4a909979920d4980852082f08951a0002491a70491a68491a60140900000000dd72b823951860027ba9787b1798005020b803618a3306f0010383677b17183300ba030a0182670881681082695022bc03611d7b18309877206f98978920d497077b17289888207b18208217183300be030a067b16383302c00328551f7b16385022c0034f1fd4a8029877206f98978920d49707988820821a980095a904d8a90a821c9000c8ac0bd8cb06daaa06821a8800c8a606d8a60a821c40c8ca0a821c687b1cd801821c80007b1cd001821c707b1cc801821c787b1cc001821c207b1cf001821c287b1ce801821c307b1ce0014921f801951c0002491c187bca387bc6307bcb287bc9207bc8107bc708951740029518200295190002951ae001951bc0017bc25020c203c9ef95180002828748828458828240828a5082189000d3870bd8870c648382199800d89208dab80c82168800c96a0bd86a0a821640c96406c9a606d8cb0ac9a6067b168000c9cb0b7b1b78c93707c987077b1770c992063300c4030a0a018217506f779778208219586f99989920d498088219605022c603341b821a387ba7087ba87aa91095190007491978330c491970491968821a78d4a60782188000821b70d4b808d48707987720d4a808978820d4870749196052075b06646982169800646764987b19685020c803728b7b17800033082064673306205020ca03608b7a168007951900074929b800ff4929b000ff4929a800ff4929a000ff82183897882098882014090000000008000000d49802951860079788209888209519a007979920d4890a82188000978820988820821b6897bb20d48b0b97772098772095188007978820d4780c3308ff3309ff64270a0201520740050a0c01ae67df010a0c28dd013307200133068219b800821ab0008218a0007b179800951b00047bb780007bb9a000492b88007bbaa800492b90007bb8b000492b98009517a00495188004821ca8007bbcb8005020cc03e8eb8212b80082189800c82807d887088213b0006439c88909859a889bdaa80b821ca00064c8c88b0bd88b048888821aa80064a6c86808c88404951600047b6b307b69287b67207b6a587b6c507b63487b62409517600495184004951920047b64385020ce03a7ec9516ff0795663949268000491678491670491668951700108377a0f80a108267687b17b8008267707b17b0008267787b17a800826780007b17a0004926a00049269800492690004926880002951700049518ff079588c1005020d003ee87951b000482ba82b70882b81082b918821ba000951c00037bcbb800821ba8007bcbb000821bb0007bcba800821bb8007bcba0007bc9d8007bc8d0007bc7c8009517e0039518c0039519a0037bcac0005020d203a3ef951c000382cae00082c7e80082c8f00082c9f800821b307bcb58821b387bcb50821b407bcb48821b207bcb407bc9787bc8707bc7689517800395186003951940037bca605020d4034cf195180003828798007b17a800828790007b17b000828788007b17b800828780007b17a00028b3003307200133068219900082188800821a407b1780007b176001821798007b178001492168017b198801492170017b1890014921780195178001951860017b1a98015020d60317ea8212980082188000c82807d88708821390006439c88909859a889bdaa80b821c880064c8c88b0bd88b048888821a4064a6c86808c884047b1b10017b1908017b1700017b1a38017b1c30017b1328017b1220019517400195182001951900017b1418015020d803d3ea3306f0010383673300da030a063302dc03289c185022dc039918d497079888208219a8007b19d8008219b0007b19d0008219b8007b19c8008216a0007b16c0004921f8007b18f0007b17e8009517e0009518c0007b1ae0005020de0383128217488218a8007b78188218b0007b78108218b8007b78087b76955100f8951100ff951110078210e8018215e0018216d8019511f0013200d4b707d4a808d48707987720d4b808978820d4870752077d0264b695190003491930491928491920140700000000a079c308951820037b97388217b8005020e003ad848217a800d47609140600000000010000001407fcffffff000000008218b800d878078218b00094877b19a8009497510721028217b80083770495190003491918491910490920951800034919085020e2035a849567dc8218b800d878078218b00094878218a80094875107e6018216b800836724951900024929f8004929f0004929e000269518e0024929e8005020e4031a84140700000000010000007b17a0001407bcffffff00000000d876078218b00094878218a8009487510795018216b8008367443a08500102951b00027bb8d8003a085801023a096001023a0a6801027bb8d0007bb9c8009518c0027bbac0005020e603b6838217a00095779cd876078218b00094878218a8009487510742018216b8008367643a08700102951900024929b0004929a8007b98b8009518a0024929a0005020e80372833308840064675020ea0336868378330701330984000a0d019517c0043308405020ec031382951800048287d8007b17b8008287d0007b17b0008287c8007b17a8008286c0003300ee030a0c3302f0032805175022f00302175208bc0064769877205207b30083677b17b0008217b80064685020f203cb859518ff079588397a86486486837795180010838880f833090a0b816748286e9517a0013308405020f40395818217b8017b17b8008217b0017b17b0008217a8017b17a8008216a0013300f6030a0c3302f803288b165022f8038816520842647698772052073a83677b17b0008217b80064685020fa0353857a16c00783778318c00733090a0b8117c007018218b000ac870e0a0c016476987720510704008217b80064685020fc032185837883693307013300fe030a0d01951100fe7b10f8017b15f0017b16e801951500028411e07b17284921780149217001492168014921600105951740019518600150200004fc82821750017b1738821748017b1730821740017b17409517200133084050200204ae80821938018216300182182801821720017b18487b1950d48909d46708d49808988820d46909979920d4980852087c024921100149210801492100011409000000003182a070951800017b1918017b17585020040492813307f001037b17208377330006040a01821b587b1618821750d467071408fcffffff00000000d88b088219489498947851082102821620502208048214d4790998882083b7044921f8007b18f0007b19e8009518e0007b1ae00050200a04328133000c040a0a018217306f779778208219386f99989920d4980882194050220e044e137b67087b687a69104921980149219001492188014921800133082482175850201004bb837b174033082082175850201204ac834821a001204921d8014921d0014921c8014921c00197662098662014080000000018000000d48602951880019788209888209519c001979920d4890a82184097882098882014090000000024000000d4980b9777209877209518a001978820d4780c3308ff3309ff64270a02015207a4000a0c01330b20aeb7080a0c647b013306821958821a508217188218487b1b507b1b80007b19a000492188007b18a800492190007b17b000492198009517a000951880007b1ab8005020140446e4821850888820858801330764793306da68095109cc0095176082185850201604c27eff821770821878821960821a68821b287bb7107bb8187bb97bba08955100fe8210f8018215f0018216e8019511000232009517c00033084050201804847eff8217d8007b17588217d0007b17508217c8007b17488216c0000a0c01821858821948d498087b1658821a50d4a609d48909989920d4a808978820d4980852083f647698772052073783677b1750821758646850201a0435827a16e00183778318e00133090a0b018117e001821850ac870e0a0c016476987720510711003308f0010283883307010a0d01821758646850201c04f881837883693307010a0d28ec951150ff7b10a8007b15a0007b1698009515b0008411f0828c10828b1882860882827b1b407b1638d4b608d4c20bd48b0b98bb207b1c48d4c808978820d4b8087b17305208dc00642682a7187b172882a7107b172082a7087b171882a77b17108297108298088299977720987720492188007b19707b18789518707b178000642750201e04967eff821948821a40d4a9071408e0ffffff00000000d88608821b3894b8947851087a9567407b1708d86707c87b087b18d8b808da7708c898087b1838d89807c8a7077b17488367208218107b18508218187b18588218207b18609518508219287b1968502020042e7eff8217308218387b781082187b78088218087b788218487b7818955150ff8210a8008215a000821698009511b0003200009511907b10687b15607b16589515708411f0828a187b1a08829b1882847b14828a08829608829c828310829210c8a609c8c404d8c40cc8c909d36900d86906da0c06c83208821c08c8bc0cd8280bc8cb0bc8680cd88c08c88b00d3a90bd8a90a8218d88406dbba06d83c02821808d3800bd8800adab20ad33c08d4b808db8a0652061f7b747b79087b7c107b70189551908210688215608216589511703200502222044a1250202404527dff4911284911204911101133070495181049111850202604387dff3908dc010256183f0b2003dc010240013308f001028388330701330924330028040a0d01951150fd951b00027bb0a8007bb5a0007bb698009515b0028411f0829210829c18829608829b7b1c287b1618d4c6097b1b307b1220d42b0bd4b9097b17385109ec0182a91882a71082a082a4087b1708d470077b1910d49409d497075107ce01828318828c828b08828210330863d68c07ca8b09c897077b1748d89707d68b09c89707ca8209c879097b1940d87907d6820aca8309c8a909d42c06d43b0bd46b0bc87906510b179467d8a909d6830a8eaad4a909d497075207e30296c7637b10f0017b17951a00027ba7107b14f8018217487ba7188217087ba78217407ba7208217107ba70895173002951810029519f0017b16107ba62850202a0411e5330864821630d68607821a18ca8a09c87903d89309d68a0ac89a0a821720ca8709c8a909d8a90bd6870c821728ca870ac8ca0ac8ba02942bd8ca0ad6870c8eccd4ca0ad4ba0a520aee01951a000282a7487b170882a7407b171882a7387b172082a7307b172896686482177b1790017b18b0018217487b1798017b13b8018217407b17a0017b19c0018217107b17a8019517d0019518b001951990017b12c80150202c0478fd8217d0018218d8018219e001821ae8017b1a48017b1940017b1838017b1730018217087b1768018217187b1760018217207b175801951770019518500195193001821a287b1a500150202e0410e6821780018218880182197001821a7801821b387bb7107bb8187bb97bba08955150fd951700028270a8008275a000827698009511b00232009517d00033084050203004a279ff8219e8008216e0008217d8008218d0007b17407b1938d497077b1848d46808d47808988820d46707977720d487075207cb004921c0004921b8004921b000140700000000a079c3089518b0007b17c80082174850203204827aff821938d46909140600000000010000001407fcffffff00000000821848d8780782184094877b193894975107758217488377044921a8004921a0004921900020951890004921980050203404337aff9567dc821848d878078218409487821838948751073d82164883672449218800492180004911701f95187049117850203604fe79ff1407bcffffff00000000d87607821840948782183894875207e1000049212001492118014921100133023804140700000000717b484e01951810017b172801330750203a04b679ff49210801492100014921f000113307049518f0004921f80050203c049779ff3908dc010256183f112003dc0102403308f0010228723308f00102286b951900024929800049197849197033023e04140700000000717b484e01951870027b9788003307502040044c79ff951900024919684919604919501133070495185002491958502042042d79ff3908dc010256183f112003dc0102403308f0010228083308f001020183883307013309240a0d018216488367443a087801027b18683a088001023a098801023a0a9001027b18607b19589518507b1a5050204404d678ff3308646467502046049a7bff8378330701330964330048040a0d01951120fc951a00037ba0d8007ba5d0007ba6c8009515e0038411e06416807410827a827b08d44a07d4b70751074f048282108283088280140cffffffff000000008438ff8407ffd2c20c7b67487b6c38d4c7077b6840d48707510783048297187b6798008297107b6788008297087b67800082977b679000492638037b6a607b6a20037b6b587b6b2803956820037b64507b643003330750204a041d78ff492618034926100349260803330720956800034926000350204c04ff77ff3309dc01023907dc010256173f0b2003dc010240017b69709517e08479e07b696864913307f00102837783993308407b677833004e040a09826a683302500428480b826a6850225004420b7bba587bb9507bb8487bb7409567e00295684003502052048b78ff956800028289f8008287f000828ce800828be00082689800d389037b6928d8890882698800d8970a7b6a10da3a08826a8000d3ac027b6c30d8ac0c826a90007b6b68d8ab0a7b6a18da2a0c7b6720d37909d439077b6c08da7c085208cc034926d802826760956900027b97c0008267587b97c8009568c0028267507b97d0003307502054041177ff4926b8024926b0024926a8023307209568a0024926a00250205604f376ff82678800826820c97807826908c997087b6820d8970782689800826928c98908826910c99808c978087b6828826970819782688000826a30c98a08826a18c9a8087b683082689000826a68c98a0a7b6a6856173f08480940019517e08477e07b671864718379330840826778330058040a09826a1833025a0428020a826a1850225a04fc097bba787bb9707bb8687bb7608267287bb798008267207bb790008267307bb788008267687bb78000956760039568800350205c04aa77ff49269802826738956900027b9790008267407b978800956880028267487b978000330750205e040d76ff492678024926700249266802330720956860024926600250206004ef75ff8268709517e08477e07b67686471818756173f08480840019517e08477e07b677064718379330840826778330062040a09826a703302640428e006826a7050226404da068268687b8a187b89107b8b087b8795674002502066048476ff826748028268400282625802826a5002826b8000c87b0b826c9000c88c0cd88c08c88b0bd37b09d87b07da980782688800c8a80882699800c89202d8a809c82909c88707d88708c89808956900037b9ca0007b9ba8007b97b0007b98b8009568a003826768502068049976ff9567200233084050206a04de73ff956b000282ba3882b83082b92882b72050226c041a065208c00082689000956a00027ba8826880007ba808826888007ba81095680002826998007ba9187b67980050206e04d074ff4926b801826738956c00017bc7b0008267407bc7a8008267487bc7a0004926d8018267507bc7d0008267587bc7c8003a079801023a08a001023a09a80102826a607bcac0007bc7f8007bc8f0007bc9e8003a07b001023308209569e001956ac001956ba0017bc7e00082679800502070043876ff955120fc951700038270d8008275d0008276c8009511e0033200004926d0004926c8004926c0001407000000001efdc6969568c0007b67d8003307502072041a74ff4926b8004926b0004926a8003307049568a0004926a00050207404fc73ff3908dc010256183f112003dc0102403308f00102286a3308f001022863492610014926080149260001140700000000052f44ec956800017b671801330750207604b873ff4926f8004926f0004926e8003307049568e0004926e000502078049a73ff3908dc010256183f112003dc0102403308f0010228083308f001020183883307013309240a0d014926900149268801492680011407000000008cd350e4956880017b679801330750207a044c73ff492678018267507b6770018267587b676801330704956860018269607b69600150207c042573ff8267287b6758018267207b6750018267307b674801330724956840018269687b69400150207e04fb72ff82679800956a00017ba738826788007ba730826780007ba72833074495682001826990007ba92050208004cd72ff826770817756177f0c8268704808800001330701330964826878330082040a0d01951140fd951900027b90b8007b95b0007b96a8009515c0028411e06416807a108279827b087b69307b6a28d4a9077b6b20d4b7075107ae028287187b67588287107b67508287087b674882877b674049263802492630024926280249262002029567000295682002502084042f73ff826a0002826708028268100282691802826b587b6bb801826b507b6bb001826b487b6ba801826b407b6ba0017b69d8017b68d0017b67c8019567e0019568c0019569a0017b6ac00150208604f7f38267e0018268e8018269f001826af801492658024926500249264802956c0002491c40027bca787bc9707bc8687bc7609567400295686002502088042373ff49269801826728956900017b9790008267207b978800956880018267307b978000330750208a048671ff492678014926700149266801330720956860014926600150208c046871ff9517e08477e07b673864713908dc010256183f0b2003dc010240019517e08479e07b691864913307f001028377839933084033008e040a09826a1833029004285202826a18502290044c028268387b8a187b89107b8b087b879567400150209204f671ff826748018268400182625801826a5001826b48c87b0b826c40c88c0cd88c08c88b0bd37b09d87b07da9807826850c8a808826958c89202d8a809c82909c88707d88708c89808956900027b9c80007b9b88007b9790007b98980095688002826738502094040f72ff9567200133084050209604546fff956b000182ba3882b83082b92882b7205022980490015208ad00826840956a00017ba88268487ba8088268507ba810956800018269587ba9187b675850209a044b70ff4926b8008267287b67b0008267207b67a8008267307b67a0004926d8004926d0004926c8003a07b801023a08c001023a09c801024926c0007b67f8007b68f0007b69e8003a07d001023308209569e000956ac000956ba0007b67e00082675850209c04c171ff955140fd951700028270b8008275b0008276a8009511c002320000492690004926880049268000140700000000052f44ec956880007b679800330750209e04a36fff4916784916704916683307049568604916605020a0048a6fff3908dc010256183f0b2003dc010240013308f0010283883307013309240a0d33073300a204286372ff33075020a2045d72ff3307015020a4045372ff82970881981082996f77977a206f88988820d48a0a9877206f98978920d4970798882032028268f0008269e000d49808826ae8008269f800d4a909d48909989920d4a808978820d49808320282970881981082996f7a97a7206f889888203202d49a0ad48709d4a909989920d4a808978820d49808320282a71882a81082a90882aa6f776f8b6f996faa3202826b380188b98000826af000db9a08826cf800826a0801d4ca0ada970a93b8ff93baff826b0001939b939c82671001e0a70732028269d80082970881981082996f77977a206f88988820d48a0a9877206f98978920d497079888209569781032028268f8008267e0009577dcd878078269f00094978269e80094973202826af8008267e00095779cd87a078268f00094878268e80094873202140b00000000010000001407fcffffff00000000d878078269f000949794a73202d49707d48b09d47909989920d48707977720d497073202c8ba0a7b6a080197aa3b989b05d4ab0b8267280182731897993b827a10988805d498076f346fa932026f99979a20987720d4a7079899203202c89c0cd89c0b82673001d87909c89407c8b707d4c809d4a707d47909989920d4c707977720d497073202140900000000010000001407bcffffff00000000d8780794a794b73202939b82681801e0a80882692001e0790782692801e0b909826a3001e0ca0a3202977b3f988c01d4bc0397ac3f987701d4c70797883f989c01d4c80898aa018499019a9c320282a71882a81082a90882aa6f776f886f996faa956b781895bc00063202c89c0cd89c0ad84909c89307c8a707d4c809d4b707d47909989920d4c707977720d4970732026f77977a206f88988820d4a808320282670881681082696f77977a206f88988820d48a0a9877206f98978920320233077818c8760a95ab000532028eb9858801dbb9088e498ecadac90ada780a320282171082181814090000000001000000d37909d48909987a2088aa01948a939a320282a71882a81082a90882aa6f776f886f996faa956b00033202c9a909d8cb0ac9a9097b69f000c9cb0b7b6be800c98707c947077b67e000c903077b67f8003202c8790bc8ab0bd39b0a7b6b1001d89b09daa709826b080132028218b8008219a800d498087b16b800821ab000d4a609d48909989920d4a808978820d4980832027ba7087ba87aa91033077820c87609320283977b67f0008267f80064987b69e80032028267f800647a826be800d4b7078268f000826ce000d4c808d48707987720d4b808978820d4870732027b67f8007b6800018267f000d487077b67f000826738019579803307ff3308ff3202d49b0bd48709d4b909989920d4b808978820d4980832028219821a087b697b6a087b67107b68189551c08210388215308216289511403202826be8008269e0008267f800d4b707826af000d4a908d47808988820d4a707977720d48707320297773b9878387b6838019a8980003307ff3308ff3202491140491138491130140700000000717b484e9518307b1748330732029511c07b10387b15307b16289515408411e0647683173202c8b707c88a0ad88a0cc8c70782600001c8a000d8a00a320282670881681082696f77977a206f88988820320297a8037b6838018d8980003307ff3308ff3202d4ca0ada980a3308ffdab807dab80a939c3202e0890882692801e0c909826a3001e0ba0a320233077820c8760a95ab0002320282a71882a81082a90882aa6f773202849a40520a195109148d9a40cfa80ad09808d09707d4a707320032009597c0d0780733083200849a40520a195109148d9a40d0a70acf9707cf9808d4a808320032009598c0cf87083307320049922425494b2a252da9944c4949214225a952484992244992244992244992244992244992244992244992244992244992244992542529a524292949a84a494a922449922449922449922449922449922449922449929224294955494a92284925495592922425494a5292aaaa242549492a498a88889424495292242925492409a592929222458a142952a44851922222a224491042c2509a9486442222225244048988444444a48820112122221a1111499210111111219224482242512312112202482249259148448888101111499224898844444484884800894a1242440410112122444488244992244944242222224444024854921011014424448488884a944822924422224484888808922449a524482222222222422144308942254d124912445125492489482249244992440a92489228a90a12892449224992a4a4188924914892a42489888822224244449224929448241189244992244992882422224221895248a24aa1882a2249554522911a4524914812492492884444522209222242444444444484482249249148241249249188249244128988544a4444549244444492a4449224114992202244229148240822920882208820921411924992248988882489482212922449444444c44422110411491244442292041191882082244a92444444444444880891a412452422121111112242242548922495228844444444448442886012854a1a492489208a2a49224944124922499224521089248992aa20914892249224494a8a9148128924494a92888828222244442449224989442422118988885048a21492a85228a22a92144545458a44a211914422928844242211892449101144924444444410492489241289442289241291449248221189522222a2442492888848442211914824498288202222222222108848221008041188888888884410134924892449444444848888888848241209222222222222629248124922110844449240442422492022121188201225492244444444444444442282489224224124499224898808202222228824092080a42211212222882449291211228248124442448810222282489294222122228288a044234a448488082212492292449224111141248824096228552855283522228011051121114188202424222280110511211141882024242222801105112111418820148a88086044414448441022088525452482aa44415542844844d18840222090808040020209249040020209249088888828122492244914890822111111111109221111411289444444149188888846244992248a44a411912449129120129124499224111140444444041191204924224444441024894484880822228000524942442242081111110449428844440089884844444423222249124522524422914844a488442291884811491211111111111111111111454444103122222222224144240992884422112922111111d1888888244994241291888888888888884844444444448a88888888882412111151101112118410c1240a1589282211a49492a410451491082222a22091244924411499a41251220992a40822229284482489449224499224892492442325492222221205112111411499a412512209524a49524411892022220a129148241241149944258a2449244922492292449124254929154144444444444444444444444444049120922448222242442222221a11114992284944242291482422524444444484281a49414a1211111111111111111149222282481011111124112122221111115124888848924491881411111111114144444444444414092222229224128944229148111111414444229188481409222222892492489224912092244992241111014445440411912049448488882048121121228888204988880821444404419210222222225124225124489248928888049144229188481049922089888888229122121111114582888824491489481089244992888810114124222249922489942491481491224992244992a488884824128988049124092049251189444444444404a9a244222222a2489024499228124910111111112411111191081189888868449292248922111122828888489248224924529244528a2411111111111144121191229188a08a880412111111458288882449942422229148229288144422a2444410229844a15224a92a222222228248241289444482484444904444444444149188888846444491248922111122824824124524888888244992444444444414914812d148a42449a24844848820229148448288240992482222914844222222a211499224899244442222222289225244248948249242148d94248924229124a28844101111051121114108114ca25091882212411445914411111111051189441291208a4ca2124592aa2249114482485292244912111111510411452482a4241111111121841011119188880822412449904444848844910822128944222222228a482412111145444444444444442489880411894422111111114544444444444444444444444444111111444444444444a41111119144124924499248101111912449928808202222228888044922224444044192880811414404494244248490448220490811490089082282128d88886844922449a2240144442422222222221123222222229122a220624428114108114ca250918822124114459144914844222289144444229112114114994425a2884410498a2062444444444482888888208988888888288244506a44444411894422111111114424128944444444444444441411114144444444444444241191202222128944101111111111111111111144244944241289888888202291482444d148499288224192484124299120840846128554228a4804111111414c92482412894422128924924414098a88888248442422884824129148228a48242212914954228a4804111111111111114144448808221111914412492449928848924444441009221111112411894444444410514422484a1242884444244444924844444444104544922489888848228924492449348988081111442222222222412422229224491211114044444410514422484a12492489241289489224499288888888880822111191441249244924924844a3444904119444918824499244412482888888002291441249244924494d9ad44844444444444444444410914424492249224924221189484422129188888888441091201291244992442291888828222288880490a84822914844248244502a1111212288181111119120222222499244444400111111842871240549499244118920294924912492484444444424128988441211454444041111114924914482689428892082880822a2201241448488882480482491441249124952a3498d88888888888888882022894892449244924812498a88042922222222222222220991441249124d2241241289441409a244104444111591888850901455082124920a20624424124924922489888808221291a88848129124228848224924914822492489541251252222440411894422124424499224898888002222220851149108929244124922894444444444444444441111114444442491441209a251a22482082222888882480411111111490089249248224922496a4482888844221145822811041151444524229124c924499224494404111111412488888888888808492222411045444424121111a12029aa1092481249088944aa24924446442492442249928828228288882492249144244992244944222222222222828824924412892492449222a952222a194992249188248924524444041109221111111189442211114544444410a448241199244922114924499224891109221111111151244849104444918a4824888888888828124489208888222a221109221111111151248812411091222a32a2252282220da552a10a8542a15028140a8542a15028141289880860441444224289882044101212121212121111c0888288908820441012121212121212121212110144144444228210414848440410511011890842042121212121111140444144118920224914241289442288888888444410454412258912110144144444222211114044414424228822924425d14844144044144422a2444410220885258d44440144444144118920121191880822121111918888202211119112111144113189164151098d62442412118948444482882422491249124922222222a2888820542211119124492512442425499224894492244992a492922449922492489024498a888892440093822492042182a1241a111149529224499248929488885082244992241141920012409252444424914844a220494a912480241525499224892405494129489224499224499224805424222282248024499224499224494a1211114d140912144a512448140912144ad18848a49292244992244992244992a49292244992244992244144240a822492042182a1249a244949aa24499292244992244952529252929424499214244952294992a4a1b0148d8888242949499224912449499292944444440549024800492902489224111111244929922449922449922491449024494944443449229524499224254992244992a42429499244492280494112498210c150128d8888549224499224499224499224499224499224499224499224922449524a4a4949929492929224952449929424111151444400230a924812840886926844442449498a48524a4929892449a59412494a92242995889424492449aa5245449222124922499244c424414452109188240589882411912491822412491445449220490a92488224922449922449414a25499224499224939444922429499224492489249124511445922449922449922449922449924424499224914492446524924812499224a9962422228a88086044414448441022184aa211111149124949148944221141241289924444109148242289242222228a8888888888888888888820229148444444444414111111119148244912110922491291482422222222882425492449249124492488888888882449121111114044104a9c14444a92248a48044949228924914412898888442222922449222222412449244512492449249248342525092225522222114992444451092225882422229200124922492449924892d4689448101111912489241149028844104a9c1424254912259220294924912492241191482412898824491211110591249114492449924892249a929204498994249124491245258894202284109204904822892449124952a351b28888888888888888202289528992a2249224494424884492881289444444848808a22411111111111111114144442449922489880411111111912c22111111111111414412a51225a5242222222222825014099288888888888888209148a48888882849924491248048049100028844514422492448248a22121121220820024814452444841022228248a22822212222228882128d0411111111512488124514445211952241444444449120254514445131d2925150894644441211212288442291202222499224111101442408294e9200928a044922222288a6a424414a4444122409424444124022892449004922496a34a925492222222222822455220924499212111145029148249a2449922425250551d4485a3294a6a05211119124254992248992242949492489024902482a495292244992244902494a4a2222a2499224a9a42449922449922425499224294992a4209044924088602889464444244949922491942449a424499224499224494a4a225124929424119104499224499224494949449224498a48442212111141444444442291888844101191a44444441409444424499224111101442490041040925292881011489252928848020124a5181111c088021121118110412814914400230a441289044204a1b0a44948082149022950128d88884829492405902449128944a288442212052222118110229824854aa24412244944202222224924892491244992884424225120221211882449224992144992481299a4922891044992482412118148442212052222118124a9c82495448924489222101111892449229124494444440291402449101145221189402422918844228490888890888808444444342202882810118908840842a1880820a24044242210220885258d8800220a4422914804128944221188482492880452242689464444a49424492449522222440422221289442222222282888888884892884024221189021191884092420493142a51220992a408444424499224499224111111094402912441244a924812884422111121848888908888042222221a110144144892241022184a2aa2400249a52425292211499294544a4992a424551511894892a84891544a5292282289a22292282a80001255922429912492245549521249922449010490aa482412294992244925a92aa224499224a99494544a528a442595940490245592aaa224914822519248a288442449524aa4228aa248449224454422929424492a25499214118924494a2292920490549224559244525229252229495289448a4449aa2449924a2a4992a4920200"},"methodIdentifiers":{"addLiquidity(uint256)":"51c6590a","allowance(address,address)":"dd62ed3e","approve(address,uint256)":"095ea7b3","balanceOf(address)":"70a08231","decimals()":"313ce567","getOutputAmountFromSwap(uint256,uint256,uint256)":"acb3159e","getReserve()":"59bf5d39","name()":"06fdde03","pasToTokenSwap(uint256)":"c6dd61d2","removeLiquidity(uint256)":"9c8f9f23","symbol()":"95d89b41","tokenAddress()":"9d76ea58","tokenToPasSwap(uint256,uint256)":"d1aa868c","totalSupply()":"18160ddd","transfer(address,uint256)":"a9059cbb","transferFrom(address,address,uint256)":"23b872dd"}},"hash":"1d833a0f47a5f095c32af6fe6c5323be384500f8705213960470ec65a87f380a","factoryDependencies":{}}}}